:100000000C943F010C94CB0D0C94A40D0C9467013F
:100010000C9467010C9467010C9467010C946701C0
:100020000C9467010C9467010C9467010C946701B0
:100030000C9467010C9467010C9467010C946701A0
:100040000C945A0D0C9467010C94EF080C94C90899
:100050000C9467010C9467010C9467010C94670180
:100060000C9421090C94670108000000BE922449F9
:10007000123EABAAAA2ABECDCCCC4C3E00000080DA
:10008000BEABAAAAAA3E00000000BF000000803F4D
:100090000000000000084178D3BB4387D1133D190D
:1000A0000E3CC3BD4282AD2B3E68EC8276BED98F3A
:1000B000E1A93E4C80EFFFBE01C4FF7F3F0000007E
:1000C0000000537461727475702E2E2E004C412006
:1000D0004F564552564F4C544147452E2E2E2053D5
:1000E000544F5050494E47004C4F4144204F5645C5
:1000F0005243555252454E542E2E2E2053544F509B
:1001000050494E47005056204F564552564F4C547A
:100110004147452E2E2E2053544F5050494E4700F4
:100120005056204F56455243555252454E542E2E4E
:100130002E2053544F5050494E470020002000209D
:1001400000200020002000200020002000200020AF
:1001500000200020002000200020002000000000DF
:1001600000250028002B00040404040404040402F5
:100170000202020202030303030303010204081044
:100180002040800102040810200102040810200011
:100190000000080002010000030407000000000046
:1001A000000000417474656D7074696E6720746F2F
:1001B00020636C656172204F4344206572726F72D8
:1001C00000417474656D7074696E6720746F20638C
:1001D0006C65617220534344206572726F720041F6
:1001E0007474656D7074696E6720746F20636C65DC
:1001F0006172204F56206572726F7200417474658F
:100200006D7074696E6720746F20636C6561722015
:100210005556206572726F7200417474656D70740A
:10022000696E6720746F20636C65617220416C6534
:100230007274206572726F7200417474656D7074AF
:10024000696E6720746F20636C656172205852205C
:100250006572726F72004C41204F564552435552A1
:1002600052454E542E2E2E2053544F5050494E4737
:100270000000000000240027002A000011181124AB
:100280001FBECFEFD8E0DEBFCDBF11E0A0E0B1E0F0
:10029000E4E1F9E302C005900D92AA3EB107D9F757
:1002A00024E0AAEEB1E001C01D92A436B207E1F746
:1002B00011E0CFE3D1E004C02197FE010E94721C3F
:1002C000CE33D107C9F70E94F20D0C94881C0C9410
:1002D0000000009769F0FC0101900020E9F73197D8
:1002E000AF01481B590BBC018BE992E00C94960CB2
:1002F00080E090E008958F929F92AF92BF920F930B
:100300001F93CF93DF93CDB7DEB7A1970FB6F894C5
:10031000DEBF0FBECDBF19A2423008F44AE08E0105
:100320000F5D1F4F842E912CA12CB12CA50194019F
:100330000E94081CE62FB901CA0101501109EA30D8
:1003400014F4E05D01C0E95CD801EC93232B242B6D
:10035000252B61F7C8010E946901A1960FB6F89498
:10036000DEBF0FBECDBFDF91CF911F910F91BF9028
:10037000AF909F908F9008950F931F93CF93DF932B
:100380008C01C0E0D0E0F801EC0FFD1F6491662302
:1003900071F0E0919B02F0919C020190F081E02DC0
:1003A0008BE992E00995892B11F02196ECCFCE01D3
:1003B000DF91CF911F910F910895E0919B02F091F1
:1003C0009C020190F081E02D682F8BE992E0099466
:1003D0004F925F926F927F928F929F92AF92BF9255
:1003E000CF92DF92EF92FF926B017C01B42E9B01C2
:1003F000AC010E94A61B882319F08BED91E027C069
:1004000026013701E89477F82FEF3FEF4FE75FE7DA
:10041000C301B2010E94A61B81110DC02FEF3FEF57
:100420004FE75FE7C301B2010E94851918161CF45B
:100430008FED91E00CC02FEF3FEF4FE75FE4C70176
:10044000B6010E94E41A181684F483EE91E0FF903E
:10045000EF90DF90CF90BF90AF909F908F907F9064
:100460006F905F904F900C9469012FEF3FEF4FE733
:100470005FECC701B6010E94851987FDE6CF20E039
:1004800030E0A901C701B6010E94851987FF09C0A4
:100490008DE20E94DD014C01F7FAF094F7F8F09438
:1004A00002C0812C912CA12C60E070E080E09FE3E1
:1004B000AB1441F020E030E040E251E40E948A19A0
:1004C000A394F6CF9B01AC01C701B6010E94191994
:1004D0002B013C010E94031A6B017C010E94321A1D
:1004E0009B01AC01C301B2010E9418192B013C0110
:1004F0004AE0C701B6010E947B017C01E80CF91CAF
:10050000BB2029F08EE20E94DD01E80EF91EDB2CF3
:10051000DD2021F120E030E040E251E4C301B201EE
:100520000E94391B2B013C010E94031A4B01A12C94
:10053000B12C4AE0C501B4010E947B01E80EF91E0E
:10054000C501B4010E94321A9B01AC01C301B20182
:100550000E9418192B013C01DA94DACFC701FF90F1
:10056000EF90DF90CF90BF90AF909F908F907F9053
:100570006F905F904F900895CF92DF92EF92FF922D
:10058000CF93DF936C01990FEE08FF08F7FE17C0B9
:100590008DE20E94DD01EC0166277727CB016C1903
:1005A0007D098E099F094AE00E947B018C0F9D1FE7
:1005B000DF91CF91FF90EF90DF90CF9008954AE0C8
:1005C000C701B601DF91CF91FF90EF90DF90CF9000
:1005D0000C947B010C94E80187EE91E00C94690186
:1005E00020919A0290919902213208F04AC080919C
:1005F00076028111FCCF32E03093760231E0309305
:1006000075023FEF309374021092730220937202CE
:10061000A9E7B2E042E552E0FA013E2F341B32175F
:1006200018F43D913193F9CF10925102209151026B
:10063000990F922B9093510290915002913061F456
:1006400010925002909151029093BB009091BC0087
:1006500093FDF8CF95EC01C095EE9093BC0090917E
:1006600076029230E1F3909174029F3F79F080918D
:100670007402803241F080917402803331F084E062
:1006800005C081E003C082E001C083E010927802DF
:1006900010929A02109277020895CF93C62F9091EC
:1006A000440321E0209377029093990210927802FC
:1006B00010929A02682F88E393E00E94E6076C2F5D
:1006C00088E393E00E94E607CF910C94F0029091AA
:1006D00076029111FCCF91E090937602909375028F
:1006E0002FEF2093740210927302260F2093720250
:1006F0009093510290915102880F892B809351025F
:1007000080915002813061F4109250028091510228
:100710008093BB008091BC0083FDF8CF85EC01C0C5
:1007200085EE8093BC00809176028130E1F3809168
:100730007302861710F460917302A2E5B2E020E321
:1007400032E0F9018E2F821B861718F48D91819368
:10075000F9CF862F0895CF93DF93C4E4D3E0988137
:1007600021E02093770290939902109278021092E0
:100770009A02682F88E393E00E94E6070E94F00245
:1007800061E088810E94670310922F0280932E02FD
:1007900088E393E0DF91CF910C949A07CF93DF9396
:1007A0000E94BC01EC010E94EC028C0F9D1FDF91A6
:1007B000CF910895AF92BF92CF92DF92EF92FF92C6
:1007C0000F931F93CF93DF938AE20E94AB03182FFE
:1007D0008BE20E94AB03EC0160919403709195034E
:1007E000072E000C880B990B0E94341A20E030E091
:1007F00040E850E40E94391B6B017C0180E090E0EE
:10080000912F8C2B9D2BBC01990F880B990B0E946B
:10081000341A9B01AC01C701B6010E94391B20E0CC
:1008200030E04AE754E40E948A196B017C01809110
:10083000960390919703880F991F880F991FBC0109
:10084000990F880B990B0E94341A9B01AC01C701C8
:10085000B6010E9419190E94FC1960936D037093F0
:100860006E0380936F03909370038091440391E033
:1008700090937702809399021092780210929A02D4
:100880006CE088E393E00E94E6070E94F00260912A
:100890004B03660F613208F060E2809144030E94CE
:1008A000670310922F0280932E0290E020914B0359
:1008B00030914C03220F331F8217930709F05BC05E
:1008C00010926B0310926C030DE413E0C0E0D0E0D3
:1008D00068EEC62E63E0D62EE12CF12C80914B03FE
:1008E00090914C03C817D9070CF045C088E393E0FA
:1008F0000E949A075C0188E393E00E949A079501A1
:100900002F733327322F2227282B392BA0919403C2
:10091000B09195030E94491CA70196010E942A1CD0
:100920008091960390919703280F391FF801219326
:1009300031938F01E0916B03F0E0EE0FFF1FEC5B52
:10094000FC4F818592858217930714F4C0936B0343
:10095000E0916C03F0E0EE0FFF1FEC5BFC4F818534
:100960009285281739072CF4253F314014F0C093A5
:100970006C032196B3CFDF91CF911F910F91FF9020
:10098000EF90DF90CF90BF90AF900895CF93DF931B
:10099000D82F80E00E94AB03C82FDD2309F44CC0A0
:1009A00082E30E94AB03D82F83E30E94AB0360E095
:1009B00070E07D2F862B972BBC01990F880B990B2C
:1009C0000E94341A2DE33AE047E051E40E94391BBB
:1009D00020E030E040EA50E40E948A190E94FC19AD
:1009E0006093710370937203809373039093740305
:1009F000462F572FBC0177FF07C070956095509523
:100A000041955F4F6F4F7F4F809183039091840397
:100A1000092E000CAA0BBB0B84179507A607B70776
:100A200084F40E944E0D60939E0370939F03809305
:100A3000A0039093A10305C087FDB2CFDF91CF91B2
:100A40000895CF7311F410924A0360E870E080E0DB
:100A5000DF91CF910C944D030F931F93CF93DF93AE
:100A600080914A03811107C0809198039091990366
:100A7000009709F4E4C080E00E94AB03EC0187FF1B
:100A800003C081E00E94C6048C2F8F7309F4CFC08D
:100A900080914A03882321F01092A3031092A203AD
:100AA000CE01992790939903809398030E944E0D4D
:100AB0000091A4031091A5032091A6033091A703F0
:100AC000601B710B820B930B28EE33E040E050E08B
:100AD0000E94081CB9018091A2039091A3032817DA
:100AE000390749F0F901E81BF90B339720F03093EF
:100AF000A3032093A2038091A2039091A3036817FC
:100B0000790708F498C0C5FF0FC063E070E00E9449
:100B1000E01B892B49F489E392E00E94CE0360E256
:100B200070E080E00E944D03C4FF13C08091A203D7
:100B30009091A3036AE070E00E94E01B892B49F4C6
:100B400089E192E00E94CE0360E170E080E00E94C3
:100B50004D03C3FF1BC00E94DA03E0916C03F0E079
:100B6000EE0FFF1FEC5BFC4F2185328580918F03D8
:100B700090919003821793074CF48CEF91E00E94C0
:100B8000CE0368E070E080E00E944D03C2FF1BC00E
:100B90000E94DA03E0916B03F0E0EE0FFF1FEC5BC5
:100BA000FC4F2185328580918D0390918E0328170B
:100BB00039074CF48FED91E00E94CE0364E070E0C1
:100BC00080E00E944D03C1FF13C08091A203909169
:100BD000A3036CE370E00E94E01B892B49F481ECD5
:100BE00091E00E94CE0362E070E080E00E944D033D
:100BF000C0FF13C08091A2039091A3036CE370E047
:100C00000E94E01B892B49F483EA91E00E94CE0305
:100C100061E070E080E00E944D038091A20390911A
:100C2000A30301969093A3038093A20304C01092A0
:100C30009903109298038091980390919903DF9102
:100C4000CF911F910F910895CF93DF9342E00E94BF
:100C5000E801EC010E94EC028C0F9D1FDF91CF9107
:100C6000089590E0FC01E157FE4F3491FC01E558F6
:100C7000FE4F2491FC01E959FE4FE491EE2309F463
:100C80003BC0332339F1333091F038F43130A9F0DF
:100C9000323001F584B58F7D12C0373091F0383095
:100CA000A1F03430B9F4809180008F7D03C0809131
:100CB00080008F77809380000DC084B58F7784BDCE
:100CC00009C08091B0008F7703C08091B0008F7D04
:100CD0008093B000F0E0EE0FFF1FE35AFE4FA591A6
:100CE000B4918FB7F894EC91611103C020952E2335
:100CF00001C02E2B2C938FBF0895FC01538D448D82
:100D0000252F30E0842F90E0821B930B541710F0B6
:100D1000CF96089501970895FC01918D828D9817C3
:100D200061F0828DDF01A80FB11D5D968C91928DCF
:100D30009F5F9F73928F90E008958FEF9FEF0895CC
:100D4000FC01918D828D981731F0828DE80FF11D95
:100D5000858D90E008958FEF9FEF0895FC01918DB0
:100D6000228D892F90E0805C9F4F821B91098F73A9
:100D7000992708958BE992E00E94AE0621E0892B25
:100D800009F420E0822F0895FC01848DDF01A80F73
:100D9000B11DA35ABF4F2C91848D90E001968F73A3
:100DA0009927848FA689B7892C93A089B1898C91C2
:100DB00080648C93938D848D981306C00288F38988
:100DC000E02D80818F7D80830895EF92FF920F93B5
:100DD0001F93CF93DF93EC0181E0888F9B8D8C8DE7
:100DE000981305C0E889F989808185FD24C0F62E15
:100DF0000B8D10E00F5F1F4F0F731127E02E8C8DAE
:100E0000E8120CC00FB607FCFACFE889F989808197
:100E100085FFF5CFCE010E94C406F1CF8B8DFE0178
:100E2000E80FF11DE35AFF4FF0820B8FEA89FB892F
:100E30008081806207C0EE89FF896083E889F98933
:100E400080818064808381E090E0DF91CF911F9169
:100E50000F91FF90EF900895CF93DF93EC01888D71
:100E60008823C9F0EA89FB89808185FD05C0A889AE
:100E7000B9898C9186FD0FC00FB607FCF5CF808134
:100E800085FFF2CFA889B9898C9185FFEDCFCE017E
:100E90000E94C406E7CFDF91CF91089580E090E0F3
:100EA000892B29F00E94BA0681110C940000089544
:100EB00085ED8093BC008091BC0084FDFCCF109236
:100EC0007602089540913604262F30E0240F311D1C
:100ED00021323105DCF4209176022430C9F4FC0182
:100EE00080E090E0861758F4309136042191DC01BF
:100EF000AC5EBB4FA30FB11D2C930196F3CF809135
:100F00003604680F6093360480E0089581E0089508
:100F100082E008950895E0912F0280912E02E81753
:100F200030F4F0E0E05DFD4F808190E008958FEFB8
:100F30009FEF089590912F0280912E02981750F400
:100F4000E92FF0E0E05DFD4F208130E09F5F90935E
:100F50002F0202C02FEF3FEFC901089580912E02AA
:100F600090E020912F02821B91090895CF92DF9289
:100F7000EF92FF920F931F93CF93DF937C01262F65
:100F8000972F8A0180917702882391F0C62FD72F5F
:100F90006E01C40ED51ECC15DD0571F06991D70127
:100FA000ED91FC910190F081E02DC7010995F3CFFF
:100FB000642F822F0E946207C801DF91CF911F9199
:100FC0000F91FF90EF90DF90CF900895CF93DF9334
:100FD0001F92CDB7DEB76983209177022223D1F02B
:100FE00020919A02203240F021E030E0FC0133836E
:100FF000228380E090E015C080917802E82FF0E035
:10100000E758FD4F998190838F5F8093780280939A
:101010009A0205C061E0CE0101960E94620781E05C
:1010200090E00F90DF91CF910895089580E090E0D7
:1010300008950E94781CCF93DF93C091EA01D0916C
:10104000EB01209759F00E944E0DFE01E05AFF4F30
:10105000608371838283938381E08E83DF91CF915C
:101060000895CF92DF92EF92FF920F931F93CF9349
:10107000DF93C82F8330F1F050F48130A1F082303B
:1010800029F581E0809313041092120418C0843073
:10109000C9F08530D9F4109213041092120481E043
:1010A0008093110413C08093130410921204809350
:1010B00011040CC01092130481E08093120410926A
:1010C000110404C081E080931304F7CF60911304EE
:1010D0008EE00E943106609112048FE00E9431067A
:1010E0006091110480E10E94310661E070E080E0CF
:1010F00090E00E94140DD4E6C12CD12C760103ECB3
:1011000010E081E10E94FD0CBC01990F880B990B46
:101110000E94341A9B01AC01C701B6010E94191943
:101120006B017C01C8010197F1F7D15051F720E024
:1011300030E048EC52E4C701B6010E948A19C15060
:10114000C53098F424E0C29FD0011124FD01EE586F
:10115000FE4F2081318142815381FD01E25AFE4FD1
:10116000C080D180E280F38005C0C12CD12C7601F3
:10117000A70196010E94391BA70196010E94191927
:10118000DF91CF911F910F91FF90EF90DF90CF9063
:1011900008951F920F920FB60F9211242F933F9331
:1011A0004F935F936F937F938F939F93AF93BF936F
:1011B000EF93FF938BE992E00E94C406FF91EF91B9
:1011C000BF91AF919F918F917F916F915F914F915F
:1011D0003F912F910F900FBE0F901F9018951F9267
:1011E0000F920FB60F9211242F938F939F93EF932B
:1011F000FF93E091AB02F091AC028081E091B102EB
:10120000F091B20282FD12C090818091B4028F5F92
:101210008F732091B502821751F0E091B402F0E093
:10122000E556FD4F958F8093B40201C08081FF91F8
:10123000EF919F918F912F910F900FBE0F901F9064
:1012400018951F920F920FB60F9211242F933F9370
:101250004F935F936F937F938F939F93AF93BF93BE
:10126000EF93FF938091B900887F803609F49CC08A
:1012700068F5883209F45BC090F4803109F454C0F9
:1012800038F4882309F4F6C0883009F44DC0F6C05C
:10129000883109F44CC0803209F45DC0EFC080345D
:1012A00009F468C048F4803309F455C0883309F064
:1012B000E5C080937402D8C0803509F44FC08835EA
:1012C00009F45DC0883409F0D9C0D6C0883909F462
:1012D000C7C0A8F4883709F467C038F4883609F421
:1012E00063C0803709F460C0C9C0883809F4B8C049
:1012F000803909F45FC0803809F0C0C05BC0803B12
:1013000009F486C038F4803A09F466C0883A09F4D2
:101310007FC0B4C0803C09F4A7C0883C09F4A4C0D5
:10132000883B09F48AC0AAC08091510210C09091F4
:10133000730280917202981770F5E091730281E058
:101340008E0F80937302F0E0EE5AFD4F8081809300
:10135000BB0085EC86C0809374028EC0E09173025E
:1013600081E08E0F809373028091BB00F0E0EE5A13
:10137000FD4F808390917302809172026EC0E09164
:10138000730281E08E0F809373028091BB00F0E0C6
:10139000EE5AFD4F80838091750281116DC081E00E
:1013A0008093500284EA61C083E0809376021092B9
:1013B0005A04CFCF80915A04803208F051C0E09196
:1013C0005A0481E08E0F80935A048091BB00F0E0B4
:1013D000E65CFB4F8083BDCF85EC8093BC00109210
:1013E000760280915A04803230F4E0915A04F0E0A1
:1013F000E65CFB4F108260915A0470E0E091380483
:10140000F09139048AE394E0099510925A0436C0A9
:1014100084E0809376021092370410923604E091B3
:101420003404F0913504099580913604811105C08A
:1014300081E08093360410921404E091370481E037
:101440008E0F80933704F0E0EC5EFB4F8081809339
:10145000BB009091370480913604981708F479CF37
:1014600085E88093BC000AC085EC8093BC00109294
:10147000760204C0109274020E945807FF91EF9107
:10148000BF91AF919F918F917F916F915F914F919C
:101490003F912F910F900FBE0F901F9018950F93B3
:1014A0001F930E944E0D00910A0110910B01209193
:1014B0000C0130910D01601771078207930710F43A
:1014C00061E001C060E085E01F910F910C9431064E
:1014D000CF92DF92EF92FF92CF93DF938091090139
:1014E000882399F060910E0170910F018091100195
:1014F000909111010E94FC196B017C01EB0161E0EC
:1015000089E00E94C10C209711F460E004C0CF3F35
:10151000D10551F461E089E0DF91CF91FF90EF9028
:10152000DF90CF900C943106E8E9F1E0E491E330EC
:10153000F9F048F4E130B9F0E230A1F584B5806209
:1015400084BDC8BC34C0E730E9F0E83019F1E430BC
:1015500049F580918000806280938000D0928B005A
:10156000C0928A0024C084B5806884BDC7BC1FC0F7
:1015700080918000806880938000D0928900C09222
:10158000880015C08091B00080688093B000C09240
:10159000B3000DC08091B00080628093B000C09213
:1015A000B40005C0C038D1050CF0B4CFAECFDF9188
:1015B000CF91FF90EF90DF90CF9008958091080138
:1015C000882311F061E001C060E087E00C943106EF
:1015D0008091EC0190910902981709F45FC060E0D6
:1015E000813099F187E00E94310660E085E00E9439
:1015F000310664E670E080E090E00E94140D0E94E5
:101600002C05892B49F485E00E94AB03BC016C7F5B
:10161000772785E00E944D036AE070E080E090E06B
:101620000E94140D60E086E00E94310664E670E0DE
:1016300080E090E00E94140D80910801882351F110
:1016400061E087E00E94310625C087E00E943106F4
:1016500060E085E00E94310664E670E080E090E0A2
:101660000E94140D61E086E00E9431066AE070E09D
:1016700080E090E00E94140D0E942C05892BB1F6A9
:1016800085E00E94AB038360682F70E085E00E94D4
:101690004D03CCCF8091EC018093090208958F9285
:1016A0009F92AF92BF92CF92DF92EF92FF920F93F1
:1016B0001F93CF93DF9381E00E94310860930A0269
:1016C00070930B0280930C0290930D0282E00E94B3
:1016D0003108DC01CB01B0588093050290930602DB
:1016E000A0930702B093080283E00E943108609340
:1016F000F5017093F6018093F7019093F80184E06F
:101700000E9431086093F1017093F2018093F3011C
:101710009093F40185E00E9431086093ED0170938D
:10172000EE018093EF019093F00160916D03709151
:101730006E03072E000C880B990B0E94341A6093DD
:10174000FD017093FE018093FF0190930002C4E6B7
:10175000C12CD12C760103EC10E085E10E94FD0C38
:10176000BC01990F880B990B0E94341A9B01AC01A4
:10177000C701B6010E9419196B017C01C8010197CC
:10178000F1F7C15051F720E030E048EC52E4C701D6
:10179000B6010E948A192EE634E340E85EE30E9417
:1017A000391B2BE734E144EA51E40E941819609395
:1017B0000D0470930E0480930F0490931004C5EEF3
:1017C000D3E0FE0184819581A681B78181939193B5
:1017D000A193B19324E0E930F207A1F780910502CB
:1017E00090910602A0910702B0910802809309042B
:1017F00090930A04A0930B04B0930C0460E070E093
:10180000CB0129913991499159910E94191924E0EC
:10181000CD30D207B1F720E030E040E251E40E9441
:101820008A196093010270930202809303029093DD
:101830000402C090F901D090FA01E090FB01F09011
:10184000FC016091710370917203072E000C880BEC
:10185000990B0E94341A4B015C0120E030E04AE70A
:1018600054E4C701B6010E9419199B01AC01C501DE
:10187000B4010E94E41A181644F08092F901909283
:10188000FA01A092FB01B092FC0120E030E04AE7AF
:1018900054E4C701B6010E9418199B01AC01609184
:1018A000F9017091FA018091FB019091FC010E9475
:1018B000851987FF08C0C092F901D092FA01E09221
:1018C000FB01F092FC01DF91CF911F910F91FF90EE
:1018D000EF90DF90CF90BF90AF909F908F90089542
:1018E0003FB7F8948091600490916104A0916204E4
:1018F000B091630426B5A89B05C02F3F19F001964F
:10190000A11DB11D3FBFBA2FA92F982F8827820F85
:10191000911DA11DB11DBC01CD0142E0660F771FD5
:10192000881F991F4A95D1F708950895CF92DF92A5
:10193000EF92FF920F931F93CF93DF936C017A0185
:101940008B01C0E0D0E0CE15DF0589F0D8016D91A4
:101950008D01D601ED91FC910190F081E02DC60141
:101960000995892B11F47E0102C02196ECCFC701A5
:10197000DF91CF911F910F91FF90EF90DF90CF906B
:101980000895CF93DF9390E0FC01E558FE4F24913A
:10199000FC01E959FE4F8491882361F190E0880FA2
:1019A000991FFC01EF58FD4FC591D491FC01E35AFA
:1019B000FE4FA591B491611109C09FB7F894888139
:1019C000209582238883EC912E230BC0623061F432
:1019D0009FB7F8943881822F809583238883EC9178
:1019E0002E2B2C939FBF06C08FB7F894E8812E2B27
:1019F00028838FBFDF91CF9108958E3008F08E50ED
:101A00008770806480937C0080917A0080648093EA
:101A10007A0080917A0086FDFCCF80917800209139
:101A2000790090E0922B08958F929F92AF92BF928F
:101A3000CF92DF92EF92FF926B017C010E94700CBB
:101A40004B015C01C114D104E104F104F1F00E94E6
:101A5000700CDC01CB0188199909AA09BB09883EE1
:101A60009340A105B10570F321E0C21AD108E10845
:101A7000F10888EE880E83E0981EA11CB11CC114E9
:101A8000D104E104F10419F7DDCFFF90EF90DF906E
:101A9000CF90BF90AF909F908F9008952FB7F894FC
:101AA00060915C0470915D0480915E0490915F048C
:101AB0002FBF08951F920F920FB60F9211242F93EC
:101AC0003F938F939F93AF93BF9380915C049091CA
:101AD0005D04A0915E04B0915F0430915B0423E04B
:101AE000230F2D3720F40196A11DB11D05C026E856
:101AF000230F0296A11DB11D20935B0480935C040B
:101B000090935D04A0935E04B0935F0480916004A1
:101B100090916104A0916204B09163040196A11DAB
:101B2000B11D8093600490936104A0936204B0930C
:101B30006304BF91AF919F918F913F912F910F902F
:101B40000FBE0F901F9018951F920F920FB60F9215
:101B500011242F933F934F935F936F937F938F93B2
:101B60009F93AF93BF93EF93FF93E0911801F09190
:101B700019010995FF91EF91BF91AF919F918F91BD
:101B80007F916F915F914F913F912F910F900FBE79
:101B90000F901F9018951F920F920FB60F9211245D
:101BA0002F933F934F935F936F937F938F939F9365
:101BB000AF93BF93EF93FF93E0911601F09117015C
:101BC0000995FF91EF91BF91AF919F918F917F9177
:101BD0006F915F914F913F912F910F900FBE0F909A
:101BE0001F901895CF93DF93CDB7DEB728970FB628
:101BF000F894DEBF0FBECDBF789484B5826084BDFB
:101C000084B5816084BD85B5826085BD85B5816000
:101C100085BD80916E00816080936E00109281007E
:101C20008091810082608093810080918100816039
:101C300080938100809180008160809380008091FA
:101C4000B10084608093B1008091B0008160809386
:101C5000B00080917A00846080937A0080917A004D
:101C6000826080937A0080917A00816080937A000C
:101C700080917A00806880937A001092C10061E0C0
:101C80008EE00E94C10C61E08FE00E94C10C61E017
:101C900080E10E94C10C60E081E10E94C10C61E022
:101CA00086E00E94C10C61E089E00E94C10C61E005
:101CB00087E00E94C10C60E086E00E94310660E08F
:101CC00089E00E94310660E087E00E943106809141
:101CD0008100887F856080938100E091AB02F09164
:101CE000AC0282E08083E091A702F091A80210820A
:101CF000E091A902F091AA0280E180831092B302E0
:101D0000E091AF02F091B00286E08083E091AD02F5
:101D1000F091AE02808180618083E091AD02F0910C
:101D2000AE02808188608083E091AD02F091AE02C6
:101D3000808180688083E091AD02F091AE02808165
:101D40008F7D80838091E403811148C0E091C803B6
:101D5000F091C903C080D180E280F380C092D003AB
:101D6000D092D103E092D203F092D303E091C60364
:101D7000F091C70380819181A281B3818093D403C4
:101D80009093D503A093D603B093D7038090E0033C
:101D90009090E103A090E203B090E303A5019401C9
:101DA000C701B6010E94E41A181684F08090DC0383
:101DB0009090DD03A090DE03B090DF03A5019401B5
:101DC000C701B6010E94851987FF08C08092D00321
:101DD0009092D103A092D203B092D30311E010935A
:101DE000E40382EC90E00E94CE0310922F02109246
:101DF0002E021092780210929A021092760210939C
:101E000075021092500261E082E10E94310661E0A9
:101E100083E10E9431068091B9008E7F8093B900E2
:101E20008091B9008D7F8093B90088E48093B800D9
:101E300085E48093BC0010924E0310924D031092E3
:101E4000500310924F0310925203109251031092BC
:101E500054031092530361E08FEF0E94C10C61E0C4
:101E60008FEF0E94310665E070E080E090E00E9414
:101E7000140D60E08FEF0E94C10C6AE070E080E01A
:101E800090E00E94140D69E170E08BE00E944D0328
:101E90008BE00E94AB03499791F568E170E084E024
:101EA0000E944D0360E470E085E00E944D0384E4ED
:101EB00093E09093EB018093EA0181E50E94AB03EC
:101EC000909397038093960380E50E94AB038C0167
:101ED00089E50E94AB03807E9927F5E0959587956B
:101EE000FA95E1F70C701127000F111F802B912B31
:101EF00083599E4F909395038093940306C08AE87C
:101F000091E00E9469010E94EC0288E39FEF9093A8
:101F100088038093870382EC91E090938C038093F5
:101F20008B03109286031092850390938A0380930B
:101F3000890385E0809347036FE970E086E00E94A3
:101F40004D0310E02091470330E0A0E4BFE10E9480
:101F5000511C28EE33E040E050E00E942A1CEAE5E4
:101F6000F1E08FE190E0729162916B01770FEE08E2
:101F7000FF082C153D054E055F0534F08F70612F6D
:101F8000607F162F182B02C0019769F71067612F29
:101F900070E087E00E944D0388E29AE090939003FE
:101FA00080938F0388E00E94AB03182F80919603E3
:101FB00090919703092E000CAA0BBB0B48E25AE044
:101FC00060E070E09A01AB01281B390B4A0B5B0BF8
:101FD000A8EEB3E00E94671C209194033091950312
:101FE000032E000C440B550B0E942A1CDA01C90178
:101FF00064E0B595A795979587956A95D1F721E007
:10200000280F622F70E08AE00E944D03612F606C00
:1020100070E088E00E944D0382E49EE090938E037E
:1020200080938D0388E00E94AB03182F8091960364
:1020300090919703092E000CAA0BBB0B42E45EE0C3
:1020400060E070E09A01AB01281B390B4A0B5B0B77
:10205000A8EEB3E00E94671C209194033091950391
:10206000032E000C440B550B0E942A1CDA01C901F7
:1020700074E0B595A795979587957A95D1F7682FD0
:1020800070E089E00E944D03612F606370E088E09A
:102090000E944D0310929D0310929C0384EE9CE0DD
:1020A000909392038093910384E18093930384E659
:1020B00090E0909384038093830381E080939A035C
:1020C0000E944F0B2EE03DE242EB5DE360910A027D
:1020D00070910B0280910C0290910D020E94391BAD
:1020E00020E030E04AE754E40E94181960930401AC
:1020F0007093050180930601909307010E944E0D95
:1021000060931B0270931C0280931D0290931E0229
:1021100022242394312C0E944F0B20E030E04AE728
:1021200056E460910A0270910B0280910C0290912A
:102130000D020E94E41A1816F4F481E08093EC0179
:102140000E94E80A109208010E94DE0A109209011A
:102150000E94680A0E94E8188DEC90E00E94CE036D
:1021600060910A0270910B0280910C0290910D0215
:102170000E942406FFCFC0900502D0900602E09096
:102180000702F090080220E030E44CE955E4C70172
:10219000B6010E94E41A181614F40E94FA1820E0FE
:1021A00030EC4AE556ECC701B6010E94851987FD5F
:1021B000F4CF8090ED019090EE01A090EF01B090EF
:1021C000F00120E030EC4AE556E4C501B4010E947C
:1021D000E41A1816ECF4109208010E94DE0A10921C
:1021E00009010E94680A1092EC010E94E80A0E940C
:1021F000E81888EE90E00E94CE036091ED017091A6
:10220000EE018091EF019091F0010E942406FFCF32
:1022100020E030E543EC56E46091F5017091F60161
:102220008091F7019091F8010E94E41A1816ECF4DD
:10223000109209010E94680A109208010E94DE0AA9
:102240001092EC010E94E80A0E94E81885E091E0F3
:102250000E94CE036091F5017091F6018091F70123
:102260009091F8010E942406FFCF4090F101509018
:10227000F2016090F3017090F40120E030E44CE949
:1022800055E4C301B2010E94E41A1816ECF410924E
:1022900009010E94680A109208010E94DE0A109249
:1022A000EC010E94E80A0E94E81880E291E00E9496
:1022B000CE036091F1017091F2018091F301909150
:1022C000F4010E942406FFCFA3019201C701B601C9
:1022D0000E9418192091F9013091FA014091FB01F7
:1022E0005091FC010E941919A50194010E9419192D
:1022F00020E030E040EA51E40E94191960930E0298
:1023000070930F02809310029093110280E00E945C
:10231000C6040E94DA038091440391E0909377020F
:10232000809399021092780210929A026CE288E3EC
:1023300093E00E94E6070E94F00262E0809144036D
:102340000E94670310922F0280932E02823009F0C0
:1023500080C088E393E00E949A078C0188E393E0B1
:102360000E949A07B8016F737727762F6627862B0E
:10237000972BBC01990F880B990B0E94341A21E806
:1023800035E943EC5EE30E94391B0E94FC19072EDD
:10239000000C880B990B0E94341A6B017C0120E021
:1023A00030E44CE156E40E94391B4B015C01A7016B
:1023B000960160E070E48EE495E40E9418199B0198
:1023C000AC01C501B4010E948A190E94031A0E943F
:1023D000321A20E030E44CE156E40E948A190E944F
:1023E000F11A6B017C018091480390914903BC0173
:1023F000990F880B990B0E94341A9B01AC0160E085
:1024000070E080E89FE30E948A19A70196010E946C
:10241000391B2FE03FEC4BE55BE30E9419199B0150
:10242000AC0160E070E080E89FE30E948A1923E33A
:1024300033E948E853E40E94181920E030E040E214
:1024400051E40E94391B0E94FC197093760360933B
:1024500075030E944E0D4B015C0140909E0350900D
:102460009F036090A0037090A10380914B03909113
:102470004C0365E070E00E94F41B6B010E942C0588
:10248000892BD9F5C501B401641975098609970925
:1024900028EE33E040E050E00E94081C80919C034D
:1024A00090919D03092E000CAA0BBB0B281739072E
:1024B0004A075B0714F1E0916B03F0E0EE0FFF1F9A
:1024C000EC5BFC4F818592852091910330919203C2
:1024D0002817390794F4E0916C03F0E0EE0FFF1F2A
:1024E000EC5BFC4F21853285821B930B209193037B
:1024F00030E0281739070CF480C180919B038823B2
:1025000011F1812C912C54018394DD24C401019795
:102510008C159D05B4F481EC91E00E9469014AE0BC
:10252000C501B4010E947B010E94EC0260E070E0F2
:10253000882D0E944D03BFEF8B1A9B0AAB0ABB0A82
:10254000E5CF10929B030E944E0DC0901B02D090CD
:102550001C02E0901D02F0901E02970186010851B6
:102560001C4F2F4F3F4F061717072807390708F052
:1025700070C00E944E0D6C197D098E099F090E9442
:10258000321A20E030E04AE754E40E948A196B01D5
:102590007C01209105023091060240910702509182
:1025A00008020E94391B20E030E041E655E40E9419
:1025B0008A1920E030E048EB51E40E948A199B011F
:1025C000AC01609104017091050180910601909128
:1025D00007010E941919609304017093050180930B
:1025E0000601909307012091F9013091FA01409181
:1025F000FB015091FC01C701B6010E94391B20E08C
:1026000030E041E655E40E948A1920E030E040E4E1
:1026100051E40E948A199B01AC0160910001709104
:10262000010180910201909103010E9419196093A8
:1026300000017093010180930201909303010E94B5
:102640004E0D60931B0270931C0280931D029093A9
:102650001E028090F1019090F201A090F301B090E1
:10266000F401C090ED01D090EE01E090EF01F09008
:10267000F00120E030E040EF51E4C701B6010E94D4
:1026800019199B01AC01C501B4010E94E41A87FD30
:1026900002C082E011C020E030E040EF51E4C70109
:1026A000B6010E9418199B01AC01C501B4010E943A
:1026B0008519181624F081E08093290202C0109237
:1026C0002902109129021130C1F098F0123009F05E
:1026D00046C020E030E048EC52E460910001709187
:1026E000010180910201909103010E94851987FFE9
:1026F00022C081E08093EC0132C020E030E040E76E
:1027000052E460910401709105018091060190915D
:1027100007010E94E41A181664F7A5019401C70185
:10272000B6010E94181920E030E048EC53E40E9402
:10273000E41A87FD03C01092EC0111C020E030E0E4
:1027400040E752E460910001709101018091020123
:10275000909103010E94E41A18165CF2ECCF80916C
:10276000EC01811110C01092270280912802833061
:1027700029F0111103C01092280210C0113071F419
:10278000109328020BC010922802111103C010925E
:10279000270204C0113011F4109327020E94E80AA6
:1027A000C090F501D090F601E090F701F090F801AB
:1027B00010910902111109C060910A0270910B0277
:1027C00080910C0290910D0208C06091FD01709102
:1027D000FE018091FF019091000220E030E048EC82
:1027E00052E40E9419199B01AC01C701B6010E9475
:1027F000E41A18160CF084C0E6C281E080939B03B3
:1028000084E4682E83E0782EA12CB12CDD24AC1456
:10281000BD040CF098CEE0916C03F0E0EE0FFF1FCA
:10282000EC5BFC4F0184F285E02D4091930350E076
:10283000E12C80E090E0DC01AA0FBB1FA60DB71DC4
:1028400019962D913C911A972E1B3F0B4217530757
:10285000D4F49101082E01C0220F0A94EAF71E2D2C
:10286000122B612F70E02E2D30E0DB01AA0FBB1F71
:10287000A223B323AB2B39F4220F331F2623372394
:10288000232B09F4E12E019685309105A1F682EA09
:1028900091E00E9469018FEFA81AB80AC5010E9451
:1028A000BC0282EB91E00E946901F12C10921202AD
:1028B00058E0852E912C00E810E0C8018E219F2160
:1028C0008017910719F068E871E002C066E871E0CE
:1028D00082E192E00E947D1C1595079591E0891A8E
:1028E000910859F782E192E00E9469010E94EC028E
:1028F000B7018A2D0E944D03AAE06A0E711C87CF92
:102900001092090180912902811103C010922802BE
:1029100004C0813011F4809328020E94DE0A809165
:102920000A0290910B02A0910C02B0910D028093CB
:10293000120190931301A0931401B093150180E04C
:1029400090EDAFE4B6E48093A8039093A903A0931D
:10295000AA03B093AB038091E403882309F418C160
:102960000E944E0D6D837E838F8398878091CC0368
:102970009091CD03A091CE03B091CF034D815E81A4
:102980006F817885481B590B6A0B7B0B8091D803AC
:102990009091D903A091DA03B091DB03481759074E
:1029A0006A077B0708F4F4C02091C6033091C7037F
:1029B000D9018D919D910D90BC91A02D89839A8311
:1029C000AB83BC83E091CA03F091CB039C01AD01C2
:1029D00060817181828193810E9418196B017C0151
:1029E0000E9424062091BC033091BD034091BE0398
:1029F0005091BF03C701B6010E94391B2091D0033B
:102A00003091D1034091D2035091D3030E94191900
:102A10004B015C016093D0037093D1038093D20388
:102A20009093D3034090E0035090E1036090E20361
:102A30007090E303A30192010E94E41A181684F037
:102A40004090DC035090DD036090DE037090DF0364
:102A5000A3019201C501B4010E94851987FF08C036
:102A60004092D0035092D1036092D2037092D3036C
:102A70006091D0037091D1038091D2039091D303E0
:102A80000E9424062091D4033091D5034091D603AF
:102A90005091D70369817A818B819C810E9418199A
:102AA0004B015C010E9424062091B8033091B903C8
:102AB0004091BA035091BB03C701B6010E94391B74
:102AC0002091D0033091D1034091D2035091D30390
:102AD0000E9419196B017C012091C0033091C10340
:102AE0004091C2035091C303C501B4010E94391B38
:102AF0009B01AC01C701B6010E9418196B017C0152
:102B0000A090E003B090E1030091E2031091E30391
:102B10009501A8010E94E41A181684F0A090DC0325
:102B2000B090DD030091DE031091DF039501A80151
:102B3000B601C7010E94851987FF02C065017801AF
:102B4000E091C803F091C903C601D7018083918346
:102B5000A283B383B601C7010E9424060E94EC023F
:102B600089819A81AB81BC818093D4039093D503F2
:102B7000A093D603B093D7038D819E81AF81B88592
:102B80008093CC039093CD03A093CE03B093CF0357
:102B90000E94680A0E944E0D00912A0210912B0299
:102BA00020912C0230912D020C501E4F2F4F3F4F81
:102BB000061717072807390708F000C10E944E0DB5
:102BC00060932A0270932B0280932C0290932D0223
:102BD0000E944E0D4AE00E947B018BE591E00E942D
:102BE000BC018091090290E00E94BC0289E591E05D
:102BF0000E94BC016091290270E080E090E04AE010
:102C00000E947B0187E591E00E94BC01609128024F
:102C100070E080E090E04AE00E947B0185E591E071
:102C20000E94BC016091270270E080E090E04AE0E1
:102C30000E947B0183E591E00E94BC018091090123
:102C400090E00E94BC0281E591E00E94BC0180916D
:102C5000080190E00E94BC028FE491E00E94BC0158
:102C60006091040170910501809106019091070126
:102C700043E050E00E94EA028DE491E00E94BC0132
:102C80006091000170910101809102019091030116
:102C900043E050E00E94EA028BE491E00E94BC0114
:102CA00060910A0270910B0280910C0290910D02CA
:102CB00042E050E00E94EA0289E491E00E94BC01F7
:102CC00060910502709106028091070290910802BE
:102CD00042E050E00E94EA0287E491E00E94BC01D9
:102CE00060910102709102028091030290910402AE
:102CF00042E050E00E94EA0285E491E00E94BC01BB
:102D00006091FD017091FE018091FF0190910002A0
:102D100042E050E00E94EA0283E491E00E94BC019C
:102D20006091F9017091FA018091FB019091FC0191
:102D300042E050E00E94EA0281E491E00E94BC017E
:102D40006091F5017091F6018091F7019091F80181
:102D500042E050E00E94EA028FE391E00E94BC0151
:102D60006091F1017091F2018091F3019091F40171
:102D700042E050E00E94EA028DE391E00E94BC0133
:102D80006091ED017091EE018091EF019091F00161
:102D900042E050E00E94EA028BE391E00E94BC0115
:102DA00060910E0170910F018091100190911101BD
:102DB00042E050E00E94EA020E94EC020E944F0AA8
:102DC0000E944E07A8C9111121C181E08093090119
:102DD00000912902023009F0A0CD1091280215308F
:102DE00009F44DC01330C1F120E030E44EE456E464
:102DF00060910A0270910B0280910C0290910D0279
:102E00000E94851918161CF00093280238C014304F
:102E100009F520E030E040EA51E460910102709150
:102E2000020280910302909104020E9485191816F3
:102E300074F080E090E0A8ECB2E4809304019093F9
:102E40000501A0930601B093070185E016C0109319
:102E5000280215C0133081F420E030E040EA51E44C
:102E6000609101027091020280910302909104022C
:102E70000E9485191816ECF683E080932802809151
:102E80002802843079F1853081F0823009F045CD17
:102E900080E090E0AFE7B3E480930E0190930F01E0
:102EA000A0931001B093110138CD8090230290902F
:102EB0002402A0902502B090260220E030E04AE7EC
:102EC00054E460910A0270910B0280910C0290917F
:102ED0000D020E948A199B01AC0160E070E084E55C
:102EE00091E41CC08090230290902402A0902502BF
:102EF000B090260220E030E04AE754E460910A02F4
:102F000070910B0280910C0290910D020E948A191F
:102F10009B01AC0160E070E088E791E40E94181921
:102F20006B017C0120E030E040E85FE360911F022C
:102F30007091200280912102909122020E948519B5
:102F400087FF08C0A7019601C501B4010E941919A5
:102F50004B015C012DEC3CEC4CE45DE3C701B60198
:102F60000E94391B20E030E040E05FE30E94191925
:102F70006B017C012DEC3CEC4CEC5DE3C501B40134
:102F80000E94391B9B01AC01C701B6010E941919AF
:102F90006B017C0120E030E040E85FE30E94E41A2E
:102FA00087FF0DC020E030E0A901C701B6010E94F3
:102FB000851987FF0AC0C12CD12C760106C0C12C0F
:102FC000D12C90E8E92E9FE3F92EC0921F02D092F7
:102FD0002002E0922102F09222028092230290923B
:102FE0002402A0922502B092260220E030E04FE7B2
:102FF00053E4C701B6010E94391B60930E01709320
:103000000F01809310019093110187CC81E0809390
:10301000090180912902823009F07FCC8093270238
:103020007CCC0F931F93CF93DF93EBE9F2E01382F5
:10303000128288EE93E0A0E0B0E084839583A683BB
:10304000B7832EE331E03183208325EC30E03587F0
:10305000248724EC30E03787268720EC30E0318B62
:10306000208B21EC30E0338B228B22EC30E0358B4F
:10307000248B26EC30E0378B268B118E128E138E2C
:10308000148EE8E3F3E01382128284839583A6838F
:10309000B78380E591E091838083CCEAD3E08EE032
:1030A00091E09D8F8C8F82E191E09B8F8A8F88EADF
:1030B00093E09F8F8E8F18AE18AA19AA1AAA1BAA7E
:1030C00080E090E0AFE7B3E48CAB9DABAEABBFABC1
:1030D00084E690E0A0E0B0E08CA79DA7AEA7BFA7D4
:1030E000198E188E80E090E0A0E0BFE3888399837A
:1030F000AA83BB838C839D83AE83BF834DEC5CEC42
:103100006CEC7DE3488759876A877B878C879D872E
:10311000AE87BF878DEC9CECACE4BDE3888B998BCC
:10312000AA8BBB8B80E090E0A0E8BFE38C8B9D8BEB
:10313000AE8BBF8B0E944E0D0CA51DA52EA53FA5E5
:10314000DC01CB01801B910BA20BB30B88A399A3CD
:10315000AAA3BBA3E4E4F3E08BE69DE0958384831C
:1031600081E086832EE130E0309384032093830353
:10317000109299031092980310929A0310929B0355
:1031800028E037E030939D0320939C0310929E0328
:1031900010929F031092A0031092A1031092A30318
:1031A0001092A2031092A4031092A5031092A603FA
:1031B0001092A703828388E190E09183808385E069
:1031C00090E090878783DF91CF911F910F910895B1
:1031D0000E944E0DDC01CB0180569947AE4FBF4F88
:1031E00080930A0190930B01A0930C01B0930D0101
:1031F0000C944F0A81E08093EC010E94E80A10923F
:1032000008010E94DE0A109209010E94680A0E94C9
:10321000E81886E592E00E94CE0360910502709165
:10322000060280910702909108020E942406FFCFB7
:103230005058BB27AA270E9430190C94AA1A0E9442
:103240009C1A38F00E94A31A20F039F49F3F19F419
:1032500026F40C94991A0EF4E095E7FB0C94931A5B
:10326000E92F0E94BB1A58F3BA1762077307840745
:10327000950720F079F4A6F50C94DD1A0EF4E0958C
:103280000B2EBA2FA02D0B01B90190010C01CA0120
:10329000A0011124FF27591B99F0593F50F4503ECB
:1032A00068F11A16F040A22F232F342F4427585FBD
:1032B000F3CF469537952795A795F0405395C9F7D5
:1032C0007EF41F16BA0B620B730B840BBAF091508D
:1032D000A1F0FF0FBB1F661F771F881FC2F70EC02C
:1032E000BA0F621F731F841F48F4879577956795FF
:1032F000B795F7959E3F08F0B0CF9395880F08F0EB
:103300009927EE0F9795879508950E946F1A08F4F4
:1033100081E008950E949E190C94AA1A0E94A31A93
:1033200058F00E949C1A40F029F45F3F29F00C9459
:10333000931A51110C94DE1A0C94991A0E94BB1A1C
:1033400068F39923B1F3552391F3951B550BBB27D4
:10335000AA2762177307840738F09F5F5F4F220F19
:10336000331F441FAA1FA9F335D00E2E3AF0E0E810
:1033700032D091505040E695001CCAF72BD0FE2F5A
:1033800029D0660F771F881FBB1F261737074807EE
:10339000AB07B0E809F0BB0B802DBF01FF279358A6
:1033A0005F4F3AF09E3F510578F00C94931A0C94BD
:1033B000DE1A5F3FE4F3983ED4F3869577956795E0
:1033C000B795F7959F5FC9F7880F911D96958795DB
:1033D00097F90895E1E0660F771F881FBB1F6217FA
:1033E00073078407BA0720F0621B730B840BBA0BB8
:1033F000EE1F88F7E09508950E94031A6894B111B2
:103400000C94DE1A08950E94C31A88F09F5798F012
:10341000B92F9927B751B0F0E1F0660F771F881FD9
:10342000991F1AF0BA95C9F714C0B13091F00E94F3
:10343000DD1AB1E008950C94DD1A672F782F8827E4
:10344000B85F39F0B93FCCF3869577956795B3951A
:10345000D9F73EF490958095709561957F4F8F4F89
:103460009F4F0895E89409C097FB3EF4909580958E
:10347000709561957F4F8F4F9F4F9923A9F0F92F3A
:1034800096E9BB279395F695879577956795B795B8
:10349000F111F8CFFAF4BB0F11F460FF1BC06F5F9E
:1034A0007F4F8F4F9F4F16C0882311F096E911C0B0
:1034B000772321F09EE8872F762F05C0662371F0D1
:1034C00096E8862F70E060E02AF09A95660F771FE5
:1034D000881FDAF7880F9695879597F90895990FC1
:1034E0000008550FAA0BE0E8FEEF16161706E807CE
:1034F000F907C0F012161306E407F50798F0621BEF
:10350000730B840B950B39F40A2661F0232B242BC3
:10351000252B21F408950A2609F4A140A6958FEFE2
:10352000811D811D089597F99F6780E870E060E034
:1035300008959FEF80EC089500240A94161617064C
:1035400018060906089500240A9412161306140694
:1035500005060895092E0394000C11F4882352F0F7
:10356000BB0F40F4BF2B11F460FF04C06F5F7F4FAF
:103570008F4F9F4F089557FD9058440F551F59F096
:103580005F3F71F04795880F97FB991F61F09F3F50
:1035900079F087950895121613061406551FF2CF79
:1035A0004695F1DF08C0161617061806991FF1CFC9
:1035B00086957105610508940895E894BB276627F0
:1035C0007727CB0197F908950E946F1A08F48FEFBF
:1035D000089516F00C94AB1B0C94991A68940C94F3
:1035E000931A0E94C31AA8F39923C1F3AEF3DF9391
:1035F000CF931F930F93FF92C92FDD2788232AF0C3
:103600002197660F771F881FDAF720E030E040E847
:103610005FEB9FE3883920F0803E38F021968F776A
:103620000E941919E8E6F0E004C00E941919E5E9C2
:10363000F0E00E94B91B8B01BE01EC01FB2E6F571D
:1036400071097595771F880B990B0E94341A28E130
:1036500032E741E35FE30E944C1BAF2D9801AE01BE
:10366000FF900F911F91CF91DF910E9430190C9420
:10367000AA1A0E944C1B0C94AA1A0E949C1A38F099
:103680000E94A31A20F0952311F00C94931A0C9425
:10369000991A11240C94DE1A0E94BB1A70F3959F9C
:1036A000C1F3950F50E0551F629FF001729FBB2739
:1036B000F00DB11D639FAA27F00DB11DAA1F649FD5
:1036C0006627B00DA11D661F829F2227B00DA11D88
:1036D000621F739FB00DA11D621F839FA00D611D0E
:1036E000221F749F3327A00D611D231F849F600D2F
:1036F000211D822F762F6A2F11249F5750409AF058
:10370000F1F088234AF0EE0FFF1FBB1F661F771FE3
:10371000881F91505040A9F79E3F510580F00C94AE
:10372000931A0C94DE1A5F3FE4F3983ED4F3869527
:1037300077956795B795F795E7959F5FC1F7FE2B4E
:10374000880F911D9695879597F908950E946F1A95
:10375000880B990B08959F3F31F0915020F4879585
:1037600077956795B795880F911D9695879597F9E9
:103770000895DF93CF931F930F93FF92EF92DF9201
:103780007B018C01689406C0DA2EEF010E944C1B6D
:10379000FE01E894A5912591359145915591A6F3A7
:1037A000EF010E943019FE019701A801DA9469F730
:1037B000DF90EF90FF900F911F91CF91DF910895CF
:1037C000AA1BBB1B51E107C0AA1FBB1FA617B70747
:1037D00010F0A61BB70B881F991F5A95A9F7809563
:1037E0009095BC01CD01089597FB072E16F4009427
:1037F00007D077FD09D00E94E01B07FC05D03EF4FE
:10380000909581959F4F0895709561957F4F08958C
:10381000A1E21A2EAA1BBB1BFD010DC0AA1FBB1FD4
:10382000EE1FFF1FA217B307E407F50720F0A21B46
:10383000B30BE40BF50B661F771F881F991F1A94B3
:1038400069F760957095809590959B01AC01BD01DD
:10385000CF010895052E97FB1EF400940E94411C91
:1038600057FD07D00E94081C07FC03D04EF40C94AF
:10387000411C50954095309521953F4F4F4F5F4FDC
:10388000089590958095709561957F4F8F4F9F4FCC
:1038900008950E94511C332312F48A1B9B0B0C9435
:1038A000621CA29FB001B39FC001A39F700D811D38
:1038B0001124911DB29F700D811D1124911D089539
:1038C0000E94511CB7FF0895821B930B08950E941C
:1038D000511CA59F900DB49F900DA49F800D911D2C
:1038E00011240895EE0FFF1F0590F491E02D099427
:1038F00081E090E0F8940C94881CFB01DC010D90B1
:103900000020E9F7119701900D920020E1F708954A
:04391000F894FFCF59
:10391400E1FAC7420000C4420101E80300000000CC
:103924007F4300404E46950C950C110016001C0078
:10393400210027002C00320038003D0043004800DD
:103944004E00530059005E00640000000000E506CC
:10395400960C7D062C07AE068C06A006000000001F
:10396400E607B60716088A07AE079A078B078BFD8A
:1039740037C24E65ECC50069A743A47CF5C5584B16
:103984000046CCDD9D4103097941773E9E4163EEBB
:103994007E41E78C84C131003000424D5320636F77
:1039A4006D6D756E69636174696F6E206572726F97
:1039B400720053657474696E672043454C4C4241F0
:1039C4004C0020726567697374657220746F3A20C5
:1039D40000436C656172696E672052656769737430
:1039E40065722043454C4C42414C006E616E006947
:0A39F4006E66006F7666000D0A0093
:00000001FF
