:100000000C94D8010C94E00C0C94B90C0C940002E4
:100010000C9400020C9400020C9400020C94000258
:100020000C9400020C9400020C9400020C94000248
:100030000C9400020C9400020C9400020C94000238
:100040000C946F0C0C9400020C9481090C945B09C5
:100050000C9400020C9400020C9400020C94000218
:100060000C94B3090C94000208000000BE922449CD
:10007000123EABAAAA2ABECDCCCC4C3E00000080DA
:10008000BEABAAAAAA3E00000000BF000000803F4D
:100090000000000000084178D3BB4387D1133D190D
:1000A0000E3CC3BD4282AD2B3E68EC8276BED98F3A
:1000B000E1A93E4C80EFFFBE01C4FF7F3F0000007E
:1000C0000000537461727475702E2E2E004C412006
:1000D0004F564552564F4C544147452E2E2E2053D5
:1000E000544F5050494E47004C4F4144204F5645C5
:1000F0005243555252454E542E2E2E2053544F509B
:1001000050494E47005056204F564552564F4C547A
:100110004147452E2E2E2053544F5050494E4700F4
:100120005056204F56455243555252454E542E2E4E
:100130002E2053544F5050494E47002D2D2D2D2D1C
:100140002D2D2D2D2D2D2D2D2D2D2D2D2D2D2D2DDF
:100150002D4F5448455200695F73756D5F653A20B5
:1001600000695F643A2000765F73756D5F653A20C1
:1001700000765F643A2000647574795F6379636C1C
:10018000653A20002D2D2D2D2D2D2D2D2D2D2D2D94
:100190002D2D50492D434F4E54524F4C4C4552003B
:1001A0006D6561737572655F6D697374616B653AD6
:1001B000200074656D70657261747572653A200017
:1001C0006C645F693A200070765F693A200070764F
:1001D0005F763A20006C695F693A20006C695F764F
:1001E0003A20006C615F693A20006C615F763A20CA
:1001F000002D2D2D2D2D2D2D2D2D2D2D2D2D2D2D5C
:100200002D4D4541535552454D454E5453006C6953
:100210005F73746174653A20006C615F736F633A59
:1002200020006C645F73746174653A200070765FBF
:1002300073746174653A20006C695F7374617465EE
:100240003A20006C615F73746174653A20007379C1
:10025000735F73746174653A200063757272656EC2
:100260007420426174746572793A200054696D6536
:100270003A20002D2D2D2D2D2D2D2D2D2D2D2D2DDB
:100280002D2D2D2D2D2D2D2D2D5354415445530005
:1002900000000000240027002A00000000002500C4
:1002A00028002B00040404040404040402020202D3
:1002B0000202030303030303010204081020408029
:1002C00001020408102001020408102000000008A8
:1002D000000201000003040700000000000000000D
:1002E000417474656D7074696E6720746F20636CFF
:1002F000656172204F4344206572726F72004174D1
:1003000074656D7074696E6720746F20636C6561CD
:100310007220534344206572726F72004174746599
:100320006D7074696E6720746F20636C65617220F4
:100330004F56206572726F7200417474656D7074EF
:10034000696E6720746F20636C656172205556205A
:100350006572726F7200417474656D7074696E6756
:1003600020746F20636C65617220416C657274202B
:100370006572726F7200417474656D7074696E6736
:1003800020746F20636C6561722058522065727210
:100390006F72004C41204F56455243555252454EC4
:1003A000542E2E2E2053544F5050494E47000516C0
:1003B00011241FBECFEFD8E0DEBFCDBF12E0A0E01A
:1003C000B1E0E0E0F5E302C005900D92A830B1077E
:1003D000D9F724E0A8E0B2E001C01D92A531B20730
:1003E000E1F711E0C8EDD1E004C02197FE010E94C1
:1003F000681AC73DD107C9F70E94070D0C947E1AF1
:100400000C940000009769F0FC0101900020E9F7CE
:100410003197AF01481B590BBC0185EB92E00C945E
:10042000130C80E090E0089585EE91E00C940202B8
:100430000F931F93CF93DF938C01C0E0D0E0F801BE
:10044000EC0FFD1F6491662371F0E091B502F0910D
:10045000B6020190F081E02D85EB92E00995892BA1
:1004600011F02196ECCFCE01DF91CF911F910F912A
:100470000895CF93DF930E941802EC010E941402AA
:100480008C0F9D1FDF91CF9108958F929F92AF9215
:10049000BF920F931F93CF93DF93CDB7DEB7A19792
:1004A0000FB6F894DEBF0FBECDBF19A2423008F4DC
:1004B0004AE08E010F5D1F4F842E912CA12CB12C90
:1004C000A50194010E94FE19E62FB901CA0101504D
:1004D0001109EA3014F4E05D01C0E95CD801EC9345
:1004E000232B242B252B61F7C8010E940202A19621
:1004F0000FB6F894DEBF0FBECDBFDF91CF911F9135
:100500000F91BF90AF909F908F900895E091B502AA
:10051000F091B6020190F081E02D682F85EB92E01A
:100520000994CF92DF92EF92FF92CF93DF936C0109
:10053000990FEE08FF08F7FE12C08DE20E948602B6
:10054000EC0166277727CB016C197D098E099F097D
:100550004AE00E9445027C01EC0EFD1E06C04AE006
:10056000C701B6010E9445027C010E9414028E0D53
:100570009F1DDF91CF91FF90EF90DF90CF90089576
:10058000CF93DF93682F70E080E090E04AE00E9414
:100590004502EC010E9414028C0F9D1FDF91CF9148
:1005A00008954F925F926F927F928F929F92AF9237
:1005B000BF92CF92DF92EF92FF926B017C019B0181
:1005C000AC010E949C19882319F088EE91E01AC0B2
:1005D00046015701E894B7F82FEF3FEF4FE75FE789
:1005E000C501B4010E949C19811110C02FEF3FEF8B
:1005F0004FE75FE7C501B4010E947B17181634F47A
:100600008CEE91E00E9402027C017FC02FEF3FEF51
:100610004FE75FE4C701B6010E94DA1818161CF410
:1006200080EF91E0EFCF2FEF3FEF4FE75FECC70197
:10063000B6010E947B1787FDF3CF20E030E0A901CF
:10064000C701B6010E947B1787FF09C08DE20E9497
:1006500086025C01F7FAF094F7F8F09402C0A12C3E
:10066000B12C2AE037ED43EA5BE3C701B6010E94F3
:100670000F172B013C010E94F9176B017C010E94AE
:1006800028189B01AC01C301B2010E940E172B0177
:100690003C014AE0C701B6010E9445027C01EA0C18
:1006A000FB1C8EE20E948602E80EF91E20E030E07C
:1006B00040E251E4C301B2010E942F192B013C0119
:1006C0000E94F9174B01A12CB12C4AE0C501B401DD
:1006D0000E944502E80EF91EC501B4010E942818C7
:1006E0009B01AC01C301B2010E940E1720E030E073
:1006F00040E251E40E942F190E94F91780E090E037
:100700004AE00E944502E80EF91E0E9414028E0D76
:100710009F1DFF90EF90DF90CF90BF90AF909F9084
:100720008F907F906F905F904F9008952091B402CA
:100730009091B302213208F04AC080919002811159
:10074000FCCF32E03093900231E030938F023FEFE4
:1007500030938E0210928D0220938C02A3E9B2E0B6
:100760004CE652E0FA013E2F341B321718F43D914B
:100770003193F9CF10926B0220916B02990F922B5B
:1007800090936B0290916A02913061F410926A0228
:1007900090916B029093BB009091BC0093FDF8CFB9
:1007A00095EC01C095EE9093BC0090919002923030
:1007B000E1F390918E029F3F79F080918E0280321A
:1007C00041F080918E02803331F084E005C081E0F9
:1007D00003C082E001C083E0109292021092B40242
:1007E000109291020895CF93C62F90915E0321E05D
:1007F000209391029093B302109292021092B4024D
:10080000682F82E593E00E9410096C2F82E593E047
:100810000E941009CF910C9496039091900291112F
:10082000FCCF91E09093900290938F022FEF209352
:100830008E0210928D02260F20938C0290936B02F1
:1008400090916B02880F892B80936B0280916A02D2
:10085000813061F410926A0280916B028093BB0038
:100860008091BC0083FDF8CF85EC01C085EE8093BC
:10087000BC00809190028130E1F380918D02861757
:1008800010F460918D02ACE6B2E02AE432E0F901A6
:100890008E2F821B861718F48D918193F9CF862FA6
:1008A0000895CF93DF93CEE5D3E0988121E02093A4
:1008B00091029093B302109292021092B402682FA8
:1008C00082E593E00E9410090E94960361E088810E
:1008D0000E940D04109249028093480282E593E041
:1008E000DF91CF910C94C408CF93DF930E94020252
:1008F000EC010E9414028C0F9D1FDF91CF9108958F
:10090000AF92BF92CF92DF92EF92FF920F931F931D
:10091000CF93DF938AE20E945104182F8BE20E944A
:100920005104EC016091AE037091AF03072E000CEF
:10093000880B990B0E942A1820E030E040E850E430
:100940000E942F196B017C0180E090E0912F8C2B8D
:100950009D2BBC01990F880B990B0E942A189B01B3
:10096000AC01C701B6010E942F1920E030E04AE730
:1009700054E40E9480176B017C018091B003909138
:10098000B103880F991F880F991FBC01990F880B1D
:10099000990B0E942A189B01AC01C701B6010E9465
:1009A0000F170E94F2176093870370938803809358
:1009B000890390938A0380915E0391E09093910262
:1009C0008093B302109292021092B4026CE082E51E
:1009D00093E00E9410090E94960360916503660FE0
:1009E000613208F060E280915E030E940D04109273
:1009F00049028093480290E020916503309166039C
:100A0000220F331F8217930709F05BC010928503F2
:100A10001092860307E613E0C0E0D0E068EEC62E31
:100A200063E0D62EE12CF12C809165039091660352
:100A3000C817D9070CF045C082E593E00E94C408AE
:100A40005C0182E593E00E94C40895012F7333276F
:100A5000322F2227282B392BA091AE03B091AF0360
:100A60000E943F1AA70196010E94201A8091B003AC
:100A70009091B103280F391FF801219331938F0111
:100A8000E0918503F0E0EE0FFF1FE25AFC4F8185F5
:100A900092858217930714F4C0938503E09186032F
:100AA000F0E0EE0FFF1FE25AFC4F81859285281778
:100AB00039072CF4253F314014F0C093860321966A
:100AC000B3CFDF91CF911F910F91FF90EF90DF9007
:100AD000CF90BF90AF900895CF93DF93D82F80E051
:100AE0000E945104C82FDD2309F44CC082E30E9408
:100AF0005104D82F83E30E94510460E070E07D2F01
:100B0000862B972BBC01990F880B990B0E942A18F2
:100B10002DE33AE047E051E40E942F1920E030E055
:100B200040EA50E40E9480170E94F21760938B0302
:100B300070938C0380938D0390938E03462F572FD1
:100B4000BC0177FF07C070956095509541955F4F48
:100B50006F4F7F4F80919D0390919E03092E000C53
:100B6000AA0BBB0B84179507A607B70784F40E944E
:100B7000630C6093B8037093B9038093BA039093A6
:100B8000BB0305C087FDB2CFDF91CF910895CF732E
:100B900011F41092640360E870E080E0DF91CF917F
:100BA0000C94F3030F931F93CF93DF93809164030F
:100BB000811107C08091B2039091B303009709F4AB
:100BC000E8C080E00E945104EC0187FF07C084EF79
:100BD00091E00E94740481E00E946C058C2F8F7359
:100BE00009F4CFC080916403882321F01092BD03E3
:100BF0001092BC03CE0199279093B3038093B20364
:100C00000E94630C0091BE031091BF032091C003AA
:100C10003091C103601B710B820B930B28EE33E004
:100C200040E050E00E94FE19B9018091BC03909110
:100C3000BD032817390749F0F901E81BF90B339771
:100C400020F03093BD032093BC038091BC039091AE
:100C5000BD036817790708F498C0C5FF0FC063E0AB
:100C600070E00E94D619892B49F486E793E00E9430
:100C7000390260E270E080E00E94F303C4FF13C019
:100C80008091BC039091BD036AE070E00E94D61988
:100C9000892B49F486E593E00E94390260E170E017
:100CA00080E00E94F303C3FF1BC00E948004E09118
:100CB0008603F0E0EE0FFF1FE25AFC4F21853285DC
:100CC0008091A9039091AA03821793074CF489E3BA
:100CD00093E00E94390268E070E080E00E94F30334
:100CE000C2FF1BC00E948004E0918503F0E0EE0F7C
:100CF000FF1FE25AFC4F218532858091A703909116
:100D0000A803281739074CF48CE193E00E943902BC
:100D100064E070E080E00E94F303C1FF13C08091A3
:100D2000BC039091BD036CE370E00E94D619892B3F
:100D300049F48EEF92E00E94390262E070E080E0B8
:100D40000E94F303C0FF13C08091BC039091BD03C8
:100D50006CE370E00E94D619892B49F480EE92E092
:100D60000E94390261E070E080E00E94F30380910C
:100D7000BC039091BD0301969093BD038093BC0387
:100D800004C01092B3031092B2038091B203909109
:100D9000B303DF91CF911F910F91089590E0FC0173
:100DA000E453FD4F3491FC01E854FD4F2491FC01C4
:100DB000EC55FD4FE491EE2309F43BC0332339F1A8
:100DC000333091F038F43130A9F0323001F584B588
:100DD0008F7D12C0373091F03830A1F03430B9F443
:100DE000809180008F7D03C0809180008F778093F9
:100DF00080000DC084B58F7784BD09C08091B0009C
:100E00008F7703C08091B0008F7D8093B000F0E0B9
:100E1000EE0FFF1FE656FD4FA591B4918FB7F894E2
:100E2000EC91611103C020952E2301C02E2B2C9331
:100E30008FBF0895CF93DF9390E0FC01E854FD4FFE
:100E40002491FC01EC55FD4F8491882361F190E0E1
:100E5000880F991FFC01E057FD4FC591D491FC010B
:100E6000E656FD4FA591B491611109C09FB7F89462
:100E70008881209582238883EC912E230BC06230D9
:100E800061F49FB7F8943881822F809583238883FB
:100E9000EC912E2B2C939FBF06C08FB7F894E8815E
:100EA0002E2B28838FBFDF91CF9108958E3008F0CD
:100EB0008E508770806480937C0080917A0080647B
:100EC00080937A0080917A0086FDFCCF8091780033
:100ED0002091790090E0922B08958F929F92AF928B
:100EE000BF92CF92DF92EF92FF926B017C010E9442
:100EF0003E0C4B015C01C114D104E104F104F1F09A
:100F00000E943E0CDC01CB0188199909AA09BB0992
:100F1000883E9340A105B10570F321E0C21AD108C3
:100F2000E108F10888EE880E83E0981EA11CB11C30
:100F3000C114D104E104F10419F7DDCFFF90EF9063
:100F4000DF90CF90BF90AF909F908F900895FC015D
:100F5000538D448D252F30E0842F90E0821B930B1E
:100F6000541710F0CF96089501970895FC01918DC4
:100F7000828D981761F0828DDF01A80FB11D5D96FB
:100F80008C91928D9F5F9F73928F90E008958FEF69
:100F90009FEF0895FC01918D828D981731F0828D1D
:100FA000E80FF11D858D90E008958FEF9FEF089574
:100FB000FC01918D228D892F90E0805C9F4F821BD8
:100FC00091098F739927089585EB92E00E94D807C5
:100FD00021E0892B09F420E0822F0895FC01848D03
:100FE000DF01A80FB11DA35ABF4F2C91848D90E053
:100FF00001968F739927848FA689B7892C93A0892E
:10100000B1898C9180648C93938D848D981306C0E4
:101010000288F389E02D80818F7D80830895EF928F
:10102000FF920F931F93CF93DF93EC0181E0888FA2
:101030009B8D8C8D981305C0E889F989808185FD89
:1010400024C0F62E0B8D10E00F5F1F4F0F7311277A
:10105000E02E8C8DE8120CC00FB607FCFACFE889A1
:10106000F989808185FFF5CFCE010E94EE07F1CF8F
:101070008B8DFE01E80FF11DE35AFF4FF0820B8FBD
:10108000EA89FB898081806207C0EE89FF896083DD
:10109000E889F98980818064808381E090E0DF9134
:1010A000CF911F910F91FF90EF900895CF93DF9311
:1010B000EC01888D8823C9F0EA89FB89808185FD50
:1010C00005C0A889B9898C9186FD0FC00FB607FCB1
:1010D000F5CF808185FFF2CFA889B9898C9185FFF2
:1010E000EDCFCE010E94EE07E7CFDF91CF910895BB
:1010F00080E090E0892B29F00E94E40781110C9494
:101100000000089585ED8093BC008091BC0084FDB3
:10111000FCCF1092900208954091E703262F30E013
:10112000240F311D21323105DCF42091900224304E
:10113000C9F4FC0180E090E0861758F43091E70391
:101140002191DC01AB53BC4FA30FB11D2C93019631
:10115000F3CF8091E703680F6093E70380E0089581
:1011600081E0089582E008950895E0914902809118
:101170004802E81730F4F0E0E65BFD4F808190E034
:1011800008958FEF9FEF0895909149028091480252
:10119000981750F4E92FF0E0E65BFD4F208130E036
:1011A0009F5F9093490202C02FEF3FEFC90108955E
:1011B0008091480290E020914902821B9109089594
:1011C000CF92DF92EF92FF920F931F93CF93DF9313
:1011D0007C01262F972F8A0180919102882391F01C
:1011E000C62FD72F6E01C40ED51ECC15DD0571F0AC
:1011F0006991D701ED91FC910190F081E02DC7013B
:101200000995F3CF642F822F0E948C08C801DF91CB
:10121000CF911F910F91FF90EF90DF90CF900895A5
:10122000CF93DF931F92CDB7DEB7698320919102F0
:101230002223D1F02091B402203240F021E030E0AE
:10124000FC013383228380E090E015C080919202FC
:10125000E82FF0E0ED56FD4F998190838F5F8093EA
:1012600092028093B40205C061E0CE0101960E9413
:101270008C0881E090E00F90DF91CF910895089560
:1012800080E090E008950E946E1ACF93DF93C091A2
:101290000802D0910902209759F00E94630CFE01C8
:1012A000E05AFF4F608371838283938381E08E8352
:1012B000DF91CF9108951F920F920FB60F921124D4
:1012C0002F933F934F935F936F937F938F939F934E
:1012D000AF93BF93EF93FF9385EB92E00E94EE07ED
:1012E000FF91EF91BF91AF919F918F917F916F91FE
:1012F0005F914F913F912F910F900FBE0F901F90D4
:1013000018951F920F920FB60F9211242F938F935F
:101310009F93EF93FF93E091C502F091C602808105
:10132000E091CB02F091CC0282FD12C090818091BD
:10133000CE028F5F8F732091CF02821751F0E09120
:10134000CE02F0E0EB54FD4F958F8093CE0201C0AA
:101350008081FF91EF919F918F912F910F900FBE00
:101360000F901F9018951F920F920FB60F92112495
:101370002F933F934F935F936F937F938F939F939D
:10138000AF93BF93EF93FF938091B900887F80362E
:1013900009F49CC068F5883209F45BC090F4803190
:1013A00009F454C038F4882309F4F6C0883009F4ED
:1013B0004DC0F6C0883109F44CC0803209F45DC0DC
:1013C000EFC0803409F468C048F4803309F455C094
:1013D000883309F0E5C080938E02D8C0803509F4C7
:1013E0004FC0883509F45DC0883409F0D9C0D6C033
:1013F000883909F4C7C0A8F4883709F467C038F4FD
:10140000883609F463C0803709F460C0C9C08838E1
:1014100009F4B8C0803909F45FC0803809F0C0C051
:101420005BC0803B09F486C038F4803A09F466C09A
:10143000883A09F47FC0B4C0803C09F4A7C0883C56
:1014400009F4A4C0883B09F48AC0AAC080916B0249
:1014500010C090918D0280918C02981770F5E091E8
:101460008D0281E08E0F80938D02F0E0E459FD4FF4
:1014700080818093BB0085EC86C080938E028EC0F5
:10148000E0918D0281E08E0F80938D028091BB00F0
:10149000F0E0E459FD4F808390918D0280918C02A1
:1014A0006EC0E0918D0281E08E0F80938D0280915D
:1014B000BB00F0E0E459FD4F808380918F028111E1
:1014C0006DC081E080936A0284EA61C083E080930A
:1014D000900210920B04CFCF80910B04803208F061
:1014E00051C0E0910B0481E08E0F80930B0480913A
:1014F000BB00F0E0E551FC4F8083BDCF85EC8093CD
:10150000BC001092900280910B04803230F4E09184
:101510000B04F0E0E551FC4F108260910B0470E089
:10152000E091E903F091EA038BEE93E009951092C4
:101530000B0436C084E0809390021092E80310926E
:10154000E703E091E503F091E60309958091E70355
:10155000811105C081E08093E7031092C503E091FB
:10156000E80381E08E0F8093E803F0E0EB53FC4F3B
:1015700080818093BB009091E8038091E7039817E6
:1015800008F479CF85E88093BC000AC085EC80938D
:10159000BC001092900204C010928E020E94820839
:1015A000FF91EF91BF91AF919F918F917F916F913B
:1015B0005F914F913F912F910F900FBE0F901F9011
:1015C00018950F931F930E94630C00910E011091C8
:1015D0000F012091100130911101601771078207EE
:1015E000930710F461E001C060E085E01F910F9166
:1015F0000C94CE06CF92DF92EF92FF92CF93DF93BF
:1016000080910D01882399F0609100017091010192
:1016100080910201909103010E94F2176B017C01FD
:10162000EB0161E089E00E941A07209711F460E065
:1016300004C0CF3FD10551F461E089E0DF91CF9143
:10164000FF90EF90DF90CF900C94CE06E5EDF2E0A6
:10165000E491E330F9F048F4E130B9F0E230A1F57B
:1016600084B5806284BDC8BC34C0E730E9F0E8309E
:1016700019F1E43049F58091800080628093800008
:10168000D0928B00C0928A0024C084B5806884BD4B
:10169000C7BC1FC080918000806880938000D0927A
:1016A0008900C092880015C08091B0008068809346
:1016B000B000C092B3000DC08091B00080628093F2
:1016C000B000C092B40005C0C038D1050CF0B4CF52
:1016D000AECFDF91CF91FF90EF90DF90CF90089544
:1016E00080910C01882311F061E001C060E087E087
:1016F0000C94CE06CF92DF92EF92FF920F931F933E
:10170000CF93DF93C82F8330F1F050F48130A1F0F4
:10171000823029F581E08093C4031092C30318C07E
:101720008430C9F08530D9F41092C4031092C303F9
:1017300081E08093C20313C08093C4031092C3035B
:101740008093C2030CC01092C40381E08093C30352
:101750001092C20304C081E08093C403F7CF60916C
:10176000C4038EE00E94CE066091C3038FE00E9406
:10177000CE066091C20380E10E94CE0661E070E077
:1017800080E090E00E946D07D4E6C12CD12C760158
:1017900003EC10E081E10E945607BC01990F880B11
:1017A000990B0E942A189B01AC01C701B6010E9447
:1017B0000F176B017C01C8010197F1F7D15051F768
:1017C00020E030E048EC52E4C701B6010E948017E7
:1017D000C150C53098F424E0C29FD0011124FD010E
:1017E000E259FE4F2081318142815381FD01E65A49
:1017F000FE4FC080D180E280F38005C0C12CD12C87
:101800007601A70196010E942F19A70196010E9457
:101810000F17DF91CF911F910F91FF90EF90DF9005
:10182000CF9008950895CF92DF92EF92FF920F9399
:101830001F93CF93DF936C017A018B01C0E0D0E05E
:10184000CE15DF0589F0D8016D918D01D601ED919E
:10185000FC910190F081E02DC6010995892B11F4CE
:101860007E0102C02196ECCFC701DF91CF911F917D
:101870000F91FF90EF90DF90CF9008953FB7F894CD
:101880008091110490911204A0911304B09114045A
:1018900026B5A89B05C02F3F19F00196A11DB11DCB
:1018A0003FBFBA2FA92F982F8827820F911DA11D06
:1018B000B11DBC01CD0142E0660F771F881F991F43
:1018C0004A95D1F708952FB7F89460910D0470915F
:1018D0000E0480910F04909110042FBF08951F9261
:1018E0000F920FB60F9211242F933F938F939F93D4
:1018F000AF93BF9380910D0490910E04A0910F04BB
:10190000B091100430910C0423E0230F2D3720F404
:101910000196A11DB11D05C026E8230F0296A11D49
:10192000B11D20930C0480930D0490930E04A0939A
:101930000F04B09310048091110490911204A091AF
:101940001304B09114040196A11DB11D80931104DC
:1019500090931204A0931304B0931404BF91AF9119
:101960009F918F913F912F910F900FBE0F901F90DD
:1019700018951F920F920FB60F9211242F933F9339
:101980004F935F936F937F938F939F93AF93BF9387
:10199000EF93FF93E0911401F09115010995FF91E8
:1019A000EF91BF91AF919F918F917F916F915F91D7
:1019B0004F913F912F910F900FBE0F901F90189550
:1019C0001F920F920FB60F9211242F933F934F93B4
:1019D0005F936F937F938F939F93AF93BF93EF9397
:1019E000FF93E0911201F09113010995FF91EF919E
:1019F000BF91AF919F918F917F916F915F914F9127
:101A00003F912F910F900FBE0F901F901895CF937D
:101A1000DF93CDB7DEB760970FB6F894DEBF0FBE89
:101A2000CDBF789484B5826084BD84B5816084BD67
:101A300085B5826085BD85B5816085BD80916E006C
:101A4000816080936E00109281008091810082609D
:101A500080938100809181008160809381008091DA
:101A600080008160809380008091B10084608093C9
:101A7000B1008091B00081608093B00080917A00C5
:101A8000846080937A0080917A00826080937A00EB
:101A900080917A00816080937A0080917A008068DA
:101AA00080937A001092C10010924902109248026D
:101AB000109292021092B4021092900281E08093F0
:101AC0008F0210926A0261E082E10E94CE0661E01C
:101AD00083E10E94CE068091B9008E7F8093B90089
:101AE0008091B9008D7F8093B90088E48093B8001D
:101AF00085E48093BC0010926803109267031092F3
:101B00006A031092690310926C0310926B03109297
:101B10006E0310926D0361E08FEF0E941A0761E07F
:101B20008FEF0E94CE0665E070E080E090E00E94BA
:101B30006D0760E08FEF0E941A076AE070E080E0B6
:101B400090E00E946D0769E170E08BE00E94F30372
:101B50008BE00E945104499791F568E170E084E0C0
:101B60000E94F30360E470E085E00E94F3038EE5D9
:101B700093E0909309028093080281E50E9451044A
:101B80009093B1038093B00380E50E9451048C01CF
:101B900089E50E945104807E9927E5E09595879517
:101BA000EA95E1F70C701127000F111F802B912B84
:101BB00083599E4F9093AF038093AE0304C086E891
:101BC00091E00E94740488E39FEF9093A2038093B6
:101BD000A10382EC91E09093A6038093A503109259
:101BE000A00310929F039093A4038093A30385E026
:101BF000809361036FE970E086E00E94F30310E0D8
:101C00002091610330E0A0E4BFE10E94471A28EE72
:101C100033E040E050E00E94201AE6E5F1E08FE179
:101C200090E0729162916B01770FEE08FF082C151E
:101C30003D054E055F0534F08F70612F607F162FD4
:101C4000182B02C0019769F71067612F70E087E0D9
:101C50000E94F30388E29AE09093AA038093A90379
:101C600088E00E945104182F8091B0039091B10335
:101C7000092E000CAA0BBB0B48E25AE060E070E0B2
:101C80009A01AB01281B390B4A0B5B0BA8EEB3E0A2
:101C90000E945D1A2091AE033091AF03032E000C19
:101CA000440B550B0E94201ADA01C90154E0B59586
:101CB000A795979587955A95D1F721E0280F622F20
:101CC00070E08AE00E94F303612F606C70E088E0AE
:101CD0000E94F30382E49EE09093A8038093A703FD
:101CE00088E00E945104182F8091B0039091B103B5
:101CF000092E000CAA0BBB0B42E45EE060E070E032
:101D00009A01AB01281B390B4A0B5B0BA8EEB3E021
:101D10000E945D1A2091AE033091AF03032E000C98
:101D2000440B550B0E94201ADA01C90164E0B595F5
:101D3000A795979587956A95D1F7682F70E089E008
:101D40000E94F303612F606370E088E00E94F30358
:101D50001092B7031092B60384EE9CE09093AC030C
:101D60008093AB0384E18093AD0384E690E090938D
:101D70009E0380939D0381E08093B40361E08EE035
:101D80000E941A0761E08FE00E941A0761E080E17B
:101D90000E941A0760E081E10E941A0761E086E074
:101DA0000E941A0761E089E00E941A0761E087E05B
:101DB0000E941A0760E086E00E94CE0660E089E09B
:101DC0000E94CE0660E087E00E94CE0680918100EE
:101DD000887F856080938100E091C502F091C60202
:101DE00082E08083E091C102F091C2021082E09112
:101DF000C302F091C40280E180831092CD02E09191
:101E0000C902F091CA0286E08083E091C702F09196
:101E1000C802808180618083E091C702F091C8028E
:101E2000808188608083E091C702F091C802808140
:101E300080688083E091C702F091C80280818F7D25
:101E4000808382EC90E00E94390222242394312C7A
:101E500081E00E947A0B6D837E838F8398876093E5
:101E60003D0270933E0280933F029093400282E0D5
:101E70000E947A0B6B017C0160930B0270930C0241
:101E800080930D0290930E0283E00E947A0B698783
:101E90007A878B879C87609331027093320280939C
:101EA00033029093340284E00E947A0B69837A8330
:101EB0008B839C8360932D0270932E0280932F025C
:101EC0009093300285E00E947A0B2B013C016093D5
:101ED000290270932A0280932B0290932C02609126
:101EE000870370918803072E000C880B990B0E94C2
:101EF0002A186093390270933A0280933B029093C0
:101F00003C0260918B0370918C03072E000C880BB0
:101F1000990B0E942A186D877E878F87988B609314
:101F2000350270933602809337029093380214E69C
:101F3000812C912C540185E10E945607BC01990F18
:101F4000880B990B0E942A189B01AC01C501B401B2
:101F50000E940F174B015C0183EC90E00197F1F7B1
:101F6000115049F720E030E048EC52E4C501B401DB
:101F70000E9480172EE634E340E85EE30E942F19AA
:101F80002BE734E144EA51E40E940E1760932502E6
:101F900070932602809327029093280220E030E07D
:101FA0004AE756E46D817E818F8198850E94DA1818
:101FB0001816F4F481E080930A020E9489161092A8
:101FC0000C010E94700B10920D010E94FA0A0E94EF
:101FD00077168DEC90E00E94390260913D0270917D
:101FE0003E0280913F02909140020E94D102FFCFB9
:101FF00020E030E44CE955E4C701B6010E94DA184C
:10200000181614F40E94F01620E030EC4AE556EC65
:10201000C701B6010E947B1787FDF4CF20E030ECAA
:102020004AE556E4C301B2010E94DA181816ECF42E
:1020300010920C010E94700B10920D010E94FA0A7E
:1020400010920A020E9489160E94771688EE90E08C
:102050000E9439026091290270912A0280912B021C
:1020600090912C020E94D102FFCF20E030E543EC9A
:1020700056E469857A858B859C850E94DA18181646
:10208000ECF410920D010E94FA0A10920C010E94C9
:10209000700B10920A020E9489160E94771685E042
:1020A00091E00E9439026091310270913202809178
:1020B0003302909134020E94D102FFCF20E030E43D
:1020C0004CE955E469817A818B819C810E94DA1800
:1020D0001816ECF410920D010E94FA0A10920C01ED
:1020E0000E94700B10920A020E9489160E947716B5
:1020F00080E291E00E94390260912D0270912E02DF
:1021000080912F02909130020E94D102FFCFA7014F
:10211000960169817A818B819C810E940F172D85A0
:102120003E854F8558890E940F17A30192010E9496
:102130000E1720E030E040EA51E40E940E17609351
:10214000210270932202809323029093240280E064
:102150000E946C050E94800480915E0391E0909340
:1021600091028093B302109292021092B4026CE238
:1021700082E593E00E9410090E94960362E080913C
:102180005E030E940D04109249028093480282303F
:1021900009F080C082E593E00E94C4088C0182E5CA
:1021A00093E00E94C408B8016F737727762F6627E3
:1021B000862B972BBC01990F880B990B0E942A182C
:1021C00021E835E943EC5EE30E942F190E94F217E3
:1021D000072E000C880B990B0E942A186B017C01BA
:1021E00020E030E44CE156E40E942F194B015C01E1
:1021F000A701960160E070E48EE495E40E940E175A
:102200009B01AC01C501B4010E9480170E94F9171F
:102210000E94281820E030E44CE156E40E94801728
:102220000E94E7186B017C01609162037091630367
:10223000072E000C880B990B0E942A189B01AC01F9
:1022400060E070E080E89FE30E948017A70196019C
:102250000E942F192FE03FEC4BE55BE30E940F1724
:102260009B01AC0160E070E080E89FE30E94801772
:1022700023E333E948E853E40E940E1720E030E0FE
:1022800040E251E40E942F190E94F21770939003CC
:1022900060938F030E94630C6B017C014090B80334
:1022A0005090B9036090BA037090BB0380916503AE
:1022B0009091660365E070E00E94EA195B010E945C
:1022C000D205892BD9F5C701B601641975098609AC
:1022D000970928EE33E040E050E00E94FE1980911B
:1022E000B6039091B703092E000CAA0BBB0B28175D
:1022F00039074A075B0714F1E0918503F0E0EE0F20
:10230000FF1FE25AFC4F818592852091AB033091EB
:10231000AC032817390794F4E0918603F0E0EE0F40
:10232000FF1FE25AFC4F21853285821B930B2091BF
:10233000AD0330E0281739070CF429C18091B503AB
:102340008823B9F000E010E0BB240A151B057CF4DB
:102350008DEB91E00E9402020F5F1F4FC8010E94A7
:10236000910260E070E0802F0E94F303EECF1092A4
:10237000B50320E030E04AE754E460910B0270912D
:102380000C0280910D0290910E020E9480179B0119
:10239000AC01609108017091090180910A0190914E
:1023A0000B010E940E1769837A838B839C83609351
:1023B00008017093090180930A0190930B0120E0BA
:1023C00030E04AE754E46091350270913602809122
:1023D0003702909138020E9480179B01AC016091F6
:1023E00004017091050180910601909107010E94FE
:1023F0000E176B017C0160930401709305018093BB
:1024000006019093070140902D0250902E0260909B
:102410002F02709030028090290290902A02A090A2
:102420002B02B0902C0220E030E040EF51E4C501D7
:10243000B4010E940F179B01AC01C301B2010E94BD
:10244000DA1887FD02C081E011C020E030E040EFE3
:1024500051E4C501B4010E940E179B01AC01C301F8
:10246000B2010E947B17181624F082E08093430289
:1024700002C01092430210914302113021F068F023
:10248000123079F036C020E030E048EC52E4C70169
:10249000B6010E947B1787FF1EC081E080930A026D
:1024A00028C020E030E040E752E469817A818B81E6
:1024B0009C810E94DA18181684F7A3019201C501C5
:1024C000B4010E940E1720E030E048E453E40E947B
:1024D000DA1887FD03C010920A020BC020E030E03A
:1024E00040E752E4C701B6010E94DA181816ACF2B0
:1024F000F2CF80910A02811111C0109241028091A5
:102500004202843029F0111103C01092420212C01D
:10251000123081F481E0809342020CC0109242029A
:10252000111103C01092410205C0123019F481E06C
:1025300080934102C0903102D0903202E090330289
:10254000F090340200910F02011109C060913D0228
:1025500070913E0280913F029091400208C06091CC
:10256000390270913A0280913B0290913C0220E046
:1025700030E048EC52E40E940F179B01AC01C70108
:10258000B6010E94DA1818160CF086C000C281E06D
:102590008093B5030EE513E0C12CD12C7601C394D2
:1025A000BB24C60101978A159B050CF0E2CEE09191
:1025B0008603F0E0EE0FFF1FE25AFC4FA185B285C3
:1025C0004091AD0350E0412C20E030E0F901EE0FE6
:1025D000FF1FE00FF11F818592858A1B9B0B481717
:1025E0005907D4F4C101022E01C0880F0A94EAF7FA
:1025F000942C982AE92DF0E0842D90E0BF01660F1D
:10260000771F68237923672B39F4880F991F8E234E
:102610009F23892B09F4492C2F5F3F4F253031052B
:10262000A9F68EE991E00E9402024AE0C701B601D4
:102630000E9445028EEA91E00E940202512C109203
:10264000100248E0642E712C50E8852E912CC401B4
:10265000842195218815990519F064E871E002C07C
:1026600062E871E080E192E00E94731A9594879489
:1026700081E0681A710859F780E192E00E947404C1
:10268000B2018C2D0E94F3039FEFC91AD90AE90AFF
:10269000F90A065F1F4F85CF10920D01111103C07B
:1026A0001092420205C0123019F481E08093420278
:1026B0000E94700B0E94FA0A0E94630C009144026F
:1026C0001091450220914602309147020C501E4F56
:1026D0002F4F3F4F061717072807390708F052C139
:1026E0000E94630C609344027093450280934602FB
:1026F000909347020E9414020E9414020E94140246
:102700000E9414020E9414020E94140283E792E0C5
:102710000E9439028CE692E00E9418020E94630C2B
:102720004AE00E9445020E9414028AE592E00E945B
:10273000180280910F0290E00E9491028EE492E0D4
:102740000E941802809143020E94C00283E492E03A
:102750000E941802809142020E94C00288E392E027
:102760000E941802809141020E94C0028DE292E014
:102770000E94180280910D0190E00E94910282E275
:1027800092E00E94180280910C0190E00E94910258
:1027900089E192E00E94180260910801709109019C
:1027A00080910A0190910B010E94D1028EE092E08B
:1027B0000E94180260910401709105018091060148
:1027C000909107010E94D10281EF91E00E943902AD
:1027D0008AEE91E00E94180260913D0270913E02E3
:1027E00080913F02909140020E94D10283EE91E0DD
:1027F0000E94180260910B0270910C0280910D02F0
:1028000090910E020E94D1028CED91E00E9418027C
:102810006091390270913A0280913B0290913C02A2
:102820000E94D10285ED91E00E941802609135026C
:102830007091360280913702909138020E94D10245
:102840008EEC91E00E941802609131027091320288
:1028500080913302909134020E94D10287EC91E082
:102860000E94180260912D0270912E0280912F0219
:10287000909130020E94D10280EC91E00E941802F7
:102880006091290270912A0280912B0290912C0272
:102890000E94D10282EB91E00E9418026091250211
:1028A0007091260280912702909128020E94D10205
:1028B00087ED91E00E94020220912D0230912E02BC
:1028C00040912F02509130026091290270912A02AA
:1028D00080912B0290912C020E940E170E94D1022F
:1028E00080EA91E00E941802609121027091220218
:1028F00080912302909124020E94D10284E891E009
:102900000E94390287E791E00E941802609100015D
:102910007091010180910201909103010E94D10206
:1029200081E791E00E9418026091190270911A02E9
:1029300080911B0290911C020E94D10287E691E0D7
:102940000E94180260911D0270911E0280911F0268
:10295000909120020E94D10281E691E00E9418022B
:1029600060E070E0CB010E94D10287E591E00E9417
:10297000180260E070E0CB010E94D1028BE391E08D
:102980000E9439020E94E10A0E94780861CA01117E
:102990008FCE81E080930D0110914202163009F430
:1029A0004CC01430B9F120E030E543E456E46091C6
:1029B0003D0270913E0280913F02909140020E9440
:1029C0007B17181614F083E036C0153009F520E0A7
:1029D00030E040EA51EC60910B0270910C02809162
:1029E0000D0290910E020E94DA1887FD0EC080E061
:1029F00090E0A8ECB2E48093080190930901A093C1
:102A00000A01B0930B0186E016C01093420215C074
:102A1000143081F420E030E040EA51EC60910B0288
:102A200070910C0280910D0290910E020E94DA18B2
:102A300087FFDDCF84E080934202809142028430A0
:102A400099F180F4833009F033CE80E090E0AFE775
:102A5000B3E48093000190930101A0930201B0932D
:102A6000030126CE8530E9F1863009F021CE809031
:102A70001D0290901E02A0901F02B090200220E044
:102A800030E04AE754E460913D0270913E0280914B
:102A90003F02909140020E9480179B01AC0160E0D0
:102AA00070E088E491E439C080901D0290901E028D
:102AB000A0901F02B090200220E030E04AE754E4EA
:102AC00060913D0270913E0280913F0290914002E0
:102AD0000E9480179B01AC016AE979E989E491E4DD
:102AE0001CC080901D0290901E02A0901F02B0900A
:102AF000200220E030E04AE754E460913D0270910A
:102B00003E0280913F02909140020E9480179B01FB
:102B1000AC0160E070E088E791E40E940E176B0161
:102B20007C0120E030E040E85FE3609119027091A1
:102B30001A0280911B0290911C020E947B1787FF52
:102B400008C0A7019601C501B4010E940F174B01EF
:102B50005C012DEC3CEC4CE45DE3C701B6010E9446
:102B60002F1920E030E040E05FE30E940F176B0177
:102B70007C012DEC3CEC4CEC5DE3C501B4010E9402
:102B80002F199B01AC01C701B6010E940F176B0101
:102B90007C0120E030E040E85FE30E94DA1887FF24
:102BA0000DC020E030E0A901C701B6010E947B17EB
:102BB00087FF0AC0C12CD12C760106C0C12CD12CB4
:102BC00090E8E92E9FE3F92EC0921902D0921A02E2
:102BD000E0921B02F0921C0280921D0290921E0253
:102BE000A0921F02B092200220E030E04FE753E4B1
:102BF000C701B6010E942F19609300017093010173
:102C0000809302019093030153CDE5EBF2E0138230
:102C1000128288EE93E0A0E0B0E084839583A683DF
:102C2000B7832AE331E03183208325EC30E0358718
:102C3000248724EC30E03787268720EC30E0318B86
:102C4000208B21EC30E0338B228B22EC30E0358B73
:102C5000248B26EC30E0378B268B118E128E138E50
:102C6000148EE2E5F3E01382128284839583A683B7
:102C7000B7838CE491E091838083EEE5F3E08BE60B
:102C80009DE09583848381E086832EE130E030935C
:102C90009E0320939D031092B3031092B2031092EF
:102CA000B4031092B50328E037E03093B7032093C4
:102CB000B6031092B8031092B9031092BA0310929F
:102CC000BB031092BD031092BC031092BE0310927E
:102CD000BF031092C0031092C103828388E190E089
:102CE0009183808385E090E09087878308950E9498
:102CF000630CDC01CB0180569947AE4FBF4F8093E8
:102D00000E0190930F01A0931001B09311010C9448
:102D1000E10A80910A0290910F02981709F45FC0AE
:102D200060E0813099F187E00E94CE0660E085E0A6
:102D30000E94CE0664E670E080E090E00E946D079D
:102D40000E94D205892B49F485E00E945104BC0100
:102D50006C7F772785E00E94F3036AE070E080E0F3
:102D600090E00E946D0760E086E00E94CE0664E677
:102D700070E080E090E00E946D0780910C01882354
:102D800051F161E087E00E94CE0625C087E00E94F5
:102D9000CE0660E085E00E94CE0664E670E080E04A
:102DA00090E00E946D0761E086E00E94CE066AE036
:102DB00070E080E090E00E946D070E94D205892BB0
:102DC000B1F685E00E9451048360682F70E085E0D1
:102DD0000E94F303CCCF80910A0280930F020895E2
:102DE00081E080930A020E94891610920C010E94D1
:102DF000700B10920D010E94FA0A0E94771683E967
:102E000093E00E94390260910B0270910C02809154
:102E10000D0290910E020E94D102FFCF5058BB27A5
:102E2000AA270E9426170C94A0180E94921838F026
:102E30000E94991820F039F49F3F19F426F40C945D
:102E40008F180EF4E095E7FB0C948918E92F0E9487
:102E5000B11858F3BA17620773078407950720F073
:102E600079F4A6F50C94D3180EF4E0950B2EBA2F36
:102E7000A02D0B01B90190010C01CA01A001112480
:102E8000FF27591B99F0593F50F4503E68F11A162C
:102E9000F040A22F232F342F4427585FF3CF4695BD
:102EA00037952795A795F0405395C9F77EF41F16DF
:102EB000BA0B620B730B840BBAF09150A1F0FF0FA9
:102EC000BB1F661F771F881FC2F70EC0BA0F621F95
:102ED000731F841F48F4879577956795B795F79585
:102EE0009E3F08F0B0CF9395880F08F09927EE0F1A
:102EF0009795879508950E94651808F481E00895D4
:102F00000E9494170C94A0180E94991858F00E94DF
:102F1000921840F029F45F3F29F00C948918511160
:102F20000C94D4180C948F180E94B11868F399234C
:102F3000B1F3552391F3951B550BBB27AA276217B5
:102F40007307840738F09F5F5F4F220F331F441FC2
:102F5000AA1FA9F335D00E2E3AF0E0E832D09150F6
:102F60005040E695001CCAF72BD0FE2F29D0660FE3
:102F7000771F881FBB1F261737074807AB07B0E826
:102F800009F0BB0B802DBF01FF2793585F4F3AF02C
:102F90009E3F510578F00C9489180C94D4185F3F2B
:102FA000E4F3983ED4F3869577956795B795F795B2
:102FB0009F5FC9F7880F911D9695879597F908959A
:102FC000E1E0660F771F881FBB1F62177307840736
:102FD000BA0720F0621B730B840BBA0BEE1F88F745
:102FE000E09508950E94F9176894B1110C94D418D3
:102FF00008950E94B91888F09F5798F0B92F992723
:10300000B751B0F0E1F0660F771F881F991F1AF0D3
:10301000BA95C9F714C0B13091F00E94D318B1E04D
:1030200008950C94D318672F782F8827B85F39F04C
:10303000B93FCCF3869577956795B395D9F73EF46C
:1030400090958095709561957F4F8F4F9F4F089514
:10305000E89409C097FB3EF4909580957095619532
:103060007F4F8F4F9F4F9923A9F0F92F96E9BB27E8
:103070009395F695879577956795B795F111F8CF64
:10308000FAF4BB0F11F460FF1BC06F5F7F4F8F4FCF
:103090009F4F16C0882311F096E911C0772321F0C5
:1030A0009EE8872F762F05C0662371F096E8862F5D
:1030B00070E060E02AF09A95660F771F881FDAF7B4
:1030C000880F9695879597F90895990F0008550FE1
:1030D000AA0BE0E8FEEF16161706E807F907C0F09E
:1030E00012161306E407F50798F0621B730B840BA6
:1030F000950B39F40A2661F0232B242B252B21F480
:1031000008950A2609F4A140A6958FEF811D811D1F
:10311000089597F99F6780E870E060E008959FEF59
:1031200080EC089500240A9416161706180609065E
:10313000089500240A94121613061406050608952D
:10314000092E0394000C11F4882352F0BB0F40F4B5
:10315000BF2B11F460FF04C06F5F7F4F8F4F9F4FF5
:10316000089557FD9058440F551F59F05F3F71F077
:103170004795880F97FB991F61F09F3F79F08795DE
:103180000895121613061406551FF2CF4695F1DF67
:1031900008C0161617061806991FF1CF86957105F7
:1031A000610508940895E894BB2766277727CB012B
:1031B00097F908950E94651808F48FEF089516F0A6
:1031C0000C94A1190C948F1868940C9489180E947F
:1031D000B918A8F39923C1F3AEF3DF93CF931F93EC
:1031E0000F93FF92C92FDD2788232AF02197660FBE
:1031F000771F881FDAF720E030E040E85FEB9FE3BD
:10320000883920F0803E38F021968F770E940F1782
:10321000E8E6F0E004C00E940F17E5E9F0E00E9444
:10322000AF198B01BE01EC01FB2E6F57710975952B
:10323000771F880B990B0E942A1828E132E741E397
:103240005FE30E944219AF2D9801AE01FF900F91EC
:103250001F91CF91DF910E9426170C94A0180E9415
:1032600042190C94A0180E94921838F00E949918E4
:1032700020F0952311F00C9489180C948F181124C8
:103280000C94D4180E94B11870F3959FC1F3950F58
:1032900050E0551F629FF001729FBB27F00DB11DDA
:1032A000639FAA27F00DB11DAA1F649F6627B00D6A
:1032B000A11D661F829F2227B00DA11D621F739F53
:1032C000B00DA11D621F839FA00D611D221F749F61
:1032D0003327A00D611D231F849F600D211D822FA8
:1032E000762F6A2F11249F5750409AF0F1F08823CF
:1032F0004AF0EE0FFF1FBB1F661F771F881F9150FC
:103300005040A9F79E3F510580F00C9489180C9409
:10331000D4185F3FE4F3983ED4F38695779567958C
:10332000B795F795E7959F5FC1F7FE2B880F911D25
:103330009695879597F908950E946518880B990BC3
:1033400008959F3F31F0915020F4879577956795C8
:10335000B795880F911D9695879597F90895DF93F6
:10336000CF931F930F93FF92EF92DF927B018C011B
:10337000689406C0DA2EEF010E944219FE01E8941B
:10338000A5912591359145915591A6F3EF010E94A4
:103390002617FE019701A801DA9469F7DF90EF90F4
:1033A000FF900F911F91CF91DF910895AA1BBB1B36
:1033B00051E107C0AA1FBB1FA617B70710F0A61B35
:1033C000B70B881F991F5A95A9F780959095BC0156
:1033D000CD01089597FB072E16F4009407D077FDD2
:1033E00009D00E94D61907FC05D03EF4909581952E
:1033F0009F4F0895709561957F4F0895A1E21A2E11
:10340000AA1BBB1BFD010DC0AA1FBB1FEE1FFF1F88
:10341000A217B307E407F50720F0A21BB30BE40BD8
:10342000F50B661F771F881F991F1A9469F760951F
:103430007095809590959B01AC01BD01CF010895D9
:10344000052E97FB1EF400940E94371A57FD07D0F3
:103450000E94FE1907FC03D04EF40C94371A5095C5
:103460004095309521953F4F4F4F5F4F0895909570
:103470008095709561957F4F8F4F9F4F08950E9463
:10348000471A332312F48A1B9B0B0C94581AA29FE1
:10349000B001B39FC001A39F700D811D1124911D28
:1034A000B29F700D811D1124911D08950E94471A2D
:1034B000B7FF0895821B930B08950E94471AA59F9A
:1034C000900DB49F900DA49F800D911D112408951F
:1034D000EE0FFF1F0590F491E02D099481E090E03C
:1034E000F8940C947E1AFB01DC010D900020E9F7A2
:1034F000119701900D920020E1F70895F894FFCF05
:1035000000007F430000B4420000A0420101E80334
:103510000000120C120C110016001C0021002700E4
:103520002C00320038003D00430048004E0053009C
:1035300059005E006400000000000F08130CA7078C
:103540005608D807B607CA07000000001009E008AF
:103550004009B408D808C408B5088BFD37C24E65C9
:10356000ECC50069A743A47CF5C5584B0046CCDDEB
:103570009D4103097941773E9E4163EE7E41E78C90
:1035800084C131003000424D5320636F6D6D756E04
:1035900069636174696F6E206572726F7200536542
:1035A0007474696E672043454C4C42414C00207254
:1035B0006567697374657220746F3A2000436C65A7
:1035C0006172696E67205265676973746572204322
:1035D000454C4C42414C006C645F69202D20707654
:1035E0005F693A20000D0A006E616E00696E660028
:1035F0006F766600496E746572727570743A204316
:0836000043207265616479004A
:00000001FF
