:100000000C943F010C94BC0D0C94950D0C9467015D
:100010000C9467010C9467010C9467010C946701C0
:100020000C9467010C9467010C9467010C946701B0
:100030000C9467010C9467010C9467010C946701A0
:100040000C944B0D0C9467010C949E090C94780948
:100050000C9467010C9467010C9467010C94670180
:100060000C94D0090C94670108000000BE9224494A
:10007000123EABAAAA2ABECDCCCC4C3E00000080DA
:10008000BEABAAAAAA3E00000000BF000000803F4D
:100090000000000000084178D3BB4387D1133D190D
:1000A0000E3CC3BD4282AD2B3E68EC8276BED98F3A
:1000B000E1A93E4C80EFFFBE01C4FF7F3F0000007E
:1000C0000000537461727475702E2E2E004C412006
:1000D0004F564552564F4C544147452E2E2E2053D5
:1000E000544F5050494E47004C4F4144204F5645C5
:1000F0005243555252454E542E2E2E2053544F509B
:1001000050494E47005056204F564552564F4C547A
:100110004147452E2E2E2053544F5050494E4700F4
:100120005056204F56455243555252454E542E2E4E
:100130002E2053544F5050494E470020002000209D
:1001400000200020002000200020002000200020AF
:1001500000200020002000200020002000000000DF
:1001600000240027002A0000000000250028002BA2
:100170000004040404040404040202020202020350
:10018000030303030301020408102040800102045A
:1001900008102001020408102000000008000201DD
:1001A0000000030407000000000000000041747418
:1001B000656D7074696E6720746F20636C65617221
:1001C000204F4344206572726F7200417474656DF4
:1001D0007074696E6720746F20636C656172205360
:1001E0004344206572726F7200417474656D70745F
:1001F000696E6720746F20636C656172204F5620B2
:100200006572726F7200417474656D7074696E67A7
:1002100020746F20636C6561722055562065727280
:100220006F7200417474656D7074696E6720746FCD
:1002300020636C65617220416C6572742065727216
:100240006F7200417474656D7074696E6720746FAD
:1002500020636C656172205852206572726F720063
:100260004C41204F56455243555252454E542E2E26
:100270002E2053544F5050494E4700008B161124E6
:100280001FBECFEFD8E0DEBFCDBF11E0A0E0B1E0F0
:10029000ECE5F5E302C005900D92A63EB107D9F753
:1002A00024E0A6EEB1E001C01D92A332B207E1F74F
:1002B00011E0CFE3D1E004C02197FE010E94961A1D
:1002C000CE33D107C9F70E94E30D0C94AC1A0C94FD
:1002D00000003FB7F89480912E0290912F02A091D8
:1002E0003002B091310226B5A89B05C02F3F19F00E
:1002F0000196A11DB11D3FBFBA2FA92F982F8827A6
:10030000820F911DA11DB11DBC01CD0142E0660F00
:10031000771F881F991F4A95D1F70895009769F0B4
:10032000FC0101900020E9F73197AF01481B590B00
:10033000BC018FE992E00C94200D80E090E00895DC
:100340008F929F92AF92BF920F931F93CF93DF93A1
:10035000CDB7DEB7A1970FB6F894DEBF0FBECDBF05
:1003600019A2423008F44AE08E010F5D1F4F842E1F
:10037000912CA12CB12CA50194010E942C1AE62FDE
:10038000B901CA0101501109EA3014F4E05D01C05D
:10039000E95CD801EC93232B242B252B61F7C801B2
:1003A0000E948E01A1960FB6F894DEBF0FBECDBF9E
:1003B000DF91CF911F910F91BF90AF909F908F9041
:1003C00008950F931F93CF93DF938C01C0E0D0E08B
:1003D000F801EC0FFD1F6491662371F0E0919F021C
:1003E000F091A0020190F081E02D8FE992E0099553
:1003F000892B11F02196ECCFCE01DF91CF911F9187
:100400000F910895E0919F02F091A0020190F08178
:10041000E02D682F8FE992E009944F925F926F92DE
:100420007F928F929F92AF92BF92CF92DF92EF9284
:10043000FF926B017C01B42E9B01AC010E94CA1992
:10044000882319F08AED91E027C026013701E8944E
:1004500077F82FEF3FEF4FE75FE7C301B2010E944C
:10046000CA1981110DC02FEF3FEF4FE75FE7C301BE
:10047000B2010E94A91718161CF48EED91E00CC071
:100480002FEF3FEF4FE75FE4C701B6010E94081965
:10049000181684F482EE91E0FF90EF90DF90CF90F9
:1004A000BF90AF909F908F907F906F905F904F9094
:1004B0000C948E012FEF3FEF4FE75FECC701B601C1
:1004C0000E94A91787FDE6CF20E030E0A901C7010F
:1004D000B6010E94A91787FF09C08DE20E9402029F
:1004E0004C01F7FAF094F7F8F09402C0812C912CAB
:1004F000A12C60E070E080E09FE3AB1441F020E0CD
:1005000030E040E251E40E94AE17A394F6CF9B0185
:10051000AC01C701B6010E943D172B013C010E94AE
:1005200027186B017C010E9456189B01AC01C30186
:10053000B2010E943C172B013C014AE0C701B60101
:100540000E94A0017C01E80CF91CBB2029F08EE27E
:100550000E940202E80EF91EDB2CDD2021F120E0D2
:1005600030E040E251E4C301B2010E945D192B0169
:100570003C010E9427184B01A12CB12C4AE0C50177
:10058000B4010E94A001E80EF91EC501B4010E9449
:1005900056189B01AC01C301B2010E943C172B010C
:1005A0003C01DA94DACFC701FF90EF90DF90CF9053
:1005B000BF90AF909F908F907F906F905F904F9083
:1005C0000895CF92DF92EF92FF92CF93DF936C0169
:1005D000990FEE08FF08F7FE17C08DE20E94020295
:1005E000EC0166277727CB016C197D098E099F09DD
:1005F0004AE00E94A0018C0F9D1FDF91CF91FF90D8
:10060000EF90DF90CF9008954AE0C701B601DF91E7
:10061000CF91FF90EF90DF90CF900C94A0010C94BD
:100620000D0220919E0290919D02213208F04AC055
:1006300080917A028111FCCF32E030937A0231E06E
:10064000309379023FEF3093780210927702209333
:100650007602ADE7B2E046E552E0FA013E2F341BE8
:10066000321718F43D913193F9CF10925502209131
:100670005502990F922B909355029091540291300C
:1006800061F410925402909155029093BB009091A6
:10069000BC0093FDF8CF95EC01C095EE9093BC00A3
:1006A00090917A029230E1F3909178029F3F79F035
:1006B00080917802803241F080917802803331F06D
:1006C00084E005C081E003C082E001C083E01092B5
:1006D0007C0210929E0210927B020895CF93C62F47
:1006E0009091480321E020937B0290939D02109209
:1006F0007C0210929E02682F8CE393E00E94950882
:100700006C2F8CE393E00E949508CF910C94110319
:1007100090917A029111FCCF91E090937A0290939C
:1007200079022FEF2093780210927702260F209300
:1007300076029093550290915502880F892B8093F1
:10074000550280915402813061F4109254028091DC
:1007500055028093BB008091BC0083FDF8CF85ECEF
:1007600001C085EE8093BC0080917A028130E1F374
:1007700080917702861710F460917702A6E5B2E0C7
:1007800024E332E0F9018E2F821B861718F48D9135
:100790008193F9CF862F0895CF93DF93C8E4D3E0F8
:1007A000988121E020937B0290939D0210927C021D
:1007B00010929E02682F8CE393E00E9495080E949D
:1007C000110361E088810E948803109233028093B4
:1007D00032028CE393E0DF91CF910C944908CF93E0
:1007E000DF930E94E101EC018EE991E00E948E010D
:1007F0008C0F9D1FDF91CF910895AF92BF92CF9242
:10080000DF92EF92FF920F931F93CF93DF938AE2D1
:100810000E94CC03182F8BE20E94CC03EC01609164
:10082000980370919903072E000C880B990B0E9476
:10083000581820E030E040E850E40E945D196B0158
:100840007C0180E090E0912F8C2B9D2BBC01990FB7
:10085000880B990B0E9458189B01AC01C701B60187
:100860000E945D1920E030E04AE754E40E94AE1790
:100870006B017C0180919A0390919B03880F991FD3
:10088000880F991FBC01990F880B990B0E9458186B
:100890009B01AC01C701B6010E943D170E942018C0
:1008A0006093710370937203809373039093740346
:1008B0008091480391E090937B0280939D02109277
:1008C0007C0210929E026CE08CE393E00E949508FB
:1008D0000E94110360914F03660F613208F060E2DD
:1008E000809148030E948803109233028093320261
:1008F00090E020914F0330915003220F331F821755
:10090000930709F05BC010926F031092700301E52A
:1009100013E0C0E0D0E068EEC62E63E0D62EE12CF6
:10092000F12C80914F0390915003C817D9070CF018
:1009300045C08CE393E00E9449085C018CE393E09E
:100940000E94490895012F733327322F2227282B25
:10095000392BA0919803B09199030E946D1AA701B9
:1009600096010E944E1A80919A0390919B03280F42
:10097000391FF801219331938F01E0916F03F0E06B
:10098000EE0FFF1FE85BFC4F81859285821793076E
:1009900014F4C0936F03E0917003F0E0EE0FFF1FBB
:1009A000E85BFC4F81859285281739072CF4253F99
:1009B000314014F0C09370032196B3CFDF91CF91F3
:1009C0001F910F91FF90EF90DF90CF90BF90AF906D
:1009D000089590E0FC01E756FE4F3491FC01EB577F
:1009E000FE4F2491FC01EF58FE4FE491EE2309F4F1
:1009F0003BC0332339F1333091F038F43130A9F072
:100A0000323001F584B58F7D12C0373091F0383027
:100A1000A1F03430B9F4809180008F7D03C08091C3
:100A200080008F77809380000DC084B58F7784BD60
:100A300009C08091B0008F7703C08091B0008F7D96
:100A40008093B000F0E0EE0FFF1FE959FE4FA59133
:100A5000B4918FB7F894EC91611103C020952E23C7
:100A600001C02E2B2C938FBF0895CF93DF9390E07E
:100A7000FC01EB57FE4F2491FC01EF58FE4F84918F
:100A8000882361F190E0880F991FFC01E35AFE4F23
:100A9000C591D491FC01E959FE4FA591B491611122
:100AA00009C09FB7F8948881209582238883EC91B0
:100AB0002E230BC0623061F49FB7F8943881822FE7
:100AC000809583238883EC912E2B2C939FBF06C0A7
:100AD0008FB7F894E8812E2B28838FBFDF91CF91B9
:100AE00008958E3008F08E508770806480937C006B
:100AF00080917A00806480937A0080917A0086FDEC
:100B0000FCCF809178002091790090E0922B08959D
:100B10008F929F92AF92BF92CF92DF92EF92FF920D
:100B20006B017C010E9469014B015C01C114D1047D
:100B3000E104F104F1F00E946901DC01CB018819A4
:100B40009909AA09BB09883E9340A105B10570F334
:100B500021E0C21AD108E108F10888EE880E83E08E
:100B6000981EA11CB11CC114D104E104F10419F7B1
:100B7000DDCFFF90EF90DF90CF90BF90AF909F9030
:100B80008F9008952FB7F89460912A0270912B02EC
:100B900080912C0290912D022FBF0895CF93DF9367
:100BA000D82F80E00E94CC03C82FDD2309F44CC06D
:100BB00082E30E94CC03D82F83E30E94CC0360E041
:100BC00070E07D2F862B972BBC01990F880B990B1A
:100BD0000E9458182DE33AE047E051E40E945D1965
:100BE00020E030E040EA50E40E94AE170E94201856
:100BF00060937503709376038093770390937803E3
:100C0000462F572FBC0177FF07C070956095509510
:100C100041955F4F6F4F7F4F80918703909188037D
:100C2000092E000CAA0BBB0B84179507A607B70764
:100C300084F40E94C2056093A2037093A30380937F
:100C4000A4039093A50305C087FDB2CFDF91CF9198
:100C50000895CF7311F410924E0360E870E080E0C5
:100C6000DF91CF910C946E030F931F93CF93DF937B
:100C700080914E03811107C080919C0390919D0348
:100C8000009709F4E4C080E00E94CC03EC0187FFE8
:100C900003C081E00E94CE058C2F8F7309F4CFC072
:100CA00080914E03882321F01092A7031092A6038F
:100CB000CE01992790939D0380939C030E94C205C7
:100CC0000091A8031091A9032091AA033091AB03CE
:100CD000601B710B820B930B28EE33E040E050E079
:100CE0000E942C1AB9018091A6039091A70328179E
:100CF000390749F0F901E81BF90B339720F03093DD
:100D0000A7032093A6038091A6039091A7036817D9
:100D1000790708F498C0C5FF0FC063E070E00E9437
:100D2000041A892B49F483E492E00E94EF0360E205
:100D300070E080E00E946E03C4FF13C08091A603A0
:100D40009091A7036AE070E00E94041A892B49F48D
:100D500083E292E00E94EF0360E170E080E00E9495
:100D60006E03C3FF1BC00E94FD03E0917003F0E01F
:100D7000EE0FFF1FE85BFC4F2185328580919303C6
:100D800090919403821793074CF486E092E00E94BE
:100D9000EF0368E070E080E00E946E03C2FF1BC0BA
:100DA0000E94FD03E0916F03F0E0EE0FFF1FE85B90
:100DB000FC4F2185328580919103909192032817F1
:100DC00039074CF489EE91E00E94EF0364E070E093
:100DD00080E00E946E03C1FF13C08091A603909132
:100DE000A7036CE370E00E94041A892B49F48BEC92
:100DF00091E00E94EF0362E070E080E00E946E03E9
:100E0000C0FF13C08091A6039091A7036CE370E02C
:100E10000E94041A892B49F48DEA91E00E94EF03A5
:100E200061E070E080E00E946E038091A6039091E3
:100E3000A70301969093A7038093A60304C0109282
:100E40009D0310929C0380919C0390919D03DF91E0
:100E5000CF911F910F910895FC01538D448D252F43
:100E600030E0842F90E0821B930B541710F0CF9644
:100E7000089501970895FC01918D828D981761F076
:100E8000828DDF01A80FB11D5D968C91928D9F5FC1
:100E90009F73928F90E008958FEF9FEF0895FC016C
:100EA000918D828D981731F0828DE80FF11D858D1F
:100EB00090E008958FEF9FEF0895FC01918D228DB2
:100EC000892F90E0805C9F4F821B91098F73992737
:100ED00008958FE992E00E945D0721E0892B09F4D3
:100EE00020E0822F0895FC01848DDF01A80FB11D41
:100EF000A35ABF4F2C91848D90E001968F73992750
:100F0000848FA689B7892C93A089B1898C9180643C
:100F10008C93938D848D981306C00288F389E02DFD
:100F200080818F7D80830895EF92FF920F931F93AE
:100F3000CF93DF93EC0181E0888F9B8D8C8D98138C
:100F400005C0E889F989808185FD24C0F62E0B8DC6
:100F500010E00F5F1F4F0F731127E02E8C8DE812EA
:100F60000CC00FB607FCFACFE889F989808185FFAC
:100F7000F5CFCE010E947307F1CF8B8DFE01E80FF4
:100F8000F11DE35AFF4FF0820B8FEA89FB898081C4
:100F9000806207C0EE89FF896083E889F9898081D2
:100FA0008064808381E090E0DF91CF911F910F9169
:100FB000FF90EF900895CF93DF93EC01888D882305
:100FC000C9F0EA89FB89808185FD05C0A889B989B6
:100FD0008C9186FD0FC00FB607FCF5CF808185FF91
:100FE000F2CFA889B9898C9185FFEDCFCE010E94FF
:100FF0007307E7CFDF91CF91089580E090E0892BD0
:1010000029F00E94690781110C940000089585ED74
:101010008093BC008091BC0084FDFCCF10927A02CA
:1010200008954091FD03262F30E0240F311D213219
:101030003105DCF420917A022430C9F4FC0180E00F
:1010400090E0861758F43091FD032191DC01A55200
:10105000BC4FA30FB11D2C930196F3CF8091FD03DC
:10106000680F6093FD0380E0089581E0089582E0B9
:1010700008950895E091330280913202E81730F428
:10108000F0E0EC5CFD4F808190E008958FEF9FEFE2
:1010900008959091330280913202981750F4E92F0D
:1010A000F0E0EC5CFD4F208130E09F5F90933302D5
:1010B00002C02FEF3FEFC90108958091320290E006
:1010C00020913302821B91090895CF92DF92EF9213
:1010D000FF920F931F93CF93DF937C01262F972FBF
:1010E0008A0180917B02882391F0C62FD72F6E0151
:1010F000C40ED51ECC15DD0571F06991D701ED91B7
:10110000FC910190F081E02DC7010995F3CF642F88
:10111000822F0E941108C801DF91CF911F910F917A
:10112000FF90EF90DF90CF900895CF93DF931F92C1
:10113000CDB7DEB7698320917B022223D1F02091C5
:101140009E02203240F021E030E0FC013383228314
:1011500080E090E015C080917C02E82FF0E0E35839
:10116000FD4F998190838F5F80937C0280939E02D4
:1011700005C061E0CE0101960E94110881E090E077
:101180000F90DF91CF910895089580E090E0089549
:101190000E949C1ACF93DF93C091E601D091E701A2
:1011A000209759F00E94C205FE01E05AFF4F60836C
:1011B00071838283938381E08E83DF91CF91089541
:1011C000CF92DF92EF92FF920F931F93CF93DF9313
:1011D000C82F8330F1F050F48130A1F0823029F52E
:1011E00081E08093DA031092D90318C08430C9F0EB
:1011F0008530D9F41092DA031092D90381E08093FC
:10120000D80313C08093DA031092D9038093D803D4
:101210000CC01092DA0381E08093D9031092D803B6
:1012200004C081E08093DA03F7CF6091DA038EE0A7
:101230000E94E9046091D9038FE00E94E904609163
:10124000D80380E10E94E90461E070E080E090E072
:101250000E948805D4E6C12CD12C760103EC10E065
:1012600081E10E947105BC01990F880B990B0E94C6
:1012700058189B01AC01C701B6010E943D176B01D4
:101280007C01C8010197F1F7D15051F720E030E01F
:1012900048EC52E4C701B6010E94AE17C150C530F8
:1012A00098F424E0C29FD0011124FD01E259FE4FC1
:1012B0002081318142815381FD01E65AFE4FC08079
:1012C000D180E280F38005C0C12CD12C7601A7012A
:1012D00096010E945D19A70196010E943D17DF91BA
:1012E000CF911F910F91FF90EF90DF90CF900895D5
:1012F0001F920F920FB60F9211242F933F934F938B
:101300005F936F937F938F939F93AF93BF93EF936D
:10131000FF938FE992E00E947307FF91EF91BF91D5
:10132000AF919F918F917F916F915F914F913F917D
:101330002F910F900FBE0F901F9018951F920F9234
:101340000FB60F9211242F938F939F93EF93FF93D8
:10135000E091AF02F091B0028081E091B502F0918E
:10136000B60282FD12C090818091B8028F5F8F73A8
:101370002091B902821751F0E091B802F0E0E156F5
:10138000FD4F958F8093B80201C08081FF91EF914E
:101390009F918F912F910F900FBE0F901F901895D6
:1013A0001F920F920FB60F9211242F933F934F93DA
:1013B0005F936F937F938F939F93AF93BF93EF93BD
:1013C000FF938091B900887F803609F49CC068F54E
:1013D000883209F45BC090F4803109F454C038F4C9
:1013E000882309F4F6C0883009F44DC0F6C088316E
:1013F00009F44CC0803209F45DC0EFC0803409F4B8
:1014000068C048F4803309F455C0883309F0E5C05A
:1014100080937802D8C0803509F44FC0883509F42C
:101420005DC0883409F0D9C0D6C0883909F4C7C076
:10143000A8F4883709F467C038F4883609F463C023
:10144000803709F460C0C9C0883809F4B8C0803951
:1014500009F45FC0803809F0C0C05BC0803B09F46C
:1014600086C038F4803A09F466C0883A09F47FC02F
:10147000B4C0803C09F4A7C0883C09F4A4C0883BF0
:1014800009F48AC0AAC08091550210C090917702D9
:1014900080917602981770F5E091770281E08E0FC7
:1014A00080937702F0E0EA5AFD4F80818093BB0081
:1014B00085EC86C0809378028EC0E091770281E04F
:1014C0008E0F809377028091BB00F0E0EA5AFD4FC7
:1014D000808390917702809176026EC0E0917702CE
:1014E00081E08E0F809377028091BB00F0E0EA5A92
:1014F000FD4F80838091790281116DC081E08093DE
:10150000540284EA61C083E080937A02109221043D
:10151000CFCF80912104803208F051C0E0912104A6
:1015200081E08E0F809321048091BB00F0E0EF5F9B
:10153000FB4F8083BDCF85EC8093BC0010927A0274
:1015400080912104803230F4E0912104F0E0EF5FDB
:10155000FB4F10826091210470E0E091FF03F09155
:10156000000481E094E009951092210436C084E0E3
:1015700080937A021092FE031092FD03E091FB0328
:10158000F091FC0309958091FD03811105C081E074
:101590008093FD031092DB03E091FE0381E08E0F48
:1015A0008093FE03F0E0E552FC4F80818093BB0006
:1015B0009091FE038091FD03981708F479CF85E898
:1015C0008093BC000AC085EC8093BC0010927A0224
:1015D00004C0109278020E940708FF91EF91BF911A
:1015E000AF919F918F917F916F915F914F913F91BB
:1015F0002F910F900FBE0F901F9018950F931F9370
:101600000E94C20500910E0110910F01209110015E
:1016100030911101601771078207930710F461E0A0
:1016200001C060E085E01F910F910C94E904CF9216
:10163000DF92EF92FF92CF93DF9380910D01882389
:1016400099F06091000170910101809102019091E7
:1016500003010E9420186B017C01EB0161E089E02D
:101660000E943505209711F460E004C0CF3FD105FA
:1016700051F461E089E0DF91CF91FF90EF90DF902E
:10168000CF900C94E904E2EAF1E0E491E330F9F060
:1016900048F4E130B9F0E230A1F584B5806284BD50
:1016A000C8BC34C0E730E9F0E83019F1E43049F55E
:1016B00080918000806280938000D0928B00C092E5
:1016C0008A0024C084B5806884BDC7BC1FC08091D7
:1016D0008000806880938000D0928900C09288004A
:1016E00015C08091B00080688093B000C092B300B4
:1016F0000DC08091B00080628093B000C092B400B1
:1017000005C0C038D1050CF0B4CFAECFDF91CF917A
:10171000FF90EF90DF90CF90089580910C01882387
:1017200011F061E001C060E087E00C94E904809171
:10173000E80190910902981709F45FC060E08130D8
:1017400099F187E00E94E90460E085E00E94E904E5
:1017500064E670E080E090E00E9488050E94340614
:10176000892B49F485E00E94CC03BC016C7F77276C
:1017700085E00E946E036AE070E080E090E00E94E5
:10178000880560E086E00E94E90464E670E080E09D
:1017900090E00E94880580910C01882351F161E05E
:1017A00087E00E94E90425C087E00E94E90460E028
:1017B00085E00E94E90464E670E080E090E00E9429
:1017C000880561E086E00E94E9046AE070E080E05C
:1017D00090E00E9488050E943406892BB1F685E0CE
:1017E0000E94CC038360682F70E085E00E946E0346
:1017F000CCCF8091E8018093090208958F929F9247
:10180000AF92BF92CF92DF92EF92FF920F931F930E
:10181000CF93DF9381E00E94E0086093050270930C
:101820000602809307029093080282E00E94E0087B
:10183000DC01CB01B0588093010290930202A09387
:101840000302B093040283E00E94E0086093F10178
:101850007093F2018093F3019093F40184E00E946D
:10186000E0086093ED017093EE018093EF01909397
:10187000F00185E00E94E0086093E9017093EA01BD
:101880008093EB019093EC0160917103709172036E
:10189000072E000C880B990B0E9458186093F901D1
:1018A0007093FA018093FB019093FC01C4E6C12C74
:1018B000D12C760103EC10E085E10E947105BC019A
:1018C000990F880B990B0E9458189B01AC01C70116
:1018D000B6010E943D176B017C01C8010197F1F729
:1018E000C15051F720E030E048EC52E4C701B601A6
:1018F0000E94AE172EE634E340E85EE30E945D19D5
:101900002BE734E144EA51E40E943C176093D4038E
:101910007093D5038093D6039093D703CCEAD3E09A
:10192000FE0184819581A681B78181939193A193D2
:10193000B19323E0E03DF207A1F78091010290917D
:101940000202A0910302B09104028093D00390930D
:10195000D103A093D203B093D30360E070E0CB0136
:1019600029913991499159910E943D1723E0C43D35
:10197000D207B1F720E030E040E251E40E94AE1718
:101980006093FD017093FE018093FF01909300022C
:10199000C090F501D090F601E090F701F090F801C9
:1019A0006091750370917603072E000C880B990BDC
:1019B0000E9458184B015C0120E030E04AE754E4F3
:1019C000C701B6010E943D179B01AC01C501B401DE
:1019D0000E940819181644F08092F5019092F601C1
:1019E000A092F701B092F80120E030E04AE754E419
:1019F000C701B6010E943C179B01AC016091F50143
:101A00007091F6018091F7019091F8010E94A91759
:101A100087FF08C0C092F501D092F601E092F7016D
:101A2000F092F801DF91CF911F910F91FF90EF900D
:101A3000DF90CF90BF90AF909F908F9008950895C2
:101A4000CF92DF92EF92FF920F931F93CF93DF938A
:101A50006C017A018B01C0E0D0E0CE15DF0589F082
:101A6000D8016D918D01D601ED91FC910190F0812D
:101A7000E02DC6010995892B11F47E0102C0219643
:101A8000ECCFC701DF91CF911F910F91FF90EF90A5
:101A9000DF90CF9008951F920F920FB60F921124EE
:101AA0002F933F938F939F93AF93BF9380912A027D
:101AB00090912B02A0912C02B0912D023091220422
:101AC00023E0230F2D3720F40196A11DB11D05C081
:101AD00026E8230F0296A11DB11D209322048093B6
:101AE0002A0290932B02A0932C02B0932D02809196
:101AF0002E0290912F02A0913002B09131020196F6
:101B0000A11DB11D80932E0290932F02A09330024D
:101B1000B0933102BF91AF919F918F913F912F91DF
:101B20000F900FBE0F901F9018951F920F920FB637
:101B30000F9211242F933F934F935F936F937F9353
:101B40008F939F93AF93BF93EF93FF93E091140113
:101B5000F09115010995FF91EF91BF91AF919F9180
:101B60008F917F916F915F914F913F912F910F9046
:101B70000FBE0F901F9018951F920F920FB60F92E5
:101B800011242F933F934F935F936F937F938F9382
:101B90009F93AF93BF93EF93FF93E0911201F09166
:101BA00013010995FF91EF91BF91AF919F918F9193
:101BB0007F916F915F914F913F912F910F900FBE49
:101BC0000F901F901895789484B5826084BD84B579
:101BD000816084BD85B5826085BD85B5816085BD28
:101BE00080916E00816080936E00109281008091E0
:101BF0008100826080938100809181008160809368
:101C00008100809180008160809380008091B1008C
:101C100084608093B1008091B00081608093B000B7
:101C200080917A00846080937A0080917A0082604B
:101C300080937A0080917A00816080937A0080910D
:101C40007A00806880937A001092C10061E08EE093
:101C50000E94350561E08FE00E94350561E080E17A
:101C60000E94350560E081E10E94350561E086E073
:101C70000E94350561E089E00E94350561E087E05A
:101C80000E94350560E086E00E94E90460E089E09A
:101C90000E94E90460E087E00E94E90480918100ED
:101CA000887F856080938100E091AF02F091B0025F
:101CB00082E08083E091AB02F091AC021082E0916F
:101CC000AD02F091AE0280E180831092B702E09104
:101CD000B302F091B40286E08083E091B102F0910A
:101CE000B202808180618083E091B102F091B20202
:101CF000808188608083E091B102F091B20280819E
:101D000080688083E091B102F091B20280818F7D82
:101D1000808382EC90E00E94EF03109233021092D5
:101D2000320210927C0210929E0210927A0281E09E
:101D3000809379021092540261E082E10E94E904EA
:101D400061E083E10E94E9048091B9008E7F809375
:101D5000B9008091B9008D7F8093B90088E48093A9
:101D6000B80085E48093BC00109252031092510396
:101D7000109254031092530310925603109255037D
:101D8000109258031092570361E08FEF0E943505BF
:101D900061E08FEF0E94E90465E070E080E090E090
:101DA0000E94880560E08FEF0E9435056AE070E0D0
:101DB00080E090E00E94880569E170E08BE00E947D
:101DC0006E038BE00E94CC03499791F568E170E0C7
:101DD00084E00E946E0360E470E085E00E946E0380
:101DE00088E493E09093E7018093E60181E50E9407
:101DF000CC0390939B0380939A0380E50E94CC03CD
:101E0000EC0189E50E94CC03807E992765E09595D9
:101E100087956A95E1F7CC70DD27CC0FDD1F8C2B01
:101E20009D2B83599E4F909399038093980308C0EC
:101E300086E891E00E948E018EE991E00E948E0179
:101E400088E39FEF90938C0380938B0382EC91E067
:101E50009093900380938F0310928A0310928903CA
:101E600090938E0380938D0385E080934B036FE9FD
:101E700070E086E00E946E03C0E020914B0330E0EA
:101E8000A0E4BFE10E94751A28EE33E040E050E084
:101E90000E944E1AE6E5F1E08FE190E072916291C6
:101EA0006B01770FEE08FF082C153D054E055F0509
:101EB00034F08F706C2F607FC62FC82B02C0019743
:101EC00069F7C0676C2F70E087E00E946E0388E2BC
:101ED0009AE0909394038093930388E00E94CC034C
:101EE000C82F80919A0390919B03092E000CAA0B96
:101EF000BB0B48E25AE060E070E09A01AB01281B9E
:101F0000390B4A0B5B0BA8EEB3E00E948B1A2091B1
:101F1000980330919903032E000C440B550B0E943B
:101F20004E1ADA01C90134E0B595A79597958795C2
:101F30003A95D1F721E0280F622F70E08AE00E94E5
:101F40006E03C06C6C2F70E088E00E946E0382E428
:101F50009EE0909392038093910388E00E94CC03CB
:101F6000C82F80919A0390919B03092E000CAA0B15
:101F7000BB0B42E45EE060E070E09A01AB01281B1D
:101F8000390B4A0B5B0BA8EEB3E00E948B1A209131
:101F9000980330919903032E000C440B550B0E94BB
:101FA0004E1ADA01C90144E0B595A7959795879532
:101FB0004A95D1F7682F70E089E00E946E03C063F4
:101FC0006C2F70E088E00E946E031092A1031092C3
:101FD000A00384EE9CE0909396038093950384E1A4
:101FE0008093970384E690E090938803809387031F
:101FF00081E080939E030E94FE0B2EE03DE242EBC7
:102000005DE3609105027091060280910702909154
:1020100008020E945D1920E030E04AE754E40E9483
:102020003C17609308017093090180930A01909313
:102030000B010E94C20560931702709318028093EF
:10204000190290931A0222242394312C0E94FE0B31
:1020500020E030E04AE756E4609105027091060204
:1020600080910702909108020E9408191816F4F452
:1020700081E08093E8010E94970B10920C010E946E
:102080008D0B10920D010E94170B0E940C178DEC06
:1020900090E00E94EF03609105027091060280912A
:1020A0000702909108020E94FD16FFCFC090010226
:1020B000D0900202E0900302F090040220E030E4AD
:1020C0004CE955E4C701B6010E940819181614F42A
:1020D0000E941E1720E030EC4AE556ECC701B6011D
:1020E0000E94A91787FDF4CF8090E9019090EA0142
:1020F000A090EB01B090EC0120E030EC4AE556E412
:10210000C501B4010E9408191816ECF410920C01D4
:102110000E948D0B10920D010E94170B1092E80186
:102120000E94970B0E940C1788EE90E00E94EF032C
:102130006091E9017091EA018091EB019091EC01CD
:102140000E94FD16FFCF20E030E543EC56E460919D
:10215000F1017091F2018091F3019091F4010E94DC
:1021600008191816ECF410920D010E94170B10922A
:102170000C010E948D0B1092E8010E94970B0E94A7
:102180000C1785E091E00E94EF036091F1017091DE
:10219000F2018091F3019091F4010E94FD16FFCFAE
:1021A0004090ED015090EE016090EF017090F001D1
:1021B00020E030E44CE955E4C301B2010E94081963
:1021C0001816ECF410920D010E94170B10920C01DE
:1021D0000E948D0B1092E8010E94970B0E940C1731
:1021E00080E291E00E94EF036091ED017091EE01B9
:1021F0008091EF019091F0010E94FD16FFCFA301A5
:102200009201C701B6010E943C172091F50130915F
:10221000F6014091F7015091F8010E943D17A50188
:1022200094010E943D1720E030E040EA51E40E9412
:102230003D1760930A0270930B0280930C029093F7
:102240000D0280E00E94CE050E94FD0380914803AC
:1022500091E090937B0280939D0210927C021092F9
:102260009E026CE28CE393E00E9495080E941103A9
:1022700062E0809148030E948803109233028093A9
:102280003202823009F080C08CE393E00E9449085A
:10229000EC018CE393E00E944908BE016F7377273D
:1022A000762F6627862B972BBC01990F880B990BED
:1022B0000E94581821E835E943EC5EE30E945D195D
:1022C0000E942018072E000C880B990B0E945818AA
:1022D0006B017C0120E030E44CE156E40E945D1982
:1022E0004B015C01A701960160E070E48EE495E487
:1022F0000E943C179B01AC01C501B4010E94AE17BE
:102300000E9427180E94561820E030E44CE156E461
:102310000E94AE170E9415196B017C0180914C033D
:1023200090914D03BC01990F880B990B0E9458188E
:102330009B01AC0160E070E080E89FE30E94AE1773
:10234000A70196010E945D192FE03FEC4BE55BE38E
:102350000E943D179B01AC0160E070E080E89FE3C4
:102360000E94AE1723E333E948E853E40E943C1788
:1023700020E030E040E251E40E945D190E94201804
:1023800070937A03609379030E94C2056B017C010C
:102390004090A2035090A3036090A4037090A50303
:1023A00080914F039091500365E070E00E94181AED
:1023B0004B010E943406892B09F017C2C701B601F0
:1023C000641975098609970928EE33E040E050E06A
:1023D0000E942C1A8091A0039091A103092E000C59
:1023E000AA0BBB0B281739074A075B070CF4FDC182
:1023F000E0916F03F0E0EE0FFF1FE85BFC4F81857B
:1024000092852091950330919603281739070CF097
:10241000ECC1E0917003F0E0EE0FFF1FE85BFC4FB2
:1024200021853285821B930B2091970330E028177A
:1024300039070CF0DAC181E080939F03C8E4D3E050
:10244000E12CF12C9924E814F9040CF075C0E0910A
:102450007003F0E0EE0FFF1FE85BFC4FA185B28533
:10246000C0909703D12CB12C80E090E0FC01EE0FDE
:10247000FF1FEC0FFD1F218532852A1B3B0BC21667
:10248000D306D4F49101082E01C0220F0A94EAF772
:102490006B2D622BE62FF0E02B2D30E0AF01440FC7
:1024A000551F42235323452B39F4220F331F2E236C
:1024B0003F23232B09F4B62E019685309105B1F602
:1024C00081EA91E00E948E018FEFE81AF80AC701B5
:1024D0000E94E10281EB91E00E948E01CB2CD12C75
:1024E00010920E0248E0A42EB12C00E810E0C801C2
:1024F0008C219D218017910719F064E871E002C0DA
:1025000062E871E08EE092E00E94A11A15950795AD
:1025100081E0A81AB10859F78EE092E00E948E017E
:102520008EE991E00E948E01B6018E2D0E946E030D
:102530002A9689CF10929F030E94C205C09017026D
:10254000D0901802E0901902F0901A0297018601CB
:1025500008511C4F2F4F3F4F061717072807390701
:1025600008F070C00E94C2056C197D098E099F0990
:102570000E94561820E030E04AE754E40E94AE176B
:102580006B017C0120910102309102024091030213
:10259000509104020E945D1920E030E041E655E4CC
:1025A0000E94AE1720E030E048EB51E40E94AE17E5
:1025B0009B01AC01609108017091090180910A01B1
:1025C00090910B010E943D176093080170930901DF
:1025D00080930A0190930B012091F5013091F6014F
:1025E0004091F7015091F801C701B6010E945D19B1
:1025F00020E030E041E655E40E94AE1720E030E0F4
:1026000040E451E40E94AE179B01AC0160910401CB
:102610007091050180910601909107010E943D177C
:102620006093040170930501809306019093070164
:102630000E94C205609317027093180280931902DA
:1026400090931A028090ED019090EE01A090EF011E
:10265000B090F001C090E901D090EA01E090EB0168
:10266000F090EC0120E030E040EF51E4C701B6010A
:102670000E943D179B01AC01C501B4010E940819DD
:1026800087FD02C082E011C020E030E040EF51E45D
:10269000C701B6010E943C179B01AC01C501B40102
:1026A0000E94A917181624F081E08093250202C029
:1026B00010922502C0912502C130C1F098F0C230BD
:1026C00009F046C020E030E048EC52E4609104019B
:1026D0007091050180910601909107010E94A91750
:1026E00087FF22C081E08093E80132C020E030E023
:1026F00040E752E4609108017091090180910A015C
:1027000090910B010E940819181664F7A501940115
:10271000C701B6010E943C1720E030E048EC53E4CA
:102720000E94081987FD03C01092E80111C020E043
:1027300030E040E752E4609104017091050180911E
:102740000601909107010E94081918165CF2ECCF5F
:102750008091E801811110C010922302809124021F
:10276000833029F0C11103C01092240210C0C1307F
:1027700071F4C09324020BC010922402C11103C053
:102780001092230204C0C13011F4C09323020E94AE
:10279000970BC090F101D090F201E090F301F0901E
:1027A000F401C0910902C11109C060910502709144
:1027B0000602809107029091080208C06091F90119
:1027C0007091FA018091FB019091FC0120E030E0D2
:1027D00048EC52E40E943D179B01AC01C701B601D1
:1027E0000E94081918164CF554C180919F03882344
:1027F00009F4A2CEC12CD12C7601C3949924C60130
:102800000197881599050CF095CE80EC91E00E9417
:102810008E014AE0C701B6010E94A0018EE991E055
:102820000E948E0160E070E08C2D0E946E038FEF9D
:10283000C81AD80AE80AF80AE2CF10920D0180916E
:102840002502811103C01092240204C0813011F4CA
:10285000809324020E948D0B0E94170B0E94C205D8
:10286000009126021091270220912802309129021E
:102870000C501E4F2F4F3F4F0617170728073907D9
:1028800008F002C10E94C2056093260270932702DD
:1028900080932802909329020E94C2054AE00E9478
:1028A000A0018BE591E00E94E1018091090290E096
:1028B0000E94E10289E591E00E94E1016091250218
:1028C00070E080E090E04AE00E94A00187E591E09E
:1028D0000E94E1016091240270E080E090E04AE013
:1028E0000E94A00185E591E00E94E1016091230230
:1028F00070E080E090E04AE00E94A00183E591E072
:102900000E94E10180910D0190E00E94E10281E5C9
:1029100091E00E94E10180910C0190E00E94E102AF
:102920008FE491E00E94E10160910801709109013A
:1029300080910A0190910B0143E050E00E940F0347
:102940008DE491E00E94E101609104017091050124
:10295000809106019091070143E050E00E940F032F
:102960008BE491E00E94E101609105027091060202
:10297000809107029091080242E050E00E940F030C
:1029800089E491E00E94E1016091010270910202EC
:10299000809103029091040242E050E00E940F03F4
:1029A00087E491E00E94E1016091FD017091FE01D8
:1029B0008091FF019091000242E050E00E940F03DD
:1029C00085E491E00E94E1016091F9017091FA01C2
:1029D0008091FB019091FC0142E050E00E940F03C6
:1029E00083E491E00E94E1016091F5017091F601AC
:1029F0008091F7019091F80142E050E00E940F03AE
:102A000081E491E00E94E1016091F1017091F20195
:102A10008091F3019091F40142E050E00E940F0395
:102A20008FE391E00E94E1016091ED017091EE0170
:102A30008091EF019091F00142E050E00E940F037D
:102A40008DE391E00E94E1016091E9017091EA015A
:102A50008091EB019091EC0142E050E00E940F0365
:102A60008BE391E00E94E10160910001709101010E
:102A7000809102019091030142E050E00E940F0317
:102A80008EE991E00E948E010E94FE0A0E94FD07DD
:102A9000DDCAC1113CC181E080930D01C0912402C7
:102AA000C53009F44CC0C330B9F120E038E543E645
:102AB00056E46091050270910602809107029091A0
:102AC00008020E94A917181614F082E036C0C4301C
:102AD00009F520E030E040EA51E46091FD01709199
:102AE000FE018091FF01909100020E94A917181623
:102AF00074F080E090E0A8ECB2E480930801909339
:102B00000901A0930A01B0930B0185E016C0C093A0
:102B1000240215C0C33081F420E030E040EA51E4E3
:102B20006091FD017091FE018091FF019091000282
:102B30000E94A9171816ECF683E080932402809176
:102B40002402833099F180F4823009F083CE80E052
:102B500090E0AFE7B3E48093000190930101A0936C
:102B60000201B093030176CE8430E9F1853009F09B
:102B700071CE80901F0290902002A0902102B09010
:102B8000220220E030E04AE754E4609105027091AF
:102B9000060280910702909108020E94AE179B01E5
:102BA000AC0160E070E084E591E439C080901F02E0
:102BB00090902002A0902102B090220220E030E00C
:102BC0004AE754E460910502709106028091070281
:102BD000909108020E94AE179B01AC0166E676E672
:102BE0008AE691E41CC080901F0290902002A09081
:102BF0002102B090220220E030E04AE754E46091E4
:102C000005027091060280910702909108020E94CD
:102C1000AE179B01AC0160E070E088E791E40E9490
:102C20003C176B017C0120E030E040E85FE36091FD
:102C30001B0270911C0280911D0290911E020E9445
:102C4000A91787FF08C0A7019601C501B4010E941A
:102C50003D174B015C012DEC3CEC4CE45DE3C701FE
:102C6000B6010E945D1920E030E040E05FE30E9481
:102C70003D176B017C012DEC3CEC4CEC5DE3C50198
:102C8000B4010E945D199B01AC01C701B6010E940D
:102C90003D176B017C0120E030E040E85FE30E94DB
:102CA000081987FF0DC020E030E0A901C701B60177
:102CB0000E94A91787FF0AC0C12CD12C760106C03B
:102CC000C12CD12C80E8E82E8FE3F82EC0921B0295
:102CD000D0921C02E0921D02F0921E0280921F020E
:102CE00090922002A0922102B092220220E030E0D5
:102CF0004FE753E4C701B6010E945D1960930001DC
:102D0000709301018093020190930301A3CD81E0B0
:102D100080930D019FCDEFE9F2E01382128288EEDD
:102D200093E0A0E0B0E084839583A683B7832AE391
:102D300031E03183208325EC30E03587248724EC93
:102D400030E03787268720EC30E0318B208B21EC78
:102D500030E0338B228B22EC30E0358B248B26EC59
:102D600030E0378B268B118E128E138E148EECE38F
:102D7000F3E01382128284839583A683B7838CE465
:102D800091E091838083E8E4F3E08BE69DE0958316
:102D9000848381E086832EE130E0309388032093A2
:102DA000870310929D0310929C0310929E03109231
:102DB0009F0328E037E03093A1032093A0031092F3
:102DC000A2031092A3031092A4031092A5031092E1
:102DD000A7031092A6031092A8031092A9031092C1
:102DE000AA031092AB03828388E190E091838083F1
:102DF00085E090E0908787830895CF93DF9342E04A
:102E00000E940D02EC018EE991E00E948E018C0F70
:102E10009D1FDF91CF9108950E94C205DC01CB0177
:102E200080569947AE4FBF4F80930E0190930F018C
:102E3000A0931001B09311010C94FE0A81E08093DD
:102E4000E8010E94970B10920C010E948D0B1092CA
:102E50000D010E94170B0E940C1780E692E00E9461
:102E6000EF03609101027091020280910302909140
:102E700004020E94FD16FFCF5058BB27AA270E94CC
:102E800054170C94CE180E94C01838F00E94C7182E
:102E900020F039F49F3F19F426F40C94BD180EF479
:102EA000E095E7FB0C94B718E92F0E94DF1858F360
:102EB000BA17620773078407950720F079F4A6F51F
:102EC0000C9401190EF4E0950B2EBA2FA02D0B01D6
:102ED000B90190010C01CA01A0011124FF27591B5F
:102EE00099F0593F50F4503E68F11A16F040A22F65
:102EF000232F342F4427585FF3CF469537952795D6
:102F0000A795F0405395C9F77EF41F16BA0B620BD4
:102F1000730B840BBAF09150A1F0FF0FBB1F661F1B
:102F2000771F881FC2F70EC0BA0F621F731F841F5E
:102F300048F4879577956795B795F7959E3F08F084
:102F4000B0CF9395880F08F09927EE0F9795879546
:102F500008950E94931808F481E008950E94C21712
:102F60000C94CE180E94C71858F00E94C01840F068
:102F700029F45F3F29F00C94B71851110C940219F1
:102F80000C94BD180E94DF1868F39923B1F3552300
:102F900091F3951B550BBB27AA276217730784076C
:102FA00038F09F5F5F4F220F331F441FAA1FA9F302
:102FB00035D00E2E3AF0E0E832D091505040E695F0
:102FC000001CCAF72BD0FE2F29D0660F771F881F51
:102FD000BB1F261737074807AB07B0E809F0BB0B44
:102FE000802DBF01FF2793585F4F3AF09E3F510558
:102FF00078F00C94B7180C9402195F3FE4F3983EF4
:10300000D4F3869577956795B795F7959F5FC9F740
:10301000880F911D9695879597F90895E1E0660FC1
:10302000771F881FBB1F621773078407BA0720F03A
:10303000621B730B840BBA0BEE1F88F7E0950895A3
:103040000E9427186894B1110C94021908950E94E7
:10305000E71888F09F5798F0B92F9927B751B0F02B
:10306000E1F0660F771F881F991F1AF0BA95C9F70C
:1030700014C0B13091F00E940119B1E008950C9490
:103080000119672F782F8827B85F39F0B93FCCF343
:10309000869577956795B395D9F73EF49095809589
:1030A000709561957F4F8F4F9F4F0895E89409C0A9
:1030B00097FB3EF490958095709561957F4F8F4F6B
:1030C0009F4F9923A9F0F92F96E9BB279395F69581
:1030D000879577956795B795F111F8CFFAF4BB0FFF
:1030E00011F460FF1BC06F5F7F4F8F4F9F4F16C063
:1030F000882311F096E911C0772321F09EE8872FED
:10310000762F05C0662371F096E8862F70E060E0A8
:103110002AF09A95660F771F881FDAF7880F969521
:10312000879597F90895990F0008550FAA0BE0E8C5
:10313000FEEF16161706E807F907C0F01216130679
:10314000E407F50798F0621B730B840B950B39F4B9
:103150000A2661F0232B242B252B21F408950A261F
:1031600009F4A140A6958FEF811D811D089597F95F
:103170009F6780E870E060E008959FEF80EC08951D
:1031800000240A9416161706180609060895002446
:103190000A9412161306140605060895092E0394C0
:1031A000000C11F4882352F0BB0F40F4BF2B11F434
:1031B00060FF04C06F5F7F4F8F4F9F4F089557FD93
:1031C0009058440F551F59F05F3F71F04795880F95
:1031D00097FB991F61F09F3F79F08795089512162C
:1031E00013061406551FF2CF4695F1DF08C01616D8
:1031F00017061806991FF1CF869571056105089489
:103200000895E894BB2766277727CB0197F908959F
:103210000E94931808F48FEF089516F00C94CF19BC
:103220000C94BD1868940C94B7180E94E718A8F382
:103230009923C1F3AEF3DF93CF931F930F93FF92C4
:10324000C92FDD2788232AF02197660F771F881F53
:10325000DAF720E030E040E85FEB9FE3883920F0C8
:10326000803E38F021968F770E943D17E8E6F0E027
:1032700004C00E943D17E5E9F0E00E94DD198B01D2
:10328000BE01EC01FB2E6F5771097595771F880BF6
:10329000990B0E94581828E132E741E35FE30E944E
:1032A0007019AF2D9801AE01FF900F911F91CF9132
:1032B000DF910E9454170C94CE180E9470190C9440
:1032C000CE180E94C01838F00E94C71820F095232D
:1032D00011F00C94B7180C94BD1811240C94021919
:1032E0000E94DF1870F3959FC1F3950F50E0551FB2
:1032F000629FF001729FBB27F00DB11D639FAA274B
:10330000F00DB11DAA1F649F6627B00DA11D661F99
:10331000829F2227B00DA11D621F739FB00DA11DBA
:10332000621F839FA00D611D221F749F3327A00D74
:10333000611D231F849F600D211D822F762F6A2F10
:1033400011249F5750409AF0F1F088234AF0EE0F75
:10335000FF1FBB1F661F771F881F91505040A9F7A2
:103360009E3F510580F00C94B7180C9402195F3FF2
:10337000E4F3983ED4F3869577956795B795F795DE
:10338000E7959F5FC1F7FE2B880F911D9695879556
:1033900097F908950E949318880B990B08959F3F01
:1033A00031F0915020F4879577956795B795880F00
:1033B000911D9695879597F90895DF93CF931F9365
:1033C0000F93FF92EF92DF927B018C01689406C00D
:1033D000DA2EEF010E947019FE01E894A591259163
:1033E000359145915591A6F3EF010E945417FE01C6
:1033F0009701A801DA9469F7DF90EF90FF900F91A1
:103400001F91CF91DF910895AA1BBB1B51E107C00B
:10341000AA1FBB1FA617B70710F0A61BB70B881F64
:10342000991F5A95A9F780959095BC01CD010895F3
:1034300097FB072E16F4009407D077FD09D00E9461
:10344000041A07FC05D03EF4909581959F4F08958E
:10345000709561957F4F0895A1E21A2EAA1BBB1BA0
:10346000FD010DC0AA1FBB1FEE1FFF1FA217B30750
:10347000E407F50720F0A21BB30BE40BF50B661F66
:10348000771F881F991F1A9469F76095709580952A
:1034900090959B01AC01BD01CF010895052E97FBCE
:1034A0001EF400940E94651A57FD07D00E942C1A42
:1034B00007FC03D04EF40C94651A50954095309556
:1034C00021953F4F4F4F5F4F089590958095709590
:1034D00061957F4F8F4F9F4F08950E94751A332338
:1034E00012F48A1B9B0B0C94861AA29FB001B39F07
:1034F000C001A39F700D811D1124911DB29F700DFD
:10350000811D1124911D08950E94751AB7FF089519
:10351000821B930B08950E94751AA59F900DB49F6E
:10352000900DA49F800D911D11240895EE0FFF1F93
:103530000590F491E02D099481E090E0F8940C94CA
:10354000AC1AFB01DC010D900020E9F71197019006
:0C3550000D920020E1F70895F894FFCFE1
:10355C0000007F43E1FAC7420000C4420101E803C6
:10356C0000001F0D1F0D110016001C00210027006C
:10357C002C00320038003D00430048004E00530040
:10358C0059005E006400000000009407200D2C0719
:10359C00DB075D073B074F07000000009508650837
:1035AC00C50839085D0849083A088BFD37C24E65D5
:1035BC00ECC50069A743A47CF5C5584B0046CCDD8F
:1035CC009D4103097941773E9E4163EE7E41E78C34
:1035DC0084C131003000424D5320636F6D6D756EA8
:1035EC0069636174696F6E206572726F72000D0A87
:1035FC000053657474696E672043454C4C42414CD2
:10360C000020726567697374657220746F3A2000CC
:10361C00436C656172696E67205265676973746586
:10362C00722043454C4C42414C006E616E00696EF9
:06363C0066006F766600D7
:00000001FF
