:100000000C949C010C94B10A0C948A0A0C94C401BF
:100010000C94C4010C94C4010C94C4010C94C4014C
:100020000C94C4010C94C4010C94C4010C94C4013C
:100030000C94C4010C94C4010C94C4010C94C4012C
:100040000C94400A0C94C4010C9433070C940D07D3
:100050000C94C4010C94C4010C94C4010C94C4010C
:100060000C9465070C94C4014C41204F56455256E0
:100070004F4C544147452E2E2E2053544F5050493B
:100080004E47004C4F4144204F5645524355525223
:10009000454E542E2E2E2053544F5050494E47005B
:1000A0005056204F564552564F4C544147452E2EE0
:1000B0002E2053544F5050494E47005056204F5613
:1000C000455243555252454E542E2E2E2053544FD6
:1000D0005050494E47002D2D2D2D2D2D2D2D2D2DE0
:1000E0002D2D2D2D2D2D2D2D2D2D2D2D4F544845C4
:1000F0005200695F73756D5F653A2000695F643A0D
:100100002000765F73756D5F653A2000765F643A14
:100110002000647574795F6379636C653A20002D03
:100120002D2D2D2D2D2D2D2D2D2D2D2D2D50492DC0
:10013000434F4E54524F4C4C4552006D65617375A0
:1001400072655F6D697374616B653A200074656DEB
:1001500070657261747572653A20006C645F693A0B
:10016000200070765F693A200070765F763A200052
:100170006C695F693A20006C695F763A20006C61B7
:100180005F693A20006C615F763A20002D2D2D2D9D
:100190002D2D2D2D2D2D2D2D2D2D2D2D4D4541531D
:1001A0005552454D454E5453006C645F73746174F1
:1001B000653A200070765F73746174653A20006C54
:1001C000695F73746174653A20006C615F73746178
:1001D00074653A20007379735F73746174653A20B3
:1001E0000063757272656E74204261747465727911
:1001F0003A200054696D653A20002D2D2D2D2D2DAE
:100200002D2D2D2D2D2D2D2D2D2D2D2D2D2D2D2D1E
:100210005354415445530000000000240027002A95
:100220000000000000250028002B00040404040442
:100230000404040202020202020303030303030193
:10024000020408102040800102040810200102046A
:10025000081020000000080002010000030407004D
:1002600000000000000000417474656D7074696ED8
:100270006720746F20636C656172204F4344206572
:1002800072726F7200417474656D7074696E67206C
:10029000746F20636C6561722053434420657272F1
:1002A0006F7200417474656D7074696E6720746F4D
:1002B00020636C656172204F56206572726F720008
:1002C000417474656D7074696E6720746F20636C1F
:1002D000656172205556206572726F7200417474A8
:1002E000656D7074696E6720746F20636C656172F0
:1002F00020416C657274206572726F720041747473
:10030000656D7074696E6720746F20636C656172CF
:10031000205852206572726F72004C41204F564532
:100320005243555252454E542E2E2E2053544F5068
:1003300050494E470000551111241FBECFEFD8E0A1
:10034000DEBFCDBF11E0A0E0B1E0E6EFFEE202C00B
:1003500005900D92AC3CB107D9F723E0ACECB1E0CD
:1003600001C01D92A83CB207E1F711E0CCE9D1E051
:1003700004C02197FE010E946E17CB39D107C9F73F
:100380000E94D80A0C9479170C9400008BE692E036
:100390000E94940521E0892B09F420E0822F089522
:1003A000E0916B02F0916C020190F081E02D682FDA
:1003B0008BE692E00994382F20916A02909178039D
:1003C000213208F049C0809147028111FCCF42E000
:1003D00040934702309346023FEF3093450210921C
:1003E000440220934302AAE4B2E043E252E0FA015D
:1003F0003E2F341B321718F43D913193F9CF1092F0
:10040000220220912202990F922B90932202909126
:100410002102913061F41092210290912202909376
:10042000BB009091BC0093FDF8CF95EC01C095EE18
:100430009093BC00909147029230E1F39091450275
:100440009F3F79F080914502803241F080914502D2
:10045000803331F084E005C081E003C082E001C058
:1004600083E01092490210926A02109248020895A5
:100470003FB7F8948091FB019091FC01A091FD01A0
:10048000B091FE0126B5A89B05C02F3F19F001963B
:10049000A11DB11D3FBFBA2FA92F982F8827820F0A
:1004A000911DA11DB11DBC01CD0142E0660F771F5A
:1004B000881F991F4A95D1F708959091470291118D
:1004C000FCCF613208F060E291E090934702909394
:1004D00046022FEF2093450210924402260F2093EC
:1004E00043029093220290912202880F892B8093DD
:1004F000220280912102813061F4109221028091C8
:1005000022028093BB008091BC0083FDF8CF85EC74
:1005100001C085EE8093BC00809147028130E1F3F9
:1005200080914402861710F460914402A3E2B2E085
:1005300021E032E0F9018E2F821B861718F48D918D
:100540008193F9CF109200026093FF01862F0895E6
:10055000009769F0FC0101900020E9F73197AF01A5
:10056000481B590BBC018BE692E00C94090A80E011
:1005700090E0089588EA91E00C94A8020F931F93ED
:10058000CF93DF938C01C0E0D0E0F801EC0FFD1FAA
:100590006491662371F0E0916B02F0916C0201901E
:1005A000F081E02D8BE692E00995892B11F02196E0
:1005B000ECCFCE01DF91CF911F910F910895CF9392
:1005C000DF930E94BE02EC010E94BA028C0F9D1FB5
:1005D000DF91CF9108958F929F92AF92BF920F9328
:1005E0001F93CF93DF93CDB7DEB7A1970FB6F894E3
:1005F000DEBF0FBECDBF19A2423008F44AE08E0123
:100600000F5D1F4F842E912CA12CB12CA5019401BC
:100610000E940417E62FB901CA0101501109EA30FE
:1006200014F4E05D01C0E95CD801EC93232B242B8A
:10063000252B61F7C8010E94A802A1960FB6F89475
:10064000DEBF0FBECDBFDF91CF911F910F91BF9045
:10065000AF909F908F900895CF92DF92EF92FF928C
:10066000CF93DF936C01990FEE08FF08F7FE12C0DD
:100670008DE20E94D001EC0166277727CB016C192F
:100680007D098E099F094AE00E94EB027C01EC0E75
:10069000FD1E06C04AE0C701B6010E94EB027C01C4
:1006A0000E94BA028E0D9F1DDF91CF91FF90EF90B7
:1006B000DF90CF900895CF93DF93682F70E080E0B4
:1006C00090E04AE00E94EB02EC010E94BA028C0F1B
:1006D0009D1FDF91CF9108954F925F926F927F920D
:1006E0008F929F92AF92BF92CF92DF92EF92FF9242
:1006F0006B017C01B42E9B01AC010E94EB16882398
:1007000019F08BEA91E027C026013701E89477F8C9
:100710002FEF3FEF4FE75FE7C301B2010E94EB16F7
:1007200081110DC02FEF3FEF4FE75FE7C301B2012B
:100730000E941A1518161CF48FEA91E00CC02FEFD6
:100740003FEF4FE75FE4C701B6010E947916181624
:1007500084F483EB91E0FF90EF90DF90CF90BF9017
:10076000AF909F908F907F906F905F904F900C9480
:10077000A8022FEF3FEF4FE75FECC701B6010E94E1
:100780001A1587FDE6CF20E030E0A901C701B601C8
:100790000E941A1587FF09C08DE20E94D0014C010A
:1007A000F7FAF094F7F8F09402C0812C912CA12C68
:1007B00060E070E080E09FE3AB1441F020E030E0C7
:1007C00040E251E40E941F15A394F6CF9B01AC01B7
:1007D000C701B6010E94AE142B013C010E9498157E
:1007E0006B017C010E94C7159B01AC01C301B201E2
:1007F0000E94AD142B013C014AE0C701B6010E94E2
:10080000EB027C01E80CF91CBB2029F08EE20E946F
:10081000D001E80EF91EDB2CDD2021F120E030E0D4
:1008200040E251E4C301B2010E947E162B013C015B
:100830000E9498154B01A12CB12C4AE0C501B401CE
:100840000E94EB02E80EF91EC501B4010E94C71513
:100850009B01AC01C301B2010E94AD142B013C010C
:10086000DA94DACFC701FF90EF90DF90CF90BF907E
:10087000AF909F908F907F906F905F904F90089572
:10088000CF93DF9342E00E946C03EC010E94BA0216
:100890008C0F9D1FDF91CF910895CF93C62F90911C
:1008A000140321E0209348029093780310924902A8
:1008B00010926A02682F88E093E00E94C2066C2FB3
:1008C00088E093E00E94C20681E0CF910C94DB01A6
:1008D000CF93DF93C4E1D3E0988121E020934802D5
:1008E000909378031092490210926A02682F88E070
:1008F00093E00E94C20681E00E94DB0161E070E0AB
:10090000888199810E945D0288E093E0DF91CF9118
:100910000C94760690E0FC01ED5AFD4F3491FC01F9
:10092000E15CFD4F2491FC01E55DFD4FE491EE2378
:1009300009F43BC0332339F1333091F038F43130CE
:10094000A9F0323001F584B58F7D12C0373091F0B7
:100950003830A1F03430B9F4809180008F7D03C02D
:10096000809180008F77809380000DC084B58F7751
:1009700084BD09C08091B0008F7703C08091B00022
:100980008F7D8093B000F0E0EE0FFF1FEF5DFD4F15
:10099000A591B4918FB7F894EC91611103C02095A3
:1009A0002E2301C02E2B2C938FBF0895CF93DF935E
:1009B00090E0FC01E15CFD4F2491FC01E55DFD4F01
:1009C0008491882361F190E0880F991FFC01E95E12
:1009D000FD4FC591D491FC01EF5DFD4FA591B49100
:1009E000611109C09FB7F89488812095822388837C
:1009F000EC912E230BC0623061F49FB7F8943881DC
:100A0000822F809583238883EC912E2B2C939FBF7C
:100A100006C08FB7F894E8812E2B28838FBFDF9113
:100A2000CF9108958E3008F08E5087708064809347
:100A30007C0080917A00806480937A0080917A00B3
:100A400086FDFCCF809178002091790090E0922B78
:100A500008958F929F92AF92BF92CF92DF92EF92C2
:100A6000FF926B017C010E9438024B015C01C114B2
:100A7000D104E104F104F1F00E943802DC01CB0161
:100A800088199909AA09BB09883E9340A105B105B7
:100A900070F321E0C21AD108E108F10888EE880E4F
:100AA00083E0981EA11CB11CC114D104E104F1041F
:100AB00019F7DDCFFF90EF90DF90CF90BF90AF9010
:100AC0009F908F900895FC01538D448D252F30E029
:100AD000842F90E0821B930B541710F0CF9608954B
:100AE00001970895FC01918D828D981761F0828D98
:100AF000DF01A80FB11D5D968C91928D9F5F9F7352
:100B0000928F90E008958FEF9FEF0895FC01918DF3
:100B1000828D981731F0828DE80FF11D858D90E060
:100B200008958FEF9FEF0895FC01918D228D892FFD
:100B300090E0805C9F4F821B91098F7399270895E5
:100B4000FC01848DDF01A80FB11DA35ABF4F2C916A
:100B5000848D90E001968F739927848FA689B78939
:100B60002C93A089B1898C9180648C93938D848D12
:100B7000981306C00288F389E02D80818F7D8083E1
:100B80000895EF92FF920F931F93CF93DF93EC01A1
:100B900081E0888F9B8D8C8D981305C0E889F98939
:100BA000808185FD24C0F62E0B8D10E00F5F1F4F56
:100BB0000F731127E02E8C8DE8120CC00FB607FCC6
:100BC000FACFE889F989808185FFF5CFCE010E94AF
:100BD000A005F1CF8B8DFE01E80FF11DE35AFF4F09
:100BE000F0820B8FEA89FB898081806207C0EE89E1
:100BF000FF896083E889F98980818064808381E04E
:100C000090E0DF91CF911F910F91FF90EF900895A9
:100C1000CF93DF93EC01888D8823C9F0EA89FB89A3
:100C2000808185FD05C0A889B9898C9186FD0FC09A
:100C30000FB607FCF5CF808185FFF2CFA889B9896F
:100C40008C9185FFEDCFCE010E94A005E7CFDF910B
:100C5000CF91089580E090E0892B29F00E94C60191
:100C600081110C940000089585ED8093BC00809163
:100C7000BC0084FDFCCF10924702089540919E0372
:100C8000262F30E0240F311D21323105DCF4209174
:100C900047022430C9F4FC0180E090E0861758F444
:100CA00030919E032191DC01A458BC4FA30FB11DCC
:100CB0002C930196F3CF80919E03680F60939E035F
:100CC00080E0089581E0089582E008950895E0911C
:100CD00000028091FF01E81730F4F0E0EF5FFD4F74
:100CE000808190E008958FEF9FEF0895909100022A
:100CF0008091FF01981750F4E92FF0E0EF5FFD4F6E
:100D0000208130E09F5F9093000202C02FEF3FEF01
:100D1000C90108958091FF0190E020910002821B9B
:100D200091090895CF92DF92EF92FF920F931F9354
:100D3000CF93DF937C01262F972F8A018091480261
:100D4000882391F0C62FD72F6E01C40ED51ECC1567
:100D5000DD0571F06991D701ED91FC910190F08171
:100D6000E02DC7010995F3CF642F822F0E943E0624
:100D7000C801DF91CF911F910F91FF90EF90DF900D
:100D8000CF900895CF93DF931F92CDB7DEB76983DD
:100D9000209148022223D1F020916A02203240F0B3
:100DA00021E030E0FC013383228380E090E015C035
:100DB00080914902E82FF0E0E65BFD4F9981908336
:100DC0008F5F8093490280936A0205C061E0CE0183
:100DD00001960E943E0681E090E00F90DF91CF9156
:100DE0000895089580E090E008950E947417CF93CD
:100DF000DF93C091CC01D091CD01209759F00E9492
:100E0000340AFE01E05AFF4F60837183828393832B
:100E100081E08E83DF91CF9108951F920F920FB6DC
:100E20000F9211242F933F934F935F936F937F9370
:100E30008F939F93AF93BF93EF93FF938BE692E0D3
:100E40000E94A005FF91EF91BF91AF919F918F916B
:100E50007F916F915F914F913F912F910F900FBEB6
:100E60000F901F9018951F920F920FB60F9211249A
:100E70002F938F939F93EF93FF93E0917B02F091D9
:100E80007C028081E0918102F091820282FD12C099
:100E90009081809184028F5F8F73209185028217E9
:100EA00051F0E0918402F0E0E559FD4F958F809379
:100EB000840201C08081FF91EF919F918F912F91CA
:100EC0000F900FBE0F901F9018951F920F920FB6A4
:100ED0000F9211242F933F934F935F936F937F93C0
:100EE0008F939F93AF93BF93EF93FF938091B9003C
:100EF000887F803609F49CC068F5883209F45BC0AD
:100F000090F4803109F454C038F4882309F4F6C011
:100F1000883009F44DC0F6C0883109F44CC08032E5
:100F200009F45DC0EFC0803409F468C048F4803330
:100F300009F455C0883309F0E5C080934502D8C054
:100F4000803509F44FC0883509F45DC0883409F054
:100F5000D9C0D6C0883909F4C7C0A8F4883709F4C5
:100F600067C038F4883609F463C0803709F460C07C
:100F7000C9C0883809F4B8C0803909F45FC0803826
:100F800009F0C0C05BC0803B09F486C038F4803AE9
:100F900009F466C0883A09F47FC0B4C0803C09F403
:100FA000A7C0883C09F4A4C0883B09F48AC0AAC041
:100FB0008091220210C090914402809143029817C0
:100FC00070F5E091440281E08E0F80934402F0E0DE
:100FD000ED5DFD4F80818093BB0085EC86C08093E2
:100FE00045028EC0E091440281E08E0F809344025E
:100FF0008091BB00F0E0ED5DFD4F80839091440255
:10100000809143026EC0E091440281E08E0F809394
:1010100044028091BB00F0E0ED5DFD4F8083809144
:10102000460281116DC081E08093210284EA61C093
:1010300083E0809347021092C203CFCF8091C20316
:10104000803208F051C0E091C20381E08E0F80939E
:10105000C2038091BB00F0E0EE55FC4F8083BDCF12
:1010600085EC8093BC00109247028091C2038032CD
:1010700030F4E091C203F0E0EE55FC4F1082609135
:10108000C20370E0E091A003F091A10382EA93E033
:1010900009951092C20336C084E0809347021092F3
:1010A0009F0310929E03E0919C03F0919D0309958C
:1010B00080919E03811105C081E080939E03109270
:1010C0007C03E0919F0381E08E0F80939F03F0E00B
:1010D000E458FC4F80818093BB0090919F038091E6
:1010E0009E03981708F479CF85E88093BC000AC066
:1010F00085EC8093BC001092470204C01092450218
:101100000E943406FF91EF91BF91AF919F918F9113
:101110007F916F915F914F913F912F910F900FBEF3
:101120000F901F9018950F931F930E94340A0091FF
:101130000E0110910F0120911001309111016017E3
:1011400071078207930710F461E001C060E085E059
:101150001F910F910C948A0480910801882311F04B
:1011600061E001C060E087E00C948A04CF92DF92D6
:10117000EF92FF92CF93C090CF01D090D001E0903A
:10118000D101F090D2018091DD01811109C06091FF
:10119000DE017091DF018091E0019091E10108C0D2
:1011A0006091D3017091D4018091D5019091D601C5
:1011B00020E030E048EC52E40E94AE149B01AC0108
:1011C000C1E0C701B6010E94791618160CF0C0E004
:1011D0008C2FCF91FF90EF90DF90CF900895CF921A
:1011E000DF92EF92FF92CF93DF930E94B60888239D
:1011F00009F461C080910901882309F45CC0609101
:101200000A0170910B0180910C0190910D010E94D7
:1012100091156B017C01EB0161E089E00E94D6042D
:10122000209709F44CC0CF3FD10511F461E048C0CC
:10123000ECE5F2E0E491E330F9F048F4E130B9F0A4
:10124000E230A1F584B5806284BDC8BC42C0E730FD
:10125000E9F0E83019F1E43049F5809180008062CE
:1012600080938000D0928B00C0928A0032C084B5F7
:10127000806884BDC7BC2DC0809180008068809349
:101280008000D0928900C092880023C08091B00075
:1012900080688093B000C092B3001BC08091B00002
:1012A00080628093B000C092B40013C0C038D105F2
:1012B0000CF0BCCF04C061E089E00E94D60460E07D
:1012C00089E0DF91CF91FF90EF90DF90CF900C9469
:1012D0008A04DF91CF91FF90EF90DF90CF90089537
:1012E000CF92DF92EF92FF920F931F93CF93DF93F2
:1012F000C82F8330F1F050F48130A1F0823029F50D
:1013000081E080937B0310927A0318C08430C9F087
:101310008530D9F410927B0310927A0381E0809398
:10132000790313C080937B0310927A03809379032F
:101330000CC010927B0381E080937A0310927903B2
:1013400004C081E080937B03F7CF60917B038EE044
:101350000E948A0460917A038FE00E948A0460915F
:10136000790380E10E948A0461E070E080E090E00F
:101370000E942905D4E6C12CD12C760103EC10E0A3
:1013800081E10E941205BC01990F880B990B0E9404
:10139000C9159B01AC01C701B6010E94AE146B01D7
:1013A0007C01C8010197F1F7D15051F720E030E0FE
:1013B00048EC52E4C701B6010E941F15C150C53068
:1013C00098F424E0C29FD0011124FD01E259FE4FA0
:1013D0002081318142815381FD01E65AFE4FC08058
:1013E000D180E280F38005C0C12CD12C7601A70109
:1013F00096010E947E16A70196010E94AE14DF910D
:10140000CF911F910F91FF90EF90DF90CF900895B3
:101410000895CF92DF92EF92FF920F931F93CF9395
:10142000DF936C017A018B01C0E0D0E0CE15DF05BF
:1014300089F0D8016D918D01D601ED91FC9101905B
:10144000F081E02DC6010995892B11F47E0102C0BF
:101450002196ECCFC701DF91CF911F910F91FF90A3
:10146000EF90DF90CF9008952FB7F8946091C40368
:101470007091C5038091C6039091C7032FBF089553
:101480001F920F920FB60F9211242F933F938F93B9
:101490009F93AF93BF938091C4039091C503A09194
:1014A000C603B091C7033091C30323E0230F2D3748
:1014B00020F40196A11DB11D05C026E8230F029658
:1014C000A11DB11D2093C3038093C4039093C50352
:1014D000A093C603B093C7038091FB019091FC01D8
:1014E000A091FD01B091FE010196A11DB11D809357
:1014F000FB019093FC01A093FD01B093FE01BF910D
:10150000AF919F918F913F912F910F900FBE0F90B0
:101510001F9018951F920F920FB60F9211242F93C0
:101520003F934F935F936F937F938F939F93AF936B
:10153000BF93EF93FF93E0911401F091150109958A
:10154000FF91EF91BF91AF919F918F917F916F919B
:101550005F914F913F912F910F900FBE0F901F9071
:1015600018951F920F920FB60F9211242F933F934D
:101570004F935F936F937F938F939F93AF93BF939B
:10158000EF93FF93E0911201F09113010995FF9100
:10159000EF91BF91AF919F918F917F916F915F91EB
:1015A0004F913F912F910F900FBE0F901F90189564
:1015B000CF93DF93CDB7DEB760970FB6F894DEBF59
:1015C0000FBECDBF789484B5826084BD84B5816040
:1015D00084BD85B5826085BD85B5816085BD8091FE
:1015E0006E00816080936E00109281008091810076
:1015F000826080938100809181008160809381006E
:10160000809180008160809380008091B10084602F
:101610008093B1008091B00081608093B000809190
:101620007A00846080937A0080917A00826080934F
:101630007A0080917A00816080937A0080917A00AC
:10164000806880937A001092C1001092000210927C
:10165000FF011092490210926A021092470281E043
:10166000809346021092210261E082E10E948A0486
:1016700061E083E10E948A048091B9008E7F8093AB
:10168000B9008091B9008D7F8093B90088E4809380
:10169000B80085E48093BC0010921E0310921D03D5
:1016A0001092200310921F03109222031092210324
:1016B000109224031092230361E08FEF0E94D6045E
:1016C00061E08FEF0E948A0465E070E080E090E0C6
:1016D0000E94290560E08FEF0E94D6046AE070E066
:1016E00080E090E00E94290569E170E08BE00E94B3
:1016F0004D048BE00E946804499791F568E170E021
:1017000084E00E944D0460E470E085E00E944D0496
:1017100084E193E09093CD018093CC0181E50E9418
:101720006804909367038093660380E50E946804D1
:101730008C0189E50E946804807E992755E0959583
:1017400087955A95E1F70C701127000F111F802B18
:10175000912B83599E4F909365038093640306C039
:1017600082E891E00E94A8020E94BA0288E39FEFFB
:10177000909358038093570382EC91E090935C031D
:1017800080935B03109256031092550390935A0373
:101790008093590385E0809317036FE970E086E03A
:1017A0000E944D0410E02091170330E0A0E4BFE157
:1017B0000E944D1728EE33E040E050E00E942617CB
:1017C000E6E5F1E08FE190E0729162916B01770FB5
:1017D000EE08FF082C153D054E055F0534F08F70AF
:1017E000612F607F162F182B02C0019769F71067D1
:1017F000612F70E087E00E944D0488E29AE09093A8
:10180000600380935F0388E00E946804182F809132
:10181000660390916703092E000CAA0BBB0B48E2EC
:101820005AE060E070E09A01AB01281B390B4A0BCB
:101830005B0BA8EEB3E00E94631720916403309124
:101840006503032E000C440B550B0E942617DA018A
:10185000C90124E0B595A795979587952A95D1F765
:1018600021E0280F622F70E08AE00E944D04612F72
:10187000606C70E088E00E944D0482E49EE09093EA
:101880005E0380935D0388E00E946804182F8091B6
:10189000660390916703092E000CAA0BBB0B42E470
:1018A0005EE060E070E09A01AB01281B390B4A0B47
:1018B0005B0BA8EEB3E00E946317209164033091A4
:1018C0006503032E000C440B550B0E942617DA010A
:1018D000C90134E0B595A795979587953A95D1F7C5
:1018E000682F70E089E00E944D04612F606370E012
:1018F00088E00E944D0410926D0310926C0384EEF8
:101900009CE0909362038093610384E1809363037E
:1019100084E690E0909354038093530381E0809396
:101920006A0361E08EE00E94D60461E08FE00E94CD
:10193000D60461E080E10E94D60460E081E10E946B
:10194000D60461E086E00E94D60461E089E00E944E
:10195000D60461E087E00E94D60460E086E00E9441
:101960008A0460E089E00E948A0460E087E00E94C7
:101970008A0480918100887F856080938100E09156
:101980007B02F0917C0282E08083E0917702F0910B
:1019900078021082E0917902F0917A0280E18083EE
:1019A00010928302E0917F02F091800286E08083B2
:1019B000E0917D02F0917E02808180618083E091E0
:1019C0007D02F0917E02808188608083E0917D02BB
:1019D000F0917E02808180688083E0917D02F091A9
:1019E0007E0280818F7D808303EC10E046E0242E10
:1019F00081E00E94700969837A838B839C83609362
:101A0000DE017093DF018093E0019093E10182E0B9
:101A10000E9470096B017C016093D7017093D8011B
:101A20008093D9019093DA0183E00E94700969875D
:101A30007A878B879C876093CF017093D0018093C6
:101A4000D1019093D20184E00E9470092B013C01E6
:101A50006093EE017093EF018093F0019093F10198
:101A600085E00E9470094B015C016093EA0170936C
:101A7000EB018093EC019093ED0160913D03709137
:101A80003E03072E000C880B990B0E94C91560932A
:101A9000D3017093D4018093D5019093D6016091C6
:101AA000410370914203072E000C880B990B0E9492
:101AB000C9156D877E878F87988B6093F20170932D
:101AC000F3018093F4019093F50194E6392E1D8281
:101AD0001E821F82188685E10E941205BC01990FA3
:101AE000880B990B0E94C9159B01AC016D817E8109
:101AF0008F8198850E94AE146D837E838F83988733
:101B0000C8010197F1F73A943110E5CF20E030E0B9
:101B100048EC52E46D817E818F8198850E941F156B
:101B20002EE634E340E85EE30E947E162BE734E1C4
:101B300044EA51E40E94AD146093E6017093E7011A
:101B40008093E8019093E90120E030E04AE756E411
:101B500069817A818B819C810E9479161816F4F430
:101B600081E08093CE010E941714109208010E9418
:101B7000AC08109209010E94EF080E94051488E643
:101B800090E00E94DF026091DE017091DF018091A0
:101B9000E0019091E1010E944004FFCF20E030E499
:101BA0004CE955E4C701B6010E947916181614F4E1
:101BB0000E948F1420E030EC4AE556ECC701B601D4
:101BC0000E941A1587FDF4CF20E030EC4AE556E478
:101BD000C501B4010E9479161816ECF410920801A0
:101BE0000E94AC08109209010E94EF081092CE01E9
:101BF0000E9417140E94051483E890E00E94DF02FF
:101C00006091EA017091EB018091EC019091ED01FE
:101C10000E944004FFCF20E030E543EC56E46985A4
:101C20007A858B859C850E9479161816ECF41092A3
:101C300009010E94EF08109208010E94AC0810925E
:101C4000CE010E9417140E94051480EA90E00E94C1
:101C5000DF026091CF017091D0018091D10190910C
:101C6000D2010E944004FFCF20E030E44CE955E46B
:101C7000C301B2010E9479161816ECF41092090102
:101C80000E94EF08109208010E94AC081092CE0149
:101C90000E9417140E9405148BEB90E00E94DF0253
:101CA0006091EE017091EF018091F0019091F1014E
:101CB0000E944004FFCFA7019601C301B2010E9418
:101CC000AE142D853E854F8558890E94AE14A5011E
:101CD00094010E94AD146093E2017093E30180933C
:101CE000E4019093E50180E090E0A0EAB2E4809303
:101CF000040190930501A0930601B093070180E0D1
:101D000090E0A8ECB2E48093000190930101A093CD
:101D10000201B093030120E030E040E751E4C50147
:101D2000B4010E94AE149B01AC01C301B2010E9438
:101D3000791687FD02C081E011C020E030E040E765
:101D400051E4C501B4010E94AD149B01AC01C30173
:101D5000B2010E941A15181624F082E08093F60151
:101D600002C01092F6018091F601813089F098F05E
:101D70008230A1F4A3019201C501B4010E94AD1407
:101D800020E030E048E453E40E94791687FD03C068
:101D90001092CE0103C081E08093CE010E94B6086C
:101DA000882309F48CC08091DD01811188C0F1C1C4
:101DB000B090DC0195E0B912FEC120E030E040E2D5
:101DC00051E4C701B6010E941A1518160CF4F0C1AF
:101DD00080E090E0A8ECB2E48093040190930501C8
:101DE000A0930601B09307012092DC018091DC01F1
:101DF000843009F40CC208F0F0C1833009F05FC0F0
:101E000020E030E04AE754E46091D7017091D801B6
:101E10008091D9019091DA010E941F159B01AC01BC
:101E200060E070E080EA90E40E94AD146B017C01F8
:101E30002DEC3CEC4CE45DE30E947E1620E030E0AB
:101E400040E05FE30E94AE144B015C0120E030E013
:101E5000A901C701B6010E94AE142DEC3CEC4CE484
:101E60005DE30E947E169B01AC01C501B4010E9496
:101E7000AE146B017C0120E030E040E85FE30E949B
:101E8000791687FF0BC220E030E0A901C701B60137
:101E90000E941A1587FF03C0C12CD12C760120E0C7
:101EA00030E04FE753E4C701B6010E947E1660930D
:101EB0000A0170930B0180930C0190930D010E9415
:101EC000AC080E94EF080E94340AC090F701D0903D
:101ED000F801E090F901F090FA01B8EECB0EB3E012
:101EE000DB1EE11CF11CC616D706E806F90608F051
:101EF0002CC10E94340A6093F7017093F80180931B
:101F0000F9019093FA010E94BA020E94BA020E945B
:101F1000BA020E94BA020E94BA020E94BA028AEF72
:101F200091E00E94DF0283EF91E00E94BE020E94D6
:101F3000340A4AE00E94EB020E94BA0281EE91E06C
:101F40000E94BE028091DD0190E00E942C0385ED8D
:101F500091E00E94BE028091F6010E945B038AEC30
:101F600091E00E94BE028091DC010E945B038FEB36
:101F700091E00E94BE028091DB010E945B0384EB32
:101F800091E00E94BE028091090190E00E942C0322
:101F900089EA91E00E94BE028091080190E00E94CF
:101FA0002C038CE891E00E94DF0285E891E00E941A
:101FB000BE026091DE017091DF018091E00190919D
:101FC000E1010E9440048EE791E00E94BE02609110
:101FD000D7017091D8018091D9019091DA010E94C6
:101FE000400487E791E00E94BE026091D3017091A6
:101FF000D4018091D5019091D6010E94400480E7E0
:1020000091E00E94BE026091F2017091F301809113
:10201000F4019091F5010E94400489E691E00E944C
:10202000BE026091CF017091D0018091D101909159
:10203000D2010E94400482E691E00E94BE026091BB
:10204000EE017091EF018091F0019091F1010E94F9
:1020500040048BE591E00E94BE026091EA0170911C
:10206000EB018091EC019091ED010E9440048DE420
:1020700091E00E94BE026091E6017091E7018091BB
:10208000E8019091E9010E9440048AE991E00E94F0
:10209000A8022091EE013091EF014091F0015091A2
:1020A000F1016091EA017091EB018091EC01909156
:1020B000ED010E94AD140E9440048BE391E00E9468
:1020C000BE026091E2017091E3018091E401909180
:1020D000E5010E9440048FE191E00E94DF0282E16D
:1020E00091E00E94BE0260910A0170910B01809103
:1020F0000C0190910D010E9440048CE091E00E943F
:10210000BE0260E070E0CB010E94400482E091E0FA
:102110000E94BE0260E070E0CB010E9440048CEFA0
:1021200090E00E94BE0260E070E0CB010E9440049B
:1021300082EF90E00E94BE0260E070E0CB010E945E
:10214000400486ED90E00E94DF020E9493086091B7
:10215000DE017091DF018091E0019091E10142E0A8
:102160000E946C0386EA91E00E94A80220E030E021
:1021700040E251E460910A0170910B0180910C01E1
:1021800090910D010E947E160E9440040E942A0632
:102190002FCC20E030E340E456E469817A818B81E2
:1021A0009C810E941A1518160CF402CE83E012C00E
:1021B000B092DC011BCEA4E0BA120BC020E030E0EC
:1021C00040E251E4C701B6010E941A1518160CF03E
:1021D000FFCD84E08093DC0109CE853069F1863043
:1021E00009F06DCE20E030E04AE754E46091DE0172
:1021F0007091DF018091E0019091E1010E941F1533
:102200009B01AC0160E070E088E491E429C020E02B
:1022100030E04AE754E46091DE017091DF01809183
:10222000E0019091E1010E941F159B01AC016DEC52
:102230007CEC84E491E414C020E030E04AE754E40C
:102240006091DE017091DF018091E0019091E101E8
:102250000E941F159B01AC0160E070E088E791E4EB
:102260000E94AD146B017C0120E030E04AEF53E4A2
:102270000E947E1620E030E04AEF53E40E94AE1444
:102280004B015C0120E030E0A901C701B6010E94CA
:10229000AE1420E030E04AEF53E4E3CDC12CD12C62
:1022A00080E8E82E8FE3F82EFACDEBE6F2E0138219
:1022B000128288EE93E0A0E0B0E084839583A68349
:1022C000B7832AE331E03183208325EC30E0358782
:1022D000248724EC30E03787268720EC30E0318BF0
:1022E000208B21EC30E0338B228B22EC30E0358BDD
:1022F000248B26EC30E0378B268B118E128E138EBA
:10230000148EE8E0F3E01382128284839583A6831F
:10231000B7838CE491E091838083E4E1F3E08BE682
:102320009DE09583848381E086832EE130E03093C5
:102330005403209353031092690310926803109280
:102340006A0310926B0328E037E030936D0320930B
:102350006C0310926E0310926F0310927003109230
:10236000710310927303109272031092740310920F
:1023700075031092760310927703828388E190E0D0
:102380009183808385E090E0908787830895AF9262
:10239000BF92CF92DF92EF92FF920F931F93CF9352
:1023A000DF938AE20E946804182F8BE20E9468047F
:1023B000EC016091640370916503072E000C880B9B
:1023C000990B0E94C91520E030E040E850E40E94DB
:1023D0007E166B017C0180E090E0912F8C2B9D2B71
:1023E000BC01990F880B990B0E94C9159B01AC0188
:1023F000C701B6010E947E1620E030E04AE754E4AF
:102400000E941F156B017C01809166039091670308
:10241000880F991F880F991FBC01990F880B990B82
:102420000E94C9159B01AC01C701B6010E94AE1400
:102430000E94911560933D0370933E0380933F0388
:10244000909340038091140391E09093480280930D
:1024500078031092490210926A026CE088E093E0DF
:102460000E94C20681E00E94DB0160911B03709113
:102470001C03660F771F80911403909115030E942F
:102480005D0290E020911B0330911C03220F331F4B
:102490008217930709F05BC010923B0310923C0334
:1024A0000DE113E0C0E0D0E068EEC62E63E0D62E6A
:1024B000E12CF12C80911B0390911C03C817D907C4
:1024C0000CF045C088E093E00E9476065C0188E04D
:1024D00093E00E94760695012F733327322F22272F
:1024E000282B392BA0916403B09165030E944517F6
:1024F000A70196010E9426178091660390916703B9
:10250000280F391FF801219331938F01E0913B038C
:10251000F0E0EE0FFF1FEC5EFC4F81859285821785
:10252000930714F4C0933B03E0913C03F0E0EE0FFB
:10253000FF1FEC5EFC4F81859285281739072CF42C
:10254000253F314014F0C0933C032196B3CFDF9177
:10255000CF911F910F91FF90EF90DF90CF90BF90A0
:10256000AF9008950F931F93CF93DF9380911A0339
:10257000811107C08091680390916903009709F465
:102580003FC180E00E946804EC0187FF5EC087EBDA
:1025900091E00E94A8020E94BA0280E00E946804B2
:1025A000182F82E30E946804082F83E30E946804C6
:1025B00060E070E0702F862B972BBC01990F880B81
:1025C000990B0E94C9152DE33AE047E051E40E94BF
:1025D0007E1620E030E040EA50E40E941F150E9481
:1025E000911560934103709342038093430390934A
:1025F0004403462F572FBC0177FF07C070956095A5
:10260000509541955F4F6F4F7F4F8091530390914D
:102610005403092E000CAA0BBB0B84179507A607C1
:10262000B70754F40E94340A60936E0370936F03EB
:1026300080937003909371031F7311F410921A0327
:1026400060E870E080E00E944D048C2F8F7309F4E5
:10265000CFC080911A03882321F010927303109247
:102660007203CE01992790936903809368030E94B7
:10267000340A009174031091750320917603309110
:102680007703601B710B820B930B28EE33E040E065
:1026900050E00E940417B901809172039091730376
:1026A0002817390749F0F901E81BF90B339720F097
:1026B000309373032093720380917203909173039C
:1026C0006817790708F498C0C5FF0FC063E070E091
:1026D0000E94F016892B49F48DEF92E00E94DF02F0
:1026E00060E270E080E00E944D04C4FF13C080915E
:1026F0007203909173036AE070E00E94F016892BD8
:1027000049F48DED92E00E94DF0260E170E080E02C
:102710000E944D04C3FF1BC00E94C711E0913C03FF
:10272000F0E0EE0FFF1FEC5EFC4F218532858091BB
:102730005F0390916003821793074CF480EC92E062
:102740000E94DF0268E070E080E00E944D04C2FF5A
:102750001BC00E94C711E0913B03F0E0EE0FFF1F8A
:10276000EC5EFC4F2185328580915D0390915E0384
:10277000281739074CF483EA92E00E94DF0264E0F4
:1027800070E080E00E944D04C1FF13C0809172038D
:10279000909173036CE370E00E94F016892B49F46A
:1027A00085E892E00E94DF0262E070E080E00E9433
:1027B0004D04C0FF13C080917203909173036CE3CA
:1027C00070E00E94F016892B49F487E692E00E949F
:1027D000DF0261E070E080E00E944D0480917203AE
:1027E000909173030196909373038093720304C0D6
:1027F00010926903109268038091680390916903B5
:10280000DF91CF911F910F9108950E94340ADC014E
:10281000CB0180569947AE4FBF4F80930E019093E6
:102820000F01A0931001B09311010C9493088091B3
:10283000CE019091DD01981709F470C060E08130FD
:10284000A9F187E00E948A0460E085E00E948A0482
:1028500064E670E080E090E00E9429050E94B212D8
:10286000892B49F485E00E946804BC016C7F7727BE
:1028700085E00E944D046AE070E080E090E00E94F4
:10288000290560E086E00E948A0464E670E080E04A
:1028900090E00E94290580910801882321F061E0E1
:1028A00087E00E948A041092DB0134C087E00E9416
:1028B0008A0460E085E00E948A0464E670E080E0BB
:1028C00090E00E94290561E086E00E948A046AE0A7
:1028D00070E080E090E00E9429050E94B212892BEE
:1028E00049F485E00E9468048360682F70E085E009
:1028F0000E944D0464E670E080E090E00E942905AB
:1029000080910801882321F061E087E00E948A0419
:102910001092DC018091CE018093DD01089581E069
:102920008093CE010E941714109208010E94AC08F7
:10293000109209010E94EF080E9405148AE193E0B9
:102940000E94DF026091D7017091D8018091D90176
:102950009091DA010E944004FFCF5058BB27AA276C
:102960000E94C5140C943F160E94311638F00E9444
:10297000381620F039F49F3F19F426F40C942E16E3
:102980000EF4E095E7FB0C942816E92F0E945016F0
:1029900058F3BA17620773078407950720F079F494
:1029A000A6F50C9472160EF4E0950B2EBA2FA02DFE
:1029B0000B01B90190010C01CA01A0011124FF27EC
:1029C000591B99F0593F50F4503E68F11A16F040E7
:1029D000A22F232F342F4427585FF3CF46953795E6
:1029E0002795A795F0405395C9F77EF41F16BA0BAB
:1029F000620B730B840BBAF09150A1F0FF0FBB1F59
:102A0000661F771F881FC2F70EC0BA0F621F731FA1
:102A1000841F48F4879577956795B795F7959E3FFE
:102A200008F0B0CF9395880F08F09927EE0F97958F
:102A3000879508950E94041608F481E008950E9485
:102A400033150C943F160E94381658F00E94311628
:102A500040F029F45F3F29F00C94281651110C9492
:102A600073160C942E160E94501668F39923B1F336
:102A7000552391F3951B550BBB27AA2762177307A4
:102A8000840738F09F5F5F4F220F331F441FAA1F38
:102A9000A9F335D00E2E3AF0E0E832D091505040F4
:102AA000E695001CCAF72BD0FE2F29D0660F771FA2
:102AB000881FBB1F261737074807AB07B0E809F088
:102AC000BB0B802DBF01FF2793585F4F3AF09E3F0D
:102AD000510578F00C9428160C9473165F3FE4F3BC
:102AE000983ED4F3869577956795B795F7959F5F50
:102AF000C9F7880F911D9695879597F90895E1E09C
:102B0000660F771F881FBB1F621773078407BA07FA
:102B100020F0621B730B840BBA0BEE1F88F7E09555
:102B200008950E9498156894B1110C947316089535
:102B30000E94581688F09F5798F0B92F9927B751DF
:102B4000B0F0E1F0660F771F881F991F1AF0BA9551
:102B5000C9F714C0B13091F00E947216B1E0089527
:102B60000C947216672F782F8827B85F39F0B93F19
:102B7000CCF3869577956795B395D9F73EF4909504
:102B80008095709561957F4F8F4F9F4F0895E89482
:102B900009C097FB3EF490958095709561957F4FA5
:102BA0008F4F9F4F9923A9F0F92F96E9BB27939553
:102BB000F695879577956795B795F111F8CFFAF463
:102BC000BB0F11F460FF1BC06F5F7F4F8F4F9F4F94
:102BD00016C0882311F096E911C0772321F09EE8F2
:102BE000872F762F05C0662371F096E8862F70E058
:102BF00060E02AF09A95660F771F881FDAF7880F32
:102C00009695879597F90895990F0008550FAA0B87
:102C1000E0E8FEEF16161706E807F907C0F01216EF
:102C20001306E407F50798F0621B730B840B950BF2
:102C300039F40A2661F0232B242B252B21F4089547
:102C40000A2609F4A140A6958FEF811D811D0895E4
:102C500097F99F6780E870E060E008959FEF80EC4F
:102C6000089500240A9416161706180609060895F2
:102C700000240A9412161306140605060895092E58
:102C80000394000C11F4882352F0BB0F40F4BF2BC7
:102C900011F460FF04C06F5F7F4F8F4F9F4F089507
:102CA00057FD9058440F551F59F05F3F71F04795FD
:102CB000880F97FB991F61F09F3F79F087950895E2
:102CC000121613061406551FF2CF4695F1DF08C001
:102CD000161617061806991FF1CF8695710561051E
:102CE00008940895E894BB2766277727CB0197F9C6
:102CF00008950E94041608F48FEF08950E9491161B
:102D00000C943F160E94311638F00E94381620F0BD
:102D1000952311F00C9428160C942E1611240C9463
:102D200073160E94501670F3959FC1F3950F50E0F3
:102D3000551F629FF001729FBB27F00DB11D639F6D
:102D4000AA27F00DB11DAA1F649F6627B00DA11D13
:102D5000661F829F2227B00DA11D621F739FB00DB9
:102D6000A11D621F839FA00D611D221F749F332729
:102D7000A00D611D231F849F600D211D822F762FC2
:102D80006A2F11249F5750409AF0F1F088234AF09F
:102D9000EE0FFF1FBB1F661F771F881F915050400B
:102DA000A9F79E3F510580F00C9428160C947316D9
:102DB0005F3FE4F3983ED4F3869577956795B79592
:102DC000F795E7959F5FC1F7FE2B880F911D9695AC
:102DD000879597F908950E940416880B990B08951A
:102DE000AA1BBB1B51E107C0AA1FBB1FA617B70731
:102DF00010F0A61BB70B881F991F5A95A9F780954D
:102E00009095BC01CD010895A1E21A2EAA1BBB1B0F
:102E1000FD010DC0AA1FBB1FEE1FFF1FA217B307A6
:102E2000E407F50720F0A21BB30BE40BF50B661FBC
:102E3000771F881F991F1A9469F760957095809580
:102E400090959B01AC01BD01CF010895052E97FB24
:102E50001EF400940E943D1757FD07D00E940417EE
:102E600007FC03D04EF40C943D17509540953095D7
:102E700021953F4F4F4F5F4F0895909580957095E6
:102E800061957F4F8F4F9F4F08950E944D173323B9
:102E900012F48A1B9B0B0C945E17A29FB001B39F88
:102EA000C001A39F700D811D1124911DB29F700D53
:102EB000811D1124911D08950E944D17B7FF08959B
:102EC000821B930B08950E944D17A59F900DB49FF0
:102ED000900DA49F800D911D11240895EE0FFF1FEA
:102EE0000590F491E02D099481E090E0F8940C9421
:062EF0007917F894FFCFF2
:102EF6000000C8420000C842010100007F43E80309
:102F06000000080A080A110016001C00210027000C
:102F16002C00320038003D00430048004E005300AC
:102F260059005E00640000000000C105090A63053F
:102F3600080694057205860500000000C206920682
:102F4600F20666068A06760667068BFD37C24E656A
:102F5600ECC50069A743A47CF5C5584B0046CCDDFB
:102F66009D4103097941773E9E4163EE7E41E78CA0
:102F760084C1424D5320636F6D6D756E69636174D4
:102F8600696F6E206572726F72006C645F69202DC6
:102F96002070765F693A20000D0A006E616E006946
:102FA6006E66006F766600496E746572727570742F
:0C2FB6003A2043432072656164790000FA
:00000001FF
