:100000000C94D8010C94D40C0C94AD0C0C940002FC
:100010000C9400020C9400020C9400020C94000258
:100020000C9400020C9400020C9400020C94000248
:100030000C9400020C9400020C9400020C94000238
:100040000C94630C0C9400020C949A090C9474099F
:100050000C9400020C9400020C9400020C94000218
:100060000C94CC090C94000208000000BE922449B4
:10007000123EABAAAA2ABECDCCCC4C3E00000080DA
:10008000BEABAAAAAA3E00000000BF000000803F4D
:100090000000000000084178D3BB4387D1133D190D
:1000A0000E3CC3BD4282AD2B3E68EC8276BED98F3A
:1000B000E1A93E4C80EFFFBE01C4FF7F3F0000007E
:1000C0000000537461727475702E2E2E004C412006
:1000D0004F564552564F4C544147452E2E2E2053D5
:1000E000544F5050494E47004C4F4144204F5645C5
:1000F0005243555252454E542E2E2E2053544F509B
:1001000050494E47005056204F564552564F4C547A
:100110004147452E2E2E2053544F5050494E4700F4
:100120005056204F56455243555252454E542E2E4E
:100130002E2053544F5050494E47002D2D2D2D2D1C
:100140002D2D2D2D2D2D2D2D2D2D2D2D2D2D2D2DDF
:100150002D4F5448455200695F73756D5F653A20B5
:1001600000695F643A2000765F73756D5F653A20C1
:1001700000765F643A2000647574795F6379636C1C
:10018000653A20002D2D2D2D2D2D2D2D2D2D2D2D94
:100190002D2D50492D434F4E54524F4C4C4552003B
:1001A0006D6561737572655F6D697374616B653AD6
:1001B000200074656D70657261747572653A200017
:1001C0006C645F693A200070765F693A200070764F
:1001D0005F763A20006C695F693A20006C695F764F
:1001E0003A20006C615F693A20006C615F763A20CA
:1001F000002D2D2D2D2D2D2D2D2D2D2D2D2D2D2D5C
:100200002D4D4541535552454D454E5453006C6953
:100210005F73746174653A20006C615F736F633A59
:1002200020006C645F73746174653A200070765FBF
:1002300073746174653A20006C695F7374617465EE
:100240003A20006C615F73746174653A20007379C1
:10025000735F73746174653A200063757272656EC2
:100260007420426174746572793A200054696D6536
:100270003A20002D2D2D2D2D2D2D2D2D2D2D2D2DDB
:100280002D2D2D2D2D2D2D2D2D5354415445530005
:1002900000000000240027002A00000000002500C4
:1002A00028002B00040404040404040402020202D3
:1002B0000202030303030303010204081020408029
:1002C00001020408102001020408102000000008A8
:1002D000000201000003040700000000000000000D
:1002E000417474656D7074696E6720746F20636CFF
:1002F000656172204F4344206572726F72004174D1
:1003000074656D7074696E6720746F20636C6561CD
:100310007220534344206572726F72004174746599
:100320006D7074696E6720746F20636C65617220F4
:100330004F56206572726F7200417474656D7074EF
:10034000696E6720746F20636C656172205556205A
:100350006572726F7200417474656D7074696E6756
:1003600020746F20636C65617220416C657274202B
:100370006572726F7200417474656D7074696E6736
:1003800020746F20636C6561722058522065727210
:100390006F72004C41204F56455243555252454EC4
:1003A000542E2E2E2053544F5050494E4700FD15C9
:1003B00011241FBECFEFD8E0DEBFCDBF11E0A0E01B
:1003C000B1E0E0EFF4E302C005900D92A43FB10765
:1003D000D9F724E0A4EFB1E001C01D92A130B2072B
:1003E000E1F711E0C8EDD1E004C02197FE010E94C1
:1003F000601AC73DD107C9F70E94FB0C0C94761A0E
:100400000C9400003FB7F89480913402909135022B
:10041000A0913602B091370226B5A89B05C02F3FA8
:1004200019F00196A11DB11D3FBFBA2FA92F982F1A
:100430008827820F911DA11DB11DBC01CD0142E095
:10044000660F771F881F991F4A95D1F70895009767
:1004500069F0FC0101900020E9F73197AF01481BDA
:10046000590BBC0185EA92E00C942C0C80E090E0E2
:10047000089585EE91E00C9427020F931F93CF937C
:10048000DF938C01C0E0D0E0F801EC0FFD1F649118
:10049000662371F0E091A502F091A6020190F0812F
:1004A000E02D85EA92E00995892B11F02196ECCF99
:1004B000CE01DF91CF911F910F910895CF93DF93DC
:1004C0000E943D02EC010E9439028C0F9D1FDF91BA
:1004D000CF9108958F929F92AF92BF920F931F93E7
:1004E000CF93DF93CDB7DEB7A1970FB6F894DEBFF9
:1004F0000FBECDBF19A2423008F44AE08E010F5D55
:100500001F4F842E912CA12CB12CA50194010E9487
:10051000F619E62FB901CA0101501109EA3014F4A5
:10052000E05D01C0E95CD801EC93232B242B252B43
:1005300061F7C8010E942702A1960FB6F894DEBFAA
:100540000FBECDBFDF91CF911F910F91BF90AF90A4
:100550009F908F900895E091A502F091A6020190DE
:10056000F081E02D682F85EA92E00994CF92DF9226
:10057000EF92FF92CF93DF936C01990FEE08FF0883
:10058000F7FE12C08DE20E94AB02EC0166277727CE
:10059000CB016C197D098E099F094AE00E946A020D
:1005A0007C01EC0EFD1E06C04AE0C701B6010E94A8
:1005B0006A027C010E9439028E0D9F1DDF91CF914E
:1005C000FF90EF90DF90CF900895CF93DF93682F47
:1005D00070E080E090E04AE00E946A02EC010E9434
:1005E00039028C0F9D1FDF91CF9108954F925F923A
:1005F0006F927F928F929F92AF92BF92CF92DF9233
:10060000EF92FF926B017C019B01AC010E94941957
:10061000882319F088EE91E01AC046015701E8944A
:10062000B7F82FEF3FEF4FE75FE7C501B4010E9436
:100630009419811110C02FEF3FEF4FE75FE7C5011D
:10064000B4010E947317181634F48CEE91E00E94E6
:1006500027027C017FC02FEF3FEF4FE75FE4C70128
:10066000B6010E94D21818161CF480EF91E0EFCF6B
:100670002FEF3FEF4FE75FECC701B6010E94731702
:1006800087FDF3CF20E030E0A901C701B6010E9449
:10069000731787FF09C08DE20E94AB025C01F7FA75
:1006A000F094F7F8F09402C0A12CB12C2AE037EDB9
:1006B00043EA5BE3C701B6010E9407172B013C0127
:1006C0000E94F1176B017C010E9420189B01AC0174
:1006D000C301B2010E9406172B013C014AE0C70189
:1006E000B6010E946A027C01EA0CFB1C8EE20E94A9
:1006F000AB02E80EF91E20E030E040E251E4C30115
:10070000B2010E9427192B013C010E94F1174B01F5
:10071000A12CB12C4AE0C501B4010E946A02E80E86
:10072000F91EC501B4010E9420189B01AC01C30150
:10073000B2010E94061720E030E040E251E40E943E
:1007400027190E94F11780E090E04AE00E946A02B7
:10075000E80EF91E0E9439028E0D9F1DFF90EF904A
:10076000DF90CF90BF90AF909F908F907F906F90D1
:100770005F904F9008952091A4029091A30221329E
:1007800008F04AC0809180028111FCCF32E03093A2
:10079000800231E030937F023FEF30937E0210926F
:1007A0007D0220937C02A3E8B2E04CE552E0FA011E
:1007B0003E2F341B321718F43D913193F9CF10922C
:1007C0005B0220915B02990F922B90935B029091B8
:1007D0005A02913061F410925A0290915B02909308
:1007E000BB009091BC0093FDF8CF95EC01C095EE55
:1007F0009093BC00909180029230E1F390917E0240
:100800009F3F79F080917E02803241F080917E029C
:10081000803331F084E005C081E003C082E001C094
:1008200083E0109282021092A40210928102089535
:10083000CF93C62F90914E0321E020938102909395
:10084000A302109282021092A402682F82E493E025
:100850000E9429096C2F82E493E00E942909CF911C
:100860000C94BB03909180029111FCCF91E0909386
:10087000800290937F022FEF20937E0210927D02E0
:10088000260F20937C0290935B0290915B02880F6D
:10089000892B80935B0280915A02813061F410921F
:1008A0005A0280915B028093BB008091BC0083FD63
:1008B000F8CF85EC01C085EE8093BC00809180026A
:1008C0008130E1F380917D02861710F460917D0202
:1008D000ACE5B2E02AE332E0F9018E2F821B8617E5
:1008E00018F48D918193F9CF862F0895CF93DF93DC
:1008F000CEE4D3E0988121E0209381029093A3027B
:10090000109282021092A402682F82E493E00E9467
:1009100029090E94BB0361E088810E943204109281
:1009200039028093380282E493E0DF91CF910C94F6
:10093000DD08AF92BF92CF92DF92EF92FF920F93BA
:100940001F93CF93DF938AE20E947604182F8BE2E5
:100950000E947604EC0160919E0370919F03072E24
:10096000000C880B990B0E94221820E030E040E830
:1009700050E40E9427196B017C0180E090E0912FE8
:100980008C2B9D2BBC01990F880B990B0E94221870
:100990009B01AC01C701B6010E94271920E030E09D
:1009A0004AE754E40E9478176B017C018091A00310
:1009B0009091A103880F991F880F991FBC01990F6F
:1009C000880B990B0E9422189B01AC01C701B6014C
:1009D0000E9407170E94EA176093770370937803C9
:1009E0008093790390937A0380914E0391E09093E2
:1009F00081028093A302109282021092A4026CE002
:100A000082E493E00E9429090E94BB036091550390
:100A1000660F613208F060E280914E030E9432045A
:100A2000109239028093380290E020915503309162
:100A30005603220F331F8217930709F05BC01092F1
:100A400075031092760307E513E0C0E0D0E068EE8E
:100A5000C62E63E0D62EE12CF12C809155039091A7
:100A60005603C817D9070CF045C082E493E00E94F2
:100A7000DD085C0182E493E00E94DD0895012F739C
:100A80003327322F2227282B392BA0919E03B09198
:100A90009F030E94371AA70196010E94181A80919D
:100AA000A0039091A103280F391FF80121933193DE
:100AB0008F01E0917503F0E0EE0FFF1FE25BFC4F4A
:100AC000818592858217930714F4C0937503E09192
:100AD0007603F0E0EE0FFF1FE25BFC4F818592850D
:100AE000281739072CF4253F314014F0C0937603C2
:100AF0002196B3CFDF91CF911F910F91FF90EF908F
:100B0000DF90CF90BF90AF900895CF93DF93D82F11
:100B100080E00E947604C82FDD2309F44CC082E3F4
:100B20000E947604D82F83E30E94760460E070E090
:100B30007D2F862B972BBC01990F880B990B0E9458
:100B400022182DE33AE047E051E40E94271920E003
:100B500030E040EA50E40E9478170E94EA17609360
:100B60007B0370937C0380937D0390937E03462FD9
:100B7000572FBC0177FF07C0709560955095419540
:100B80005F4F6F4F7F4F80918D0390918E03092EA1
:100B9000000CAA0BBB0B84179507A607B70784F4B4
:100BA0000E94570C6093A8037093A9038093AA0333
:100BB0009093AB0305C087FDB2CFDF91CF9108952D
:100BC000CF7311F41092540360E870E080E0DF917D
:100BD000CF910C9418040F931F93CF93DF938091C0
:100BE0005403811107C08091A2039091A303009741
:100BF00009F4E8C080E00E947604EC0180E090E017
:100C00000E94B602C7FF03C081E00E9485058C2FB9
:100C10008F7309F4CFC080915403882321F0109280
:100C2000AD031092AC03CE0199279093A303809358
:100C3000A2030E94570C0091AE031091AF032091C4
:100C4000B0033091B103601B710B820B930B28EE44
:100C500033E040E050E00E94F619B9018091AC0306
:100C60009091AD032817390749F0F901E81BF90BFA
:100C7000339720F03093AD032093AC038091AC0305
:100C80009091AD036817790708F498C0C5FF0FC0AD
:100C900063E070E00E94CE19892B49F486E793E067
:100CA0000E945E0260E270E080E00E941804C4FFCF
:100CB00013C08091AC039091AD036AE070E00E9494
:100CC000CE19892B49F486E593E00E945E0260E12B
:100CD00070E080E00E941804C3FF1BC00E949904CA
:100CE000E0917603F0E0EE0FFF1FE25BFC4F218501
:100CF00032858091990390919A03821793074CF45F
:100D000089E393E00E945E0268E070E080E00E9468
:100D10001804C2FF1BC00E949904E0917503F0E023
:100D2000EE0FFF1FE25BFC4F218532858091970318
:100D300090919803281739074CF48CE193E00E94B6
:100D40005E0264E070E080E00E941804C1FF13C0FE
:100D50008091AC039091AD036CE370E00E94CE19DA
:100D6000892B49F48EEF92E00E945E0262E070E00F
:100D700080E00E941804C0FF13C08091AC039091E2
:100D8000AD036CE370E00E94CE19892B49F480EE2C
:100D900092E00E945E0261E070E080E00E94180430
:100DA0008091AC039091AD0301969093AD03809335
:100DB000AC0304C01092A3031092A2038091A2037B
:100DC0009091A303DF91CF911F910F91089590E02F
:100DD000FC01E453FD4F3491FC01E854FD4F249194
:100DE000FC01EC55FD4FE491EE2309F43BC03323A5
:100DF00039F1333091F038F43130A9F0323001F567
:100E000084B58F7D12C0373091F03830A1F0343086
:100E1000B9F4809180008F7D03C0809180008F772E
:100E2000809380000DC084B58F7784BD09C0809108
:100E3000B0008F7703C08091B0008F7D8093B000A9
:100E4000F0E0EE0FFF1FE656FD4FA591B4918FB76E
:100E5000F894EC91611103C020952E2301C02E2B34
:100E60002C938FBF0895CF93DF9390E0FC01E8545B
:100E7000FD4F2491FC01EC55FD4F8491882361F1D5
:100E800090E0880F991FFC01E057FD4FC591D49168
:100E9000FC01E656FD4FA591B491611109C09FB7C1
:100EA000F8948881209582238883EC912E230BC0AF
:100EB000623061F49FB7F8943881822F8095832344
:100EC0008883EC912E2B2C939FBF06C08FB7F8948C
:100ED000E8812E2B28838FBFDF91CF9108958E302C
:100EE00008F08E508770806480937C0080917A0037
:100EF000806480937A0080917A0086FDFCCF809197
:100F000078002091790090E0922B08958F929F9223
:100F1000AF92BF92CF92DF92EF92FF926B017C0172
:100F20000E9402024B015C01C114D104E104F104EE
:100F3000F1F00E940202DC01CB0188199909AA098B
:100F4000BB09883E9340A105B10570F321E0C21AA8
:100F5000D108E108F10888EE880E83E0981EA11CF4
:100F6000B11CC114D104E104F10419F7DDCFFF90E5
:100F7000EF90DF90CF90BF90AF909F908F900895AB
:100F8000FC01538D448D252F30E0842F90E0821B8F
:100F9000930B541710F0CF96089501970895FC0114
:100FA000918D828D981761F0828DDF01A80FB11DA0
:100FB0005D968C91928D9F5F9F73928F90E00895C4
:100FC0008FEF9FEF0895FC01918D828D981731F07E
:100FD000828DE80FF11D858D90E008958FEF9FEFD2
:100FE0000895FC01918D228D892F90E0805C9F4FA8
:100FF000821B91098F739927089585EA92E00E94D8
:10100000F10721E0892B09F420E0822F0895FC01EB
:10101000848DDF01A80FB11DA35ABF4F2C91848D81
:1010200090E001968F739927848FA689B7892C93B6
:10103000A089B1898C9180648C93938D848D981351
:1010400006C00288F389E02D80818F7D808308951A
:10105000EF92FF920F931F93CF93DF93EC0181E008
:10106000888F9B8D8C8D981305C0E889F9898081C4
:1010700085FD24C0F62E0B8D10E00F5F1F4F0F7300
:101080001127E02E8C8DE8120CC00FB607FCFACFAA
:10109000E889F989808185FFF5CFCE010E94070894
:1010A000F1CF8B8DFE01E80FF11DE35AFF4FF08267
:1010B0000B8FEA89FB898081806207C0EE89FF89F6
:1010C0006083E889F98980818064808381E090E091
:1010D000DF91CF911F910F91FF90EF900895CF93E3
:1010E000DF93EC01888D8823C9F0EA89FB89808130
:1010F00085FD05C0A889B9898C9186FD0FC00FB602
:1011000007FCF5CF808185FFF2CFA889B9898C9142
:1011100085FFEDCFCE010E940708E7CFDF91CF9189
:10112000089580E090E0892B29F00E94FD0781114D
:101130000C940000089585ED8093BC008091BC0064
:1011400084FDFCCF1092800208954091D703262F92
:1011500030E0240F311D21323105DCF42091800272
:101160002430C9F4FC0180E090E0861758F43091F7
:10117000D7032191DC01AB54BC4FA30FB11D2C93BD
:101180000196F3CF8091D703680F6093D70380E077
:10119000089581E0089582E008950895E09139026C
:1011A00080913802E81730F4F0E0E65CFD4F808172
:1011B00090E008958FEF9FEF08959091390280910C
:1011C0003802981750F4E92FF0E0E65CFD4F2081DB
:1011D00030E09F5F9093390202C02FEF3FEFC901CB
:1011E00008958091380290E020913902821B910984
:1011F0000895CF92DF92EF92FF920F931F93CF93B8
:10120000DF937C01262F972F8A018091810288230A
:1012100091F0C62FD72F6E01C40ED51ECC15DD055B
:1012200071F06991D701ED91FC910190F081E02D71
:10123000C7010995F3CF642F822F0E94A508C8012A
:10124000DF91CF911F910F91FF90EF90DF90CF90A2
:101250000895CF93DF931F92CDB7DEB769832091B6
:1012600081022223D1F02091A402203240F021E01B
:1012700030E0FC013383228380E090E015C0809150
:101280008202E82FF0E0ED57FD4F998190838F5F48
:10129000809382028093A40205C061E0CE01019692
:1012A0000E94A50881E090E00F90DF91CF91089512
:1012B000089580E090E008950E94661ACF93DF932E
:1012C000C091F401D091F501209759F00E94570C7C
:1012D000FE01E05AFF4F608371838283938381E034
:1012E0008E83DF91CF9108951F920F920FB60F92C8
:1012F00011242F933F934F935F936F937F938F931B
:101300009F93AF93BF93EF93FF9385EA92E00E9480
:101310000708FF91EF91BF91AF919F918F917F91BE
:101320006F915F914F913F912F910F900FBE0F9052
:101330001F9018951F920F920FB60F9211242F93A2
:101340008F939F93EF93FF93E091B502F091B602D4
:101350008081E091BB02F091BC0282FD12C09081BD
:101360008091BE028F5F8F732091BF02821751F070
:10137000E091BE02F0E0EB55FD4F958F8093BE02E9
:1013800001C08081FF91EF919F918F912F910F90DC
:101390000FBE0F901F9018951F920F920FB60F92CD
:1013A00011242F933F934F935F936F937F938F936A
:1013B0009F93AF93BF93EF93FF938091B900887F82
:1013C000803609F49CC068F5883209F45BC090F45B
:1013D000803109F454C038F4882309F4F6C0883009
:1013E00009F44DC0F6C0883109F44CC0803209F4CC
:1013F0005DC0EFC0803409F468C048F4803309F45C
:1014000055C0883309F0E5C080937E02D8C080358E
:1014100009F44FC0883509F45DC0883409F0D9C09B
:10142000D6C0883909F4C7C0A8F4883709F467C062
:1014300038F4883609F463C0803709F460C0C9C045
:10144000883809F4B8C0803909F45FC0803809F0E1
:10145000C0C05BC0803B09F486C038F4803A09F410
:1014600066C0883A09F47FC0B4C0803C09F4A7C0C4
:10147000883C09F4A4C0883B09F48AC0AAC08091C2
:101480005B0210C090917D0280917C02981770F5EC
:10149000E0917D0281E08E0F80937D02F0E0E45ABE
:1014A000FD4F80818093BB0085EC86C080937E02D7
:1014B0008EC0E0917D0281E08E0F80937D0280914D
:1014C000BB00F0E0E45AFD4F808390917D02809153
:1014D0007C026EC0E0917D0281E08E0F80937D02E0
:1014E0008091BB00F0E0E45AFD4F808380917F0241
:1014F00081116DC081E080935A0284EA61C083E06B
:10150000809380021092FB03CFCF8091FB03803247
:1015100008F051C0E091FB0381E08E0F8093FB0344
:101520008091BB00F0E0E552FC4F8083BDCF85EC9D
:101530008093BC00109280028091FB03803230F4D3
:10154000E091FB03F0E0E552FC4F10826091FB0359
:1015500070E0E091D903F091DA038BED93E0099507
:101560001092FB0336C084E0809380021092D8036F
:101570001092D703E091D503F091D603099580919D
:10158000D703811105C081E08093D7031092B50382
:10159000E091D80381E08E0F8093D803F0E0EB5404
:1015A000FC4F80818093BB009091D8038091D7033A
:1015B000981708F479CF85E88093BC000AC085ECC1
:1015C0008093BC001092800204C010927E020E94A0
:1015D0009B08FF91EF91BF91AF919F918F917F9168
:1015E0006F915F914F913F912F910F900FBE0F9090
:1015F0001F9018950F931F930E94570C00910E0196
:1016000010910F01209110013091110160177107A5
:101610008207930710F461E001C060E085E01F914C
:101620000F910C94E706CF92DF92EF92FF92CF9347
:10163000DF9380910D01882399F0609100017091F2
:10164000010180910201909103010E94EA176B0150
:101650007C01EB0161E089E00E943307209711F4DF
:1016600060E004C0CF3FD10551F461E089E0DF9133
:10167000CF91FF90EF90DF90CF900C94E706E5EDCF
:10168000F2E0E491E330F9F048F4E130B9F0E2300F
:10169000A1F584B5806284BDC8BC34C0E730E9F0F0
:1016A000E83019F1E43049F5809180008062809340
:1016B0008000D0928B00C0928A0024C084B58068DC
:1016C00084BDC7BC1FC0809180008068809380006B
:1016D000D0928900C092880015C08091B0008068C7
:1016E0008093B000C092B3000DC08091B0008062C2
:1016F0008093B000C092B40005C0C038D1050CF092
:10170000B4CFAECFDF91CF91FF90EF90DF90CF902D
:10171000089580910C01882311F061E001C060E020
:1017200087E00C94E706CF92DF92EF92FF920F933F
:101730001F93CF93DF93C82F8330F1F050F48130A3
:10174000A1F0823029F581E08093B4031092B303B5
:1017500018C08430C9F08530D9F41092B4031092C7
:10176000B30381E08093B20313C08093B40310925B
:10177000B3038093B2030CC01092B40381E0809352
:10178000B3031092B20304C081E08093B403F7CF97
:101790006091B4038EE00E94E7066091B3038FE08E
:1017A0000E94E7066091B20380E10E94E70661E0D3
:1017B00070E080E090E00E948607D4E6C12CD12C36
:1017C000760103EC10E081E10E946F07BC01990FE4
:1017D000880B990B0E9422189B01AC01C701B6012E
:1017E0000E9407176B017C01C8010197F1F7D150E6
:1017F00051F720E030E048EC52E4C701B6010E9406
:101800007817C150C53098F424E0C29FD00111244C
:10181000FD01E259FE4F2081318142815381FD015A
:10182000E65AFE4FC080D180E280F38005C0C12C13
:10183000D12C7601A70196010E942719A7019601D4
:101840000E940717DF91CF911F910F91FF90EF90AA
:10185000DF90CF9008950895CF92DF92EF92FF929C
:101860000F931F93CF93DF936C017A018B01C0E03C
:10187000D0E0CE15DF0589F0D8016D918D01D6013C
:10188000ED91FC910190F081E02DC6010995892B25
:1018900011F47E0102C02196ECCFC701DF91CF91F8
:1018A0001F910F91FF90EF90DF90CF9008952FB789
:1018B000F8946091FD037091FE038091FF03909175
:1018C00000042FBF08951F920F920FB60F9211249C
:1018D0002F933F938F939F93AF93BF938091FD037B
:1018E0009091FE03A091FF03B09100043091FC039E
:1018F00023E0230F2D3720F40196A11DB11D05C053
:1019000026E8230F0296A11DB11D2093FC038093AE
:10191000FD039093FE03A093FF03B0930004809116
:10192000340290913502A0913602B09137020196AF
:10193000A11DB11D8093340290933502A09336020D
:10194000B0933702BF91AF919F918F913F912F91AB
:101950000F900FBE0F901F9018951F920F920FB609
:101960000F9211242F933F934F935F936F937F9325
:101970008F939F93AF93BF93EF93FF93E0911401E5
:10198000F09115010995FF91EF91BF91AF919F9152
:101990008F917F916F915F914F913F912F910F9018
:1019A0000FBE0F901F9018951F920F920FB60F92B7
:1019B00011242F933F934F935F936F937F938F9354
:1019C0009F93AF93BF93EF93FF93E0911201F09138
:1019D00013010995FF91EF91BF91AF919F918F9165
:1019E0007F916F915F914F913F912F910F900FBE1B
:1019F0000F901F901895CF93DF93CDB7DEB7609708
:101A00000FB6F894DEBF0FBECDBF789484B5826068
:101A100084BD84B5816084BD85B5826085BD85B592
:101A2000816085BD80916E00816080936E00109210
:101A3000810080918100826080938100809181008B
:101A4000816080938100809180008160809380001C
:101A50008091B10084608093B1008091B00081607A
:101A60008093B00080917A00846080937A008091A6
:101A70007A00826080937A0080917A0081608093FE
:101A80007A0080917A00806880937A001092C10079
:101A9000E091B502F091B60282E08083E091B1025C
:101AA000F091B2021082E091B302F091B40280E1B1
:101AB00080831092BD02E091B902F091BA0286E0F3
:101AC0008083E091B702F091B802808180618083C9
:101AD000E091B702F091B802808188608083E09144
:101AE000B702F091B802808180688083E091B702EC
:101AF000F091B80280818F7D808382EC90E00E941B
:101B00005E021092390210923802109282021092F4
:101B1000A4021092800281E080937F0210925A0208
:101B200061E082E10E94E70661E083E10E94E7064E
:101B30008091B9008E7F8093B9008091B9008D7F2C
:101B40008093B90088E48093B80085E48093BC005A
:101B5000109258031092570310925A03109259038F
:101B600010925C0310925B0310925E0310925D036F
:101B700061E08FEF0E94330761E08FEF0E94E7067C
:101B800065E070E080E090E00E94860760E08FEF03
:101B90000E9433076AE070E080E090E00E948607D0
:101BA00069E170E08BE00E9418048BE00E947604EB
:101BB0000E94B6028BE00E947604499791F568E195
:101BC00070E084E00E94180460E470E085E00E9408
:101BD00018048EE493E09093F5018093F40181E57D
:101BE0000E9476049093A1038093A00380E50E9455
:101BF00076048C0189E50E947604807E9927E5E0D1
:101C000095958795EA95E1F70C701127000F111F44
:101C1000802B912B83599E4F90939F0380939E031B
:101C200006C086E891E00E9427020E94390288E3FC
:101C30009FEF909392038093910382EC91E09093B5
:101C40009603809395031092900310928F039093C4
:101C500094038093930385E0809351036FE970E0D0
:101C600086E00E94180410E02091510330E0A0E4C7
:101C7000BFE10E943F1A28EE33E040E050E00E94AE
:101C8000181AE6E5F1E08FE190E0729162916B0144
:101C9000770FEE08FF082C153D054E055F0534F063
:101CA0008F70612F607F162F182B02C0019769F784
:101CB0001067612F70E087E00E94180488E29AE0C4
:101CC00090939A038093990388E00E947604182FDA
:101CD0008091A0039091A103092E000CAA0BBB0BCD
:101CE00048E25AE060E070E09A01AB01281B390B32
:101CF0004A0B5B0BA8EEB3E00E94551A20919E039D
:101D000030919F03032E000C440B550B0E94181AB0
:101D1000DA01C90154E0B595A795979587955A952D
:101D2000D1F721E0280F622F70E08AE00E941804AA
:101D3000612F606C70E088E00E94180482E49EE0ED
:101D4000909398038093970388E00E947604182F5D
:101D50008091A0039091A103092E000CAA0BBB0B4C
:101D600042E45EE060E070E09A01AB01281B390BB1
:101D70004A0B5B0BA8EEB3E00E94551A20919E031C
:101D800030919F03032E000C440B550B0E94181A30
:101D9000DA01C90164E0B595A795979587956A958D
:101DA000D1F7682F70E089E00E941804612F60630A
:101DB00070E088E00E9418041092A7031092A60316
:101DC00084EE9CE090939C0380939B0384E180933A
:101DD0009D0384E690E090938E0380938D0381E0D1
:101DE0008093A40361E08EE00E94330761E08FE0FE
:101DF0000E94330761E080E10E94330760E081E1E7
:101E00000E94330761E086E00E94330761E089E0C9
:101E10000E94330761E087E00E94330760E086E0BC
:101E20000E94E70660E089E00E94E70660E087E044
:101E30000E94E70622242394312C81E00E94930B18
:101E40006D837E838F8398876093290270932A0223
:101E500080932B0290932C0282E00E94930B6B01E3
:101E60007C016093F7017093F8018093F9019093DE
:101E7000FA0183E00E94930B69877A878B879C879E
:101E800060931D0270931E0280931F0290932002A4
:101E900084E00E94930B69837A838B839C83609395
:101EA000190270931A0280931B0290931C0285E022
:101EB0000E94930B2B013C01609315027093160254
:101EC00080931702909318026091770370917803C2
:101ED000072E000C880B990B0E9422186093250294
:101EE00070932602809327029093280260917B03CF
:101EF00070917C03072E000C880B990B0E9422180E
:101F00006D877E878F87988B609321027093220262
:101F1000809323029093240214E6812C912C540187
:101F200085E10E946F07BC01990F880B990B0E94F5
:101F300022189B01AC01C501B4010E9407174B0197
:101F40005C0183EC90E00197F1F7115049F720E034
:101F500030E048EC52E4C501B4010E9478172EE647
:101F600034E340E85EE30E9427192BE734E144EABA
:101F700051E40E940617609311027093120280933D
:101F800013029093140220E030E04AE756E46D819A
:101F90007E818F8198850E94D2181816F4F481E012
:101FA0008093F6010E94811610920C010E94890B09
:101FB00010920D010E94130B0E946F168DEC90E0A1
:101FC0000E945E026091290270912A0280912B0288
:101FD00090912C020E94F602FFCF20E030E44CE901
:101FE00055E4C701B6010E94D218181614F40E94D5
:101FF000E81620E030EC4AE556ECC701B6010E9435
:10200000731787FDF4CF20E030EC4AE556E4C301B6
:10201000B2010E94D2181816ECF410920C010E9422
:10202000890B10920D010E94130B1092F6010E9471
:1020300081160E946F1688EE90E00E945E02609109
:1020400015027091160280911702909118020E9459
:10205000F602FFCF20E030E543EC56E469857A854F
:102060008B859C850E94D2181816ECF410920D01F5
:102070000E94130B10920C010E94890B1092F60122
:102080000E9481160E946F1685E091E00E945E0218
:1020900060911D0270911E0280911F02909120029A
:1020A0000E94F602FFCF20E030E44CE955E469815C
:1020B0007A818B819C810E94D2181816ECF41092C0
:1020C0000D010E94130B10920C010E94890B1092BB
:1020D000F6010E9481160E946F1680E291E00E9434
:1020E0005E026091190270911A0280911B02909118
:1020F0001C020E94F602FFCFA701960169817A8136
:102100008B819C810E9407172D853E854F855889BC
:102110000E940717A30192010E94061720E030E0F9
:1021200040EA51E40E94061760930D0270930E027C
:1021300080930F029093100280E00E9485050E9418
:10214000990480914E0391E0909381028093A302C1
:10215000109282021092A4026CE282E493E00E9448
:1021600029090E94BB0362E080914E030E94320461
:102170001092390280933802823009F080C082E4E4
:1021800093E00E94DD088C0182E493E00E94DD0868
:10219000B8016F737727762F6627862B972BBC01A4
:1021A000990F880B990B0E94221821E835E943EC1E
:1021B0005EE30E9427190E94EA17072E000C880B85
:1021C000990B0E9422186B017C0120E030E44CE165
:1021D00056E40E9427194B015C01A701960160E0BB
:1021E00070E48EE495E40E9406179B01AC01C501E2
:1021F000B4010E9478170E94F1170E94201820E075
:1022000030E44CE156E40E9478170E94DF186B011D
:102210007C016091520370915303072E000C880BD0
:10222000990B0E9422189B01AC0160E070E080E8ED
:102230009FE30E947817A70196010E9427192FE0BB
:102240003FEC4BE55BE30E9407179B01AC0160E0AC
:1022500070E080E89FE30E94781723E333E948E8C1
:1022600053E40E94061720E030E040E251E40E946F
:1022700027190E94EA177093800360937F030E94DE
:10228000570C6B017C014090A8035090A90360900B
:10229000AA037090AB03809155039091560365E0BB
:1022A00070E00E94E2195B010E94EB05892BD9F5D1
:1022B000C701B601641975098609970928EE33E04C
:1022C00040E050E00E94F6198091A6039091A70388
:1022D000092E000CAA0BBB0B281739074A075B070E
:1022E00014F1E0917503F0E0EE0FFF1FE25BFC4F8D
:1022F0008185928520919B0330919C032817390793
:1023000094F4E0917603F0E0EE0FFF1FE25BFC4FE8
:1023100021853285821B930B20919D0330E0281785
:1023200039070CF429C18091A5038823B9F000E096
:1023300010E0BB240A151B057CF48DEB91E00E9494
:1023400027020F5F1F4FC8010E94B60260E070E0D5
:10235000802F0E941804EECF1092A50320E030E0F9
:102360004AE754E46091F7017091F8018091F90116
:102370009091FA010E9478179B01AC0160910801CD
:102380007091090180910A0190910B010E9406173A
:1023900069837A838B839C8360930801709309011E
:1023A00080930A0190930B0120E030E04AE754E467
:1023B0006091210270912202809123029091240267
:1023C0000E9478179B01AC01609104017091050196
:1023D00080910601909107010E9406176B017C0114
:1023E00060930401709305018093060190930701A7
:1023F0004090190250901A0260901B0270901C02CB
:102400008090150290901602A0901702B0901802CA
:1024100020E030E040EF51E4C501B4010E9407170D
:102420009B01AC01C301B2010E94D21887FD02C01A
:1024300081E011C020E030E040EF51E4C501B4017B
:102440000E9406179B01AC01C301B2010E947317E1
:10245000181624F082E080932F0202C010922F02FF
:1024600010912F02113021F068F0123079F036C04F
:1024700020E030E048EC52E4C701B6010E94731737
:1024800087FF1EC081E08093F60128C020E030E085
:1024900040E752E469817A818B819C810E94D21845
:1024A000181684F7A3019201C501B4010E94061712
:1024B00020E030E048E453E40E94D21887FD03C0D6
:1024C0001092F6010BC020E030E040E752E4C70173
:1024D000B6010E94D2181816ACF2F2CF8091F60124
:1024E000811111C010922D0280912E02843029F0AA
:1024F000111103C010922E0212C0123081F481E03B
:1025000080932E020CC010922E02111103C0109263
:102510002D0205C0123019F481E080932D02C09085
:102520001D02D0901E02E0901F02F0902002009148
:10253000FB01011109C06091290270912A0280916A
:102540002B0290912C0208C0609125027091260206
:10255000809127029091280220E030E048EC52E47C
:102560000E9407179B01AC01C701B6010E94D21857
:1025700018160CF0C6C187C081E08093A5030EE455
:1025800013E0C12CD12C7601C394BB24C601019762
:102590008A159B050CF0E2CEE0917603F0E0EE0F99
:1025A000FF1FE25BFC4FA185B28540919D0350E087
:1025B000412C20E030E0F901EE0FFF1FE00FF11F8A
:1025C000818592858A1B9B0B48175907D4F4C1015A
:1025D000022E01C0880F0A94EAF7942C982AE92D5C
:1025E000F0E0842D90E0BF01660F771F6823792308
:1025F000672B39F4880F991F8E239F23892B09F4A9
:10260000492C2F5F3F4F25303105A9F68EE991E027
:102610000E9427024AE0C701B6010E946A028EEAC0
:1026200091E00E942702512C1092FC0148E0642E98
:10263000712C50E8852E912CC40184219521881598
:10264000990519F064E871E002C062E871E08CEF6E
:1026500091E00E946B1A9594879481E0681A710842
:1026600059F78CEF91E00E9427020E943902B201D3
:102670008C2D0E9418049FEFC91AD90AE90AF90A99
:10268000065F1F4F83CF011142C181E080930D018E
:1026900010912E02163009F44CC01430B9F120E02C
:1026A00030E543E456E46091290270912A0280915A
:1026B0002B0290912C020E947317181614F083E0DD
:1026C00036C0153009F520E030E040EA51EC609169
:1026D000F7017091F8018091F9019091FA010E943F
:1026E000D21887FD0EC080E090E0A8ECB2E48093A1
:1026F000080190930901A0930A01B0930B0186E0B1
:1027000016C010932E0215C0143081F420E030E082
:1027100040EA51EC6091F7017091F8018091F90164
:102720009091FA010E94D21887FFDDCF84E0809358
:102730002E0280912E02843099F180F4833009F0CA
:10274000E6C080E090E0AFE7B3E4809300019093AF
:102750000101A0930201B0930301D9C08530E9F1D2
:10276000863009F0D4C08090090290900A02A090AF
:102770000B02B0900C0220E030E04AE754E4609194
:10278000290270912A0280912B0290912C020E94C2
:1027900078179B01AC0160E070E088E491E439C0F7
:1027A0008090090290900A02A0900B02B0900C0257
:1027B00020E030E04AE754E46091290270912A0257
:1027C00080912B0290912C020E9478179B01AC0102
:1027D0006AE979E989E491E41CC08090090290904B
:1027E0000A02A0900B02B0900C0220E030E04AE711
:1027F00054E46091290270912A0280912B029091F9
:102800002C020E9478179B01AC0160E070E088E721
:1028100091E40E9406176B017C0120E030E040E863
:102820005FE360910502709106028091070290912A
:1028300008020E94731787FF08C0A7019601C5010F
:10284000B4010E9407174B015C012DEC3CEC4CE4F9
:102850005DE3C701B6010E94271920E030E040E0A7
:102860005FE30E9407176B017C012DEC3CEC4CEC04
:102870005DE3C501B4010E9427199B01AC01C701AA
:10288000B6010E9407176B017C0120E030E040E8B0
:102890005FE30E94D21887FF0DC020E030E0A9015D
:1028A000C701B6010E94731787FF0AC0C12CD12C43
:1028B000760106C0C12CD12C90E8E92E9FE3F92EB9
:1028C000C0920502D0920602E0920702F09208023E
:1028D0008092090290920A02A0920B02B0920C021E
:1028E00020E030E04FE753E4C701B6010E9427190A
:1028F00060930001709301018093020190930301A2
:1029000006C010920D01111171C110922E020E9489
:10291000890B0E94130B0E94570C009130021091FA
:10292000310220913202309133020C501E4F2F4F52
:102930003F4F061717072807390708F052C10E94B2
:10294000570C60933002709331028093320290935F
:1029500033020E9439020E9439020E9439020E9409
:1029600039020E9439020E94390283E792E00E94F4
:102970005E028CE692E00E943D020E94570C4AE003
:102980000E946A020E9439028AE592E00E943D029A
:102990008091FB0190E00E94B6028EE492E00E94DA
:1029A0003D0280912F020E94E50283E492E00E94A2
:1029B0003D0280912E020E94E50288E392E00E948F
:1029C0003D0280912D020E94E5028DE292E00E947C
:1029D0003D0280910D0190E00E94B60282E292E0F9
:1029E0000E943D0280910C0190E00E94B60289E1B4
:1029F00092E00E943D02609108017091090180916E
:102A00000A0190910B010E94F6028EE092E00E9472
:102A10003D02609104017091050180910601909141
:102A200007010E94F60281EF91E00E945E028AEEA9
:102A300091E00E943D026091290270912A028091EA
:102A40002B0290912C020E94F60283EE91E00E94EC
:102A50003D026091F7017091F8018091F901909128
:102A6000FA010E94F6028CED91E00E943D02609115
:102A700025027091260280912702909128020E94DF
:102A8000F60285ED91E00E943D0260912102709175
:102A9000220280912302909124020E94F6028EEC81
:102AA00091E00E943D0260911D0270911E02809192
:102AB0001F02909120020E94F60287EC91E00E9492
:102AC0003D026091190270911A0280911B0290914F
:102AD0001C020E94F60280EC91E00E943D0260918F
:102AE00015027091160280911702909118020E94AF
:102AF000F60282EB91E00E943D026091110270911A
:102B0000120280911302909114020E94F60287ED46
:102B100091E00E9427022091190230911A024091FF
:102B20001B0250911C026091150270911602809157
:102B30001702909118020E9406170E94F60280EA7E
:102B400091E00E943D0260910D0270910E02809111
:102B50000F02909110020E94F60284E891E00E9418
:102B60005E0287E791E00E943D0260910001709152
:102B7000010180910201909103010E94F60281E718
:102B800091E00E943D0260910502709106028091E1
:102B90000702909108020E94F60287E691E00E94E7
:102BA0003D026091090270910A0280910B0290919E
:102BB0000C020E94F60281E691E00E943D0260E074
:102BC00070E0CB010E94F60287E591E00E943D0291
:102BD00060E070E0CB010E94F6028BE391E00E947E
:102BE0005E020E94FA0A0E94910827C9123009F079
:102BF0008ECE81E080932E028ACEE5EAF2E0138247
:102C0000128288EE93E0A0E0B0E084839583A683EF
:102C1000B7832AE331E03183208325EC30E0358728
:102C2000248724EC30E03787268720EC30E0318B96
:102C3000208B21EC30E0338B228B22EC30E0358B83
:102C4000248B26EC30E0378B268B118E128E138E60
:102C5000148EE2E4F3E01382128284839583A683C8
:102C6000B7838CE491E091838083EEE4F3E08BE61C
:102C70009DE09583848381E086832EE130E030936C
:102C80008E0320938D031092A3031092A20310923F
:102C9000A4031092A50328E037E03093A703209304
:102CA000A6031092A8031092A9031092AA031092EF
:102CB000AB031092AD031092AC031092AE031092CE
:102CC000AF031092B0031092B103828388E190E0C9
:102CD0009183808385E090E09087878308950E94A8
:102CE000570CDC01CB0180569947AE4FBF4F809304
:102CF0000E0190930F01A0931001B09311010C9459
:102D0000FA0A8091F6019091FB01981709F45FC0CF
:102D100060E0813099F187E00E94E70660E085E09D
:102D20000E94E70664E670E080E090E00E9486077B
:102D30000E94EB05892B49F485E00E947604BC01D2
:102D40006C7F772785E00E9418046AE070E080E0DD
:102D500090E00E94860760E086E00E94E70664E655
:102D600070E080E090E00E94860780910C0188234B
:102D700051F161E087E00E94E70625C087E00E94EC
:102D8000E70660E085E00E94E70664E670E080E028
:102D900090E00E94860761E086E00E94E7066AE014
:102DA00070E080E090E00E9486070E94EB05892B8E
:102DB000B1F685E00E9476048360682F70E085E0BC
:102DC0000E941804CCCF8091F6018093FB010895F6
:102DD00081E08093F6010E94811610920C010E94FE
:102DE000890B10920D010E94130B0E946F1683E94C
:102DF00093E00E945E026091F7017091F80180916A
:102E0000F9019091FA010E94F602FFCF5058BB27BA
:102E1000AA270E941E170C9498180E948A1838F04E
:102E20000E94911820F039F49F3F19F426F40C9475
:102E300087180EF4E095E7FB0C948118E92F0E94A7
:102E4000A91858F3BA17620773078407950720F08B
:102E500079F4A6F50C94CB180EF4E0950B2EBA2F4E
:102E6000A02D0B01B90190010C01CA01A001112490
:102E7000FF27591B99F0593F50F4503E68F11A163C
:102E8000F040A22F232F342F4427585FF3CF4695CD
:102E900037952795A795F0405395C9F77EF41F16EF
:102EA000BA0B620B730B840BBAF09150A1F0FF0FB9
:102EB000BB1F661F771F881FC2F70EC0BA0F621FA5
:102EC000731F841F48F4879577956795B795F79595
:102ED0009E3F08F0B0CF9395880F08F09927EE0F2A
:102EE0009795879508950E945D1808F481E00895EC
:102EF0000E948C170C9498180E94911858F00E9408
:102F00008A1840F029F45F3F29F00C948118511180
:102F10000C94CC180C9487180E94A91868F3992374
:102F2000B1F3552391F3951B550BBB27AA276217C5
:102F30007307840738F09F5F5F4F220F331F441FD2
:102F4000AA1FA9F335D00E2E3AF0E0E832D0915006
:102F50005040E695001CCAF72BD0FE2F29D0660FF3
:102F6000771F881FBB1F261737074807AB07B0E836
:102F700009F0BB0B802DBF01FF2793585F4F3AF03C
:102F80009E3F510578F00C9481180C94CC185F3F4B
:102F9000E4F3983ED4F3869577956795B795F795C2
:102FA0009F5FC9F7880F911D9695879597F90895AA
:102FB000E1E0660F771F881FBB1F62177307840746
:102FC000BA0720F0621B730B840BBA0BEE1F88F755
:102FD000E09508950E94F1176894B1110C94CC18F3
:102FE00008950E94B11888F09F5798F0B92F99273B
:102FF000B751B0F0E1F0660F771F881F991F1AF0E4
:10300000BA95C9F714C0B13091F00E94CB18B1E065
:1030100008950C94CB18672F782F8827B85F39F064
:10302000B93FCCF3869577956795B395D9F73EF47C
:1030300090958095709561957F4F8F4F9F4F089524
:10304000E89409C097FB3EF4909580957095619542
:103050007F4F8F4F9F4F9923A9F0F92F96E9BB27F8
:103060009395F695879577956795B795F111F8CF74
:10307000FAF4BB0F11F460FF1BC06F5F7F4F8F4FDF
:103080009F4F16C0882311F096E911C0772321F0D5
:103090009EE8872F762F05C0662371F096E8862F6D
:1030A00070E060E02AF09A95660F771F881FDAF7C4
:1030B000880F9695879597F90895990F0008550FF1
:1030C000AA0BE0E8FEEF16161706E807F907C0F0AE
:1030D00012161306E407F50798F0621B730B840BB6
:1030E000950B39F40A2661F0232B242B252B21F490
:1030F00008950A2609F4A140A6958FEF811D811D30
:10310000089597F99F6780E870E060E008959FEF69
:1031100080EC089500240A9416161706180609066E
:10312000089500240A94121613061406050608953D
:10313000092E0394000C11F4882352F0BB0F40F4C5
:10314000BF2B11F460FF04C06F5F7F4F8F4F9F4F05
:10315000089557FD9058440F551F59F05F3F71F087
:103160004795880F97FB991F61F09F3F79F08795EE
:103170000895121613061406551FF2CF4695F1DF77
:1031800008C0161617061806991FF1CF8695710507
:10319000610508940895E894BB2766277727CB013B
:1031A00097F908950E945D1808F48FEF089516F0BE
:1031B0000C9499190C94871868940C9481180E94A7
:1031C000B118A8F39923C1F3AEF3DF93CF931F9304
:1031D0000F93FF92C92FDD2788232AF02197660FCE
:1031E000771F881FDAF720E030E040E85FEB9FE3CD
:1031F000883920F0803E38F021968F770E9407179B
:10320000E8E6F0E004C00E940717E5E9F0E00E945C
:10321000A7198B01BE01EC01FB2E6F577109759543
:10322000771F880B990B0E94221828E132E741E3AF
:103230005FE30E943A19AF2D9801AE01FF900F9104
:103240001F91CF91DF910E941E170C9498180E9435
:103250003A190C9498180E948A1838F00E94911814
:1032600020F0952311F00C9481180C9487181124E8
:103270000C94CC180E94A91870F3959FC1F3950F78
:1032800050E0551F629FF001729FBB27F00DB11DEA
:10329000639FAA27F00DB11DAA1F649F6627B00D7A
:1032A000A11D661F829F2227B00DA11D621F739F63
:1032B000B00DA11D621F839FA00D611D221F749F71
:1032C0003327A00D611D231F849F600D211D822FB8
:1032D000762F6A2F11249F5750409AF0F1F08823DF
:1032E0004AF0EE0FFF1FBB1F661F771F881F91500C
:1032F0005040A9F79E3F510580F00C9481180C9422
:10330000CC185F3FE4F3983ED4F3869577956795A4
:10331000B795F795E7959F5FC1F7FE2B880F911D35
:103320009695879597F908950E945D18880B990BDB
:1033300008959F3F31F0915020F4879577956795D8
:10334000B795880F911D9695879597F90895DF9306
:10335000CF931F930F93FF92EF92DF927B018C012B
:10336000689406C0DA2EEF010E943A19FE01E89433
:10337000A5912591359145915591A6F3EF010E94B4
:103380001E17FE019701A801DA9469F7DF90EF900C
:10339000FF900F911F91CF91DF910895AA1BBB1B46
:1033A00051E107C0AA1FBB1FA617B70710F0A61B45
:1033B000B70B881F991F5A95A9F780959095BC0166
:1033C000CD01089597FB072E16F4009407D077FDE2
:1033D00009D00E94CE1907FC05D03EF49095819546
:1033E0009F4F0895709561957F4F0895A1E21A2E21
:1033F000AA1BBB1BFD010DC0AA1FBB1FEE1FFF1F99
:10340000A217B307E407F50720F0A21BB30BE40BE8
:10341000F50B661F771F881F991F1A9469F760952F
:103420007095809590959B01AC01BD01CF010895E9
:10343000052E97FB1EF400940E942F1A57FD07D00B
:103440000E94F61907FC03D04EF40C942F1A5095E5
:103450004095309521953F4F4F4F5F4F0895909580
:103460008095709561957F4F8F4F9F4F08950E9473
:103470003F1A332312F48A1B9B0B0C94501AA29F01
:10348000B001B39FC001A39F700D811D1124911D38
:10349000B29F700D811D1124911D08950E943F1A45
:1034A000B7FF0895821B930B08950E943F1AA59FB2
:1034B000900DB49F900DA49F800D911D112408952F
:1034C000EE0FFF1F0590F491E02D099481E090E04C
:1034D000F8940C94761AFB01DC010D900020E9F7BA
:1034E000119701900D920020E1F70895F894FFCF15
:1034F00000007F430000B4420000A0420101E80345
:1035000000002B0C2B0C110016001C0021002700C2
:103510002C00320038003D00430048004E005300AC
:1035200059005E0064000000000028082C0CC00751
:103530006F08F107CF07E307000000002909F90829
:103540005909CD08F108DD08CE088BFD37C24E655C
:10355000ECC50069A743A47CF5C5584B0046CCDDFB
:103560009D4103097941773E9E4163EE7E41E78CA0
:1035700084C131003000424D5320636F6D6D756E14
:1035800069636174696F6E206572726F7200536552
:103590007474696E672043454C4C42414C00207264
:1035A0006567697374657220746F3A2000436C65B7
:1035B0006172696E67205265676973746572204332
:1035C000454C4C42414C006C645F69202D20707664
:1035D0005F693A20000D0A006E616E00696E660038
:0435E0006F7666009C
:00000001FF
