:100000000C943E010C94CC0C0C94A50C0C94660141
:100010000C9466010C9466010C9466010C946601C4
:100020000C9466010C9466010C9466010C946601B4
:100030000C9466010C9466010C9466010C946601A4
:100040000C945B0C0C9466010C942B090C94050920
:100050000C9466010C9466010C9466010C94660184
:100060000C945D090C94660108000000BE922449BE
:10007000123EABAAAA2ABECDCCCC4C3E00000080DA
:10008000BEABAAAAAA3E00000000BF000000803F4D
:100090000000000000084178D3BB4387D1133D190D
:1000A0000E3CC3BD4282AD2B3E68EC8276BED98F3A
:1000B000E1A93E4C80EFFFBE01C4FF7F3F0000007E
:1000C0000000537461727475702E2E2E004C412006
:1000D0004F564552564F4C544147452E2E2E2053D5
:1000E000544F5050494E47004C4F4144204F5645C5
:1000F0005243555252454E542E2E2E2053544F509B
:1001000050494E47005056204F564552564F4C547A
:100110004147452E2E2E2053544F5050494E4700F4
:100120005056204F56455243555252454E542E2E4E
:100130002E2053544F5050494E470020002000209D
:1001400000200020002000200020002000200020AF
:1001500000200020002000200020000000000024DB
:100160000027002A0000000000250028002B0004C2
:10017000040404040404040202020202020303034E
:100180000303030102040810204080010204081048
:1001900020010204081020000000080002010000F5
:1001A0000304070000000000000000417474656D46
:1001B0007074696E6720746F20636C656172204F84
:1001C0004344206572726F7200417474656D70747F
:1001D000696E6720746F20636C65617220534344BD
:1001E000206572726F7200417474656D7074696E0F
:1001F0006720746F20636C656172204F56206572B2
:10020000726F7200417474656D7074696E672074EA
:100210006F20636C656172205556206572726F7233
:1002200000417474656D7074696E6720746F20632B
:100230006C65617220416C657274206572726F72B8
:1002400000417474656D7074696E6720746F20630B
:100250006C656172205852206572726F72004C4159
:10026000204F56455243555252454E542E2E2E2065
:1002700053544F5050494E470000E21511241FBE01
:10028000CFEFD8E0DEBFCDBF11E0A0E0B1E0EAE003
:10029000F4E302C005900D92A63EB107D9F723E022
:1002A000A6EEB1E001C01D92A33FB207E1F711E055
:1002B000CEE3D1E004C02197FE010E94ED19CD33B9
:1002C000D107C9F70E94F30C0C94031A0C94000098
:1002D000E0919702F09198020190F081E02D682F53
:1002E00087E992E009943FB7F894809126029091B3
:1002F0002702A0912802B091290226B5A89B05C02B
:100300002F3F19F00196A11DB11D3FBFBA2FA92F94
:10031000982F8827820F911DA11DB11DBC01CD0111
:1003200042E0660F771F881F991F4A95D1F70895FD
:10033000009769F0FC0101900020E9F73197AF01C7
:10034000481B590BBC0187E992E00C94240C80E017
:1003500090E008958F929F92AF92BF920F931F9358
:10036000CF93DF93CDB7DEB7A1970FB6F894DEBF7A
:100370000FBECDBF19A2423008F44AE08E010F5DD6
:100380001F4F842E912CA12CB12CA50194010E9409
:100390008319E62FB901CA0101501109EA3014F49A
:1003A000E05D01C0E95CD801EC93232B242B252BC5
:1003B00061F7C8010E949801A1960FB6F894DEBFBC
:1003C0000FBECDBFDF91CF911F910F91BF90AF9026
:1003D0009F908F9008954F925F926F927F928F922D
:1003E0009F92AF92BF92CF92DF92EF92FF926B01FA
:1003F0007C01B42E9B01AC010E942119882319F0C5
:100400008AED91E027C026013701E89477F82FEFB5
:100410003FEF4FE75FE7C301B2010E94211981114D
:100420000DC02FEF3FEF4FE75FE7C301B2010E941E
:10043000001718161CF48EED91E00CC02FEF3FEF63
:100440004FE75FE4C701B6010E945F18181684F4F5
:1004500082EE91E0FF90EF90DF90CF90BF90AF9051
:100460009F908F907F906F905F904F900C94980129
:100470002FEF3FEF4FE75FECC701B6010E94001777
:1004800087FDE6CF20E030E0A901C701B6010E9458
:10049000001787FF09C08DE20E9468014C01F7FA3E
:1004A000F094F7F8F09402C0812C912CA12C60E01C
:1004B00070E080E09FE3AB1441F020E030E040E2E8
:1004C00051E40E940517A394F6CF9B01AC01C7012C
:1004D000B6010E9494162B013C010E947E176B010D
:1004E0007C010E94AD179B01AC01C301B2010E94C7
:1004F00093162B013C014AE0C701B6010E94AA01F4
:100500007C01E80CF91CBB2029F08EE20E946801F6
:10051000E80EF91EDB2CDD2021F120E030E040E286
:1005200051E4C301B2010E94B4182B013C010E94A6
:100530007E174B01A12CB12C4AE0C501B4010E94E9
:10054000AA01E80EF91EC501B4010E94AD179B0176
:10055000AC01C301B2010E9493162B013C01DA9455
:10056000DACFC701FF90EF90DF90CF90BF90AF90B0
:100570009F908F907F906F905F904F9008950F9312
:100580001F93CF93DF938C01C0E0D0E0F801EC0F14
:10059000FD1F6491662371F0E0919702F09198023B
:1005A0000190F081E02D87E992E00995892B11F007
:1005B0002196ECCFCE01DF91CF911F910F9108953D
:1005C000CF92DF92EF92FF92CF93DF936C01990F5E
:1005D000EE08FF08F7FE17C08DE20E946801EC01EB
:1005E00066277727CB016C197D098E099F094AE0A0
:1005F0000E94AA018C0F9D1FDF91CF91FF90EF9079
:10060000DF90CF9008954AE0C701B601DF91CF9106
:10061000FF90EF90DF90CF900C94AA0142E00C94F1
:10062000EB012091960290919502213208F04AC088
:10063000809172028111FCCF32E03093720231E07E
:10064000309371023FEF3093700210926F0220934B
:100650006E02A5E7B2E04EE452E0FA013E2F341BF1
:10066000321718F43D913193F9CF10924D02209139
:100670004D02990F922B90934D0290914C02913024
:1006800061F410924C0290914D029093BB009091B6
:10069000BC0093FDF8CF95EC01C095EE9093BC00A3
:1006A000909172029230E1F3909170029F3F79F045
:1006B00080917002803241F080917002803331F07D
:1006C00084E005C081E003C082E001C083E01092B5
:1006D000740210929602109273020895CF93C62F5F
:1006E0009091400321E02093730290939502109221
:1006F000740210929602682F84E393E00E94BA0875
:100700006C2F84E393E00E94BA08CF910C941103FC
:10071000909172029111FCCF91E0909372029093AC
:1007200071022FEF2093700210926F02260F209318
:100730006E0290934D0290914D02880F892B809309
:100740004D0280914C02813061F410924C028091F4
:100750004D028093BB008091BC0083FDF8CF85ECF7
:1007600001C085EE8093BC00809172028130E1F37C
:1007700080916F02861710F460916F02AEE4B2E0D0
:100780002CE232E0F9018E2F821B861718F48D912E
:100790008193F9CF862F0895CF93DF93C0E4D3E000
:1007A000988121E020937302909395021092740235
:1007B00010929602682F84E393E00E94BA080E9488
:1007C000110361E088810E94880310922B028093BC
:1007D0002A0284E393E0DF91CF910C946E08CF92CC
:1007E000DF92EF92FF92CF93DF936C01990FEE08A7
:1007F000FF08F7FE12C08DE20E946801EC01662737
:100800007727CB016C197D098E099F094AE00E9468
:10081000AA017C01EC0EFD1E06C04AE0C701B6012C
:100820000E94AA017C018EE991E00E9498018E0D40
:100830009F1DDF91CF91FF90EF90DF90CF900895B3
:10084000CF93DF930E94BF02EC018EE991E00E94FA
:1008500098018C0F9D1FDF91CF910895AF92BF92A9
:10086000CF92DF92EF92FF920F931F93CF93DF937C
:100870008AE20E94CC03182F8BE20E94CC03EC0189
:100880006091900370919103072E000C880B990BD7
:100890000E94AF1720E030E040E850E40E94B41816
:1008A0006B017C0180E090E0912F8C2B9D2BBC0193
:1008B000990F880B990B0E94AF179B01AC01C701E0
:1008C000B6010E94B41820E030E04AE754E40E94E8
:1008D00005176B017C018091920390919303880F1F
:1008E000991F880F991FBC01990F880B990B0E94C3
:1008F000AF179B01AC01C701B6010E9494160E947C
:1009000077176093690370936A0380936B039093E6
:100910006C038091400391E0909373028093950261
:1009200010927402109296026CE084E393E00E94AD
:10093000BA080E94110360914703660F613208F004
:1009400060E2809140030E94880310922B02809302
:100950002A0290E02091470330914803220F331F71
:100960008217930709F05BC0109267031092680327
:1009700009E413E0C0E0D0E068EEC62E63E0D62EB6
:10098000E12CF12C8091470390914803C817D907B7
:100990000CF045C084E393E00E946E085C0184E3A0
:1009A00093E00E946E0895012F733327322F222780
:1009B000282B392BA0919003B09191030E94C41968
:1009C000A70196010E94A51980919203909193032B
:1009D000280F391FF801219331938F01E0916703AC
:1009E000F0E0EE0FFF1FE05CFC4F818592858217DF
:1009F000930714F4C0936703E0916803F0E0EE0FEF
:100A0000FF1FE05CFC4F81859285281739072CF485
:100A1000253F314014F0C09368032196B3CFDF9196
:100A2000CF911F910F91FF90EF90DF90CF90BF90EB
:100A3000AF900895CF93DF93D82F80E00E94CC032E
:100A4000C82FDD2309F44CC082E30E94CC03D82FC9
:100A500083E30E94CC0360E070E07D2F862B972B10
:100A6000BC01990F880B990B0E94AF172DE33AE058
:100A700047E051E40E94B41820E030E040EA50E43E
:100A80000E9405170E94771760936D0370936E03A1
:100A900080936F0390937003462F572FBC0177FF0D
:100AA00007C070956095509541955F4F6F4F7F4F90
:100AB00080917F0390918003092E000CAA0BBB0B41
:100AC00084179507A607B70784F40E944F0C60931C
:100AD0009A0370939B0380939C0390939D0305C09E
:100AE00087FDB2CFDF91CF910895CF7311F41092AB
:100AF000460360E870E080E0DF91CF910C946E03D4
:100B00000F931F93CF93DF9380914603811107C00A
:100B10008091940390919503009709F4E4C080E0DC
:100B20000E94CC03EC0187FF03C081E00E941A05FC
:100B30008C2F8F7309F4CFC080914603882321F056
:100B400010929F0310929E03CE01992790939503D4
:100B5000809394030E944F0C0091A0031091A10375
:100B60002091A2033091A303601B710B820B930BA6
:100B700028EE33E040E050E00E948319B9018091F3
:100B80009E0390919F032817390749F0F901E81B4C
:100B9000F90B339720F030939F0320939E038091AD
:100BA0009E0390919F036817790708F498C0C5FFCA
:100BB0000FC063E070E00E945B19892B49F481E467
:100BC00092E00E94200460E270E080E00E946E03E8
:100BD000C4FF13C080919E0390919F036AE070E070
:100BE0000E945B19892B49F481E292E00E94200463
:100BF00060E170E080E00E946E03C3FF1BC00E94B2
:100C00002E04E0916803F0E0EE0FFF1FE05CFC4F64
:100C10002185328580918B0390918C0382179307F5
:100C20004CF484E092E00E94200468E070E080E0F0
:100C30000E946E03C2FF1BC00E942E04E091670356
:100C4000F0E0EE0FFF1FE05CFC4F218532858091C4
:100C5000890390918A03281739074CF487EE91E0B5
:100C60000E94200464E070E080E00E946E03C1FFF7
:100C700013C080919E0390919F036CE370E00E94EB
:100C80005B19892B49F489EC91E00E94200462E011
:100C900070E080E00E946E03C0FF13C080919E034D
:100CA00090919F036CE370E00E945B19892B49F4DB
:100CB0008BEA91E00E94200461E070E080E00E94F5
:100CC0006E0380919E0390919F03019690939F03E2
:100CD00080939E0304C01092950310929403809118
:100CE000940390919503DF91CF911F910F910895F7
:100CF00090E0FC01E956FE4F3491FC01ED57FE4FA8
:100D00002491FC01E159FE4FE491EE2309F43BC02C
:100D1000332339F1333091F038F43130A9F03230E7
:100D200001F584B58F7D12C0373091F03830A1F0D5
:100D30003430B9F4809180008F7D03C080918000B1
:100D40008F77809380000DC084B58F7784BD09C0F4
:100D50008091B0008F7703C08091B0008F7D809329
:100D6000B000F0E0EE0FFF1FEB59FE4FA591B491DC
:100D70008FB7F894EC91611103C020952E2301C028
:100D80002E2B2C938FBF0895CF93DF9390E0FC011F
:100D9000ED57FE4F2491FC01E159FE4F84918823C9
:100DA00061F190E0880F991FFC01E55AFE4FC59153
:100DB000D491FC01EB59FE4FA591B491611109C08A
:100DC0009FB7F8948881209582238883EC912E2305
:100DD0000BC0623061F49FB7F8943881822F809500
:100DE00083238883EC912E2B2C939FBF06C08FB753
:100DF000F894E8812E2B28838FBFDF91CF9108953F
:100E00008E3008F08E508770806480937C008091D3
:100E10007A00806480937A0080917A0086FDFCCF0E
:100E2000809178002091790090E0922B08958F9224
:100E30009F92AF92BF92CF92DF92EF92FF926B019F
:100E40007C010E9473014B015C01C114D104E104D7
:100E5000F104F1F00E947301DC01CB0188199909BA
:100E6000AA09BB09883E9340A105B10570F321E0B2
:100E7000C21AD108E108F10888EE880E83E0981EB6
:100E8000A11CB11CC114D104E104F10419F7DDCF98
:100E9000FF90EF90DF90CF90BF90AF909F908F909A
:100EA0000895FC01538D448D252F30E0842F90E070
:100EB000821B930B541710F0CF9608950197089555
:100EC000FC01918D828D981761F0828DDF01A80F52
:100ED000B11D5D968C91928D9F5F9F73928F90E074
:100EE00008958FEF9FEF0895FC01918D828D9817E3
:100EF00031F0828DE80FF11D858D90E008958FEF20
:100F00009FEF0895FC01918D228D892F90E0805CE8
:100F10009F4F821B91098F739927089587E992E06B
:100F20000E94820721E0892B09F420E0822F089596
:100F3000FC01848DDF01A80FB11DA35ABF4F2C9176
:100F4000848D90E001968F739927848FA689B78945
:100F50002C93A089B1898C9180648C93938D848D1E
:100F6000981306C00288F389E02D80818F7D8083ED
:100F70000895EF92FF920F931F93CF93DF93EC01AD
:100F800081E0888F9B8D8C8D981305C0E889F98945
:100F9000808185FD24C0F62E0B8D10E00F5F1F4F62
:100FA0000F731127E02E8C8DE8120CC00FB607FCD2
:100FB000FACFE889F989808185FFF5CFCE010E94BB
:100FC0009807F1CF8B8DFE01E80FF11DE35AFF4F1B
:100FD000F0820B8FEA89FB898081806207C0EE89ED
:100FE000FF896083E889F98980818064808381E05A
:100FF00090E0DF91CF911F910F91FF90EF900895B6
:10100000CF93DF93EC01888D8823C9F0EA89FB89AF
:10101000808185FD05C0A889B9898C9186FD0FC0A6
:101020000FB607FCF5CF808185FFF2CFA889B9897B
:101030008C9185FFEDCFCE010E949807E7CFDF911D
:10104000CF91089580E090E0892B29F00E948E07CF
:1010500081110C940000089585ED8093BC0080916F
:10106000BC0084FDFCCF1092720208954091C90328
:10107000262F30E0240F311D21323105DCF4209180
:1010800072022430C9F4FC0180E090E0861758F425
:101090003091C9032191DC01A955BC4FA30FB11DAB
:1010A0002C930196F3CF8091C903680F6093C90315
:1010B00080E0089581E0089582E008950895E09128
:1010C0002B0280912A02E81730F4F0E0E45DFD4F36
:1010D000808190E008958FEF9FEF089590912B020B
:1010E00080912A02981750F4E92FF0E0E45DFD4F5B
:1010F000208130E09F5F90932B0202C02FEF3FEFE3
:10110000C901089580912A0290E020912B02821B50
:1011100091090895CF92DF92EF92FF920F931F9360
:10112000CF93DF937C01262F972F8A018091730242
:10113000882391F0C62FD72F6E01C40ED51ECC1573
:10114000DD0571F06991D701ED91FC910190F0817D
:10115000E02DC7010995F3CF642F822F0E94360836
:10116000C801DF91CF911F910F91FF90EF90DF9019
:10117000CF900895CF93DF931F92CDB7DEB76983E9
:10118000209173022223D1F020919602203240F068
:1011900021E030E0FC013383228380E090E015C041
:1011A00080917402E82FF0E0EB58FD4F9981908315
:1011B0008F5F809374028093960205C061E0CE0138
:1011C00001960E94360881E090E00F90DF91CF9168
:1011D0000895089580E090E008950E94F319CF9358
:1011E000DF93C091E601D091E701209759F00E946A
:1011F0004F0CFE01E05AFF4F60837183828393831B
:1012000081E08E83DF91CF9108951F920F920FB6E8
:101210000F9211242F933F934F935F936F937F937C
:101220008F939F93AF93BF93EF93FF9387E992E0E0
:101230000E949807FF91EF91BF91AF919F918F917D
:101240007F916F915F914F913F912F910F900FBEC2
:101250000F901F9018951F920F920FB60F921124A6
:101260002F938F939F93EF93FF93E091A702F091B9
:10127000A8028081E091AD02F091AE0282FD12C021
:1012800090818091B0028F5F8F732091B10282179D
:1012900051F0E091B002F0E0E956FD4F958F809358
:1012A000B00201C08081FF91EF919F918F912F91AA
:1012B0000F900FBE0F901F9018951F920F920FB6B0
:1012C0000F9211242F933F934F935F936F937F93CC
:1012D0008F939F93AF93BF93EF93FF938091B90048
:1012E000887F803609F49CC068F5883209F45BC0B9
:1012F00090F4803109F454C038F4882309F4F6C01E
:10130000883009F44DC0F6C0883109F44CC08032F1
:1013100009F45DC0EFC0803409F468C048F480333C
:1013200009F455C0883309F0E5C080937002D8C035
:10133000803509F44FC0883509F45DC0883409F060
:10134000D9C0D6C0883909F4C7C0A8F4883709F4D1
:1013500067C038F4883609F463C0803709F460C088
:10136000C9C0883809F4B8C0803909F45FC0803832
:1013700009F0C0C05BC0803B09F486C038F4803AF5
:1013800009F466C0883A09F47FC0B4C0803C09F40F
:10139000A7C0883C09F4A4C0883B09F48AC0AAC04D
:1013A00080914D0210C090916F0280916E0298174B
:1013B00070F5E0916F0281E08E0F80936F02F0E094
:1013C000E25BFD4F80818093BB0085EC86C08093FB
:1013D00070028EC0E0916F0281E08E0F80936F02E9
:1013E0008091BB00F0E0E25BFD4F808390916F0243
:1013F00080916E026EC0E0916F0281E08E0F80934B
:101400006F028091BB00F0E0E25BFD4F8083809132
:10141000710281116DC081E080934C0284EA61C049
:1014200083E0809372021092ED03CFCF8091ED03A1
:10143000803208F051C0E091ED0381E08E0F80937F
:10144000ED038091BB00F0E0E353FC4F8083BDCF00
:1014500085EC8093BC00109272028091ED03803283
:1014600030F4E091ED03F0E0E353FC4F1082609123
:10147000ED0370E0E091CB03F091CC038DEC93E0B1
:1014800009951092ED0336C084E0809372021092A9
:10149000CA031092C903E091C703F091C8030995EC
:1014A0008091C903811105C081E08093C903109226
:1014B000A703E091CA0381E08E0F8093CA03F0E096
:1014C000E955FC4F80818093BB009091CA038091C5
:1014D000C903981708F479CF85E88093BC000AC047
:1014E00085EC8093BC001092720204C010927002CE
:1014F0000E942C08FF91EF91BF91AF919F918F9126
:101500007F916F915F914F913F912F910F900FBEFF
:101510000F901F9018950F931F930E944F0C0091EE
:101520000E0110910F0120911001309111016017EF
:1015300071078207930710F461E001C060E085E065
:101540001F910F910C947806CF92DF92EF92FF9249
:10155000CF93DF9380910D01882399F06091000172
:101560007091010180910201909103010E9477170F
:101570006B017C01EB0161E089E00E94C4062097C9
:1015800011F460E004C0CF3FD10551F461E089E07F
:10159000DF91CF91FF90EF90DF90CF900C94780681
:1015A000E0EAF1E0E491E330F9F048F4E130B9F039
:1015B000E230A1F584B5806284BDC8BC34C0E73098
:1015C000E9F0E83019F1E43049F58091800080625B
:1015D00080938000D0928B00C0928A0024C084B592
:1015E000806884BDC7BC1FC08091800080688093E4
:1015F0008000D0928900C092880015C08091B00010
:1016000080688093B000C092B3000DC08091B0009C
:1016100080628093B000C092B40005C0C038D1058C
:101620000CF0B4CFAECFDF91CF91FF90EF90DF9071
:10163000CF90089580910C01882311F061E001C0E2
:1016400060E087E00C9478068091E8019091ED01CC
:10165000981709F45FC060E0813099F187E00E943B
:10166000780660E085E00E94780664E670E080E03D
:1016700090E00E9417070E948005892B49F485E0BD
:101680000E94CC03BC016C7F772785E00E946E032B
:101690006AE070E080E090E00E94170760E086E07A
:1016A0000E94780664E670E080E090E00E941707F0
:1016B00080910C01882351F161E087E00E94780657
:1016C00025C087E00E94780660E085E00E947806E9
:1016D00064E670E080E090E00E94170761E086E039
:1016E0000E9478066AE070E080E090E00E941707B0
:1016F0000E948005892BB1F685E00E94CC038360AF
:10170000682F70E085E00E946E03CCCF8091E801E5
:101710008093ED010895CF92DF92EF92FF920F93A5
:101720001F93CF93DF93C82F8330F1F050F48130B3
:10173000A1F0823029F581E08093A6031092A503E1
:1017400018C08430C9F08530D9F41092A6031092E5
:10175000A50381E08093A40313C08093A603109295
:10176000A5038093A4030CC01092A60381E080938C
:10177000A5031092A40304C081E08093A603F7CFD1
:101780006091A6038EE00E9478066091A5038FE029
:101790000E9478066091A40380E10E94780661E0CF
:1017A00070E080E090E00E941707D4E6C12CD12CB5
:1017B000760103EC10E081E10E940007BC01990F63
:1017C000880B990B0E94AF179B01AC01C701B601B2
:1017D0000E9494166B017C01C8010197F1F7D1506A
:1017E00051F720E030E048EC52E4C701B6010E9416
:1017F0000517C150C53098F424E0C29FD0011124D0
:10180000FD01E259FE4F2081318142815381FD016A
:10181000E65AFE4FC080D180E280F38005C0C12C23
:10182000D12C7601A70196010E94B418A701960158
:101830000E949416DF91CF911F910F91FF90EF902E
:10184000DF90CF9008950895CF92DF92EF92FF92AC
:101850000F931F93CF93DF936C017A018B01C0E04C
:10186000D0E0CE15DF0589F0D8016D918D01D6014C
:10187000ED91FC910190F081E02DC6010995892B35
:1018800011F47E0102C02196ECCFC701DF91CF9108
:101890001F910F91FF90EF90DF90CF9008952FB799
:1018A000F8946091EF037091F0038091F1039091AF
:1018B000F2032FBF08951F920F920FB60F921124BB
:1018C0002F933F938F939F93AF93BF938091EF0399
:1018D0009091F003A091F103B091F2033091EE03E7
:1018E00023E0230F2D3720F40196A11DB11D05C063
:1018F00026E8230F0296A11DB11D2093EE038093CD
:10190000EF039093F003A093F103B093F20380915F
:10191000260290912702A0912802B09129020196F7
:10192000A11DB11D8093260290932702A093280247
:10193000B0932902BF91AF919F918F913F912F91C9
:101940000F900FBE0F901F9018951F920F920FB619
:101950000F9211242F933F934F935F936F937F9335
:101960008F939F93AF93BF93EF93FF93E0911401F5
:10197000F09115010995FF91EF91BF91AF919F9162
:101980008F917F916F915F914F913F912F910F9028
:101990000FBE0F901F9018951F920F920FB60F92C7
:1019A00011242F933F934F935F936F937F938F9364
:1019B0009F93AF93BF93EF93FF93E0911201F09148
:1019C00013010995FF91EF91BF91AF919F918F9175
:1019D0007F916F915F914F913F912F910F900FBE2B
:1019E0000F901F901895CF93DF93CDB7DEB7649714
:1019F0000FB6F894DEBF0FBECDBF789484B5826079
:101A000084BD84B5816084BD85B5826085BD85B5A2
:101A1000816085BD80916E00816080936E00109220
:101A2000810080918100826080938100809181009B
:101A3000816080938100809180008160809380002C
:101A40008091B10084608093B1008091B00081608A
:101A50008093B00080917A00846080937A008091B6
:101A60007A00826080937A0080917A00816080930E
:101A70007A0080917A00806880937A001092C10089
:101A800080918100887F856080938100E091A7022A
:101A9000F091A80282E08083E091A302F091A40279
:101AA0001082E091A502F091A60280E1808310925D
:101AB000AF02E091AB02F091AC0286E08083E0914E
:101AC000A902F091AA02808180618083E091A9023D
:101AD000F091AA02808188608083E091A902F09150
:101AE000AA02808180688083E091A902F091AA0215
:101AF00080818F7D808382EC90E00E942004109290
:101B00002B0210922A0210927402109296021092E6
:101B1000720281E08093710210924C0261E082E1D6
:101B20000E94780661E083E10E9478068091B90006
:101B30008E7F8093B9008091B9008D7F8093B9002A
:101B400088E48093B80085E48093BC0010924A0337
:101B50001092490310924C0310924B0310924E03C3
:101B600010924D031092500310924F0361E08FEFDB
:101B70000E94C40661E08FEF0E94780665E070E085
:101B800080E090E00E94170760E08FEF0E94C4069B
:101B90006AE070E080E090E00E94170769E170E081
:101BA0008BE00E946E038BE00E94CC030E94EF0347
:101BB0008BE00E94CC03499791F568E170E084E0E6
:101BC0000E946E0360E470E085E00E946E0380E492
:101BD00093E09093E7018093E60181E50E94CC03B6
:101BE000909393038093920380E50E94CC038C0131
:101BF00089E50E94CC03807E9927F5E0959587952D
:101C0000FA95E1F70C701127000F111F802B912B13
:101C100083599E4F909391038093900308C086E868
:101C200091E00E9498018EE991E00E94980188E37A
:101C30009FEF909384038093830382EC91E09093D1
:101C400088038093870310928203109281039093FC
:101C500086038093850385E0809343036FE970E0FA
:101C600086E00E946E0310E02091430330E0A0E480
:101C7000BFE10E94CC1928EE33E040E050E00E9422
:101C8000A519E6E5F1E08FE190E0729162916B01B8
:101C9000770FEE08FF082C153D054E055F0534F063
:101CA0008F70612F607F162F182B02C0019769F784
:101CB0001067612F70E087E00E946E0388E29AE06F
:101CC00090938C0380938B0388E00E94CC03182FA1
:101CD0008091920390919303092E000CAA0BBB0BE9
:101CE00048E25AE060E070E09A01AB01281B390B32
:101CF0004A0B5B0BA8EEB3E00E94E219209190031F
:101D000030919103032E000C440B550B0E94A51932
:101D1000DA01C90164E0B595A795979587956A950D
:101D2000D1F721E0280F622F70E08AE00E946E0355
:101D3000612F606C70E088E00E946E0382E49EE098
:101D400090938A038093890388E00E94CC03182F24
:101D50008091920390919303092E000CAA0BBB0B68
:101D600042E45EE060E070E09A01AB01281B390BB1
:101D70004A0B5B0BA8EEB3E00E94E219209190039E
:101D800030919103032E000C440B550B0E94A519B2
:101D9000DA01C90174E0B595A795979587957A956D
:101DA000D1F7682F70E089E00E946E03612F6063B5
:101DB00070E088E00E946E031092990310929803DD
:101DC00084EE9CE090938E0380938D0384E1809356
:101DD0008F0384E690E09093800380937F0381E0FB
:101DE0008093960361E08EE00E94C40661E08FE07C
:101DF0000E94C40661E080E10E94C40660E081E1C7
:101E00000E94C40661E086E00E94C40661E089E0A9
:101E10000E94C40661E087E00E94C40660E086E09C
:101E20000E94780660E089E00E94780660E087E022
:101E30000E94780622242394312C81E00E948B0B8F
:101E40006D837E838F83988760931B0270931C023F
:101E500080931D0290931E0282E00E948B0B698783
:101E60007A878B879C87DC01CB01B05889839A8362
:101E7000AB83BC838093E9019093EA01A093EB01CB
:101E8000B093EC0183E00E948B0B6D877E878F8778
:101E9000988B60930F0270931002809311029093BD
:101EA000120284E00E948B0B6B017C0160930B0299
:101EB00070930C0280930D0290930E0285E00E94B5
:101EC0008B0B2B013C0160930702709308028093F7
:101ED000090290930A026091690370916A03072EC8
:101EE000000C880B990B0E94AF1760931702709338
:101EF00018028093190290931A0280901302909016
:101F00001402A0901502B090160260916D037091BA
:101F10006E03072E000C880B990B0E94AF17698B7C
:101F20007A8B8B8B9C8B20E030E04AE754E4C50130
:101F3000B4010E9494169B01AC0169897A898B894E
:101F40009C890E945F18181664F089899A89AB8968
:101F5000BC898093130290931402A0931502B0934E
:101F6000160220E030E04AE754E4C501B4010E94C3
:101F700093169B01AC016091130270911402809141
:101F80001502909116020E94001787FF08C08092E8
:101F9000130290921402A0921502B092160214E657
:101FA000812C912C540185E10E940007BC01990FFE
:101FB000880B990B0E94AF179B01AC01C501B401BE
:101FC0000E9494164B015C0183EC90E00197F1F7BD
:101FD000115049F720E030E048EC52E4C501B4016B
:101FE0000E9405172EE634E340E85EE30E94B41831
:101FF0002BE734E144EA51E40E9493166093EE012A
:102000007093EF018093F0019093F10120E030E0B4
:102010004AE756E46D817E818F8198850E945F1822
:102020001816F4F481E08093E8010E94240B1092CA
:102030000C010E941A0B10920D010E94A40A0E942A
:1020400054168DEC90E00E94200460911B02709168
:102050001C0280911D0290911E020E946616FFCF05
:1020600020E030E44CE955E469817A818B819C81E0
:102070000E945F18181614F40E94751620E030ECC8
:102080004AE556EC69817A818B819C810E94001718
:1020900087FDF2CF20E030EC4AE556E4C301B201FF
:1020A0000E945F181816ECF410920C010E941A0B93
:1020B00010920D010E94A40A1092E8010E94240BC4
:1020C0000E94541688EE90E00E942004609107025E
:1020D000709108028091090290910A020E9466168E
:1020E000FFCF20E030E543EC56E46D857E858F859B
:1020F00098890E945F181816ECF410920D010E9446
:10210000A40A10920C010E941A0B1092E8010E947E
:10211000240B0E94541685E091E00E9420046091F7
:102120000F027091100280911102909112020E9490
:102130006616FFCF20E030E44CE955E4C701B60154
:102140000E945F181816ECF410920D010E94A40A68
:1021500010920C010E941A0B1092E8010E94240BAD
:102160000E94541680E291E00E94200460910B02CC
:1021700070910C0280910D0290910E020E946616E1
:10218000FFCF29853A854B855C85C701B6010E9442
:102190009316209113023091140240911502509130
:1021A00016020E949416A30192010E94931620E049
:1021B00030E040EA51E40E9494166093F20170937B
:1021C000F3018093F4019093F50180E00E941A05D9
:1021D0000E942E048091400391E0909373028093BB
:1021E000950210927402109296026CE284E393E0DE
:1021F0000E94BA080E94110362E0809140030E948D
:10220000880310922B0280932A02823009F080C04A
:1022100084E393E00E946E088C0184E393E00E94C3
:102220006E08B8016F737727762F6627862B972B5A
:10223000BC01990F880B990B0E94AF1721E835E973
:1022400043EC5EE30E94B4180E947717072E000C3F
:10225000880B990B0E94AF176B017C0120E030E4E2
:102260004CE156E40E94B4184B015C01A7019601B1
:1022700060E070E48EE495E40E9493169B01AC014B
:10228000C501B4010E9405170E947E170E94AD1778
:1022900020E030E44CE156E40E9405170E946C18DF
:1022A0006B017C016091440370914503072E000C83
:1022B000880B990B0E94AF179B01AC0160E070E0A6
:1022C00080E89FE30E940517A70196010E94B418B9
:1022D0002FE03FEC4BE55BE30E9494169B01AC01C1
:1022E00060E070E080E89FE30E94051723E333E994
:1022F00048E853E40E94931620E030E040E251E4C5
:102300000E94B4180E947717709372036093710350
:102310000E944F0C4B015C0140909A0350909B032C
:1023200060909C0370909D038091470390914803B7
:1023300065E070E00E946F196B010E948005892B97
:1023400009F0D0C1C501B40164197509860997095E
:1023500028EE33E040E050E00E948319809198031A
:1023600090919903092E000CAA0BBB0B2817390773
:102370004A075B070CF4B6C1E0916703F0E0EE0F8B
:10238000FF1FE05CFC4F8185928520918D03309189
:102390008E03281739070CF0A5C1E0916803F0E01F
:1023A000EE0FFF1FE05CFC4F21853285821B930BF3
:1023B00020918F0330E0281739070CF093C181E09A
:1023C0008093970380E4682E83E0782EA12CB12CB3
:1023D000DD24AC14BD040CF079C0E0916803F0E09A
:1023E000EE0FFF1FE05CFC4F0184F285E02D409171
:1023F0008F0350E0E12C80E090E0DC01AA0FBB1FCE
:10240000A60DB71D19962D913C911A972E1B3F0BC7
:1024100042175307D4F49101082E01C0220F0A94E9
:10242000EAF71E2D122B612F70E02E2D30E0DB011C
:10243000AA0FBB1FA223B323AB2B39F4220F331FE8
:1024400026233723232B09F4E12E019685309105AD
:10245000A1F681EA91E00E9498019FEFA91AB90ABA
:10246000C5010E94E00281EB91E00E949801F12CED
:102470001092F60148E0842E912C00E810E0C8018B
:102480008E219F218017910719F064E871E002C046
:1024900062E871E086EF91E00E94F81915950795C2
:1024A000A1E08A1A910859F786EF91E00E949801FD
:1024B0008EE991E00E949801B7018A2D0E946E0377
:1024C000BAE06B0E711C85CF1092970320E030EAC2
:1024D0004CE056E46091E9017091EA018091EB01D2
:1024E0009091EC010E94051720910801309109019B
:1024F00040910A0150910B010E94941669837A83DE
:102500008B839C83609308017093090180930A0177
:1025100090930B0120E030EA4CE056E46091130206
:102520007091140280911502909116020E94051775
:10253000209104013091050140910601509107015D
:102540000E9494166B017C01609304017093050155
:10255000809306019093070140900B0250900C026B
:1025600060900D0270900E02809007029090080219
:10257000A0900902B0900A0220E030E040EF51E460
:10258000C501B4010E9494169B01AC01C301B201C4
:102590000E945F1887FD02C081E011C020E030E09A
:1025A00040EF51E4C501B4010E9493169B01AC01B8
:1025B000C301B2010E940017181624F082E0809334
:1025C000210202C01092210210912102113021F04B
:1025D00068F0123079F036C020E030E048EC52E488
:1025E000C701B6010E94001787FF1EC081E08093DB
:1025F000E80128C020E030E040E752E469817A81B8
:102600008B819C810E945F18181684F7A3019201A8
:10261000C501B4010E94931620E030E048E453E481
:102620000E945F1887FD03C01092E8010BC020E0F4
:1026300030E040E752E4C701B6010E945F18181667
:10264000ACF2F2CF8091E801811111C010921F020B
:1026500080912002843029F0111103C010922002D1
:1026600012C0123081F481E0809320020CC01092DD
:102670002002111103C010921F0205C0123019F47C
:1026800081E080931F020E94240BC0900F02D09023
:102690001002E0901102F09012021091ED01111160
:1026A00009C060911B0270911C0280911D029091E3
:1026B0001E0208C0609117027091180280911902E1
:1026C00090911A0220E030E048EC52E40E94941607
:1026D0009B01AC01C701B6010E945F1818160CF0EF
:1026E00061C11BC080919703882309F4EFCE00E0FD
:1026F00010E0DD240C151D050CF0E6CE80EC91E019
:102700000E9498010F5F1F4FC8010E94EF0360E015
:1027100070E0802F0E946E03EDCF11113CC181E06B
:1027200080930D0110912002163009F44CC0143032
:10273000B9F120E030E84BE356E460911B02709160
:102740001C0280911D0290911E020E940017181613
:1027500014F083E036C0153009F520E030E040EA9F
:1027600051E46091E9017091EA018091EB0190914F
:10277000EC010E940017181674F080E090E0A8ECBD
:10278000B2E48093080190930901A0930A01B093E9
:102790000B0186E016C01093200215C0143081F49E
:1027A00020E030E040EA51E46091E9017091EA01F3
:1027B0008091EB019091EC010E9400171816ECF645
:1027C00084E08093200280912002843099F180F48B
:1027D000833009F0EFC080E090E0AFE7B3E480938E
:1027E000000190930101A0930201B0930301E2C0A4
:1027F0008530E9F1863009F0DDC0809003029090C9
:102800000402A0900502B090060220E030E04AE702
:1028100054E460911B0270911C0280911D02909102
:102820001E020E9405179B01AC0160E070E080E48D
:1028300091E439C08090030290900402A0900502B8
:10284000B090060220E030E04AE754E460911B02B9
:1028500070911C0280911D0290911E020E9405172A
:102860009B01AC016AE979E981E491E41CC08090A4
:10287000030290900402A0900502B090060220E0AE
:1028800030E04AE754E460911B0270911C02809191
:102890001D0290911E020E9405179B01AC0160E091
:1028A00070E088E791E40E9493166B017C0120E0C0
:1028B00030E040E85FE36091FF0170910002809199
:1028C0000102909102020E94001787FF08C0A70131
:1028D0009601C501B4010E9494164B015C012DECD8
:1028E0003CEC4CE45DE3C701B6010E94B41820E063
:1028F00030E040E05FE30E9494166B017C012DEC18
:102900003CEC4CEC5DE3C501B4010E94B4189B01A2
:10291000AC01C701B6010E9494166B017C0120E056
:1029200030E040E85FE30E945F1887FF0DC020E0C1
:1029300030E0A901C701B6010E94001787FF0AC055
:10294000C12CD12C760106C0C12CD12C90E8E92EE7
:102950009FE3F92EC092FF01D0920002E0920102A3
:10296000F09202028092030290920402A092050269
:10297000B092060220E030E04FE753E4C701B60111
:102980000E94B418609300017093010180930201CA
:10299000909303010FC081E080930D0183E0809349
:1029A0001F0208C010920D0180912102811103C104
:1029B000109220020E941A0B0E94A40A0E944F0C3F
:1029C00000912202109123022091240230912502CD
:1029D0000C501E4F2F4F3F4F061717072807390778
:1029E00008F0E4C00E944F0C60932202709323020F
:1029F00080932402909325020E944F0C4AE00E948B
:102A0000AA0189E591E00E94BF028091ED0190E06A
:102A10000E94E00287E591E00E94BF0260912102DE
:102A200070E080E090E04AE00E94AA0185E591E034
:102A30000E94BF026091200270E080E090E04AE0D6
:102A40000E94AA0183E591E00E94BF0260911F02EB
:102A500070E080E090E04AE00E94AA0181E591E008
:102A60000E94BF0280910D0190E00E94E0028FE47D
:102A700091E00E94BF0280910C0190E00E94E00270
:102A80008DE491E00E94BF026091080170910901FC
:102A900080910A0190910B010E940E038BE491E05A
:102AA0000E94BF02609104017091050180910601AE
:102AB000909107010E940E0389E491E00E94BF02F9
:102AC00060911B0270911C0280911D0290911E0268
:102AD0000E940E0387E491E00E94BF026091E90129
:102AE0007091EA018091EB019091EC010E940E033C
:102AF00085E491E00E94BF02609117027091180274
:102B00008091190290911A020E940E0383E491E0D1
:102B10000E94BF026091130270911402809115020D
:102B2000909116020E940E0381E491E00E94BF0280
:102B300060910F0270911002809111029091120227
:102B40000E940E038FE391E00E94BF0260910B028E
:102B500070910C0280910D0290910E020E940E0362
:102B60008DE391E00E94BF0260910702709108021C
:102B70008091090290910A020E940E038BE391E07A
:102B80000E94BF0220E030E04FE753E46091000173
:102B90007091010180910201909103010E9405173B
:102BA0000E940E038EE991E00E9498010E948B0A18
:102BB0000E94220842C9823009F0FCCE81E0809355
:102BC0002002F8CEE7E9F2E01382128288EE93E069
:102BD000A0E0B0E084839583A683B7832AE331E045
:102BE0003183208325EC30E03587248724EC30E0E6
:102BF0003787268720EC30E0318B208B21EC30E0CA
:102C0000338B228B22EC30E0358B248B26EC30E0AA
:102C1000378B268B118E128E138E148EE4E3F3E025
:102C20001382128284839583A683B7838CE491E018
:102C300091838083E0E4F3E08BE69DE095838483D9
:102C400081E086832EE130E03093800320937F0380
:102C5000109295031092940310929603109297038A
:102C600028E037E0309399032093980310929A0359
:102C700010929B0310929C0310929D0310929F034D
:102C800010929E031092A0031092A1031092A2032F
:102C90001092A303828388E190E09183808385E092
:102CA00090E09087878308950E944F0CDC01CB0150
:102CB00080569947AE4FBF4F80930E0190930F01FE
:102CC000A0931001B09311010C948B0ACF93DF9362
:102CD00042E00E94EB01EC018EE991E00E94980134
:102CE0008C0F9D1FDF91CF91089581E08093E801C3
:102CF0000E94240B10920C010E941A0B10920D01DD
:102D00000E94A40A0E9454168EE592E00E942004BC
:102D10006091E9017091EA018091EB019091EC01E1
:102D20000E946616FFCF5058BB27AA270E94AB16F9
:102D30000C9425180E94171838F00E941E1820F0D5
:102D400039F49F3F19F426F40C9414180EF4E0950E
:102D5000E7FB0C940E18E92F0E94361858F3BA17A7
:102D6000620773078407950720F079F4A6F50C94A1
:102D700058180EF4E0950B2EBA2FA02D0B01B901B7
:102D800090010C01CA01A0011124FF27591B99F0E1
:102D9000593F50F4503E68F11A16F040A22F232FED
:102DA000342F4427585FF3CF469537952795A7953D
:102DB000F0405395C9F77EF41F16BA0B620B730BE4
:102DC000840BBAF09150A1F0FF0FBB1F661F771F55
:102DD000881FC2F70EC0BA0F621F731F841F48F40A
:102DE000879577956795B795F7959E3F08F0B0CF93
:102DF0009395880F08F09927EE0F9795879508957A
:102E00000E94EA1708F481E008950E9419170C94B3
:102E100025180E941E1858F00E94171840F029F437
:102E20005F3F29F00C940E1851110C9459180C9412
:102E300014180E94361868F39923B1F3552391F3BF
:102E4000951B550BBB27AA2762177307840738F019
:102E50009F5F5F4F220F331F441FAA1FA9F335D076
:102E60000E2E3AF0E0E832D091505040E695001C2A
:102E7000CAF72BD0FE2F29D0660F771F881FBB1FE4
:102E8000261737074807AB07B0E809F0BB0B802DC2
:102E9000BF01FF2793585F4F3AF09E3F510578F0EE
:102EA0000C940E180C9459185F3FE4F3983ED4F339
:102EB000869577956795B795F7959F5FC9F7880FC2
:102EC000911D9695879597F90895E1E0660F771F14
:102ED000881FBB1F621773078407BA0720F0621BA5
:102EE000730B840BBA0BEE1F88F7E09508950E94D0
:102EF0007E176894B1110C94591808950E943E18D9
:102F000088F09F5798F0B92F9927B751B0F0E1F0AA
:102F1000660F771F881F991F1AF0BA95C9F714C05A
:102F2000B13091F00E945818B1E008950C945818EF
:102F3000672F782F8827B85F39F0B93FCCF3869593
:102F400077956795B395D9F73EF4909580957095F0
:102F500061957F4F8F4F9F4F0895E89409C097FB6D
:102F60003EF490958095709561957F4F8F4F9F4F60
:102F70009923A9F0F92F96E9BB279395F6958795A4
:102F800077956795B795F111F8CFFAF4BB0F11F467
:102F900060FF1BC06F5F7F4F8F4F9F4F16C088230E
:102FA00011F096E911C0772321F09EE8872F762F44
:102FB00005C0662371F096E8862F70E060E02AF085
:102FC0009A95660F771F881FDAF7880F9695879571
:102FD00097F90895990F0008550FAA0BE0E8FEEF46
:102FE00016161706E807F907C0F012161306E407CD
:102FF000F50798F0621B730B840B950B39F40A26C6
:1030000061F0232B242B252B21F408950A2609F4A3
:10301000A140A6958FEF811D811D089597F99F67A7
:1030200080E870E060E008959FEF80EC0895002450
:103030000A941616170618060906089500240A941D
:1030400012161306140605060895092E0394000CA3
:1030500011F4882352F0BB0F40F4BF2B11F460FF32
:1030600004C06F5F7F4F8F4F9F4F089557FD90585B
:10307000440F551F59F05F3F71F04795880F97FB3C
:10308000991F61F09F3F79F08795089512161306F6
:103090001406551FF2CF4695F1DF08C01616170625
:1030A0001806991FF1CF869571056105089408955A
:1030B000E894BB2766277727CB0197F908950E94EC
:1030C000EA1708F48FEF089516F00C9426190C9463
:1030D000141868940C940E180E943E18A8F39923B3
:1030E000C1F3AEF3DF93CF931F930F93FF92C92FDA
:1030F000DD2788232AF02197660F771F881FDAF7CC
:1031000020E030E040E85FEB9FE3883920F0803E2C
:1031100038F021968F770E949416E8E6F0E004C01C
:103120000E949416E5E9F0E00E9434198B01BE017B
:10313000EC01FB2E6F5771097595771F880B990B62
:103140000E94AF1728E132E741E35FE30E94C7180E
:10315000AF2D9801AE01FF900F911F91CF91DF919C
:103160000E94AB160C9425180E94C7180C942518C1
:103170000E94171838F00E941E1820F0952311F0B5
:103180000C940E180C94141811240C9459180E94C5
:10319000361870F3959FC1F3950F50E0551F629F4D
:1031A000F001729FBB27F00DB11D639FAA27F00DA0
:1031B000B11DAA1F649F6627B00DA11D661F829FC7
:1031C0002227B00DA11D621F739FB00DA11D621FAC
:1031D000839FA00D611D221F749F3327A00D611DC9
:1031E000231F849F600D211D822F762F6A2F1124AB
:1031F0009F5750409AF0F1F088234AF0EE0FFF1FDE
:10320000BB1F661F771F881F91505040A9F79E3F34
:10321000510580F00C940E180C9459185F3FE4F39C
:10322000983ED4F3869577956795B795F795E7958A
:103230009F5FC1F7FE2B880F911D9695879597F993
:1032400008950E94EA17880B990B08959F3F31F06B
:10325000915020F4879577956795B795880F911DC4
:103260009695879597F90895DF93CF931F930F93C2
:10327000FF92EF92DF927B018C01689406C0DA2EF8
:10328000EF010E94C718FE01E894A59125913591A0
:1032900045915591A6F3EF010E94AB16FE019701EF
:1032A000A801DA9469F7DF90EF90FF900F911F91DA
:1032B000CF91DF910895AA1BBB1B51E107C0AA1F44
:1032C000BB1FA617B70710F0A61BB70B881F991FC7
:1032D0005A95A9F780959095BC01CD01089597FB6B
:1032E000072E16F4009407D077FD09D00E945B19D1
:1032F00007FC05D03EF4909581959F4F08957095F9
:1033000061957F4F0895A1E21A2EAA1BBB1BFD01F8
:103310000DC0AA1FBB1FEE1FFF1FA217B307E407B4
:10332000F50720F0A21BB30BE40BF50B661F771F0C
:10333000881F991F1A9469F76095709580959095EC
:103340009B01AC01BD01CF010895052E97FB1EF432
:1033500000940E94BC1957FD07D00E94831907FCF6
:1033600003D04EF40C94BC1950954095309521959E
:103370003F4F4F4F5F4F08959095809570956195A1
:103380007F4F8F4F9F4F08950E94CC19332312F423
:103390008A1B9B0B0C94DD19A29FB001B39FC00147
:1033A000A39F700D811D1124911DB29F700D811D71
:1033B0001124911D08950E94CC19B7FF0895821B16
:1033C000930B08950E94CC19A59F900DB49F900D6A
:1033D000A49F800D911D11240895EE0FFF1F0590ED
:1033E000F491E02D099481E090E0F8940C94031A94
:1033F000FB01DC010D900020E9F7119701900D927F
:0A3400000020E1F70895F894FFCFD3
:10340A0000007F430000C4420000A0420101E8031B
:10341A000000230C230C110016001C0021002700B9
:10342A002C00320038003D00430048004E00530093
:10343A0059005E00640000000000B907240C51071F
:10344A00000882076007740700000000BA088A08AB
:10345A00EA085E0882086E085F088BFD37C24E656F
:10346A00ECC50069A743A47CF5C5584B0046CCDDE2
:10347A009D4103097941773E9E4163EE7E41E78C87
:10348A0084C131003000424D5320636F6D6D756EFB
:10349A0069636174696F6E206572726F72000D0ADA
:1034AA000053657474696E672043454C4C42414C25
:1034BA000020726567697374657220746F3A200020
:1034CA00436C656172696E672052656769737465DA
:1034DA00722043454C4C42414C006E616E00696E4D
:0634EA0066006F7666002B
:00000001FF
