:100000000C943F010C94ED0D0C94C60D0C946701FB
:100010000C9467010C9467010C9467010C946701C0
:100020000C9467010C9467010C9467010C946701B0
:100030000C9467010C9467010C9467010C946701A0
:100040000C947C0D0C9467010C949E090C94780917
:100050000C9467010C9467010C9467010C94670180
:100060000C94D0090C94670108000000BE9224494A
:10007000123EABAAAA2ABECDCCCC4C3E00000080DA
:10008000BEABAAAAAA3E00000000BF000000803F4D
:100090000000000000084178D3BB4387D1133D190D
:1000A0000E3CC3BD4282AD2B3E68EC8276BED98F3A
:1000B000E1A93E4C80EFFFBE01C4FF7F3F0000007E
:1000C0000000537461727475702E2E2E004C412006
:1000D0004F564552564F4C544147452E2E2E2053D5
:1000E000544F5050494E47004C4F4144204F5645C5
:1000F0005243555252454E542E2E2E2053544F509B
:1001000050494E47005056204F564552564F4C547A
:100110004147452E2E2E2053544F5050494E4700F4
:100120005056204F56455243555252454E542E2E4E
:100130002E2053544F5050494E470020002000209D
:1001400000200020002000200020002000200020AF
:1001500000200020002000200020002000000000DF
:1001600000240027002A0000000000250028002BA2
:100170000004040404040404040202020202020350
:10018000030303030301020408102040800102045A
:1001900008102001020408102000000008000201DD
:1001A0000000030407000000000000000041747418
:1001B000656D7074696E6720746F20636C65617221
:1001C000204F4344206572726F7200417474656DF4
:1001D0007074696E6720746F20636C656172205360
:1001E0004344206572726F7200417474656D70745F
:1001F000696E6720746F20636C656172204F5620B2
:100200006572726F7200417474656D7074696E67A7
:1002100020746F20636C6561722055562065727280
:100220006F7200417474656D7074696E6720746FCD
:1002300020636C65617220416C6572742065727216
:100240006F7200417474656D7074696E6720746FAD
:1002500020636C656172205852206572726F720063
:100260004C41204F56455243555252454E542E2E26
:100270002E2053544F5050494E470000B8161124B9
:100280001FBECFEFD8E0DEBFCDBF11E0A0E0B1E0F0
:10029000E6EBF5E302C005900D92A63EB107D9F753
:1002A00024E0A6EEB1E001C01D92A332B207E1F74F
:1002B00011E0CFE3D1E004C02197FE010E94C31AF0
:1002C000CE33D107C9F70E94140E0C94D91A0C949E
:1002D0000000E0919702F09198020190F081E02DEA
:1002E000682F87E992E00994009769F0FC0101907A
:1002F0000020E9F73197AF01481B590BBC0187E992
:1003000092E00C94200D80E090E008958F929F92EF
:10031000AF92BF920F931F93CF93DF93CDB7DEB70A
:10032000A1970FB6F894DEBF0FBECDBF19A2423021
:1003300008F44AE08E010F5D1F4F842E912CA12CF2
:10034000B12CA50194010E94591AE62FB901CA01E6
:1003500001501109EA3014F4E05D01C0E95CD801F4
:10036000EC93232B242B252B61F7C8010E947401E9
:10037000A1960FB6F894DEBF0FBECDBFDF91CF912F
:100380001F910F91BF90AF909F908F9008954F92C3
:100390005F926F927F928F929F92AF92BF92CF9215
:1003A000DF92EF92FF926B017C01B42E9B01AC01B6
:1003B0000E94F719882319F08AED91E027C02601E1
:1003C0003701E89477F82FEF3FEF4FE75FE7C3017E
:1003D000B2010E94F71981110DC02FEF3FEF4FE7D7
:1003E0005FE7C301B2010E94D61718161CF48EED08
:1003F00091E00CC02FEF3FEF4FE75FE4C701B6017C
:100400000E943519181684F482EE91E0FF90EF9067
:10041000DF90CF90BF90AF909F908F907F906F9024
:100420005F904F900C9474012FEF3FEF4FE75FEC1C
:10043000C701B6010E94D61787FDE6CF20E030E065
:10044000A901C701B6010E94D61787FF09C08DE236
:100450000E9469014C01F7FAF094F7F8F09402C099
:10046000812C912CA12C60E070E080E09FE3AB1424
:1004700041F020E030E040E251E40E94DB17A39419
:10048000F6CF9B01AC01C701B6010E946A172B0190
:100490003C010E9454186B017C010E9483189B014F
:1004A000AC01C301B2010E9469172B013C014AE073
:1004B000C701B6010E9486017C01E80CF91CBB2033
:1004C00029F08EE20E946901E80EF91EDB2CDD2086
:1004D00021F120E030E040E251E4C301B2010E948A
:1004E0008A192B013C010E9454184B01A12CB12CFC
:1004F0004AE0C501B4010E948601E80EF91EC5015B
:10050000B4010E9483189B01AC01C301B2010E9497
:1005100069172B013C01DA94DACFC701FF90EF9005
:10052000DF90CF90BF90AF909F908F907F906F9013
:100530005F904F9008950F931F93CF93DF938C019B
:10054000C0E0D0E0F801EC0FFD1F6491662371F06C
:10055000E0919702F09198020190F081E02D87E9F7
:1005600092E00995892B11F02196ECCFCE01DF9115
:10057000CF911F910F910895CF92DF92EF92FF924A
:10058000CF93DF936C01990FEE08FF08F7FE17C0B9
:100590008DE20E946901EC0166277727CB016C1977
:1005A0007D098E099F094AE00E9486018C0F9D1FDC
:1005B000DF91CF91FF90EF90DF90CF9008954AE0C8
:1005C000C701B601DF91CF91FF90EF90DF90CF9000
:1005D0000C9486010C94C70120919602909195028B
:1005E000213208F04AC0809172028111FCCF32E0C2
:1005F0003093720231E0309371023FEF309370021A
:1006000010926F0220936E02A5E7B2E04EE452E032
:10061000FA013E2F341B321718F43D913193F9CF74
:1006200010924D0220914D02990F922B90934D0202
:1006300090914C02913061F410924C0290914D02D5
:100640009093BB009091BC0093FDF8CF95EC01C056
:1006500095EE9093BC00909172029230E1F39091EC
:1006600070029F3F79F080917002803241F080915A
:100670007002803331F084E005C081E003C082E085
:1006800001C083E0109274021092960210927302DD
:100690000895CF93C62F9091400321E020937302D9
:1006A000909395021092740210929602682F84E340
:1006B00093E00E9495086C2F84E393E00E949508D4
:1006C000CF910C94EC02909172029111FCCF91E0C9
:1006D00090937202909371022FEF20937002109208
:1006E0006F02260F20936E0290934D0290914D025F
:1006F000880F892B80934D0280914C02813061F4E8
:1007000010924C0280914D028093BB008091BC00FE
:1007100083FDF8CF85EC01C085EE8093BC0080910D
:1007200072028130E1F380916F02861710F46091BC
:100730006F02AEE4B2E02CE232E0F9018E2F821BB0
:10074000861718F48D918193F9CF862F0895CF9352
:10075000DF93C0E4D3E0988121E02093730290936B
:1007600095021092740210929602682F84E393E02F
:100770000E9495080E94EC0261E088810E94630358
:1007800010922B0280932A0284E393E0DF91CF91B1
:100790000C944908CF92DF92EF92FF92CF93DF93B0
:1007A0006C01990FEE08FF08F7FE12C08DE20E945F
:1007B0006901EC0166277727CB016C197D098E0949
:1007C0009F094AE00E9486017C01EC0EFD1E06C0D6
:1007D0004AE0C701B6010E9486017C018EE991E0E2
:1007E0000E9474018E0D9F1DDF91CF91FF90EF90BD
:1007F000DF90CF900895CF93DF930E949B02EC018E
:100800008EE991E00E9474018C0F9D1FDF91CF91C2
:100810000895AF92BF92CF92DF92EF92FF920F9323
:100820001F93CF93DF938AE20E94A703182F8BE2D6
:100830000E94A703EC016091900370919103072E31
:10084000000C880B990B0E94851820E030E040E8EE
:1008500050E40E948A196B017C0180E090E0912FA6
:100860008C2B9D2BBC01990F880B990B0E9485182E
:100870009B01AC01C701B6010E948A1920E030E05B
:100880004AE754E40E94DB176B017C0180919203DC
:1008900090919303880F991F880F991FBC01990F9E
:1008A000880B990B0E9485189B01AC01C701B6010A
:1008B0000E946A170E944D186093690370936A033F
:1008C00080936B0390936C038091400391E090932D
:1008D00073028093950210927402109296026CE05B
:1008E00084E393E00E9495080E94EC026091470324
:1008F000660F613208F060E2809140030E9463035A
:1009000010922B0280932A0290E0209147033091AD
:100910004803220F331F8217930709F05BC0109220
:1009200067031092680309E413E0C0E0D0E068EECA
:10093000C62E63E0D62EE12CF12C809147039091D6
:100940004803C817D9070CF045C084E393E00E9420
:1009500049085C0184E393E00E94490895012F73E4
:100960003327322F2227282B392BA0919003B091C7
:1009700091030E949A1AA70196010E947B1A809106
:10098000920390919303280F391FF801219331931B
:100990008F01E0916703F0E0EE0FFF1FE05CFC4F7A
:1009A000818592858217930714F4C0936703E091C1
:1009B0006803F0E0EE0FFF1FE05CFC4F818592853D
:1009C000281739072CF4253F314014F0C0936803F1
:1009D0002196B3CFDF91CF911F910F91FF90EF90B0
:1009E000DF90CF90BF90AF900895CF93DF93D82F33
:1009F00080E00E94A703C82FDD2309F44CC082E3E6
:100A00000E94A703D82F83E30E94A70360E070E051
:100A10007D2F862B972BBC01990F880B990B0E9479
:100A200085182DE33AE047E051E40E948A1920E05E
:100A300030E040EA50E40E94DB170E944D186093BA
:100A40006D0370936E0380936F0390937003462F32
:100A5000572FBC0177FF07C0709560955095419561
:100A60005F4F6F4F7F4F80917F0390918003092EDE
:100A7000000CAA0BBB0B84179507A607B70784F4D5
:100A80000E94700D60939A0370939B0380939C0364
:100A900090939D0305C087FDB2CFDF91CF9108955C
:100AA000CF7311F41092460360E870E080E0DF91AC
:100AB000CF910C9449030F931F93CF93DF938091B1
:100AC0004603811107C0809194039091950300978C
:100AD00009F4E4C080E00E94A703EC0187FF03C093
:100AE00081E00E94F5048C2F8F7309F4CFC08091B0
:100AF0004603882321F010929F0310929E03CE019B
:100B0000992790939503809394030E94700D009110
:100B1000A0031091A1032091A2033091A303601BB5
:100B2000710B820B930B28EE33E040E050E00E9403
:100B3000591AB90180919E0390919F032817390794
:100B400049F0F901E81BF90B339720F030939F032C
:100B500020939E0380919E0390919F0368177907CD
:100B600008F498C0C5FF0FC063E070E00E94311A1E
:100B7000892B49F483E492E00E94FB0360E270E079
:100B800080E00E944903C4FF13C080919E039091AE
:100B90009F036AE070E00E94311A892B49F483E2D6
:100BA00092E00E94FB0360E170E080E00E94490354
:100BB000C3FF1BC00E940904E0916803F0E0EE0F40
:100BC000FF1FE05CFC4F2185328580918B03909163
:100BD0008C03821793074CF486E092E00E94FB039B
:100BE00068E070E080E00E944903C2FF1BC00E94E1
:100BF0000904E0916703F0E0EE0FFF1FE05CFC4F9B
:100C0000218532858091890390918A0328173907BD
:100C10004CF489EE91E00E94FB0364E070E080E018
:100C20000E944903C1FF13C080919E0390919F03CE
:100C30006CE370E00E94311A892B49F48BEC91E04F
:100C40000E94FB0362E070E080E00E944903C0FF65
:100C500013C080919E0390919F036CE370E00E940B
:100C6000311A892B49F48DEA91E00E94FB0361E07F
:100C700070E080E00E94490380919E0390919F0361
:100C8000019690939F0380939E0304C01092950356
:100C9000109294038091940390919503DF91CF91EA
:100CA0001F910F91089590E0FC01E756FE4F34919B
:100CB000FC01EB57FE4F2491FC01EF58FE4FE491ED
:100CC000EE2309F43BC0332339F1333091F038F48B
:100CD0003130A9F0323001F584B58F7D12C0373044
:100CE00091F03830A1F03430B9F4809180008F7DDC
:100CF00003C0809180008F77809380000DC084B501
:100D00008F7784BD09C08091B0008F7703C0809138
:100D1000B0008F7D8093B000F0E0EE0FFF1FE95927
:100D2000FE4FA591B4918FB7F894EC91611103C077
:100D300020952E2301C02E2B2C938FBF0895CF9387
:100D4000DF9390E0FC01EB57FE4F2491FC01EF583C
:100D5000FE4F8491882361F190E0880F991FFC0178
:100D6000E35AFE4FC591D491FC01E959FE4FA5917C
:100D7000B491611109C09FB7F894888120958223AE
:100D80008883EC912E230BC0623061F49FB7F894F6
:100D90003881822F809583238883EC912E2B2C938E
:100DA0009FBF06C08FB7F894E8812E2B28838FBF92
:100DB000DF91CF9108958E3008F08E508770806457
:100DC00080937C0080917A00806480937A00809187
:100DD0007A0086FDFCCF809178002091790090E028
:100DE000922B08958F929F92AF92BF92CF92DF92F3
:100DF000EF92FF926B017C010E944B0D4B015C0155
:100E0000C114D104E104F104F1F00E944B0DDC01A6
:100E1000CB0188199909AA09BB09883E9340A1050D
:100E2000B10570F321E0C21AD108E108F10888EE9B
:100E3000880E83E0981EA11CB11CC114D104E104EA
:100E4000F10419F7DDCFFF90EF90DF90CF90BF90C6
:100E5000AF909F908F900895FC01538D448D252F66
:100E600030E0842F90E0821B930B541710F0CF9644
:100E7000089501970895FC01918D828D981761F076
:100E8000828DDF01A80FB11D5D968C91928D9F5FC1
:100E90009F73928F90E008958FEF9FEF0895FC016C
:100EA000918D828D981731F0828DE80FF11D858D1F
:100EB00090E008958FEF9FEF0895FC01918D228DB2
:100EC000892F90E0805C9F4F821B91098F73992737
:100ED000089587E992E00E945D0721E0892B09F4DB
:100EE00020E0822F0895FC01848DDF01A80FB11D41
:100EF000A35ABF4F2C91848D90E001968F73992750
:100F0000848FA689B7892C93A089B1898C9180643C
:100F10008C93938D848D981306C00288F389E02DFD
:100F200080818F7D80830895EF92FF920F931F93AE
:100F3000CF93DF93EC0181E0888F9B8D8C8D98138C
:100F400005C0E889F989808185FD24C0F62E0B8DC6
:100F500010E00F5F1F4F0F731127E02E8C8DE812EA
:100F60000CC00FB607FCFACFE889F989808185FFAC
:100F7000F5CFCE010E947307F1CF8B8DFE01E80FF4
:100F8000F11DE35AFF4FF0820B8FEA89FB898081C4
:100F9000806207C0EE89FF896083E889F9898081D2
:100FA0008064808381E090E0DF91CF911F910F9169
:100FB000FF90EF900895CF93DF93EC01888D882305
:100FC000C9F0EA89FB89808185FD05C0A889B989B6
:100FD0008C9186FD0FC00FB607FCF5CF808185FF91
:100FE000F2CFA889B9898C9185FFEDCFCE010E94FF
:100FF0007307E7CFDF91CF91089580E090E0892BD0
:1010000029F00E94690781110C940000089585ED74
:101010008093BC008091BC0084FDFCCF10927202D2
:1010200008954091F503262F30E0240F311D213221
:101030003105DCF4209172022430C9F4FC0180E017
:1010400090E0861758F43091F5032191DC01AD5200
:10105000BC4FA30FB11D2C930196F3CF8091F503E4
:10106000680F6093F50380E0089581E0089582E0C1
:1010700008950895E0912B0280912A02E81730F438
:10108000F0E0E45DFD4F808190E008958FEF9FEFE9
:10109000089590912B0280912A02981750F4E92F1D
:1010A000F0E0E45DFD4F208130E09F5F90932B02E4
:1010B00002C02FEF3FEFC901089580912A0290E00E
:1010C00020912B02821B91090895CF92DF92EF921B
:1010D000FF920F931F93CF93DF937C01262F972FBF
:1010E0008A0180917302882391F0C62FD72F6E0159
:1010F000C40ED51ECC15DD0571F06991D701ED91B7
:10110000FC910190F081E02DC7010995F3CF642F88
:10111000822F0E941108C801DF91CF911F910F917A
:10112000FF90EF90DF90CF900895CF93DF931F92C1
:10113000CDB7DEB76983209173022223D1F02091CD
:101140009602203240F021E030E0FC01338322831C
:1011500080E090E015C080917402E82FF0E0EB5839
:10116000FD4F998190838F5F8093740280939602E4
:1011700005C061E0CE0101960E94110881E090E077
:101180000F90DF91CF910895089580E090E0089549
:101190000E94C91ACF93DF93C091E601D091E70175
:1011A000209759F00E94700DFE01E05AFF4F6083B6
:1011B00071838283938381E08E83DF91CF91089541
:1011C000CF92DF92EF92FF920F931F93CF93DF9313
:1011D000C82F8330F1F050F48130A1F0823029F52E
:1011E00081E08093D2031092D10318C08430C9F0FB
:1011F0008530D9F41092D2031092D10381E080930C
:10120000D00313C08093D2031092D1038093D003F4
:101210000CC01092D20381E08093D1031092D003CE
:1012200004C081E08093D203F7CF6091D2038EE0B7
:101230000E9453066091D1038FE00E945306609193
:10124000D00380E10E94530661E070E080E090E00E
:101250000E94F206D4E6C12CD12C760103EC10E0FA
:1012600081E10E94DB06BC01990F880B990B0E945B
:1012700085189B01AC01C701B6010E946A176B017A
:101280007C01C8010197F1F7D15051F720E030E01F
:1012900048EC52E4C701B6010E94DB17C150C530CB
:1012A00098F424E0C29FD0011124FD01E259FE4FC1
:1012B0002081318142815381FD01E65AFE4FC08079
:1012C000D180E280F38005C0C12CD12C7601A7012A
:1012D00096010E948A19A70196010E946A17DF9160
:1012E000CF911F910F91FF90EF90DF90CF900895D5
:1012F0001F920F920FB60F9211242F933F934F938B
:101300005F936F937F938F939F93AF93BF93EF936D
:10131000FF9387E992E00E947307FF91EF91BF91DD
:10132000AF919F918F917F916F915F914F913F917D
:101330002F910F900FBE0F901F9018951F920F9234
:101340000FB60F9211242F938F939F93EF93FF93D8
:10135000E091A702F091A8028081E091AD02F091A6
:10136000AE0282FD12C090818091B0028F5F8F73B8
:101370002091B102821751F0E091B002F0E0E956FD
:10138000FD4F958F8093B00201C08081FF91EF9156
:101390009F918F912F910F900FBE0F901F901895D6
:1013A0001F920F920FB60F9211242F933F934F93DA
:1013B0005F936F937F938F939F93AF93BF93EF93BD
:1013C000FF938091B900887F803609F49CC068F54E
:1013D000883209F45BC090F4803109F454C038F4C9
:1013E000882309F4F6C0883009F44DC0F6C088316E
:1013F00009F44CC0803209F45DC0EFC0803409F4B8
:1014000068C048F4803309F455C0883309F0E5C05A
:1014100080937002D8C0803509F44FC0883509F434
:101420005DC0883409F0D9C0D6C0883909F4C7C076
:10143000A8F4883709F467C038F4883609F463C023
:10144000803709F460C0C9C0883809F4B8C0803951
:1014500009F45FC0803809F0C0C05BC0803B09F46C
:1014600086C038F4803A09F466C0883A09F47FC02F
:10147000B4C0803C09F4A7C0883C09F4A4C0883BF0
:1014800009F48AC0AAC080914D0210C090916F02E9
:1014900080916E02981770F5E0916F0281E08E0FD7
:1014A00080936F02F0E0E25BFD4F80818093BB0090
:1014B00085EC86C0809370028EC0E0916F0281E05F
:1014C0008E0F80936F028091BB00F0E0E25BFD4FD6
:1014D000808390916F0280916E026EC0E0916F02E6
:1014E00081E08E0F80936F028091BB00F0E0E25BA1
:1014F000FD4F80838091710281116DC081E08093E6
:101500004C0284EA61C083E0809372021092190455
:10151000CFCF80911904803208F051C0E0911904B6
:1015200081E08E0F809319048091BB00F0E0E750BA
:10153000FC4F8083BDCF85EC8093BC00109272027B
:1015400080911904803230F4E0911904F0E0E75002
:10155000FC4F10826091190470E0E091F703F09164
:10156000F80389EF93E009951092190436C084E0DE
:10157000809372021092F6031092F503E091F30348
:10158000F091F40309958091F503811105C081E084
:101590008093F5031092D303E091F60381E08E0F60
:1015A0008093F603F0E0ED52FC4F80818093BB0006
:1015B0009091F6038091F503981708F479CF85E8A8
:1015C0008093BC000AC085EC8093BC00109272022C
:1015D00004C0109270020E940708FF91EF91BF9122
:1015E000AF919F918F917F916F915F914F913F91BB
:1015F0002F910F900FBE0F901F9018950F931F9370
:101600000E94700D00910E0110910F0120911001A8
:1016100030911101601771078207930710F461E0A0
:1016200001C060E085E01F910F910C945306CF92AA
:10163000DF92EF92FF92CF93DF9380910D01882389
:1016400099F06091000170910101809102019091E7
:1016500003010E944D186B017C01EB0161E089E000
:101660000E949F06209711F460E004C0CF3FD1058F
:1016700051F461E089E0DF91CF91FF90EF90DF902E
:10168000CF900C945306E2EAF1E0E491E330F9F0F4
:1016900048F4E130B9F0E230A1F584B5806284BD50
:1016A000C8BC34C0E730E9F0E83019F1E43049F55E
:1016B00080918000806280938000D0928B00C092E5
:1016C0008A0024C084B5806884BDC7BC1FC08091D7
:1016D0008000806880938000D0928900C09288004A
:1016E00015C08091B00080688093B000C092B300B4
:1016F0000DC08091B00080628093B000C092B400B1
:1017000005C0C038D1050CF0B4CFAECFDF91CF917A
:10171000FF90EF90DF90CF90089580910C01882387
:1017200011F061E001C060E087E00C945306809105
:10173000E80190910902981709F45FC060E08130D8
:1017400099F187E00E94530660E085E00E9453060D
:1017500064E670E080E090E00E94F2060E945B0583
:10176000892B49F485E00E94A703BC016C7F772791
:1017700085E00E9449036AE070E080E090E00E940A
:10178000F20660E086E00E94530664E670E080E0C6
:1017900090E00E94F20680910C01882351F161E0F3
:1017A00087E00E94530625C087E00E94530660E050
:1017B00085E00E94530664E670E080E090E00E94BD
:1017C000F20661E086E00E9453066AE070E080E085
:1017D00090E00E94F2060E945B05892BB1F685E03D
:1017E0000E94A7038360682F70E085E00E94490390
:1017F000CCCF8091E8018093090208958F929F9247
:10180000AF92BF92CF92DF92EF92FF920F931F930E
:10181000CF93DF9381E00E94E0086093050270930C
:101820000602809307029093080282E00E94E0087B
:10183000DC01CB01B0588093010290930202A09387
:101840000302B093040283E00E94E0086093F10178
:101850007093F2018093F3019093F40184E00E946D
:10186000E0086093ED017093EE018093EF01909397
:10187000F00185E00E94E0086093E9017093EA01BD
:101880008093EB019093EC016091690370916A037E
:10189000072E000C880B990B0E9485186093F901A4
:1018A0007093FA018093FB019093FC01C4E6C12C74
:1018B000D12C760103EC10E085E10E94DB06BC012F
:1018C000990F880B990B0E9485189B01AC01C701E9
:1018D000B6010E946A176B017C01C8010197F1F7FC
:1018E000C15051F720E030E048EC52E4C701B601A6
:1018F0000E94DB172EE634E340E85EE30E948A197B
:101900002BE734E144EA51E40E9469176093CC0369
:101910007093CD038093CE039093CF03C4EAD3E0BA
:10192000FE0184819581A681B78181939193A193D2
:10193000B19323E0E83CF207A1F780910102909176
:101940000202A0910302B09104028093C803909315
:10195000C903A093CA03B093CB0360E070E0CB014E
:1019600029913991499159910E946A1723E0CC3C01
:10197000D207B1F720E030E040E251E40E94DB17EB
:101980006093FD017093FE018093FF01909300022C
:10199000C090F501D090F601E090F701F090F801C9
:1019A00060916D0370916E03072E000C880B990BEC
:1019B0000E9485184B015C0120E030E04AE754E4C6
:1019C000C701B6010E946A179B01AC01C501B401B1
:1019D0000E943519181644F08092F5019092F60194
:1019E000A092F701B092F80120E030E04AE754E419
:1019F000C701B6010E9469179B01AC016091F50116
:101A00007091F6018091F7019091F8010E94D6172C
:101A100087FF08C0C092F501D092F601E092F7016D
:101A2000F092F801DF91CF911F910F91FF90EF900D
:101A3000DF90CF90BF90AF909F908F9008950895C2
:101A4000CF92DF92EF92FF920F931F93CF93DF938A
:101A50006C017A018B01C0E0D0E0CE15DF0589F082
:101A6000D8016D918D01D601ED91FC910190F0812D
:101A7000E02DC6010995892B11F47E0102C0219643
:101A8000ECCFC701DF91CF911F910F91FF90EF90A5
:101A9000DF90CF9008953FB7F89480911F04909104
:101AA0002004A0912104B091220426B5A89B05C072
:101AB0002F3F19F00196A11DB11D3FBFBA2FA92FCD
:101AC000982F8827820F911DA11DB11DBC01CD014A
:101AD00042E0660F771F881F991F4A95D1F7089536
:101AE0002FB7F89460911B0470911C0480911D0421
:101AF00090911E042FBF08951F920F920FB60F9260
:101B000011242F933F938F939F93AF93BF93809113
:101B10001B0490911C04A0911D04B0911E043091EF
:101B20001A0423E0230F2D3720F40196A11DB11DC7
:101B300005C026E8230F0296A11DB11D20931A04AB
:101B400080931B0490931C04A0931D04B0931E0467
:101B500080911F0490912004A0912104B09122044F
:101B60000196A11DB11D80931F0490932004A093A2
:101B70002104B0932204BF91AF919F918F913F9127
:101B80002F910F900FBE0F901F9018951F920F92DC
:101B90000FB60F9211242F933F934F935F936F9340
:101BA0007F938F939F93AF93BF93EF93FF93E091B6
:101BB0001401F09115010995FF91EF91BF91AF913B
:101BC0009F918F917F916F915F914F913F912F9155
:101BD0000F900FBE0F901F9018951F920F920FB687
:101BE0000F9211242F933F934F935F936F937F93A3
:101BF0008F939F93AF93BF93EF93FF93E091120165
:101C0000F09113010995FF91EF91BF91AF919F91D1
:101C10008F917F916F915F914F913F912F910F9095
:101C20000FBE0F901F901895789484B5826084BD84
:101C300084B5816084BD85B5826085BD85B58160D0
:101C400085BD80916E00816080936E00109281004E
:101C50008091810082608093810080918100816009
:101C600080938100809180008160809380008091CA
:101C7000B10084608093B1008091B0008160809356
:101C8000B00080917A00846080937A0080917A001D
:101C9000826080937A0080917A00816080937A00DC
:101CA00080917A00806880937A001092C10061E090
:101CB0008EE00E949F0661E08FE00E949F0661E037
:101CC00080E10E949F0660E081E10E949F0661E042
:101CD00086E00E949F0661E089E00E949F0661E025
:101CE00087E00E949F0660E086E00E94530660E065
:101CF00089E00E94530660E087E00E9453068091CD
:101D00008100887F856080938100E091A702F09137
:101D1000A80282E08083E091A302F091A4021082E5
:101D2000E091A502F091A60280E180831092AF02BB
:101D3000E091AB02F091AC0286E08083E091A902D1
:101D4000F091AA02808180618083E091A902F091E4
:101D5000AA02808188608083E091A902F091AA02A2
:101D6000808180688083E091A902F091AA0280813D
:101D70008F7D808382EC90E00E94FB0310922B0207
:101D800010922A021092740210929602109272021D
:101D900081E08093710210924C0261E082E10E9426
:101DA000530661E083E10E9453068091B9008E7F63
:101DB0008093B9008091B9008D7F8093B90088E449
:101DC0008093B80085E48093BC0010924A0310927F
:101DD000490310924C0310924B0310924E03109241
:101DE0004D031092500310924F0361E08FEF0E9459
:101DF0009F0661E08FEF0E94530665E070E080E08F
:101E000090E00E94F20660E08FEF0E949F066AE079
:101E100070E080E090E00E94F20669E170E08BE003
:101E20000E9449038BE00E94A7030E94CA038BE033
:101E30000E94A703499791F568E170E084E00E9451
:101E4000490360E470E085E00E94490380E493E088
:101E50009093E7018093E60181E50E94A7039093A8
:101E600093038093920380E50E94A703EC0189E528
:101E70000E94A703807E992765E0959587956A95CE
:101E8000E1F7CC70DD27CC0FDD1F8C2B9D2B835908
:101E90009E4F909391038093900308C086E891E051
:101EA0000E9474018EE991E00E94740188E39FEF23
:101EB000909384038093830382EC91E09093880352
:101EC000809387031092820310928103909386037C
:101ED0008093850385E0809343036FE970E086E09B
:101EE0000E944903C0E02091430330E0A0E4BFE139
:101EF0000E94A21A28EE33E040E050E00E947B1AD4
:101F0000E6E5F1E08FE190E0729162916B01770F6D
:101F1000EE08FF082C153D054E055F0534F08F7067
:101F20006C2F607FC62FC82B02C0019769F7C0676E
:101F30006C2F70E087E00E94490388E29AE090935A
:101F40008C0380938B0388E00E94A703C82F8091A5
:101F5000920390919303092E000CAA0BBB0B48E24D
:101F60005AE060E070E09A01AB01281B390B4A0B84
:101F70005B0BA8EEB3E00E94B81A20919003309159
:101F80009103032E000C440B550B0E947B1ADA01BF
:101F9000C90134E0B595A795979587953A95D1F7FE
:101FA00021E0280F622F70E08AE00E944903C06C94
:101FB0006C2F70E088E00E94490382E49EE09093D9
:101FC0008A038093890388E00E94A703C82F809129
:101FD000920390919303092E000CAA0BBB0B42E4D1
:101FE0005EE060E070E09A01AB01281B390B4A0B00
:101FF0005B0BA8EEB3E00E94B81A209190033091D9
:102000009103032E000C440B550B0E947B1ADA013E
:10201000C90144E0B595A795979587954A95D1F75D
:10202000682F70E089E00E944903C0636C2F70E064
:1020300088E00E944903109299031092980384EE5D
:102040009CE090938E0380938D0384E180938F03B3
:1020500084E690E09093800380937F0381E08093F7
:1020600096030E94FE0B2EE03DE242EB5DE36091A1
:1020700005027091060280910702909108020E9469
:102080008A1920E030E04AE754E40E94691760931F
:1020900008017093090180930A0190930B010E943B
:1020A000700D609317027093180280931902909339
:1020B0001A0222242394312C0E94FE0B20E030E0EF
:1020C0004AE756E46091050270910602809107028A
:1020D000909108020E9435191816F4F481E080935B
:1020E000E8010E94970B10920C010E948D0B109238
:1020F0000D010E94170B0E942A178DEC90E00E94A0
:10210000FB03609105027091060280910702909195
:1021100008020E943C17FFCFC0900102D09002023B
:10212000E0900302F090040220E030E44CE955E432
:10213000C701B6010E943519181614F40E944B17F6
:1021400020E030EC4AE556ECC701B6010E94D617F4
:1021500087FDF4CF8090E9019090EA01A090EB0117
:10216000B090EC0120E030EC4AE556E4C501B40142
:102170000E9435191816ECF410920C010E948D0B78
:1021800010920D010E94170B1092E8010E94970B0C
:102190000E942A1788EE90E00E94FB036091E901FB
:1021A0007091EA018091EB019091EC010E943C1743
:1021B000FFCF20E030E543EC56E46091F1017091EF
:1021C000F2018091F3019091F4010E9435191816E3
:1021D000ECF410920D010E94170B10920C010E945A
:1021E0008D0B1092E8010E94970B0E942A1785E040
:1021F00091E00E94FB036091F1017091F2018091E6
:10220000F3019091F4010E943C17FFCF4090ED0143
:102210005090EE016090EF017090F00120E030E40A
:102220004CE955E4C301B2010E9435191816ECF4CB
:1022300010920D010E94170B10920C010E948D0B41
:102240001092E8010E94970B0E942A1780E291E009
:102250000E94FB036091ED017091EE018091EF010E
:102260009091F0010E943C17FFCFA3019201C7019A
:10227000B6010E9469172091F5013091F601409155
:10228000F7015091F8010E946A17A50194010E947C
:102290006A1720E030E040EA51E40E946A17609338
:1022A0000A0270930B0280930C0290930D0280E05F
:1022B0000E94F5040E9409048091400391E09093EC
:1022C00073028093950210927402109296026CE24F
:1022D00084E393E00E9495080E94EC0262E0809102
:1022E00040030E94630310922B0280932A028230E3
:1022F00009F080C084E393E00E944908EC0184E384
:1023000093E00E944908BE016F737727762F6627F6
:10231000862B972BBC01990F880B990B0E9485186F
:1023200021E835E943EC5EE30E948A190E944D18CA
:10233000072E000C880B990B0E9485186B017C01FD
:1023400020E030E44CE156E40E948A194B015C0124
:10235000A701960160E070E48EE495E40E9469179D
:102360009B01AC01C501B4010E94DB170E94541807
:102370000E94831820E030E44CE156E40E94DB1711
:102380000E9442196B017C016091440370914503E6
:10239000072E000C880B990B0E9485189B01AC013D
:1023A00060E070E080E89FE30E94DB17A7019601E0
:1023B0000E948A192FE03FEC4BE55BE30E946A170D
:1023C0009B01AC0160E070E080E89FE30E94DB17B6
:1023D00023E333E948E853E40E94691720E030E042
:1023E00040E251E40E948A190E944D1870937203D2
:1023F000609371030E94700D6B017C0140909A0301
:1024000050909B0360909C0370909D0380914703C4
:102410009091480365E070E00E94451A4B010E94CC
:102420005B05892B09F018C2C701B601641975094B
:102430008609970928EE33E040E050E00E94591ADF
:102440008091980390919903092E000CAA0BBB0B65
:10245000281739074A075B070CF4FEC1E0916703B0
:10246000F0E0EE0FFF1FE05CFC4F8185928520912C
:102470008D0330918E03281739070CF0EDC1E091E0
:102480006803F0E0EE0FFF1FE05CFC4F2185328512
:10249000821B930B20918F0330E0281739070CF033
:1024A000DBC181E080939703C0E4D3E0E12CF12C01
:1024B0009924E814F9040CF075C0E0916803F0E089
:1024C000EE0FFF1FE05CFC4FA185B285C0908F032B
:1024D000D12CB12C80E090E0FC01EE0FFF1FEC0F3F
:1024E000FD1F218532852A1B3B0BC216D306D4F46F
:1024F0009101082E01C0220F0A94EAF76B2D622B7E
:10250000E62FF0E02B2D30E0AF01440F551F4223A2
:102510005323452B39F4220F331F2E233F23232B24
:1025200009F4B62E019685309105B1F681EA91E065
:102530000E9474018FEFE81AF80AC7010E94BC02DA
:1025400081EB91E00E947401CB2CD12C10920E02F1
:1025500038E0A32EB12C00E810E0C8018C219D21A9
:102560008017910719F064E871E002C062E871E039
:102570008EE092E00E94CE1A1595079581E0A81A88
:10258000B10859F78EE092E00E9474018EE991E063
:102590000E947401B6018E2D0E9449032A9689CFAC
:1025A000109297030E94700DC0901702D0901802ED
:1025B000E0901902F0901A029701860108511C4F11
:1025C0002F4F3F4F061717072807390708F070C02D
:1025D0000E94700D6C197D098E099F090E94831855
:1025E00020E030E04AE754E40E94DB176B017C01F5
:1025F00020910102309102024091030250910402A5
:102600000E948A1920E030E041E655E40E94DB1781
:1026100020E030E048EB51E40E94DB179B01AC0165
:10262000609108017091090180910A0190910B015C
:102630000E946A17609308017093090180930A0150
:1026400090930B012091F5013091F6014091F70133
:102650005091F801C701B6010E948A1920E030E0CC
:1026600041E655E40E94DB1720E030E040E451E40D
:102670000E94DB179B01AC01609104017091050180
:1026800080910601909107010E946A1760930401EE
:102690007093050180930601909307010E94700DCD
:1026A00060931702709318028093190290931A0294
:1026B0008090ED019090EE01A090EF01B090F001BC
:1026C000C090E901D090EA01E090EB01F090EC01BC
:1026D00020E030E040EF51E4C701B6010E946A17E4
:1026E0009B01AC01C501B4010E94351987FD02C0F0
:1026F00082E011C020E030E040EF51E4C701B601B4
:102700000E9469179B01AC01C501B4010E94D61754
:10271000181624F081E08093250202C01092250251
:10272000C0912502C130C1F098F0C23009F046C016
:1027300020E030E048EC52E4609104017091050122
:1027400080910601909107010E94D61787FF22C051
:1027500081E08093E80132C020E030E040E752E4BD
:10276000609108017091090180910A0190910B011B
:102770000E943519181664F7A5019401C701B60126
:102780000E94691720E030E048E453E40E943519C4
:1027900087FD03C01092E80111C020E030E040E75F
:1027A00052E46091040170910501809106019091BD
:1027B00007010E94351918165CF2ECCF8091E801F0
:1027C000811110C01092230280912402833029F0DD
:1027D000C11103C01092240210C0C13071F4C09323
:1027E00024020BC010922402C11103C010922302D4
:1027F00004C0C13011F4C09323020E94970BC09013
:10280000F101D090F201E090F301F090F401C09159
:102810000902C11109C06091050270910602809100
:1028200007029091080208C06091F9017091FA01C5
:102830008091FB019091FC0120E030E048EC52E4F3
:102840000E946A179B01AC01C701B6010E943519AD
:1028500018160CF060C11AC080919703882309F400
:10286000A1CEC0E0D0E09924C815D9050CF098CECF
:1028700080EC91E00E9474012196CE010E94CA036F
:1028800060E070E08C2F0E944903EECFC1113CC183
:1028900081E080930D01C0912402C53009F44CC041
:1028A000C330B9F120E038E543E656E46091050213
:1028B0007091060280910702909108020E94D6173B
:1028C000181614F082E036C0C43009F520E030E07C
:1028D00040EA51E46091FD017091FE018091FF0199
:1028E000909100020E94D617181674F080E090E0D4
:1028F000A8ECB2E48093080190930901A0930A0127
:10290000B0930B0185E016C0C093240215C0C330FC
:1029100081F420E030E040EA51E46091FD017091E3
:10292000FE018091FF01909100020E94D6171816B7
:10293000ECF683E08093240280912402833099F1A5
:1029400080F4823009F0EFC080E090E0AFE7B3E4BC
:102950008093000190930101A0930201B0930301C1
:10296000E2C08430E9F1853009F0DDC080901F02BB
:1029700090902002A0902102B090220220E030E04E
:102980004AE754E4609105027091060280910702C3
:10299000909108020E94DB179B01AC0160E070E09F
:1029A00084E591E439C080901F0290902002A090AD
:1029B0002102B090220220E030E04AE754E4609126
:1029C00005027091060280910702909108020E9410
:1029D000DB179B01AC0166E676E68AE691E41CC053
:1029E00080901F0290902002A0902102B0902202BD
:1029F00020E030E04AE754E460910502709106025D
:102A000080910702909108020E94DB179B01AC01A4
:102A100060E070E088E791E40E9469176B017C0137
:102A200020E030E040E85FE360911B0270911C02FF
:102A300080911D0290911E020E94D61787FF08C048
:102A4000A7019601C501B4010E946A174B015C0100
:102A50002DEC3CEC4CE45DE3C701B6010E948A1901
:102A600020E030E040E05FE30E946A176B017C01E8
:102A70002DEC3CEC4CEC5DE3C501B4010E948A19DD
:102A80009B01AC01C701B6010E946A176B017C0172
:102A900020E030E040E85FE30E94351987FF0DC079
:102AA00020E030E0A901C701B6010E94D61787FFD8
:102AB0000AC0C12CD12C760106C0C12CD12C80E8D3
:102AC000E82E8FE3F82EC0921B02D0921C02E092F7
:102AD0001D02F0921E0280921F0290922002A0928C
:102AE0002102B092220220E030E04FE753E4C70118
:102AF000B6010E948A1960930001709301018093CE
:102B00000201909303010FC081E080930D0182E0E8
:102B10008093230208C010920D018091250281113B
:102B200021C1109224020E948D0B0E94170B0E945B
:102B3000700D0091260210912702209128023091F9
:102B400029020C501E4F2F4F3F4F0617170728071B
:102B5000390708F002C10E94700D6093260270933D
:102B6000270280932802909329020E94700D4AE068
:102B70000E9486018BE591E00E949B0280910902F0
:102B800090E00E94BC0289E591E00E949B02609166
:102B9000250270E080E090E04AE00E94860187E52F
:102BA00091E00E949B026091240270E080E090E03E
:102BB0004AE00E94860185E591E00E949B026091B7
:102BC000230270E080E090E04AE00E94860183E505
:102BD00091E00E949B0280910D0190E00E94BC0256
:102BE00081E591E00E949B0280910C0190E00E949F
:102BF000BC028FE491E00E949B02609108017091F9
:102C0000090180910A0190910B0143E050E00E947C
:102C1000EA028DE491E00E949B02609104017091B0
:102C20000501809106019091070143E050E00E9468
:102C3000EA028BE491E00E949B0260910502709190
:102C40000602809107029091080242E050E00E9443
:102C5000EA0289E491E00E949B0260910102709176
:102C60000202809103029091040242E050E00E942F
:102C7000EA0287E491E00E949B026091FD0170915D
:102C8000FE018091FF019091000242E050E00E941D
:102C9000EA0285E491E00E949B026091F901709143
:102CA000FA018091FB019091FC0142E050E00E940A
:102CB000EA0283E491E00E949B026091F501709129
:102CC000F6018091F7019091F80142E050E00E94F6
:102CD000EA0281E491E00E949B026091F10170910F
:102CE000F2018091F3019091F40142E050E00E94E2
:102CF000EA028FE391E00E949B026091ED017091E6
:102D0000EE018091EF019091F00142E050E00E94CD
:102D1000EA028DE391E00E949B026091E9017091CB
:102D2000EA018091EB019091EC0142E050E00E94B9
:102D3000EA028BE391E00E949B0260910001709196
:102D40000101809102019091030142E050E00E9454
:102D5000EA028EE991E00E9474010E94FE0A0E943C
:102D6000FD07AAC9813009F0DECE80932402DBCEB4
:102D7000E7E9F2E01382128288EE93E0A0E0B0E08F
:102D800084839583A683B7832AE331E0318320834C
:102D900025EC30E03587248724EC30E03787268720
:102DA00020EC30E0318B208B21EC30E0338B228B18
:102DB00022EC30E0358B248B26EC30E0378B268BF1
:102DC000118E128E138E148EE4E3F3E013821282BE
:102DD00084839583A683B7838CE491E09183808379
:102DE000E0E4F3E08BE69DE09583848381E08683D5
:102DF0002EE130E03093800320937F0310929503FF
:102E000010929403109296031092970328E037E0F3
:102E1000309399032093980310929A0310929B0386
:102E200010929C0310929D0310929F0310929E0398
:102E30001092A0031092A1031092A2031092A30378
:102E4000828388E190E09183808385E090E09087A1
:102E5000878308950E94700DDC01CB01805699474D
:102E6000AE4FBF4F80930E0190930F01A0931001BE
:102E7000B09311010C94FE0ACF93DF9342E00E94BD
:102E8000C701EC018EE991E00E9474018C0F9D1F37
:102E9000DF91CF91089581E08093E8010E94970B24
:102EA00010920C010E948D0B10920D010E94170BC5
:102EB0000E942A1780E692E00E94FB0360910102C3
:102EC0007091020280910302909104020E943C17CB
:102ED000FFCF5058BB27AA270E9481170C94FB18DC
:102EE0000E94ED1838F00E94F41820F039F49F3F4A
:102EF00019F426F40C94EA180EF4E095E7FB0C9410
:102F0000E418E92F0E940C1958F3BA1762077307E7
:102F10008407950720F079F4A6F50C942E190EF489
:102F2000E0950B2EBA2FA02D0B01B90190010C01D9
:102F3000CA01A0011124FF27591B99F0593F50F4F1
:102F4000503E68F11A16F040A22F232F342F442749
:102F5000585FF3CF469537952795A795F040539541
:102F6000C9F77EF41F16BA0B620B730B840BBAF011
:102F70009150A1F0FF0FBB1F661F771F881FC2F77C
:102F80000EC0BA0F621F731F841F48F48795779590
:102F90006795B795F7959E3F08F0B0CF9395880F4A
:102FA00008F09927EE0F9795879508950E94C0180D
:102FB00008F481E008950E94EF170C94FB180E941A
:102FC000F41858F00E94ED1840F029F45F3F29F002
:102FD0000C94E41851110C942F190C94EA180E94C7
:102FE0000C1968F39923B1F3552391F3951B550BF5
:102FF000BB27AA2762177307840738F09F5F5F4FCC
:10300000220F331F441FAA1FA9F335D00E2E3AF00A
:10301000E0E832D091505040E695001CCAF72BD022
:10302000FE2F29D0660F771F881FBB1F2617370773
:103030004807AB07B0E809F0BB0B802DBF01FF27A5
:1030400093585F4F3AF09E3F510578F00C94E41886
:103050000C942F195F3FE4F3983ED4F3869577954F
:103060006795B795F7959F5FC9F7880F911D96955E
:10307000879597F90895E1E0660F771F881FBB1FBA
:10308000621773078407BA0720F0621B730B840B67
:10309000BA0BEE1F88F7E09508950E9454186894C3
:1030A000B1110C942F1908950E94141988F09F579C
:1030B00098F0B92F9927B751B0F0E1F0660F771F5C
:1030C000881F991F1AF0BA95C9F714C0B13091F052
:1030D0000E942E19B1E008950C942E19672F782FB5
:1030E0008827B85F39F0B93FCCF386957795679517
:1030F000B395D9F73EF490958095709561957F4F83
:103100008F4F9F4F0895E89409C097FB3EF4909528
:103110008095709561957F4F8F4F9F4F9923A9F0B0
:10312000F92F96E9BB279395F6958795779567953F
:10313000B795F111F8CFFAF4BB0F11F460FF1BC083
:103140006F5F7F4F8F4F9F4F16C0882311F096E916
:1031500011C0772321F09EE8872F762F05C06623C4
:1031600071F096E8862F70E060E02AF09A95660F7D
:10317000771F881FDAF7880F9695879597F9089536
:10318000990F0008550FAA0BE0E8FEEF1616170678
:10319000E807F907C0F012161306E407F50798F0E0
:1031A000621B730B840B950B39F40A2661F0232BF9
:1031B000242B252B21F408950A2609F4A140A69575
:1031C0008FEF811D811D089597F99F6780E870E05A
:1031D00060E008959FEF80EC089500240A9416168D
:1031E000170618060906089500240A9412161306F5
:1031F000140605060895092E0394000C11F4882383
:1032000052F0BB0F40F4BF2B11F460FF04C06F5F9E
:103210007F4F8F4F9F4F089557FD9058440F551F74
:1032200059F05F3F71F04795880F97FB991F61F048
:103230009F3F79F087950895121613061406551FBF
:10324000F2CF4695F1DF08C0161617061806991F2B
:10325000F1CF86957105610508940895E894BB2720
:1032600066277727CB0197F908950E94C01808F4C4
:103270008FEF089516F00C94FC190C94EA186894DA
:103280000C94E4180E941419A8F39923C1F3AEF327
:10329000DF93CF931F930F93FF92C92FDD278823CE
:1032A0002AF02197660F771F881FDAF720E030E0B9
:1032B00040E85FEB9FE3883920F0803E38F02196AC
:1032C0008F770E946A17E8E6F0E004C00E946A1750
:1032D000E5E9F0E00E940A1A8B01BE01EC01FB2E29
:1032E0006F5771097595771F880B990B0E94851888
:1032F00028E132E741E35FE30E949D19AF2D980179
:10330000AE01FF900F911F91CF91DF910E94811725
:103310000C94FB180E949D190C94FB180E94ED1848
:1033200038F00E94F41820F0952311F00C94E41862
:103330000C94EA1811240C942F190E940C1970F3A4
:10334000959FC1F3950F50E0551F629FF001729F4A
:10335000BB27F00DB11D639FAA27F00DB11DAA1F59
:10336000649F6627B00DA11D661F829F2227B00DA6
:10337000A11D621F739FB00DA11D621F839FA00D31
:10338000611D221F749F3327A00D611D231F849F81
:10339000600D211D822F762F6A2F11249F575040D8
:1033A0009AF0F1F088234AF0EE0FFF1FBB1F661F53
:1033B000771F881F91505040A9F79E3F510580F01C
:1033C0000C94E4180C942F195F3FE4F3983ED4F367
:1033D000869577956795B795F795E7959F5FC1F7C0
:1033E000FE2B880F911D9695879597F908950E9459
:1033F000C018880B990B08959F3F31F0915020F42D
:10340000879577956795B795880F911D96958795C0
:1034100097F90895DF93CF931F930F93FF92EF9245
:10342000DF927B018C01689406C0DA2EEF010E94C6
:103430009D19FE01E894A5912591359145915591ED
:10344000A6F3EF010E948117FE019701A801DA940B
:1034500069F7DF90EF90FF900F911F91CF91DF916F
:103460000895AA1BBB1B51E107C0AA1FBB1FA617CB
:10347000B70710F0A61BB70B881F991F5A95A9F71D
:1034800080959095BC01CD01089597FB072E16F409
:10349000009407D077FD09D00E94311A07FC05D0AF
:1034A0003EF4909581959F4F0895709561957F4F5B
:1034B0000895A1E21A2EAA1BBB1BFD010DC0AA1F75
:1034C000BB1FEE1FFF1FA217B307E407F50720F08D
:1034D000A21BB30BE40BF50B661F771F881F991F08
:1034E0001A9469F760957095809590959B01AC0151
:1034F000BD01CF010895052E97FB1EF400940E9494
:10350000921A57FD07D00E94591A07FC03D04EF4B7
:103510000C94921A50954095309521953F4F4F4FFE
:103520005F4F089590958095709561957F4F8F4F6F
:103530009F4F08950E94A21A332312F48A1B9B0BFB
:103540000C94B31AA29FB001B39FC001A39F700D4A
:10355000811D1124911DB29F700D811D1124911D9B
:1035600008950E94A21AB7FF0895821B930B089535
:103570000E94A21AA59F900DB49F900DA49F800D4C
:10358000911D11240895EE0FFF1F0590F491E02D79
:10359000099481E090E0F8940C94D91AFB01DC01C5
:1035A0000D900020E9F7119701900D920020E1F7AE
:0635B0000895F894FFCF1E
:1035B60000007F43CDCCC7420000C4420101E803AE
:1035C60000001F0D1F0D110016001C002100270012
:1035D6002C00320038003D00430048004E005300E6
:1035E60059005E006400000000009407200D2C07BF
:1035F600DB075D073B074F070000000095086508DD
:10360600C50839085D0849083A088BFD37C24E657A
:10361600ECC50069A743A47CF5C5584B0046CCDD34
:103626009D4103097941773E9E4163EE7E41E78CD9
:1036360084C131003000424D5320636F6D6D756E4D
:1036460069636174696F6E206572726F72000D0A2C
:103656000053657474696E672043454C4C42414C77
:103666000020726567697374657220746F3A200072
:10367600436C656172696E6720526567697374652C
:10368600722043454C4C42414C006E616E00696E9F
:0636960066006F7666007D
:00000001FF
