:100000000C943F010C94370F0C94100F0C94670163
:100010000C9467010C9467010C9467010C946701C0
:100020000C9467010C9467010C9467010C946701B0
:100030000C9467010C9467010C9467010C946701A0
:100040000C94C60E0C9467010C942B090C940509B2
:100050000C9467010C9467010C9467010C94670180
:100060000C945D090C94670108000000BE922449BD
:10007000123EABAAAA2ABECDCCCC4C3E00000080DA
:10008000BEABAAAAAA3E00000000BF000000803F4D
:100090000000000000084178D3BB4387D1133D190D
:1000A0000E3CC3BD4282AD2B3E68EC8276BED98F3A
:1000B000E1A93E4C80EFFFBE01C4FF7F3F0000007E
:1000C0000000537461727475702E2E2E004C412006
:1000D0004F564552564F4C544147452E2E2E2053D5
:1000E000544F5050494E47004C4F4144204F5645C5
:1000F0005243555252454E542E2E2E2053544F509B
:1001000050494E47005056204F564552564F4C547A
:100110004147452E2E2E2053544F5050494E4700F4
:100120005056204F56455243555252454E542E2E4E
:100130002E2053544F5050494E470020002000209D
:1001400000200020002000200020002000200020AF
:1001500000200020002000200020002000000000DF
:1001600000240027002A0000000000250028002BA2
:100170000004040404040404040202020202020350
:10018000030303030301020408102040800102045A
:1001900008102001020408102000000008000201DD
:1001A0000000030407000000000000000041747418
:1001B000656D7074696E6720746F20636C65617221
:1001C000204F4344206572726F7200417474656DF4
:1001D0007074696E6720746F20636C656172205360
:1001E0004344206572726F7200417474656D70745F
:1001F000696E6720746F20636C656172204F5620B2
:100200006572726F7200417474656D7074696E67A7
:1002100020746F20636C6561722055562065727280
:100220006F7200417474656D7074696E6720746FCD
:1002300020636C65617220416C6572742065727216
:100240006F7200417474656D7074696E6720746FAD
:1002500020636C656172205852206572726F720063
:100260004C41204F56455243555252454E542E2E26
:100270002E2053544F5050494E470000AE171124C2
:100280001FBECFEFD8E0DEBFCDBF11E0A0E0B1E0F0
:10029000E6E4F8E302C005900D92AA3EB107D9F753
:1002A00024E0AAEEB1E001C01D92AC35B207E1F73F
:1002B00011E0CFE3D1E004C02197FE010E940B1CA6
:1002C000CE33D107C9F70E945E0F0C94211C0C9409
:1002D0000000009769F0FC0101900020E9F73197D8
:1002E000AF01481B590BBC0183E992E00C943E0E10
:1002F00080E090E008958F929F92AF92BF920F930B
:100300001F93CF93DF93CDB7DEB7A1970FB6F894C5
:10031000DEBF0FBECDBF19A2423008F44AE08E0105
:100320000F5D1F4F842E912CA12CB12CA50194019F
:100330000E94A11BE62FB901CA0101501109EA3040
:1003400014F4E05D01C0E95CD801EC93232B242B6D
:10035000252B61F7C8010E946901A1960FB6F89498
:10036000DEBF0FBECDBFDF91CF911F910F91BF9028
:10037000AF909F908F9008950F931F93CF93DF932B
:100380008C01C0E0D0E0F801EC0FFD1F6491662302
:1003900071F0E0919302F09194020190F081E02DD0
:1003A00083E992E00995892B11F02196ECCFCE01DB
:1003B000DF91CF911F910F910895E0919302F091F9
:1003C00094020190F081E02D682F83E992E0099476
:1003D0004F925F926F927F928F929F92AF92BF9255
:1003E000CF92DF92EF92FF926B017C01B42E9B01C2
:1003F000AC010E943F1B882319F08EED91E027C0CD
:1004000026013701E89477F82FEF3FEF4FE75FE7DA
:10041000C301B2010E943F1B81110DC02FEF3FEFBE
:100420004FE75FE7C301B2010E941E1918161CF4C2
:1004300082EE91E00CC02FEF3FEF4FE75FE4C70182
:10044000B6010E947D1A181684F486EE91E0FF90A2
:10045000EF90DF90CF90BF90AF909F908F907F9064
:100460006F905F904F900C9469012FEF3FEF4FE733
:100470005FECC701B6010E941E1987FDE6CF20E0A0
:1004800030E0A901C701B6010E941E1987FF09C00B
:100490008DE20E94DD014C01F7FAF094F7F8F09438
:1004A00002C0812C912CA12C60E070E080E09FE3E1
:1004B000AB1441F020E030E040E251E40E94231907
:1004C000A394F6CF9B01AC01C701B6010E94B218FC
:1004D0002B013C010E949C196B017C010E94CB19ED
:1004E0009B01AC01C301B2010E94B1182B013C0178
:1004F0004AE0C701B6010E947B017C01E80CF91CAF
:10050000BB2029F08EE20E94DD01E80EF91EDB2CF3
:10051000DD2021F120E030E040E251E4C301B201EE
:100520000E94D21A2B013C010E949C194B01A12C64
:10053000B12C4AE0C501B4010E947B01E80EF91E0E
:10054000C501B4010E94CB199B01AC01C301B201EA
:100550000E94B1182B013C01DA94DACFC701FF9059
:10056000EF90DF90CF90BF90AF909F908F907F9053
:100570006F905F904F900895CF92DF92EF92FF922D
:10058000CF93DF936C01990FEE08FF08F7FE17C0B9
:100590008DE20E94DD01EC0166277727CB016C1903
:1005A0007D098E099F094AE00E947B018C0F9D1FE7
:1005B000DF91CF91FF90EF90DF90CF9008954AE0C8
:1005C000C701B601DF91CF91FF90EF90DF90CF9000
:1005D0000C947B010C94E801CF93DF9342E00E94DE
:1005E000E801EC0182EA91E00E9469018C0F9D1FF5
:1005F000DF91CF9108952091920290919102213242
:1006000008F04AC080916E028111FCCF32E0309335
:100610006E0231E030936D023FEF30936C02109226
:100620006B0220936A02A1E7B2E04AE452E0FA01C9
:100630003E2F341B321718F43D913193F9CF1092AD
:10064000490220914902990F922B9093490290916F
:100650004802913061F410924802909149029093BF
:10066000BB009091BC0093FDF8CF95EC01C095EED6
:100670009093BC0090916E029230E1F390916C02E5
:100680009F3F79F080916C02803241F080916C0242
:10069000803331F084E005C081E003C082E001C016
:1006A00083E0109270021092920210926F020895ED
:1006B000CF93C62F9091790321E020936F029093FE
:1006C00091021092700210929202682F80E393E0E0
:1006D0000E9422086C2F80E393E00E942208CF91B1
:1006E0000C94FB0290916E029111FCCF91E09093DB
:1006F0006E0290936D022FEF20936C0210926B02AA
:10070000260F20936A029093490290914902880F24
:10071000892B8093490280914802813061F41092C4
:100720004802809149028093BB008091BC0083FD08
:10073000F8CF85EC01C085EE8093BC0080916E02FD
:100740008130E1F380916B02861710F460916B02A7
:10075000AAE4B2E028E232E0F9018E2F821B86176C
:1007600018F48D918193F9CF862F0895CF93DF935D
:10077000C9E7D3E0988121E020936F029093910222
:100780001092700210929202682F80E393E00E9410
:1007900022080E94FB0261E088810E94720310928D
:1007A00027028093260280E393E0DF91CF910C949F
:1007B000D607CF93DF930E94BC01EC0182EA91E05F
:1007C0000E9469018C0F9D1FDF91CF910895AF9218
:1007D000BF92CF92DF92EF92FF920F931F93CF932E
:1007E000DF938AE20E94B603182F8BE20E94B603C1
:1007F000EC016091C9037091CA03072E000C880BAD
:10080000990B0E94CD1920E030E040E850E40E94AE
:10081000D21A6B017C0180E090E0912F8C2B9D2BF4
:10082000BC01990F880B990B0E94CD199B01AC015B
:10083000C701B6010E94D21A20E030E04AE754E432
:100840000E9423196B017C018091CB039091CC0312
:10085000880F991F880F991FBC01990F880B990B5E
:100860000E94CD199B01AC01C701B6010E94B218CC
:100870000E9495196093A2037093A3038093A4032D
:100880009093A5038091790391E090936F028093F8
:10089000910210927002109292026CE080E393E059
:1008A0000E9422080E94FB0260918003660F613261
:1008B00008F060E2809179030E947203109227028F
:1008C0008093260290E02091800330918103220FD3
:1008D000331F8217930709F05BC01092A003109298
:1008E000A10302E813E0C0E0D0E068EEC62E63E0AA
:1008F000D62EE12CF12C8091800390918103C817B2
:10090000D9070CF045C080E393E00E94D6075C0154
:1009100080E393E00E94D60795012F733327322F8F
:100920002227282B392BA091C903B091CA030E941A
:10093000E21BA70196010E94C31B8091CB039091FB
:10094000CC03280F391FF801219331938F01E091D7
:10095000A003F0E0EE0FFF1FE758FC4F8185928562
:100960008217930714F4C093A003E091A103F0E071
:10097000EE0FFF1FE758FC4F818592852817390736
:100980002CF4253F314014F0C093A1032196B3CF3E
:10099000DF91CF911F910F91FF90EF90DF90CF905B
:1009A000BF90AF900895CF93DF93D82F80E00E943F
:1009B000B603C82FDD2309F44CC082E30E94B603BE
:1009C000D82F83E30E94B60360E070E07D2F862B72
:1009D000972BBC01990F880B990B0E94CD192DE321
:1009E0003AE047E051E40E94D21A20E030E040EAC9
:1009F00050E40E9423190E9495196093A6037093F6
:100A0000A7038093A8039093A903462F572FBC01F7
:100A100077FF07C070956095509541955F4F6F4F78
:100A20007F4F8091B8039091B903092E000CAA0B57
:100A3000BB0B84179507A607B70784F40E94BA0E6C
:100A40006093D3037093D4038093D5039093D6031C
:100A500005C087FDB2CFDF91CF910895CF7311F418
:100A600010927F0360E870E080E0DF91CF910C94FA
:100A700058030F931F93CF93DF9380917F038111CE
:100A800007C08091CD039091CE03009709F4E4C094
:100A900080E00E94B603EC0187FF03C081E00E9462
:100AA000D3048C2F8F7309F4CFC080917F038823E8
:100AB00021F01092D8031092D703CE01992790937A
:100AC000CE038093CD030E94BA0E0091D9031091FA
:100AD000DA032091DB033091DC03601B710B820B86
:100AE000930B28EE33E040E050E00E94A11BB901D7
:100AF0008091D7039091D8032817390749F0F9015D
:100B0000E81BF90B339720F03093D8032093D703D9
:100B10008091D7039091D8036817790708F498C09B
:100B2000C5FF0FC063E070E00E94791B892B49F478
:100B300083E492E00E94D90360E270E080E00E94CA
:100B40005803C4FF13C08091D7039091D8036AE083
:100B500070E00E94791B892B49F483E292E00E94A5
:100B6000D90360E170E080E00E945803C3FF1BC01E
:100B70000E94E703E091A103F0E0EE0FFF1FE758AA
:100B8000FC4F218532858091C4039091C503821763
:100B900093074CF486E092E00E94D90368E070E08D
:100BA00080E00E945803C2FF1BC00E94E703E0914F
:100BB000A003F0E0EE0FFF1FE758FC4F21853285C0
:100BC0008091C2039091C303281739074CF489EE32
:100BD00091E00E94D90364E070E080E00E94580335
:100BE000C1FF13C08091D7039091D8036CE370E0EC
:100BF0000E94791B892B49F48BEC91E00E94D90368
:100C000062E070E080E00E945803C0FF13C0809152
:100C1000D7039091D8036CE370E00E94791B892B75
:100C200049F48DEA91E00E94D90361E070E080E030
:100C30000E9458038091D7039091D8030196909316
:100C4000D8038093D70304C01092CE031092CD0333
:100C50008091CD039091CE03DF91CF911F910F91A1
:100C6000089590E0FC01E756FE4F3491FC01EB57EC
:100C7000FE4F2491FC01EF58FE4FE491EE2309F45E
:100C80003BC0332339F1333091F038F43130A9F0DF
:100C9000323001F584B58F7D12C0373091F0383095
:100CA000A1F03430B9F4809180008F7D03C0809131
:100CB00080008F77809380000DC084B58F7784BDCE
:100CC00009C08091B0008F7703C08091B0008F7D04
:100CD0008093B000F0E0EE0FFF1FE959FE4FA591A1
:100CE000B4918FB7F894EC91611103C020952E2335
:100CF00001C02E2B2C938FBF0895CF93DF9390E0EC
:100D0000FC01EB57FE4F2491FC01EF58FE4F8491FC
:100D1000882361F190E0880F991FFC01E35AFE4F90
:100D2000C591D491FC01E959FE4FA591B49161118F
:100D300009C09FB7F8948881209582238883EC911D
:100D40002E230BC0623061F49FB7F8943881822F54
:100D5000809583238883EC912E2B2C939FBF06C014
:100D60008FB7F894E8812E2B28838FBFDF91CF9126
:100D70000895FC01538D448D252F30E0842F90E0A1
:100D8000821B930B541710F0CF9608950197089586
:100D9000FC01918D828D981761F0828DDF01A80F83
:100DA000B11D5D968C91928D9F5F9F73928F90E0A5
:100DB00008958FEF9FEF0895FC01918D828D981714
:100DC00031F0828DE80FF11D858D90E008958FEF51
:100DD0009FEF0895FC01918D228D892F90E0805C1A
:100DE0009F4F821B91098F739927089583E992E0A1
:100DF0000E94EA0621E0892B09F420E0822F089561
:100E0000FC01848DDF01A80FB11DA35ABF4F2C91A7
:100E1000848D90E001968F739927848FA689B78976
:100E20002C93A089B1898C9180648C93938D848D4F
:100E3000981306C00288F389E02D80818F7D80831E
:100E40000895EF92FF920F931F93CF93DF93EC01DE
:100E500081E0888F9B8D8C8D981305C0E889F98976
:100E6000808185FD24C0F62E0B8D10E00F5F1F4F93
:100E70000F731127E02E8C8DE8120CC00FB607FC03
:100E8000FACFE889F989808185FFF5CFCE010E94EC
:100E90000007F1CF8B8DFE01E80FF11DE35AFF4FE4
:100EA000F0820B8FEA89FB898081806207C0EE891E
:100EB000FF896083E889F98980818064808381E08B
:100EC00090E0DF91CF911F910F91FF90EF900895E7
:100ED000CF93DF93EC01888D8823C9F0EA89FB89E1
:100EE000808185FD05C0A889B9898C9186FD0FC0D8
:100EF0000FB607FCF5CF808185FFF2CFA889B989AD
:100F00008C9185FFEDCFCE010E940007E7CFDF91E6
:100F1000CF91089580E090E0892B29F00E94F60699
:100F200081110C940000089585ED8093BC008091A0
:100F3000BC0084FDFCCF10926E02089540912E04F7
:100F4000262F30E0240F311D21323105DCF42091B1
:100F50006E022430C9F4FC0180E090E0861758F45A
:100F600030912E042191DC01A45FBB4FA30FB11D72
:100F70002C930196F3CF80912E04680F60932E047A
:100F800080E0089581E0089582E008950895E09159
:100F9000270280912602E81730F4F0E0E85DFD4F6B
:100FA000808190E008958FEF9FEF08959091270240
:100FB00080912602981750F4E92FF0E0E85DFD4F8C
:100FC000208130E09F5F9093270202C02FEF3FEF18
:100FD000C90108958091260290E020912702821B8A
:100FE00091090895CF92DF92EF92FF920F931F9392
:100FF000CF93DF937C01262F972F8A0180916F0278
:10100000882391F0C62FD72F6E01C40ED51ECC15A4
:10101000DD0571F06991D701ED91FC910190F081AE
:10102000E02DC7010995F3CF642F822F0E949E0700
:10103000C801DF91CF911F910F91FF90EF90DF904A
:10104000CF900895CF93DF931F92CDB7DEB769831A
:1010500020916F022223D1F020919202203240F0A1
:1010600021E030E0FC013383228380E090E015C072
:1010700080917002E82FF0E0EF58FD4F9981908346
:101080008F5F809370028093920205C061E0CE0171
:1010900001960E949E0781E090E00F90DF91CF9132
:1010A0000895089580E090E008950E94111CCF9368
:1010B000DF93C091EA01D091EB01209759F00E9493
:1010C000BA0EFE01E05AFF4F6083718382839383DF
:1010D00081E08E83DF91CF910895CF92DF92EF92DE
:1010E000FF920F931F93CF93DF93C82F8330F1F0BC
:1010F00050F48130A1F0823029F581E080930B0417
:1011000010920A0418C08430C9F08530D9F41092C6
:101110000B0410920A0481E08093090413C08093A9
:101120000B0410920A04809309040CC010920B0463
:1011300081E080930A041092090404C081E0809346
:101140000B04F7CF60910B048EE00E943106609192
:101150000A048FE00E9431066091090480E10E9438
:10116000310661E070E080E090E00E94800ED4E6FD
:10117000C12CD12C760103EC10E081E10E94690EB4
:10118000BC01990F880B990B0E94CD199B01AC01F2
:10119000C701B6010E94B2186B017C01C80101971A
:1011A000F1F7D15051F720E030E048EC52E4C701AC
:1011B000B6010E942319C150C53098F424E0C29FA3
:1011C000D0011124FD01EE58FE4F20813181428172
:1011D0005381FD01E25AFE4FC080D180E280F3804E
:1011E00005C0C12CD12C7601A70196010E94D21A0C
:1011F000A70196010E94B218DF91CF911F910F9124
:10120000FF90EF90DF90CF9008951F920F920FB64E
:101210000F9211242F933F934F935F936F937F937C
:101220008F939F93AF93BF93EF93FF9383E992E0E4
:101230000E940007FF91EF91BF91AF919F918F9115
:101240007F916F915F914F913F912F910F900FBEC2
:101250000F901F9018951F920F920FB60F921124A6
:101260002F938F939F93EF93FF93E091A302F091BD
:10127000A4028081E091A902F091AA0282FD12C02D
:1012800090818091AC028F5F8F732091AD028217A5
:1012900051F0E091AC02F0E0ED56FD4F958F809358
:1012A000AC0201C08081FF91EF919F918F912F91AE
:1012B0000F900FBE0F901F9018951F920F920FB6B0
:1012C0000F9211242F933F934F935F936F937F93CC
:1012D0008F939F93AF93BF93EF93FF938091B90048
:1012E000887F803609F49CC068F5883209F45BC0B9
:1012F00090F4803109F454C038F4882309F4F6C01E
:10130000883009F44DC0F6C0883109F44CC08032F1
:1013100009F45DC0EFC0803409F468C048F480333C
:1013200009F455C0883309F0E5C080936C02D8C039
:10133000803509F44FC0883509F45DC0883409F060
:10134000D9C0D6C0883909F4C7C0A8F4883709F4D1
:1013500067C038F4883609F463C0803709F460C088
:10136000C9C0883809F4B8C0803909F45FC0803832
:1013700009F0C0C05BC0803B09F486C038F4803AF5
:1013800009F466C0883A09F47FC0B4C0803C09F40F
:10139000A7C0883C09F4A4C0883B09F48AC0AAC04D
:1013A0008091490210C090916B0280916A02981757
:1013B00070F5E0916B0281E08E0F80936B02F0E09C
:1013C000E65BFD4F80818093BB0085EC86C08093F7
:1013D0006C028EC0E0916B0281E08E0F80936B02F5
:1013E0008091BB00F0E0E65BFD4F808390916B0243
:1013F00080916A026EC0E0916B0281E08E0F809353
:101400006B028091BB00F0E0E65BFD4F8083809132
:101410006D0281116DC081E08093480284EA61C051
:1014200083E080936E0210925204CFCF80915204D9
:10143000803208F051C0E091520481E08E0F809319
:1014400052048091BB00F0E0EE5CFB4F8083BDCF87
:1014500085EC8093BC0010926E0280915204803221
:1014600030F4E0915204F0E0EE5CFB4F10826091AA
:10147000520470E0E0913004F091310482E394E092
:1014800009951092520436C084E080936E02109247
:101490002F0410922E04E0912C04F0912D04099554
:1014A00080912E04811105C081E080932E0410925A
:1014B0000C04E0912F0481E08E0F80932F04F0E064
:1014C000E45FFB4F80818093BB0090912F0480915B
:1014D0002E04981708F479CF85E88093BC000AC0E1
:1014E00085EC8093BC0010926E0204C010926C02D6
:1014F0000E949407FF91EF91BF91AF919F918F91BF
:101500007F916F915F914F913F912F910F900FBEFF
:101510000F901F9018950F931F930E94BA0E009181
:101520000A0110910B0120910C0130910D016017FF
:1015300071078207930710F461E001C060E085E065
:101540001F910F910C9431062F923F924F925F9210
:101550006F927F928F929F92AF92BF92CF92DF92C3
:10156000EF92FF920F931F93CF93DF93CDB7DEB728
:1015700028970FB6F894DEBF0FBECDBF80917803D9
:10158000882309F401C10E94BA0E69837A838B8390
:101590009C838091600390916103A0916203B0915C
:1015A000630349815A816B817C81481B590B6A0B0B
:1015B0007B0B80916C0390916D03A0916E03B091B1
:1015C0006F03481759076A077B0708F4DDC0E091ED
:1015D0005A03F0915B0380809180A280B380E091F8
:1015E0005E03F0915F03A5019401608171818281A6
:1015F00093810E94B1182B013C012091500330913E
:10160000510340915203509153030E94D21A2091EA
:1016100064033091650340916603509167030E9413
:10162000B2186B017C01609364037093650380932F
:1016300066039093670310917403209075033090B4
:10164000760300917703212F322D432D502F0E94D6
:101650007D1A18162CF4812F922DA32DB02F18C0AF
:101660008091700390917103A0917203B091730304
:101670008D839E83AF83B8879C01AD01C701B601FE
:101680000E941E1987FF0CC08D819E81AF81B88595
:101690008093640390936503A0936603B0936703FC
:1016A00020914C0330914D0340914E0350914F03D4
:1016B000C301B2010E94D21A2091640330916503E4
:1016C00040916603509167030E94B2186B017C0140
:1016D000209168033091690340916A0350916B0334
:1016E000C501B4010E94B1182091540330915503F3
:1016F00040915603509157030E94D21A9B01AC01AE
:10170000C701B6010E94B1186B017C01212F322D57
:10171000432D502F0E947D1A1816B4F010917003BB
:10172000209071033090720300917303212F322DAA
:10173000432D502FB601C7010E941E1987FD04C01A
:101740001C2D2D2C3E2C0F2DE0915C03F0915D03A0
:10175000812F922DA32DB02F80839183A283B383F9
:101760008092680390926903A0926A03B0926B031F
:1017700089819A81AB81BC818093600390936103DE
:10178000A0936203B0936303809109018823A1F0C1
:1017900060910E0170910F018091100190911101E3
:1017A0000E9495196B017C018B0161E089E00E9428
:1017B0007D06C114D10411F460E004C00F3F11058F
:1017C000E1F461E089E028960FB6F894DEBF0FBE21
:1017D000CDBFDF91CF911F910F91FF90EF90DF90E0
:1017E000CF90BF90AF909F908F907F906F905F90C1
:1017F0004F903F902F900C943106E2EAF1E0E49193
:10180000E330F9F048F4E130B9F0E230A1F584B505
:10181000806284BDC8BC34C0E730E9F0E83019F11B
:10182000E43049F580918000806280938000D092FE
:101830008B00C0928A0024C084B5806884BDC7BC78
:101840001FC080918000806880938000D0928900C2
:10185000C092880015C08091B00080688093B0006D
:10186000C092B3000DC08091B00080628093B00040
:10187000C092B40005C0003811050CF0A2CF9CCF77
:1018800028960FB6F894DEBF0FBECDBFDF91CF9183
:101890001F910F91FF90EF90DF90CF90BF90AF908E
:1018A0009F908F907F906F905F904F903F902F9080
:1018B000089580910801882311F061E001C060E083
:1018C00087E00C9431068091EC0190910D029817FD
:1018D00009F45FC060E0813099F187E00E94310631
:1018E00060E085E00E94310664E670E080E090E010
:1018F0000E94800E0E943905892B49F485E00E94E0
:10190000B603BC016C7F772785E00E9458036AE02C
:1019100070E080E090E00E94800E60E086E00E942F
:10192000310664E670E080E090E00E94800E8091D5
:101930000801882351F161E087E00E94310625C04B
:1019400087E00E94310660E085E00E94310664E68F
:1019500070E080E090E00E94800E61E086E00E94EE
:1019600031066AE070E080E090E00E94800E0E9404
:101970003905892BB1F685E00E94B6038360682F94
:1019800070E085E00E945803CCCF8091EC018093F9
:101990000D0208958F929F92AF92BF92CF92DF92E5
:1019A000EF92FF920F931F93CF93DF9381E00E94FA
:1019B0006D086093090270930A0280930B02909362
:1019C0000C0282E00E946D08DC01CB01B0588093CC
:1019D000050290930602A0930702B093080283E0E9
:1019E0000E946D086093F5017093F6018093F701F2
:1019F0009093F80184E00E946D086093F101709368
:101A0000F2018093F3019093F40185E00E946D0848
:101A10006093ED017093EE018093EF019093F001DC
:101A20006091A2037091A303072E000C880B990B01
:101A30000E94CD196093FD017093FE018093FF0118
:101A400090930002C4E6C12CD12C760103EC10E087
:101A500085E10E94690EBC01990F880B990B0E94C9
:101A6000CD199B01AC01C701B6010E94B2186B01F0
:101A70007C01C8010197F1F7C15051F720E030E037
:101A800048EC52E4C701B6010E9423192EE634E364
:101A900040E85EE30E94D21A2BE734E144EA51E4C5
:101AA0000E94B118609305047093060480930704A4
:101AB00090930804CDEDD3E0FE0184819581A68149
:101AC000B78181939193A193B19324E0E130F20720
:101AD000A1F78091050290910602A0910702B091B2
:101AE00008028093010490930204A0930304B0932E
:101AF000040460E070E0CB0129913991499159913A
:101B00000E94B21824E0C530D207B1F720E030E0DF
:101B100040E251E40E942319609301027093020293
:101B20008093030290930402C090F901D090FA01CF
:101B3000E090FB01F090FC0120E030E040EF51E448
:101B4000C701B6010E94B2189B01AC01C701B601E2
:101B50000E947D1A181684F020E030E040EF51E436
:101B6000C701B6010E94B1189B01AC01C701B601C3
:101B70000E941E1987FF04C0C701B6010E94EC0233
:101B80006091A6037091A703072E000C880B990B98
:101B90000E94CD194B015C0120E030E04AE754E49B
:101BA000C701B6010E94B2189B01AC01C501B40186
:101BB0000E947D1A18164CF08092F9019092FA0159
:101BC000A092FB01B092FC0108C0C092F901D09232
:101BD000FA01E092FB01F092FC0120E030E04AE7DC
:101BE00054E4C701B6010E94B1189B01AC01609199
:101BF000F9017091FA018091FB019091FC010E9422
:101C00001E1987FF08C0C092F901D092FA01E09234
:101C1000FB01F092FC01DF91CF911F910F91FF909A
:101C2000EF90DF90CF90BF90AF909F908F900895EE
:101C30003FB7F8948091580490915904A0915A04A8
:101C4000B0915B0426B5A89B05C02F3F19F0019603
:101C5000A11DB11D3FBFBA2FA92F982F8827820F32
:101C6000911DA11DB11DBC01CD0142E0660F771F82
:101C7000881F991F4A95D1F708950895CF92DF9252
:101C8000EF92FF920F931F93CF93DF936C017A0132
:101C90008B01C0E0D0E0CE15DF0589F0D8016D9151
:101CA0008D01D601ED91FC910190F081E02DC601EE
:101CB0000995892B11F47E0102C02196ECCFC70152
:101CC000DF91CF911F910F91FF90EF90DF90CF9018
:101CD00008958E3008F08E508770806480937C0069
:101CE00080917A00806480937A0080917A0086FDEA
:101CF000FCCF809178002091790090E0922B08959C
:101D00008F929F92AF92BF92CF92DF92EF92FF920B
:101D10006B017C010E94180E4B015C01C114D104BF
:101D2000E104F104F1F00E94180EDC01CB018819E6
:101D30009909AA09BB09883E9340A105B10570F332
:101D400021E0C21AD108E108F10888EE880E83E08C
:101D5000981EA11CB11CC114D104E104F10419F7AF
:101D6000DDCFFF90EF90DF90CF90BF90AF909F902E
:101D70008F9008952FB7F894609154047091550492
:101D800080915604909157042FBF08951F920F928F
:101D90000FB60F9211242F933F938F939F93AF937E
:101DA000BF938091540490915504A0915604B09132
:101DB00057043091530423E0230F2D3720F401966C
:101DC000A11DB11D05C026E8230F0296A11DB11D5E
:101DD000209353048093540490935504A093560485
:101DE000B09357048091580490915904A0915A04DB
:101DF000B0915B040196A11DB11D8093580490938E
:101E00005904A0935A04B0935B04BF91AF919F9182
:101E10008F913F912F910F900FBE0F901F901895AB
:101E20001F920F920FB60F9211242F933F934F934F
:101E30005F936F937F938F939F93AF93BF93EF9332
:101E4000FF93E0911801F09119010995FF91EF912D
:101E5000BF91AF919F918F917F916F915F914F91C2
:101E60003F912F910F900FBE0F901F9018951F92CA
:101E70000F920FB60F9211242F933F934F935F93BE
:101E80006F937F938F939F93AF93BF93EF93FF9342
:101E9000E0911601F09117010995FF91EF91BF9123
:101EA000AF919F918F917F916F915F914F913F91F2
:101EB0002F910F900FBE0F901F901895789484B5B6
:101EC000826084BD84B5816084BD85B5826085BD36
:101ED00085B5816085BD80916E00816080936E00C4
:101EE00010928100809181008260809381008091B6
:101EF0008100816080938100809180008160809367
:101F000080008091B10084608093B1008091B00026
:101F100081608093B00080917A00846080937A0021
:101F200080917A00826080937A0080917A0081604B
:101F300080937A0080917A00806880937A00109272
:101F4000C10061E08EE00E947D0661E08FE00E94AA
:101F50007D0661E080E10E947D0660E081E10E94F3
:101F60007D0661E086E00E947D0661E089E00E94D6
:101F70007D0661E087E00E947D0660E086E00E94C9
:101F8000310660E089E00E94310660E087E00E944F
:101F9000310680918100887F856080938100E09187
:101FA000A302F091A40282E08083E0919F02F0916D
:101FB000A0021082E091A102F091A20280E1808350
:101FC0001092AB02E091A702F091A80286E0808314
:101FD000E091A502F091A602808180618083E0916A
:101FE000A502F091A602808188608083E091A5021D
:101FF000F091A602808180688083E091A502F09133
:10200000A60280818F7D808382EC90E00E94D903BC
:1020100010922702109226021092700210929202E1
:1020200010926E0281E080936D021092480261E08E
:1020300082E10E94310661E083E10E9431068091D5
:10204000B9008E7F8093B9008091B9008D7F809315
:10205000B90088E48093B80085E48093BC001092B6
:1020600083031092820310928503109284031092CE
:10207000870310928603109289031092880361E00F
:102080008FEF0E947D0661E08FEF0E94310665E0D0
:1020900070E080E090E00E94800E60E08FEF0E9490
:1020A0007D066AE070E080E090E00E94800E69E1C9
:1020B00070E08BE00E9458038BE00E94B6034997C2
:1020C00091F568E170E084E00E94580360E470E0FC
:1020D00085E00E94580389E793E09093EB01809399
:1020E000EA0181E50E94B6039093CC038093CB0371
:1020F00080E50E94B603EC0189E50E94B603807E6C
:10210000992765E0959587956A95E1F7CC70DD276D
:10211000CC0FDD1F8C2B9D2B83599E4F9093CA03B0
:102120008093C90308C08AE891E00E94690182EAAD
:1021300091E00E94690188E39FEF9093BD03809333
:10214000BC0382EC91E09093C1038093C003109292
:10215000BB031092BA039093BF038093BE0385E044
:1021600080937C036FE970E086E00E945803C0E032
:1021700020917C0330E0A0E4BFE10E94EA1B28EE3E
:1021800033E040E050E00E94C31BEAE5F1E08FE15C
:1021900090E0729162916B01770FEE08FF082C15A9
:1021A0003D054E055F0534F08F706C2F607FC62FA4
:1021B000C82B02C0019769F7C0676C2F70E087E0F9
:1021C0000E94580388E29AE09093C5038093C40369
:1021D00088E00E94B603C82F8091CB039091CC0376
:1021E000092E000CAA0BBB0B48E25AE060E070E03D
:1021F0009A01AB01281B390B4A0B5B0BA8EEB3E02D
:102200000E94001C2091C9033091CA03032E000CC8
:10221000440B550B0E94C31BDA01C90144E0B5957C
:10222000A795979587954A95D1F721E0280F622FBA
:1022300070E08AE00E945803C06C6C2F70E088E068
:102240000E94580382E49EE09093C3038093C203EC
:1022500088E00E94B603C82F8091CB039091CC03F5
:10226000092E000CAA0BBB0B42E45EE060E070E0BC
:102270009A01AB01281B390B4A0B5B0BA8EEB3E0AC
:102280000E94001C2091C9033091CA03032E000C48
:10229000440B550B0E94C31BDA01C90154E0B595EC
:1022A000A795979587955A95D1F7682F70E089E0A3
:1022B0000E945803C0636C2F70E088E00E945803AE
:1022C0001092D2031092D10384EE9CE09093C70346
:1022D0008093C60384E18093C80384E690E09093E2
:1022E000B9038093B80381E08093CF030E94CA0CA6
:1022F0002EE03DE242EB5DE36091090270910A023B
:1023000080910B0290910C020E94D21A20E030E0E2
:102310004AE754E40E94B1186093040170930501E8
:1023200080930601909307010E94BA0E60931B02EE
:1023300070931C0280931D0290931E028091FD01F8
:102340009091FE01A091FF01B091000280931201D3
:1023500090931301A0931401B09315018091780319
:10236000811148C0E0915C03F0915D03C080D18091
:10237000E280F380C0926403D0926503E09266032A
:10238000F0926703E0915A03F0915B0380819181A1
:10239000A281B3818093680390936903A0936A0339
:1023A000B0936B038090740390907503A0907603B4
:1023B000B0907703A5019401C701B6010E947D1A70
:1023C000181684F08090700390907103A0907203AF
:1023D000B0907303A5019401C701B6010E941E19B4
:1023E00087FF08C08092640390926503A092660301
:1023F000B092670381E08093780322242394312CE8
:102400000E94CA0C20E030E04AE756E460910902DD
:1024100070910A0280910B0290910C020E947D1A29
:102420001816F4F481E08093EC010E94630C109282
:1024300008010E94590C109209010E94A40A0E94EE
:1024400081188DEC90E00E94D9036091090270918F
:102450000A0280910B0290910C020E94EC02FFCFC5
:10246000C0900502D0900602E0900702F0900802AA
:1024700020E030E44CE955E4C701B6010E947D1A22
:10248000181614F40E94931820E030EC4AE556EC3C
:10249000C701B6010E941E1987FDF4CF8090ED019F
:1024A0009090EE01A090EF01B090F00120E030ECB0
:1024B0004AE556E4C501B4010E947D1A1816ECF4F1
:1024C000109208010E94590C109209010E94A40A5E
:1024D0001092EC010E94630C0E94811888EE90E03B
:1024E0000E94D9036091ED017091EE018091EF019E
:1024F0009091F0010E94EC02FFCF20E030E543EC28
:1025000056E46091F5017091F6018091F701909188
:10251000F8010E947D1A1816ECF4109209010E942D
:10252000A40A109208010E94590C1092EC010E941A
:10253000630C0E94811885E091E00E94D9036091AC
:10254000F5017091F6018091F7019091F8010E94D8
:10255000EC02FFCF4090F1015090F2016090F30146
:102560007090F40120E030E44CE955E4C301B2017D
:102570000E947D1A1816ECF4109209010E94A40A18
:10258000109208010E94590C1092EC010E94630CF9
:102590000E94811880E291E00E94D9036091F101CC
:1025A0007091F2018091F3019091F4010E94EC028C
:1025B000FFCFA3019201C701B6010E94B11820917B
:1025C000F9013091FA014091FB015091FC010E9408
:1025D000B218A50194010E94B21820E030E040EA50
:1025E00051E40E94B21860930E0270930F02809320
:1025F00010029093110280E00E94D3040E94E7032E
:102600008091790391E090936F02809391021092F0
:102610007002109292026CE280E393E00E94220822
:102620000E94FB0262E0809179030E947203109283
:10263000270280932602823009F080C080E393E075
:102640000E94D607EC0180E393E00E94D607BE010A
:102650006F737727762F6627862B972BBC01990FF0
:10266000880B990B0E94CD1921E835E943EC5EE314
:102670000E94D21A0E949519072E000C880B990B04
:102680000E94CD196B017C0120E030E44CE156E45E
:102690000E94D21A4B015C01A701960160E070E430
:1026A0008EE495E40E94B1189B01AC01C501B40110
:1026B0000E9423190E949C190E94CB1920E030E44B
:1026C0004CE156E40E9423190E948A1A6B017C0196
:1026D00080917D0390917E03BC01990F880B990B2B
:1026E0000E94CD199B01AC0160E070E080E89FE39F
:1026F0000E942319A70196010E94D21A2FE03FECF5
:102700004BE55BE30E94B2189B01AC0160E070E016
:1027100080E89FE30E94231923E333E948E853E468
:102720000E94B11820E030E040E251E40E94D21A49
:102730000E9495197093AB036093AA030E94BA0E8E
:102740004B015C014090D3035090D4036090D503BB
:102750007090D603809180039091810365E070E0D2
:102760000E948D1B6B010E943905892BD9F5C5018B
:10277000B401641975098609970928EE33E040E031
:1027800050E00E94A11B8091D1039091D203092EA9
:10279000000CAA0BBB0B281739074A075B0714F17B
:1027A000E091A003F0E0EE0FFF1FE758FC4F81859A
:1027B00092852091C6033091C7032817390794F4F6
:1027C000E091A103F0E0EE0FFF1FE758FC4F2185D9
:1027D0003285821B930B2091C80330E028173907FC
:1027E0000CF43CC38091D003882321F1812C912CDF
:1027F00054018394DD24C40101978C159D05C4F414
:1028000084EC91E00E9469014AE0C501B4010E9494
:102810007B0182EA91E00E94690160E070E0882D0E
:102820000E9458038FEF881A980AA80AB80AE3CFC3
:102830001092D0030E94BA0EC0901B02D0901C02CE
:10284000E0901D02F0901E029701860108511C4F76
:102850002F4F3F4F061717072807390708F074C096
:102860000E94BA0E6C197D098E099F090E94CB192E
:1028700020E030E04AE754E40E9423196B017C0118
:102880002091050230910602409107025091080202
:102890000E94D21A20E030E041E655E40E9423195C
:1028A00020E030E048EB51E40E9423199B01AC0189
:1028B00060910401709105018091060190910701DA
:1028C0000E94B21860930401709305018093060181
:1028D0009093070180911F02882361F12091F901F3
:1028E0003091FA014091FB015091FC01C701B60102
:1028F0000E94D21A20E030E041E655E40E942319FC
:1029000020E030E040E451E40E9423199B01AC0137
:102910006091000170910101809102019091030189
:102920000E94B2186093000170930101809302012C
:10293000909303010E94BA0E60931B0270931C02D5
:1029400080931D0290931E028090F1019090F201FD
:10295000A090F301B090F401C090ED01D090EE0191
:10296000E090EF01F090F00120E030E040EF51E422
:10297000C701B6010E94B2189B01AC01C501B401A8
:102980000E947D1A87FD02C082E011C020E030E085
:1029900040EF51E4C701B6010E94B1189B01AC01A0
:1029A000C501B4010E941E19181624F081E080931D
:1029B000210202C010922102809121028130C1F0D7
:1029C00098F0823009F046C020E030E048EC52E454
:1029D00060910001709101018091020190910301C9
:1029E0000E941E1987FF22C081E08093EC0132C053
:1029F00020E030E040E752E460910401709105016D
:102A000080910601909107010E947D1A181664F7C3
:102A1000A5019401C701B6010E94B11820E030E081
:102A200048EC53E40E947D1A87FD03C01092EC012C
:102A300011C020E030E040E752E460910001709165
:102A4000010180910201909103010E947D1A1816E4
:102A50005CF2ECCF0E94630CC0912102C23009F0FD
:102A6000CCC080910D028111A7C0D0912002C090EE
:102A70000902D0900A02E0900B02F0900C02D530CF
:102A800009F442C0D33009F45EC020E030E44EE4E3
:102A900056E4C701B6010E941E1918161CF0C09317
:102AA00020027DC0D43009F04CC020E030E048E482
:102AB00053E460910E0170910F018091100190918B
:102AC00011010E941E1987FF2CC020E030E048E46D
:102AD00053E460910102709102028091030290918F
:102AE00004020E941E191816E4F080E090E0A8ECA1
:102AF000B2E48093040190930501A0930601B09382
:102B0000070185E080932002C0921201D092130148
:102B1000E0921401F092150180E098E0AFE4B6E491
:102B200042C084E080932002C0921201D09213012F
:102B3000E0921401F092150180E090E3A2E7B6E480
:102B400032C0D33009F520E030E048E453E460912E
:102B50000E0170910F0180911001909111010E945E
:102B60001E1987FF11C020E030E048E453E4609173
:102B700001027091020280910302909104020E946E
:102B80001E1918160CF0B1CF83E080932002C0927A
:102B90001201D0921301E0921401F092150180E02D
:102BA00090EDAFE4B6E480933C0390933D03A09393
:102BB0003E03B0933F0325C0C0931F028091FD01E7
:102BC0009091FE01A091FF01B0910002809312014B
:102BD00090931301A0931401B093150180E090EC41
:102BE000AAE5B6E480933C0390933D03A0933E0393
:102BF000B0933F031092200212C0C11105C0109281
:102C0000200210921F020BC0C13049F480910D02C6
:102C1000811103C0C093200202C0C0931F020E9412
:102C2000590C0E94A40A0E94BA0E0091220210912F
:102C3000230220912402309125020C501E4F2F4F69
:102C40003F4F061717072807390708F002C10E94EF
:102C5000BA0E609322027093230280932402909311
:102C600025020E94BA0E4AE00E947B018BE591E0AA
:102C70000E94BC0180910D0290E00E94BC0289E597
:102C800091E00E94BC016091210270E080E090E040
:102C90004AE00E947B0187E591E00E94BC016091BF
:102CA000200270E080E090E04AE00E947B0185E530
:102CB00091E00E94BC0160911F0270E080E090E012
:102CC0004AE00E947B0183E591E00E94BC01809173
:102CD000090190E00E94BC0281E591E00E94BC01E4
:102CE0008091080190E00E94BC028FE491E00E9474
:102CF000BC016091040170910501809106019091E1
:102D0000070143E050E00E94EA028DE491E00E9456
:102D1000BC016091000170910101809102019091CC
:102D2000030143E050E00E94EA028BE491E00E943C
:102D3000BC016091090270910A0280910B0290918E
:102D40000C0242E050E00E94EA0289E491E00E9415
:102D5000BC0160910502709106028091070290917A
:102D6000080242E050E00E94EA0287E491E00E94FB
:102D7000BC01609101027091020280910302909166
:102D8000040242E050E00E94EA0285E491E00E94E1
:102D9000BC016091FD017091FE018091FF01909155
:102DA000000242E050E00E94EA0283E491E00E94C7
:102DB000BC016091F9017091FA018091FB01909141
:102DC000FC0142E050E00E94EA0281E491E00E94AE
:102DD000BC016091F5017091F6018091F70190912D
:102DE000F80142E050E00E94EA028FE391E00E9485
:102DF000BC016091F1017091F2018091F301909119
:102E0000F40142E050E00E94EA028DE391E00E946A
:102E1000BC016091ED017091EE018091EF01909104
:102E2000F00142E050E00E94EA028BE391E00E9450
:102E3000BC0160910E0170910F0180911001909181
:102E4000110142E050E00E94EA0282EA91E00E9411
:102E500069010E948B0A0E948A07D2CA81E080938E
:102E6000D003C9E7D3E0E12CF12C46019924E81402
:102E7000F9040CF0DFCCE091A103F0E0EE0FFF1FAE
:102E8000E758FC4FA185B285C090C803D12CB12C66
:102E900080E090E0FC01EE0FFF1FEC0FFD1F21858D
:102EA00032852A1B3B0BC216D306D4F49101082E9F
:102EB00001C0220F0A94EAF76B2D622BE62FF0E097
:102EC0002B2D30E0AF01440F551F42235323452BD8
:102ED00039F4220F331F2E233F23232B09F4B62E60
:102EE000019685309105B1F685EA91E00E9469016D
:102EF0008FEFE81AF80AC7010E94BC0285EB91E047
:102F00000E946901CB2CD12C1092120238E0A32E22
:102F1000B12C00E810E0C8018C219D218017910799
:102F200019F068E871E002C066E871E082E192E0C1
:102F30000E94161C1595079581E0A81AB10859F74B
:102F400082E192E00E94690182EA91E00E946901B7
:102F5000B6018E2D0E9458032A9689CF0F931F9396
:102F6000CF93DF93E3E9F2E01382128288EE93E0DD
:102F7000A0E0B0E084839583A683B7832EE331E09D
:102F80003183208325EC30E03587248724EC30E042
:102F90003787268720EC30E0318B208B21EC30E026
:102FA000338B228B22EC30E0358B248B26EC30E007
:102FB000378B268B118E128E138E148EE0E3F3E086
:102FC0001382128284839583A683B78380E591E080
:102FD00091838083E9E7F3E08BE69DE0958384832A
:102FE00081E086832EE130E03093B9032093B8036B
:102FF0001092CE031092CD031092CF031092D00303
:1030000028E037E03093D2032093D1031092D3030A
:103010001092D4031092D5031092D6031092D803C5
:103020001092D7031092D9031092DA031092DB03A7
:103030001092DC03828388E190E09183808385E0B5
:1030400090E090878783C0E4D3E08EE091E09D8F8D
:103050008C8F82E191E09B8F8A8F8CE393E09F8F2E
:103060008E8F18AE18AA19AA1AAA1BAA80E090E09F
:10307000AFE7B3E48CAB9DABAEABBFAB84E690E007
:10308000A0E0B0E08CA79DA7AEA7BFA7198E188EB1
:103090008DEC9CECACE4BEE388839983AA83BB836C
:1030A0004AE959E969E97EE34C835D836E837F8356
:1030B000188619861A861B868C879D87AE87BF87E0
:1030C00080E992ECA5EFBCE3888B998BAA8BBB8B34
:1030D0001C8A1D8A1E8A1F8A0E94BA0E0CA51DA575
:1030E0002EA53FA5DC01CB01801B910BA20BB30BDE
:1030F00088A399A3AAA3BBA3DF91CF911F910F919E
:1031000008950E94BA0EDC01CB0180569947AE4F5C
:10311000BF4F80930A0190930B01A0930C01B093D1
:103120000D010C948B0A81E08093EC010E94630CEA
:10313000109208010E94590C109209010E94A40AE1
:103140000E94811880E692E00E94D90360910502F6
:103150007091060280910702909108020E94EC0291
:10316000FFCF5058BB27AA270E94C9180C94431AB6
:103170000E94351A38F00E943C1A20F039F49F3F23
:1031800019F426F40C94321A0EF4E095E7FB0C9433
:103190002C1AE92F0E94541A58F3BA1762077307C2
:1031A0008407950720F079F4A6F50C94761A0EF4AE
:1031B000E0950B2EBA2FA02D0B01B90190010C0147
:1031C000CA01A0011124FF27591B99F0593F50F45F
:1031D000503E68F11A16F040A22F232F342F4427B7
:1031E000585FF3CF469537952795A795F0405395AF
:1031F000C9F77EF41F16BA0B620B730B840BBAF07F
:103200009150A1F0FF0FBB1F661F771F881FC2F7E9
:103210000EC0BA0F621F731F841F48F487957795FD
:103220006795B795F7959E3F08F0B0CF9395880FB7
:1032300008F09927EE0F9795879508950E94081A30
:1032400008F481E008950E9437190C94431A0E94F3
:103250003C1A58F00E94351A40F029F45F3F29F0DB
:103260000C942C1A51110C94771A0C94321A0E9457
:10327000541A68F39923B1F3552391F3951B550B19
:10328000BB27AA2762177307840738F09F5F5F4F39
:10329000220F331F441FAA1FA9F335D00E2E3AF078
:1032A000E0E832D091505040E695001CCAF72BD090
:1032B000FE2F29D0660F771F881FBB1F26173707E1
:1032C0004807AB07B0E809F0BB0B802DBF01FF2713
:1032D00093585F4F3AF09E3F510578F00C942C1AAA
:1032E0000C94771A5F3FE4F3983ED4F38695779574
:1032F0006795B795F7959F5FC9F7880F911D9695CC
:10330000879597F90895E1E0660F771F881FBB1F27
:10331000621773078407BA0720F0621B730B840BD4
:10332000BA0BEE1F88F7E09508950E949C196894E7
:10333000B1110C94771A08950E945C1A88F09F5777
:1033400098F0B92F9927B751B0F0E1F0660F771FC9
:10335000881F991F1AF0BA95C9F714C0B13091F0BF
:103360000E94761AB1E008950C94761A672F782F90
:103370008827B85F39F0B93FCCF386957795679584
:10338000B395D9F73EF490958095709561957F4FF0
:103390008F4F9F4F0895E89409C097FB3EF4909596
:1033A0008095709561957F4F8F4F9F4F9923A9F01E
:1033B000F92F96E9BB279395F695879577956795AD
:1033C000B795F111F8CFFAF4BB0F11F460FF1BC0F1
:1033D0006F5F7F4F8F4F9F4F16C0882311F096E984
:1033E00011C0772321F09EE8872F762F05C0662332
:1033F00071F096E8862F70E060E02AF09A95660FEB
:10340000771F881FDAF7880F9695879597F90895A3
:10341000990F0008550FAA0BE0E8FEEF16161706E5
:10342000E807F907C0F012161306E407F50798F04D
:10343000621B730B840B950B39F40A2661F0232B66
:10344000242B252B21F408950A2609F4A140A695E2
:103450008FEF811D811D089597F99F6780E870E0C7
:1034600060E008959FEF80EC089500240A941616FA
:10347000170618060906089500240A941216130662
:10348000140605060895092E0394000C11F48823F0
:1034900052F0BB0F40F4BF2B11F460FF04C06F5F0C
:1034A0007F4F8F4F9F4F089557FD9058440F551FE2
:1034B00059F05F3F71F04795880F97FB991F61F0B6
:1034C0009F3F79F087950895121613061406551F2D
:1034D000F2CF4695F1DF08C0161617061806991F99
:1034E000F1CF86957105610508940895E894BB278E
:1034F00066277727CB0197F908950E94081A08F4E8
:103500008FEF089516F00C94441B0C94321A6894B3
:103510000C942C1A0E945C1AA8F39923C1F3AEF301
:10352000DF93CF931F930F93FF92C92FDD2788233B
:103530002AF02197660F771F881FDAF720E030E026
:1035400040E85FEB9FE3883920F0803E38F0219619
:103550008F770E94B218E8E6F0E004C00E94B2182B
:10356000E5E9F0E00E94521B8B01BE01EC01FB2E4D
:103570006F5771097595771F880B990B0E94CD19AC
:1035800028E132E741E35FE30E94E51AAF2D98019D
:10359000AE01FF900F911F91CF91DF910E94C9184A
:1035A0000C94431A0E94E51A0C94431A0E94351A8F
:1035B00038F00E943C1A20F0952311F00C942C1A3C
:1035C0000C94321A11240C94771A0E94541A70F336
:1035D000959FC1F3950F50E0551F629FF001729FB8
:1035E000BB27F00DB11D639FAA27F00DB11DAA1FC7
:1035F000649F6627B00DA11D661F829F2227B00D14
:10360000A11D621F739FB00DA11D621F839FA00D9E
:10361000611D221F749F3327A00D611D231F849FEE
:10362000600D211D822F762F6A2F11249F57504045
:103630009AF0F1F088234AF0EE0FFF1FBB1F661FC0
:10364000771F881F91505040A9F79E3F510580F089
:103650000C942C1A0C94771A5F3FE4F3983ED4F341
:10366000869577956795B795F795E7959F5FC1F72D
:10367000FE2B880F911D9695879597F908950E94C6
:10368000081A880B990B08959F3F31F0915020F450
:10369000879577956795B795880F911D969587952E
:1036A00097F90895DF93CF931F930F93FF92EF92B3
:1036B000DF927B018C01689406C0DA2EEF010E9434
:1036C000E51AFE01E894A591259135914591559112
:1036D000A6F3EF010E94C918FE019701A801DA9430
:1036E00069F7DF90EF90FF900F911F91CF91DF91DD
:1036F0000895AA1BBB1B51E107C0AA1FBB1FA61739
:10370000B70710F0A61BB70B881F991F5A95A9F78A
:1037100080959095BC01CD01089597FB072E16F476
:10372000009407D077FD09D00E94791B07FC05D0D3
:103730003EF4909581959F4F0895709561957F4FC8
:103740000895A1E21A2EAA1BBB1BFD010DC0AA1FE2
:10375000BB1FEE1FFF1FA217B307E407F50720F0FA
:10376000A21BB30BE40BF50B661F771F881F991F75
:103770001A9469F760957095809590959B01AC01BE
:10378000BD01CF010895052E97FB1EF400940E9401
:10379000DA1B57FD07D00E94A11B07FC03D04EF493
:1037A0000C94DA1B50954095309521953F4F4F4F23
:1037B0005F4F089590958095709561957F4F8F4FDD
:1037C0009F4F08950E94EA1B332312F48A1B9B0B20
:1037D0000C94FB1BA29FB001B39FC001A39F700D6F
:1037E000811D1124911DB29F700D811D1124911D09
:1037F00008950E94EA1BB7FF0895821B930B08955A
:103800000E94EA1BA59F900DB49F900DA49F800D70
:10381000911D11240895EE0FFF1F0590F491E02DE6
:10382000099481E090E0F8940C94211CFB01DC01E8
:103830000D900020E9F7119701900D920020E1F71B
:063840000895F894FFCF8B
:10384600E1FAC7420000C4420101E803000000009B
:103856007F4300E044463D0E3D0E110016001C005D
:10386600210027002C00320038003D0043004800AC
:103876004E00530059005E0064000000000021075E
:103886003E0EB9066807EA06C806DC060000000018
:103896002208F2075208C607EA07D607C7078BFDB4
:1038A60037C24E65ECC50069A743A47CF5C5584BE5
:1038B6000046CCDD9D4103097941773E9E4163EE8A
:1038C6007E41E78C84C131003000424D5320636F46
:1038D6006D6D756E69636174696F6E206572726F66
:1038E60072000D0A0053657474696E672043454C77
:1038F6004C42414C0020726567697374657220748E
:103906006F3A2000436C656172696E672052656785
:1039160069737465722043454C4C42414C006E619C
:0A3926006E00696E66006F766600A1
:00000001FF
