:100000000C94CF010C945A0E0C94330E0C94F701FF
:100010000C94F7010C94F7010C94F7010C94F70180
:100020000C94F7010C94F7010C94F7010C94F70170
:100030000C94F7010C94F7010C94F7010C94F70160
:100040000C94E90D0C94F7010C94300A0C940A0AF4
:100050000C94F7010C94F7010C94F7010C94F70140
:100060000C94620A0C94F70108000000BE92244927
:10007000123EABAAAA2ABECDCCCC4C3E00000080DA
:10008000BEABAAAAAA3E00000000BF000000803F4D
:100090000000000000084178D3BB4387D1133D190D
:1000A0000E3CC3BD4282AD2B3E68EC8276BED98F3A
:1000B000E1A93E4C80EFFFBE01C4FF7F3F0000007E
:1000C0000000537461727475702E2E2E004C412006
:1000D0004F564552564F4C544147452E2E2E2053D5
:1000E000544F5050494E47004C4F4144204F5645C5
:1000F0005243555252454E542E2E2E2053544F509B
:1001000050494E47005056204F564552564F4C547A
:100110004147452E2E2E2053544F5050494E4700F4
:100120005056204F56455243555252454E542E2E4E
:100130002E2053544F5050494E47002D2D2D2D2D1C
:100140002D2D2D2D2D2D2D2D2D2D2D2D2D2D2D2DDF
:100150002D4F5448455200647574795F6379636C20
:10016000653A20002D2D2D2D2D2D2D2D2D2D2D2DB4
:100170002D2D50492D434F4E54524F4C4C4552005B
:100180006D6561737572655F6D697374616B653AF6
:10019000200074656D70657261747572653A200037
:1001A0006C645F693A200070765F693A200070766F
:1001B0005F763A20006C695F693A20006C695F766F
:1001C0003A20006C615F695F617665726167653ACC
:1001D00020006C615F693A20006C615F763A200014
:1001E0002D2D2D2D2D2D2D2D2D2D2D2D2D2D2D2D3F
:1001F0004D4541535552454D454E5453006C695F32
:10020000736F633A20006C615F736F633A20006C18
:10021000645F73746174653A200070765F73746113
:1002200074653A20006C695F73746174653A2000EC
:100230006C615F73746174653A20007379735F73E6
:10024000746174653A200063757272656E74204241
:100250006174746572793A200054696D653A2000C2
:100260002D2D2D2D2D2D2D2D2D2D2D2D2D2D2D2DBE
:100270002D2D2D2D2D2D535441544553000000009C
:1002800000240027002A0000000000250028002B81
:10029000000404040404040404020202020202032F
:1002A0000303030303010204081020408001020439
:1002B00008102001020408102000000008000201BC
:1002C00000000304070000000000000000417474F7
:1002D000656D7074696E6720746F20636C65617200
:1002E000204F4344206572726F7200417474656DD3
:1002F0007074696E6720746F20636C65617220533F
:100300004344206572726F7200417474656D70743D
:10031000696E6720746F20636C656172204F562090
:100320006572726F7200417474656D7074696E6786
:1003300020746F20636C656172205556206572725F
:100340006F7200417474656D7074696E6720746FAC
:1003500020636C65617220416C65727420657272F5
:100360006F7200417474656D7074696E6720746F8C
:1003700020636C656172205852206572726F720042
:100380004C41204F56455243555252454E542E2E05
:100390002E2053544F5050494E47000065171124EA
:1003A0001FBECFEFD8E0DEBFCDBF11E0A0E0B1E0CF
:1003B000E6EFF6E302C005900D92A43FB107D9F72E
:1003C00024E0A4EFB1E001C01D92A133B207E1F730
:1003D00011E0CFECD1E004C02197FE010E94631B25
:1003E000CE3CD107C9F70E94810E0C94791B0C9466
:1003F00000003FB7F89480913C0290913D02A0919B
:100400003E02B0913F0226B5A89B05C02F3F19F0D0
:100410000196A11DB11D3FBFBA2FA92F982F882784
:10042000820F911DA11DB11DBC01CD0142E0660FDF
:10043000771F881F991F4A95D1F70895009769F093
:10044000FC0101900020E9F73197AF01481B590BDF
:10045000BC018DEA92E00C94B20D80E090E008952A
:1004600085EE91E00C941E020F931F93CF93DF93C0
:100470008C01C0E0D0E0F801EC0FFD1F6491662311
:1004800071F0E091AD02F091AE020190F081E02DAB
:100490008DEA92E00995892B11F02196ECCFCE01DF
:1004A000DF91CF911F910F910895CF93DF930E9419
:1004B0003402EC010E9430028C0F9D1FDF91CF911E
:1004C00008958F929F92AF92BF920F931F93CF93F5
:1004D000DF93CDB7DEB7A1970FB6F894DEBF0FBE9E
:1004E000CDBF19A2423008F44AE08E010F5D1F4FC4
:1004F000842E912CA12CB12CA50194010E94F91AF3
:10050000E62FB901CA0101501109EA3014F4E05D87
:1005100001C0E95CD801EC93232B242B252B61F738
:10052000C8010E941E02A1960FB6F894DEBF0FBE4E
:10053000CDBFDF91CF911F910F91BF90AF909F9052
:100540008F900895E091AD02F091AE020190F0819C
:10055000E02D682F8DEA92E00994CF92DF92EF921E
:10056000FF92CF93DF936C01990FEE08FF08F7FE1F
:1005700012C08DE20E94A202EC0166277727CB0110
:100580006C197D098E099F094AE00E9461027C0175
:10059000EC0EFD1E06C04AE0C701B6010E946102D2
:1005A0007C010E9430028E0D9F1DDF91CF91FF9044
:1005B000EF90DF90CF900895CF93DF93682F70E096
:1005C00080E090E04AE00E946102EC010E9430026B
:1005D0008C0F9D1FDF91CF9108954F925F926F9284
:1005E0007F928F929F92AF92BF92CF92DF92EF92C3
:1005F000FF92CF93DF936B017C01B42E9B01AC0182
:100600000E94971A882319F088EE91E01AC02601FB
:100610003701E89477F82FEF3FEF4FE75FE7C3012B
:10062000B2010E94971A811110C02FEF3FEF4FE7E0
:100630005FE7C301B2010E947618181634F48CEEFD
:1006400091E00E941E02EC0185C02FEF3FEF4FE7C3
:100650005FE4C701B6010E94D51918161CF480EF9B
:1006600091E0EFCF2FEF3FEF4FE75FECC701B6010F
:100670000E94761887FDF3CF20E030E0A901C70182
:10068000B6010E94761887FF09C08DE20E94A2027F
:10069000EC01F7FAF094F7F8F09402C0C0E0D0E073
:1006A000A12C60E070E080E09FE3AB1440F420E018
:1006B00030E040E251E40E947B18A394F6CF9B0106
:1006C000AC01C701B6010E940A182B013C010E942F
:1006D000F4186B017C010E9423199B01AC01C3013A
:1006E000B2010E9409182B013C014AE0C701B60182
:1006F0000E946102C80FD91FBB2029F08EE20E9420
:10070000A202C80FD91FFB2CFF2021F120E030E00E
:1007100040E251E4C301B2010E942A1A2B013C01BC
:100720000E94F4184B01A12CB12C4AE0C501B40180
:100730000E946102C80FD91FC501B4010E9423198C
:100740009B01AC01C301B2010E9409182B013C01BD
:10075000FA94DACF0E9430028C0F9D1FDF91CF9167
:10076000FF90EF90DF90CF90BF90AF909F908F90D1
:100770007F906F905F904F9008952091AC02909180
:10078000AB02213208F04AC0809188028111FCCF6F
:1007900032E03093880231E0309387023FEF3093AC
:1007A00086021092850220938402ABE8B2E044E610
:1007B00052E0FA013E2F341B321718F43D91319369
:1007C000F9CF1092630220916302990F922B9093BC
:1007D000630290916202913061F4109262029091F2
:1007E00063029093BB009091BC0093FDF8CF95EC11
:1007F00001C095EE9093BC00909188029230E1F395
:10080000909186029F3F79F080918602803241F07C
:1008100080918602803331F084E005C081E003C01E
:1008200082E001C083E010928A021092AC02109222
:1008300089020895CF93C62F9091560321E020930B
:1008400089029093AB0210928A021092AC02682F38
:100850008AE493E00E9427096C2F8AE493E00E94C7
:100860002709CF910C94BD03909188029111FCCF80
:1008700091E090938802909387022FEF2093860255
:1008800010928502260F2093840290936302909128
:100890006302880F892B809363028091620281300A
:1008A00061F410926202809163028093BB00809198
:1008B000BC0083FDF8CF85EC01C085EE8093BC00C1
:1008C000809188028130E1F380918502861710F4CF
:1008D00060918502A4E6B2E022E432E0F9018E2FB5
:1008E000821B861718F48D918193F9CF862F089576
:1008F000CF93DF93C6E5D3E0988121E0209389026E
:100900009093AB0210928A021092AC02682F8AE494
:1009100093E00E9427090E94BD0361E088810E9444
:10092000340410924102809340028AE493E0DF9104
:10093000CF910C94DB08AF92BF92CF92DF92EF92EF
:10094000FF920F931F93CF93DF938AE20E94780464
:10095000182F8BE20E947804EC016091A60370913D
:10096000A703072E000C880B990B0E94251920E085
:1009700030E040E850E40E942A1A6B017C0180E0DC
:1009800090E0912F8C2B9D2BBC01990F880B990B1C
:100990000E9425199B01AC01C701B6010E942A1AC9
:1009A00020E030E04AE754E40E947B186B017C01B0
:1009B0008091A8039091A903880F991F880F991F10
:1009C000BC01990F880B990B0E9425199B01AC0162
:1009D000C701B6010E940A180E94ED1860937F03B8
:1009E00070938003809381039093820380915603D8
:1009F00091E0909389028093AB0210928A02109248
:100A0000AC026CE08AE493E00E9427090E94BD03D7
:100A100060915D03660F613208F060E280915603D9
:100A20000E943404109241028093400290E0209191
:100A30005D0330915E03220F331F8217930709F085
:100A40005BC010927D0310927E030FE513E0C0E0BF
:100A5000D0E068EEC62E63E0D62EE12CF12C80911A
:100A60005D0390915E03C817D9070CF045C08AE476
:100A700093E00E94DB085C018AE493E00E94DB08BB
:100A800095012F733327322F2227282B392BA09142
:100A9000A603B091A7030E943A1BA70196010E94EA
:100AA0001B1B8091A8039091A903280F391FF801FF
:100AB000219331938F01E0917D03F0E0EE0FFF1F52
:100AC000EA5AFC4F818592858217930714F4C093EC
:100AD0007D03E0917E03F0E0EE0FFF1FEA5AFC4F2A
:100AE00081859285281739072CF4253F314014F071
:100AF000C0937E032196B3CFDF91CF911F910F91C9
:100B0000FF90EF90DF90CF90BF90AF900895CF937C
:100B1000DF93D82F80E00E947804C82FDD2309F4EA
:100B20004CC082E30E947804D82F83E30E947804AB
:100B300060E070E07D2F862B972BBC01990F880B0E
:100B4000990B0E9425192DE33AE047E051E40E94F9
:100B50002A1A20E030E040EA50E40E947B180E940C
:100B6000ED186093830370938403809385039093BF
:100B70008603462F572FBC0177FF07C070956095FD
:100B8000509541955F4F6F4F7F4F809195039091A6
:100B90009603092E000CAA0BBB0B84179507A6071A
:100BA000B70784F40E94DD0D6093B0037093B10326
:100BB0008093B2039093B30305C087FDB2CFDF915A
:100BC000CF910895CF7311F410925C0360E870E048
:100BD00080E0DF91CF910C941A040F931F93CF9371
:100BE000DF9380915C03811107C08091AA039091EB
:100BF000AB03009709F4E4C080E00E947804EC01A4
:100C000087FF03C081E00E9487058C2F8F7309F452
:100C1000CFC080915C03882321F01092B50310921D
:100C2000B403CE0199279093AB038093AA030E944B
:100C3000DD0D0091B6031091B7032091B8033091F8
:100C4000B903601B710B820B930B28EE33E040E07D
:100C500050E00E94F91AB9018091B4039091B50354
:100C60002817390749F0F901E81BF90B339720F0F1
:100C70003093B5032093B4038091B4039091B503EE
:100C80006817790708F498C0C5FF0FC063E070E0EB
:100C90000E94D11A892B49F483E693E00E94550201
:100CA00060E270E080E00E941A04C4FF13C08091EB
:100CB000B4039091B5036AE070E00E94D11A892BC9
:100CC00049F483E493E00E94550260E170E080E023
:100CD0000E941A04C3FF1BC00E949B04E0917E0384
:100CE000F0E0EE0FFF1FEA5AFC4F2185328580911C
:100CF000A1039091A203821793074CF486E293E03C
:100D00000E94550268E070E080E00E941A04C2FF71
:100D10001BC00E949B04E0917D03F0E0EE0FFF1FDB
:100D2000EA5AFC4F2185328580919F039091A00360
:100D3000281739074CF489E093E00E94550264E0DB
:100D400070E080E00E941A04C1FF13C08091B403D8
:100D50009091B5036CE370E00E94D11A892B49F49D
:100D60008BEE92E00E94550262E070E080E00E940B
:100D70001A04C0FF13C08091B4039091B5036CE3D3
:100D800070E00E94D11A892B49F48DEC92E00E9408
:100D9000550261E070E080E00E941A048091B40383
:100DA0009091B50301969093B5038093B40304C06A
:100DB0001092AB031092AA038091AA039091AB0307
:100DC000DF91CF911F910F91089590E0FC01E754BE
:100DD000FD4F3491FC01EB55FD4F2491FC01EF5682
:100DE000FD4FE491EE2309F43BC0332339F1333056
:100DF00091F038F43130A9F0323001F584B58F7DAF
:100E000012C0373091F03830A1F03430B9F480910D
:100E100080008F7D03C0809180008F778093800059
:100E20000DC084B58F7784BD09C08091B0008F77E5
:100E300003C08091B0008F7D8093B000F0E0EE0F92
:100E4000FF1FE957FD4FA591B4918FB7F894EC912E
:100E5000611103C020952E2301C02E2B2C938FBF30
:100E60000895CF93DF9390E0FC01EB55FD4F249163
:100E7000FC01EF56FD4F8491882361F190E0880FCB
:100E8000991FFC01E358FD4FC591D491FC01E9572E
:100E9000FD4FA591B491611109C09FB7F894888165
:100EA000209582238883EC912E230BC0623061F45D
:100EB0009FB7F8943881822F809583238883EC91A3
:100EC0002E2B2C939FBF06C08FB7F894E8812E2B52
:100ED00028838FBFDF91CF9108958E3008F08E5018
:100EE0008770806480937C0080917A008064809316
:100EF0007A0080917A0086FDFCCF80917800209165
:100F0000790090E0922B08958F929F92AF92BF92BA
:100F1000CF92DF92EF92FF926B017C010E94F90168
:100F20004B015C01C114D104E104F104F1F00E9411
:100F3000F901DC01CB0188199909AA09BB09883E8E
:100F40009340A105B10570F321E0C21AD108E10870
:100F5000F10888EE880E83E0981EA11CB11CC11414
:100F6000D104E104F10419F7DDCFFF90EF90DF9099
:100F7000CF90BF90AF909F908F900895FC01538DBC
:100F8000448D252F30E0842F90E0821B930B541763
:100F900010F0CF96089501970895FC01918D828DF0
:100FA000981761F0828DDF01A80FB11D5D968C91BD
:100FB000928D9F5F9F73928F90E008958FEF9FEFC8
:100FC0000895FC01918D828D981731F0828DE80F84
:100FD000F11D858D90E008958FEF9FEF0895FC013E
:100FE000918D228D892F90E0805C9F4F821B91090B
:100FF0008F73992708958DEA92E00E94EF0721E010
:10100000892B09F420E0822F0895FC01848DDF01F3
:10101000A80FB11DA35ABF4F2C91848D90E001966B
:101020008F739927848FA689B7892C93A089B1895A
:101030008C9180648C93938D848D981306C0028864
:10104000F389E02D80818F7D80830895EF92FF9258
:101050000F931F93CF93DF93EC0181E0888F9B8DDB
:101060008C8D981305C0E889F989808185FD24C09D
:10107000F62E0B8D10E00F5F1F4F0F731127E02E20
:101080008C8DE8120CC00FB607FCFACFE889F989FD
:10109000808185FFF5CFCE010E940508F1CF8B8DB1
:1010A000FE01E80FF11DE35AFF4FF0820B8FEA8932
:1010B000FB898081806207C0EE89FF896083E889AF
:1010C000F98980818064808381E090E0DF91CF9115
:1010D0001F910F91FF90EF900895CF93DF93EC0154
:1010E000888D8823C9F0EA89FB89808185FD05C048
:1010F000A889B9898C9186FD0FC00FB607FCF5CF82
:10110000808185FFF2CFA889B9898C9185FFEDCFC9
:10111000CE010E940508E7CFDF91CF91089580E0CE
:1011200090E0892B29F00E94FB0781110C940000AC
:10113000089585ED8093BC008091BC0084FDFCCFB8
:1011400010928802089540910704262F30E0240F62
:10115000311D21323105DCF4209188022430C9F49C
:10116000FC0180E090E0861758F43091070421914B
:10117000DC01AB51BC4FA30FB11D2C930196F3CFF3
:1011800080910704680F6093070480E0089581E070
:10119000089582E008950895E0914102809140020F
:1011A000E81730F4F0E0EE5BFD4F808190E00895A9
:1011B0008FEF9FEF08959091410280914002981720
:1011C00050F4E92FF0E0EE5BFD4F208130E09F5FAF
:1011D0009093410202C02FEF3FEFC9010895809123
:1011E000400290E020914102821B91090895CF9224
:1011F000DF92EF92FF920F931F93CF93DF937C01C7
:10120000262F972F8A0180918902882391F0C62F7B
:10121000D72F6E01C40ED51ECC15DD0571F0699176
:10122000D701ED91FC910190F081E02DC701099566
:10123000F3CF642F822F0E94A308C801DF91CF91C2
:101240001F910F91FF90EF90DF90CF900895CF9373
:10125000DF931F92CDB7DEB76983209189022223E5
:10126000D1F02091AC02203240F021E030E0FC01CE
:101270003383228380E090E015C080918A02E82FBA
:10128000F0E0E557FD4F998190838F5F80938A024C
:101290008093AC0205C061E0CE0101960E94A308D4
:1012A00081E090E00F90DF91CF910895089580E064
:1012B00090E008950E94691BCF93DF93C091F401E1
:1012C000D091F501209759F00E94DD0DFE01E05A02
:1012D000FF4F608371838283938381E08E83DF91EC
:1012E000CF910895CF92DF92EF92FF920F931F93C9
:1012F000CF93DF93C82F8330F1F050F48130A1F009
:10130000823029F581E08093E4031092E30318C052
:101310008430C9F08530D9F41092E4031092E303CD
:1013200081E08093E20313C08093E4031092E3030F
:101330008093E2030CC01092E40381E08093E30306
:101340001092E20304C081E08093E403F7CF609140
:10135000E4038EE00E94E5066091E3038FE00E94C3
:10136000E5066091E20380E10E94E50661E070E03D
:1013700080E090E00E948407D4E6C12CD12C760155
:1013800003EC10E081E10E946D07BC01990F880B0E
:10139000990B0E9425199B01AC01C701B6010E945F
:1013A0000A186B017C01C8010197F1F7D15051F780
:1013B00020E030E048EC52E4C701B6010E947B18FF
:1013C000C150C53098F424E0C29FD0011124FD0122
:1013D000E259FE4F2081318142815381FD01E65A5D
:1013E000FE4FC080D180E280F38005C0C12CD12C9B
:1013F0007601A70196010E942A1AA70196010E9470
:101400000A18DF91CF911F910F91FF90EF90DF901D
:10141000CF9008951F920F920FB60F9211242F9321
:101420003F934F935F936F937F938F939F93AF936C
:10143000BF93EF93FF938DEA92E00E940508FF911E
:10144000EF91BF91AF919F918F917F916F915F913C
:101450004F913F912F910F900FBE0F901F901895B5
:101460001F920F920FB60F9211242F938F939F9379
:10147000EF93FF93E091BD02F091BE028081E09175
:10148000C302F091C40282FD12C090818091C60215
:101490008F5F8F732091C702821751F0E091C602CF
:1014A000F0E0E355FD4F958F8093C60201C0808127
:1014B000FF91EF919F918F912F910F900FBE0F9001
:1014C0001F9018951F920F920FB60F9211242F9311
:1014D0003F934F935F936F937F938F939F93AF93BC
:1014E000BF93EF93FF938091B900887F803609F412
:1014F0009CC068F5883209F45BC090F4803109F42F
:1015000054C038F4882309F4F6C0883009F44DC07B
:10151000F6C0883109F44CC0803209F45DC0EFC0D8
:10152000803409F468C048F4803309F455C0883326
:1015300009F0E5C080938602D8C0803509F44FC019
:10154000883509F45DC0883409F0D9C0D6C088391F
:1015500009F4C7C0A8F4883709F467C038F488369E
:1015600009F463C0803709F460C0C9C0883809F441
:10157000B8C0803909F45FC0803809F0C0C05BC0D2
:10158000803B09F486C038F4803A09F466C0883A92
:1015900009F47FC0B4C0803C09F4A7C0883C09F4BA
:1015A000A4C0883B09F48AC0AAC08091630210C01D
:1015B0009091850280918402981770F5E0918502E0
:1015C00081E08E0F80938502F0E0EC59FD4F808121
:1015D0008093BB0085EC86C0809386028EC0E0912C
:1015E000850281E08E0F809385028091BB00F0E040
:1015F000EC59FD4F808390918502809184026EC0EA
:10160000E091850281E08E0F809385028091BB007E
:10161000F0E0EC59FD4F80838091870281116DC00D
:1016200081E08093620284EA61C083E08093880253
:1016300010922B04CFCF80912B04803208F051C040
:10164000E0912B0481E08E0F80932B048091BB00EE
:10165000F0E0E55FFB4F8083BDCF85EC8093BC005D
:101660001092880280912B04803230F4E0912B0498
:10167000F0E0E55FFB4F108260912B0470E0E09199
:101680000904F0910A048BE094E0099510922B0470
:1016900036C084E0809388021092080410920704F8
:1016A000E0910504F09106040995809107048111E9
:1016B00005C081E0809307041092E503E0910804DF
:1016C00081E08E0F80930804F0E0EB51FC4F8081A5
:1016D0008093BB009091080480910704981708F448
:1016E00079CF85E88093BC000AC085EC8093BC006C
:1016F0001092880204C0109286020E949908FF91FD
:10170000EF91BF91AF919F918F917F916F915F9179
:101710004F913F912F910F900FBE0F901F901895F2
:101720000F931F930E94DD0D00910E0110910F0188
:101730002091100130911101601771078207930702
:1017400010F461E001C060E085E01F910F910C94FE
:10175000E506CF92DF92EF92FF92CF93DF938091D5
:101760000D01882399F06091000170910101809131
:101770000201909103010E94ED186B017C01EB01C5
:1017800061E089E00E943107209711F460E004C015
:10179000CF3FD10551F461E089E0DF91CF91FF9017
:1017A000EF90DF90CF900C94E506E2ECF2E0E4914C
:1017B000E330F9F048F4E130B9F0E230A1F584B556
:1017C000806284BDC8BC34C0E730E9F0E83019F16C
:1017D000E43049F580918000806280938000D0924F
:1017E0008B00C0928A0024C084B5806884BDC7BCC9
:1017F0001FC080918000806880938000D092890013
:10180000C092880015C08091B00080688093B000BD
:10181000C092B3000DC08091B00080628093B00090
:10182000C092B40005C0C038D1050CF0B4CFAECF23
:10183000DF91CF91FF90EF90DF90CF90089580914E
:101840000C01882311F061E001C060E087E00C9496
:10185000E5068091F60190911B02981709F45FC08C
:1018600060E0813099F187E00E94E50660E085E064
:101870000E94E50664E670E080E090E00E94840744
:101880000E94ED05892B49F485E00E947804BC0193
:101890006C7F772785E00E941A046AE070E080E0A0
:1018A00090E00E94840760E086E00E94E50664E61E
:1018B00070E080E090E00E94840780910C01882312
:1018C00051F161E087E00E94E50625C087E00E94B3
:1018D000E50660E085E00E94E50664E670E080E0F1
:1018E00090E00E94840761E086E00E94E5066AE0DD
:1018F00070E080E090E00E9484070E94ED05892B53
:10190000B1F685E00E9478048360682F70E085E07E
:101910000E941A04CCCF8091F60180931B02089597
:101920008F929F92AF92BF92CF92DF92EF92FF92EF
:101930000F931F93CF93DF9381E00E94720960930E
:101940001702709318028093190290931A0282E092
:101950000E947209DC01CB01B0588093130290936E
:101960001402A0931502B093160283E00E9472093C
:101970006093030270930402809305029093060221
:1019800084E00E9472096093FF01709300028093CB
:1019900001029093020285E00E9472096093FB01AC
:1019A0007093FC018093FD019093FE0160917F0391
:1019B00070918003072E000C880B990B0E9425194B
:1019C00060930B0270930C0280930D0290930E02B1
:1019D000C0900702D0900802E0900902F0900A023D
:1019E0006091830370918403072E000C880B990B80
:1019F0000E9425194B015C0120E030E04AE754E4E5
:101A0000C701B6010E940A189B01AC01C501B401CF
:101A10000E94D519181644F080920702909208028D
:101A2000A0920902B0920A0220E030E04AE754E4B2
:101A3000C701B6010E9409189B01AC016091070221
:101A4000709108028091090290910A020E94761812
:101A500087FF08C0C0920702D0920802E0920902F4
:101A6000F0920A02C4E6C12CD12C760103EC10E0FE
:101A700085E10E946D07BC01990F880B990B0E94AC
:101A800025199B01AC01C701B6010E940A186B0120
:101A90007C01C8010197F1F7C15051F720E030E017
:101AA00048EC52E4C701B6010E947B182EE634E3ED
:101AB00040E85EE30E942A1A2BE734E144EA51E44D
:101AC0000E9409186093F7017093F8018093F9015F
:101AD0009093FA01CAEBD3E0FE0184819581A6813F
:101AE000B78181939193A193B19323E0EE3DF207E7
:101AF000A1F78091130290911402A0911502B09168
:101B000016028093DE039093DF03A093E003B0936B
:101B1000E10360E070E0CB0129913991499159913D
:101B20000E940A1823E0C23ED207B1F720E030E05D
:101B300040E251E40E947B1860930F027093100200
:101B40008093110290931202DF91CF911F910F9118
:101B5000FF90EF90DF90CF90BF90AF909F908F90CD
:101B600008950895CF92DF92EF92FF920F931F9303
:101B7000CF93DF936C017A018B01C0E0D0E0CE15EA
:101B8000DF0589F0D8016D918D01D601ED91FC91B1
:101B90000190F081E02DC6010995892B11F47E0199
:101BA00002C02196ECCFC701DF91CF911F910F9119
:101BB000FF90EF90DF90CF9008952FB7F894609149
:101BC0002D0470912E0480912F04909130042FBF2A
:101BD00008951F920F920FB60F9211242F933F93E7
:101BE0008F939F93AF93BF9380912D0490912E0478
:101BF000A0912F04B091300430912C0423E0230FE6
:101C00002D3720F40196A11DB11D05C026E8230F34
:101C10000296A11DB11D20932C0480932D04909356
:101C20002E04A0932F04B093300480913C02909135
:101C30003D02A0913E02B0913F020196A11DB11D4F
:101C400080933C0290933D02A0933E02B0933F02EA
:101C5000BF91AF919F918F913F912F910F900FBEA8
:101C60000F901F9018951F920F920FB60F9211248C
:101C70002F933F934F935F936F937F938F939F9394
:101C8000AF93BF93EF93FF93E0911401F09115018F
:101C90000995FF91EF91BF91AF919F918F917F91A6
:101CA0006F915F914F913F912F910F900FBE0F90C9
:101CB0001F9018951F920F920FB60F9211242F9319
:101CC0003F934F935F936F937F938F939F93AF93C4
:101CD000BF93EF93FF93E0911201F09113010995E7
:101CE000FF91EF91BF91AF919F918F917F916F91F4
:101CF0005F914F913F912F910F900FBE0F901F90CA
:101D00001895789484B5826084BD84B5816084BD63
:101D100085B5826085BD85B5816085BD80916E0089
:101D2000816080936E0010928100809181008260BA
:101D300080938100809181008160809381008091F7
:101D400080008160809380008091B10084608093E6
:101D5000B1008091B00081608093B00080917A00E2
:101D6000846080937A0080917A00826080937A0008
:101D700080917A00816080937A0080917A008068F7
:101D800080937A001092C10080918100887F8560E5
:101D900080938100E091BD02F091BE0282E08083D9
:101DA000E091B902F091BA021082E091BB02F09189
:101DB000BC0280E180831092C502E091C102F091E3
:101DC000C20286E08083E091BF02F091C002808170
:101DD00080618083E091BF02F091C00280818860C1
:101DE0008083E091BF02F091C0028081806880838F
:101DF000E091BF02F091C00280818F7D808382ECF0
:101E000090E00E94550210924102109240021092FE
:101E10008A021092AC021092880281E080938702BD
:101E20001092620261E082E10E94E50661E083E1D6
:101E30000E94E5068091B9008E7F8093B900809161
:101E4000B9008D7F8093B90088E48093B80085E461
:101E50008093BC001092600310925F0310926203A3
:101E60001092610310926403109263031092660350
:101E70001092650361E08FEF0E94310761E08FEF00
:101E80000E94E50665E070E080E090E00E94840733
:101E900060E08FEF0E9431076AE070E080E090E040
:101EA0000E94840769E170E08BE00E941A048BE0D5
:101EB0000E9478040E94AD028BE00E94780449974A
:101EC00091F568E170E084E00E941A0460E470E03B
:101ED00085E00E941A0486E593E09093F5018093D3
:101EE000F40181E50E9478049093A9038093A803EC
:101EF00080E50E947804EC0189E50E947804807EE8
:101F00009927E5E095958795EA95E1F7CC70DD276F
:101F1000CC0FDD1F8C2B9D2B83599E4F9093A703D5
:101F20008093A60306C086E891E00E941E020E94EC
:101F3000300288E39FEF90939A038093990382EC99
:101F400091E090939E0380939D03109298031092CA
:101F5000970390939C0380939B0385E080935903A0
:101F60006FE970E086E00E941A04C0E020915903F6
:101F700030E0A0E4BFE10E94421B28EE33E040E0E5
:101F800050E00E941B1BE6E5F1E08FE190E07291CA
:101F900062916B01770FEE08FF082C153D054E0589
:101FA0005F0534F08F706C2F607FC62FC82B02C086
:101FB000019769F7C0676C2F70E087E00E941A04F0
:101FC00088E29AE09093A2038093A10388E00E94A4
:101FD0007804C82F8091A8039091A903092E000CC2
:101FE000AA0BBB0B48E25AE060E070E09A01AB013B
:101FF000281B390B4A0B5B0BA8EEB3E00E94581B61
:102000002091A6033091A703032E000C440B550B1F
:102010000E941B1BDA01C90154E0B595A79597955D
:1020200087955A95D1F721E0280F622F70E08AE05A
:102030000E941A04C06C6C2F70E088E00E941A04A1
:1020400082E49EE09093A00380939F0388E00E9427
:102050007804C82F8091A8039091A903092E000C41
:10206000AA0BBB0B42E45EE060E070E09A01AB01BA
:10207000281B390B4A0B5B0BA8EEB3E00E94581BE0
:102080002091A6033091A703032E000C440B550B9F
:102090000E941B1BDA01C90164E0B595A7959795CD
:1020A00087956A95D1F7682F70E089E00E941A043D
:1020B000C0636C2F70E088E00E941A041092AF0396
:1020C0001092AE0384EE9CE09093A4038093A3034C
:1020D00084E18093A50384E690E090939603809337
:1020E000950381E08093AC0361E08EE00E943107AC
:1020F00061E08FE00E94310761E080E10E943107DA
:1021000060E081E10E94310761E086E00E943107D2
:1021100061E089E00E94310761E087E00E943107B9
:1021200060E086E00E94E50660E089E00E94E50646
:1021300060E087E00E94E5060E94900C2EE03DE200
:1021400042EB5DE3609117027091180280911902D1
:1021500090911A020E942A1A20E030E04AE754E4E3
:102160000E940918609308017093090180930A0185
:1021700090930B010E94DD0D60932502709326025F
:10218000809327029093280222242394312C0E94CA
:10219000900C20E030E04AE756E46091170270911D
:1021A00018028091190290911A020E94D5191816EE
:1021B00004F581E08093F6010E94290C10920C0135
:1021C0000E941F0C10920D010E94A90B0E94D717AC
:1021D0008DEC90E00E9455026091170270911802F8
:1021E0008091190290911A0242E050E00E94ED02A3
:1021F000FFCFC0901302D0901402E0901502F0902F
:10220000160220E030E44CE955E4C701B6010E9413
:10221000D519181614F40E94E91720E030EC4AE5AD
:1022200056ECC701B6010E94761887FDF4CF809066
:10223000FB019090FC01A090FD01B090FE0120E018
:1022400030EC4AE556E4C501B4010E94D5191816D0
:10225000FCF410920C010E941F0C10920D010E94C0
:10226000A90B1092F6010E94290C0E94D71788EE44
:1022700090E00E9455026091FB017091FC018091F9
:10228000FD019091FE0142E050E00E94ED02FFCF7F
:1022900020E030E543EC56E46091030270910402C3
:1022A00080910502909106020E94D5191816FCF43F
:1022B00010920D010E94A90B10920C010E941F0C9C
:1022C0001092F6010E94290C0E94D71785E091E038
:1022D0000E945502609103027091040280910502F0
:1022E0009091060242E050E00E94ED02FFCF409044
:1022F000FF0150900002609001027090020220E005
:1023000030E44CE955E4C301B2010E94D519181616
:10231000FCF410920D010E94A90B10920C010E9476
:102320001F0C1092F6010E94290C0E94D71780E220
:1023300091E00E9455026091FF017091000280912E
:1023400001029091020242E050E00E94ED02FFCFB4
:10235000A7019601C301B2010E940A182091070249
:10236000309108024091090250910A020E940A1815
:10237000A50194010E94091820E030E040EA51E4F0
:102380000E940A18609331027093320280933302E4
:102390009093340280E00E9487050E949B04809104
:1023A000560391E0909389028093AB0210928A02C7
:1023B0001092AC026CE28AE493E00E9427090E942A
:1023C000BD0362E0809156030E94340410924102E2
:1023D00080934002823009F080C08AE493E00E943A
:1023E000DB08EC018AE493E00E94DB08BE016F7316
:1023F0007727762F6627862B972BBC01990F880BA2
:10240000990B0E94251921E835E943EC5EE30E940F
:102410002A1A0E94ED18072E000C880B990B0E94B7
:1024200025196B017C0120E030E44CE156E40E9468
:102430002A1A4B015C01A701960160E070E48EE46A
:1024400095E40E9409189B01AC01C501B4010E94EA
:102450007B180E94F4180E94231920E030E44CE11C
:1024600056E40E947B180E94E2196B017C01809166
:102470005A0390915B03BC01990F880B990B0E9442
:1024800025199B01AC0160E070E080E89FE30E94A9
:102490007B18A70196010E942A1A2FE03FEC4BE51A
:1024A0005BE30E940A189B01AC0160E070E080E8E9
:1024B0009FE30E947B1823E333E948E853E40E943A
:1024C000091820E030E040E251E40E942A1A0E94FC
:1024D000ED1870938803609387030E94DD0D6B01F4
:1024E0007C018090B0039090B103A090B203B090B3
:1024F000B30380915D0390915E0365E070E00E94FC
:10250000E51AEB010E94ED05892BD9F5C701B6014B
:10251000681979098A099B0928EE33E040E050E008
:102520000E94F91A8091AE039091AF03092E000C1E
:10253000AA0BBB0B281739074A075B0714F1E09178
:102540007D03F0E0EE0FFF1FEA5AFC4F8185928574
:102550002091A3033091A4032817390794F4E09144
:102560007E03F0E0EE0FFF1FEA5AFC4F2185328513
:10257000821B930B2091A50330E0281739070CF438
:102580005CC18091AD038823B9F000E010E0DD2745
:102590000C171D077CF48DEB91E00E941E020F5F6B
:1025A0001F4FC8010E94AD0260E070E0802F0E94C2
:1025B0001A04EECF1092AD030E94DD0DC0902502EB
:1025C000D0902602E0902702F09028029701860121
:1025D00008511C4F2F4F3F4F061717072807390781
:1025E00008F042C00E94DD0D6C197D098E099F091B
:1025F0000E94231920E030E04AE754E40E947B184F
:10260000209113023091140240911502509116024C
:102610000E942A1A20E030E041E655E40E947B182F
:1026200020E030E048EB51E40E947B189B01AC01B4
:10263000609108017091090180910A0190910B014C
:102640000E940A18609308017093090180930A019F
:1026500090930B010E94DD0D60932502709326027A
:10266000809327029093280220E030EA4CE056E461
:1026700060910702709108028091090290910A020C
:102680000E947B18209104013091050140910601C0
:10269000509107010E940A186B017C0160930401AC
:1026A0007093050180930601909307014090FF010C
:1026B0005090000260900102709002028090FB0135
:1026C0009090FC01A090FD01B090FE0120E030E070
:1026D00040EF51E4C501B4010E940A189B01AC010E
:1026E000C301B2010E94D51987FD02C082E011C06A
:1026F00020E030E040EF51E4C501B4010E94091828
:102700009B01AC01C301B2010E947618181624F097
:1027100081E08093370202C010923702C0913702E5
:10272000C13089F060F0C230D1F520E030E048ECF3
:1027300052E4C701B6010E94761887FF22C081E0EB
:102740008093F6012CC020E030E040E752E4609135
:1027500008017091090180910A0190910B010E947A
:10276000D519181664F7A3019201C501B4010E949E
:10277000091820E030E048E453E40E94D51987FDB1
:1027800003C01092F6010BC020E030E040E752E4B5
:10279000C701B6010E94D51918168CF2F2CF8091AC
:1027A000F601811110C010923502809136028430FA
:1027B00029F0C11103C01092360210C0C13071F46B
:1027C000C09336020BC010923602C11103C01092A2
:1027D000350204C0C13011F4C09335020E94290CA7
:1027E000C0900302D0900402E0900502F09006022F
:1027F000C0911B02C11109C06091170270911802AB
:102800008091190290911A0208C060910B02709198
:102810000C0280910D0290910E0220E030E048EC15
:1028200052E40E940A189B01AC01C701B6010E9444
:10283000D51918160CF08CC003C281E08093AD034B
:1028400006E513E0C12CD12C7601C3943E01772418
:10285000C6010197861597050CF0AECEE0917E0378
:10286000F0E0EE0FFF1FEA5AFC4F0184F285E02DE5
:10287000A090A503B12CC0E020E030E0D901AA0F60
:10288000BB1FA00FB11F19968D919C911A978E1B9B
:102890009F0BA816B906D4F4C101022E01C0880FFF
:1028A0000A94EAF7AC2FA82B6A2F70E08C2F90E0E7
:1028B000AB01440F551F48235923452B39F4880F8A
:1028C000991F86239723892B09F4CA2F2F5F3F4F27
:1028D0002530310599F68EE991E00E941E024AE00A
:1028E000C701B6010E9461028EEA91E00E941E02B9
:1028F000D0E010921C0248E0842E912C50E8A52EC6
:10290000B12CC5018C239D238A159B0519F064E821
:1029100071E002C062E871E08CE192E00E946E1BFF
:10292000B594A79481E0881A910859F78CE192E058
:102930000E941E020E943002BE018C2D0E941A04C9
:102940008FEFC81AD80AE80AF80A065F1F4F80CF2F
:1029500010920D0180913702811103C0109236024E
:1029600004C0813011F4809336020E941F0C0E9433
:10297000A90B0E94DD0D00913802109139022091BF
:102980003A0230913B020C501E4F2F4F3F4F06171B
:1029900017072807390708F04EC10E94DD0D609324
:1029A00038027093390280933A0290933B020E945E
:1029B00030020E9430020E9430020E9430020E94C7
:1029C00030020E94300280E692E00E94550289E5C2
:1029D00092E00E9434020E94DD0D4AE00E946102F2
:1029E0000E94300287E492E00E94340280911B0230
:1029F00090E00E94AD028BE392E00E94340280914D
:102A000037020E94DC0280E392E00E94340280914F
:102A100036020E94DC0285E292E00E94340280913C
:102A200035020E94DC028AE192E00E943402809129
:102A30000D0190E00E94AD028FE092E00E9434020E
:102A400080910C0190E00E94AD0286E092E00E942D
:102A50003402609108017091090180910A019091FE
:102A60000B0149E050E00E94ED028DEF91E00E94E1
:102A700034026091040170910501809106019091EA
:102A8000070149E050E00E94ED0280EE91E00E94D3
:102A9000550289ED91E00E94340260911702709115
:102AA00018028091190290911A0242E050E00E94AF
:102AB000ED0282ED91E00E94340260911302709168
:102AC0001402809115029091160242E050E00E949B
:102AD000ED0283EC91E00E94340260910F0270914C
:102AE0001002809111029091120242E050E00E9487
:102AF000ED028CEB91E00E94340260910B02709128
:102B00000C0280910D0290910E0242E050E00E9472
:102B1000ED0285EB91E00E94340260910702709112
:102B200008028091090290910A0242E050E00E945E
:102B3000ED028EEA91E00E943402609103027091EE
:102B40000402809105029091060242E050E00E944A
:102B5000ED0287EA91E00E9434026091FF017091DA
:102B60000002809101029091020242E050E00E9436
:102B7000ED0280EA91E00E9434026091FB017091C5
:102B8000FC018091FD019091FE0142E050E00E9425
:102B9000ED0282E991E00E9434026091F7017091A8
:102BA000F8018091F9019091FA0142E050E00E9411
:102BB000ED0287ED91E00E941E022091FF0130910D
:102BC000000240910102509102026091FB0170915C
:102BD000FC018091FD019091FE010E94091842E0E4
:102BE00050E00E94ED0280E891E00E943402609182
:102BF000310270913202809133029091340242E0AE
:102C000050E00E94ED0284E691E00E94550287E5C3
:102C100091E00E9434026091000170910101809165
:102C200002019091030142E050E00E94ED028BE32B
:102C300091E00E9455020E94900B0E948F08A7CA43
:102C4000C1113CC181E080930D01C0913602C630B4
:102C500009F44CC0C430B9F120E038E543E656E44D
:102C600060911702709118028091190290911A02D6
:102C70000E947618181614F083E036C0C53009F5A6
:102C800020E030E040EA51E460910F0270911002C0
:102C900080911102909112020E947618181674F019
:102CA00080E090E0A8ECB2E48093080190930901E1
:102CB000A0930A01B0930B0186E016C0C0933602C0
:102CC00015C0C43081F420E030E040EA51E4609166
:102CD0000F027091100280911102909112020E94D5
:102CE00076181816ECF684E080933602809136024E
:102CF000843099F180F4833009F037CE80E090E0A1
:102D0000AFE7B3E48093000190930101A093020127
:102D1000B09303012ACE8530E9F1863009F025CE43
:102D200080902D0290902E02A0902F02B090300241
:102D300020E030E04AE754E46091170270911802F5
:102D40008091190290911A020E947B189B01AC019C
:102D500060E070E084E591E439C080902D029090AD
:102D60002E02A0902F02B090300220E030E04AE71F
:102D700054E46091170270911802809119029091A9
:102D80001A020E947B189B01AC0166E676E68AE691
:102D900091E41CC080902D0290902E02A0902F02F2
:102DA000B090300220E030E04AE754E4609117022E
:102DB000709118028091190290911A020E947B185A
:102DC0009B01AC0160E070E088E791E40E94091883
:102DD0006B017C0120E030E040E85FE36091290274
:102DE00070912A0280912B0290912C020E947618F9
:102DF00087FF08C0A7019601C501B4010E940A1807
:102E00004B015C012DEC3CEC4CE45DE3C701B601E9
:102E10000E942A1A20E030E040E05FE30E940A1896
:102E20006B017C012DEC3CEC4CEC5DE3C501B40185
:102E30000E942A1A9B01AC01C701B6010E940A1820
:102E40006B017C0120E030E040E85FE30E94D5198F
:102E500087FF0DC020E030E0A901C701B6010E9444
:102E6000761887FF0AC0C12CD12C760106C0C12C70
:102E7000D12C90E8E92E9FE3F92EC0922902D0923E
:102E80002A02E0922B02F0922C0280922D02909264
:102E90002E02A0922F02B092300220E030E04FE7E5
:102EA00053E4C701B6010E942A1A6093000170938F
:102EB0000101809302019093030157CD81E080933B
:102EC0000D0182E08093350250CDEDEAF2E01382ED
:102ED000128288EE93E0A0E0B0E084839583A6831D
:102EE000B7832AE331E03183208325EC30E0358756
:102EF000248724EC30E03787268720EC30E0318BC4
:102F0000208B21EC30E0338B228B22EC30E0358BB0
:102F1000248B26EC30E0378B268B118E128E138E8D
:102F2000148EEAE4F3E01382128284839583A683ED
:102F3000B7838CE491E091838083E6E5F3E08BE650
:102F40009DE09583848381E086832EE130E0309399
:102F50009603209395031092AB031092AA0310924C
:102F6000AC031092AD0328E037E03093AF03209319
:102F7000AE031092B0031092B1031092B2031092FC
:102F8000B3031092B5031092B4031092B6031092DB
:102F9000B7031092B8031092B903828388E190E0DE
:102FA0009183808385E090E09087878308950E94D5
:102FB000DD0DDC01CB0180569947AE4FBF4F8093AA
:102FC0000E0190930F01A0931001B09311010C9486
:102FD000900B81E08093F6010E94290C10920C0165
:102FE0000E941F0C10920D010E94A90B0E94D7177E
:102FF00080E893E00E9455026091130270911402E0
:10300000809115029091160242E050E00E94ED027C
:10301000FFCF5058BB27AA270E9421180C949B1958
:103020000E948D1938F00E94941920F039F49F3FC6
:1030300019F426F40C948A190EF4E095E7FB0C942D
:103040008419E92F0E94AC1958F3BA176207730765
:103050008407950720F079F4A6F50C94CE190EF4A8
:10306000E0950B2EBA2FA02D0B01B90190010C0198
:10307000CA01A0011124FF27591B99F0593F50F4B0
:10308000503E68F11A16F040A22F232F342F442708
:10309000585FF3CF469537952795A795F040539500
:1030A000C9F77EF41F16BA0B620B730B840BBAF0D0
:1030B0009150A1F0FF0FBB1F661F771F881FC2F73B
:1030C0000EC0BA0F621F731F841F48F4879577954F
:1030D0006795B795F7959E3F08F0B0CF9395880F09
:1030E00008F09927EE0F9795879508950E9460192B
:1030F00008F481E008950E948F180C949B190E9497
:10310000941958F00E948D1940F029F45F3F29F07E
:103110000C94841951110C94CF190C948A190E94A3
:10312000AC1968F39923B1F3552391F3951B550B13
:10313000BB27AA2762177307840738F09F5F5F4F8A
:10314000220F331F441FAA1FA9F335D00E2E3AF0C9
:10315000E0E832D091505040E695001CCAF72BD0E1
:10316000FE2F29D0660F771F881FBB1F2617370732
:103170004807AB07B0E809F0BB0B802DBF01FF2764
:1031800093585F4F3AF09E3F510578F00C948419A4
:103190000C94CF195F3FE4F3983ED4F3869577956E
:1031A0006795B795F7959F5FC9F7880F911D96951D
:1031B000879597F90895E1E0660F771F881FBB1F79
:1031C000621773078407BA0720F0621B730B840B26
:1031D000BA0BEE1F88F7E09508950E94F4186894E2
:1031E000B1110C94CF1908950E94B41988F09F571B
:1031F00098F0B92F9927B751B0F0E1F0660F771F1B
:10320000881F991F1AF0BA95C9F714C0B13091F010
:103210000E94CE19B1E008950C94CE19672F782F33
:103220008827B85F39F0B93FCCF3869577956795D5
:10323000B395D9F73EF490958095709561957F4F41
:103240008F4F9F4F0895E89409C097FB3EF49095E7
:103250008095709561957F4F8F4F9F4F9923A9F06F
:10326000F92F96E9BB279395F695879577956795FE
:10327000B795F111F8CFFAF4BB0F11F460FF1BC042
:103280006F5F7F4F8F4F9F4F16C0882311F096E9D5
:1032900011C0772321F09EE8872F762F05C0662383
:1032A00071F096E8862F70E060E02AF09A95660F3C
:1032B000771F881FDAF7880F9695879597F90895F5
:1032C000990F0008550FAA0BE0E8FEEF1616170637
:1032D000E807F907C0F012161306E407F50798F09F
:1032E000621B730B840B950B39F40A2661F0232BB8
:1032F000242B252B21F408950A2609F4A140A69534
:103300008FEF811D811D089597F99F6780E870E018
:1033100060E008959FEF80EC089500240A9416164B
:10332000170618060906089500240A9412161306B3
:10333000140605060895092E0394000C11F4882341
:1033400052F0BB0F40F4BF2B11F460FF04C06F5F5D
:103350007F4F8F4F9F4F089557FD9058440F551F33
:1033600059F05F3F71F04795880F97FB991F61F007
:103370009F3F79F087950895121613061406551F7E
:10338000F2CF4695F1DF08C0161617061806991FEA
:10339000F1CF86957105610508940895E894BB27DF
:1033A00066277727CB0197F908950E94601908F4E2
:1033B0008FEF089516F00C949C1A0C948A19689457
:1033C0000C9484190E94B419A8F39923C1F3AEF3A5
:1033D000DF93CF931F930F93FF92C92FDD2788238D
:1033E0002AF02197660F771F881FDAF720E030E078
:1033F00040E85FEB9FE3883920F0803E38F021966B
:103400008F770E940A18E8E6F0E004C00E940A18CC
:10341000E5E9F0E00E94AA1A8B01BE01EC01FB2E47
:103420006F5771097595771F880B990B0E942519A5
:1034300028E132E741E35FE30E943D1AAF2D980196
:10344000AE01FF900F911F91CF91DF910E94211843
:103450000C949B190E943D1A0C949B190E948D1983
:1034600038F00E94941920F0952311F00C948419DF
:103470000C948A1911240C94CF190E94AC1970F382
:10348000959FC1F3950F50E0551F629FF001729F09
:10349000BB27F00DB11D639FAA27F00DB11DAA1F18
:1034A000649F6627B00DA11D661F829F2227B00D65
:1034B000A11D621F739FB00DA11D621F839FA00DF0
:1034C000611D221F749F3327A00D611D231F849F40
:1034D000600D211D822F762F6A2F11249F57504097
:1034E0009AF0F1F088234AF0EE0FFF1FBB1F661F12
:1034F000771F881F91505040A9F79E3F510580F0DB
:103500000C9484190C94CF195F3FE4F3983ED4F3E4
:10351000869577956795B795F795E7959F5FC1F77E
:10352000FE2B880F911D9695879597F908950E9417
:103530006019880B990B08959F3F31F0915020F44A
:10354000879577956795B795880F911D969587957F
:1035500097F90895DF93CF931F930F93FF92EF9204
:10356000DF927B018C01689406C0DA2EEF010E9485
:103570003D1AFE01E894A59125913591459155910B
:10358000A6F3EF010E942118FE019701A801DA9429
:1035900069F7DF90EF90FF900F911F91CF91DF912E
:1035A0000895AA1BBB1B51E107C0AA1FBB1FA6178A
:1035B000B70710F0A61BB70B881F991F5A95A9F7DC
:1035C00080959095BC01CD01089597FB072E16F4C8
:1035D000009407D077FD09D00E94D11A07FC05D0CE
:1035E0003EF4909581959F4F0895709561957F4F1A
:1035F0000895A1E21A2EAA1BBB1BFD010DC0AA1F34
:10360000BB1FEE1FFF1FA217B307E407F50720F04B
:10361000A21BB30BE40BF50B661F771F881F991FC6
:103620001A9469F760957095809590959B01AC010F
:10363000BD01CF010895052E97FB1EF400940E9452
:10364000321B57FD07D00E94F91A07FC03D04EF435
:103650000C94321B50954095309521953F4F4F4F1C
:103660005F4F089590958095709561957F4F8F4F2E
:103670009F4F08950E94421B332312F48A1B9B0B19
:103680000C94531BA29FB001B39FC001A39F700D68
:10369000811D1124911DB29F700D811D1124911D5A
:1036A00008950E94421BB7FF0895821B930B089553
:1036B0000E94421BA59F900DB49F900DA49F800D6A
:1036C000911D11240895EE0FFF1F0590F491E02D38
:1036D000099481E090E0F8940C94791BFB01DC01E3
:1036E0000D900020E9F7119701900D920020E1F76D
:0636F0000895F894FFCFDD
:1036F60000007F430000C4420000C4420101E80309
:103706000000B10DB10D110016001C0021002700AC
:103716002C00320038003D00430048004E005300A4
:1037260059005E006400000000002608B20DBE07C6
:103736006D08EF07CD07E107000000002709F7082D
:103746005709CB08EF08DB08CC088BFD37C24E655E
:10375600ECC50069A743A47CF5C5584B0046CCDDF3
:103766009D4103097941773E9E4163EE7E41E78C98
:1037760084C131003000424D5320636F6D6D756E0C
:1037860069636174696F6E206572726F720053654A
:103796007474696E672043454C4C42414C0020725C
:1037A6006567697374657220746F3A2000436C65AF
:1037B6006172696E6720526567697374657220432A
:1037C600454C4C42414C006C645F69202D2070765C
:1037D6005F693A20000D0A006E616E00696E660030
:0437E6006F76660094
:00000001FF
