:100000000C9417010C943F010C943F010C943F0198
:100010000C943F010C943F010C943F010C943F0160
:100020000C943F010C943F010C943F010C943F0150
:100030000C943F010C943F010C943F010C943F0140
:100040000C94F4050C943F010C9464060C943E0649
:100050000C943F010C943F010C943F010C943F0120
:100060000C943F010C943F014C41204F56455243A4
:10007000555252454E542E2E2E2053544F50504917
:100080004E47004C41204F564552564F4C54414725
:10009000452E2E2E2053544F5050494E47004C4F62
:1000A0004144204F56455243555252454E542E2EF0
:1000B0002E2053544F5050494E47005056204F5613
:1000C0004552564F4C544147452E2E2E2053544FE7
:1000D0005050494E47005056204F564552435552B6
:1000E00052454E542E2E2E2053544F5050494E47B9
:1000F000004D454153555245204552524F520064E0
:100100007574795F6379636C653A20002D2D2D2D10
:100110002D2D2D2D2D2D2D2D2D2D2D2D2D2D2D2D0F
:100120002D2D4F54484552006C645F693A20007091
:10013000765F693A200070765F763A20006C615FE6
:10014000693A20006C615F763A20002D2D2D2D2D0F
:100150002D2D2D2D2D2D2D2D2D2D2D2D2D2D2D2DCF
:100160002D4D4541535552454D454E5453006C64F9
:100170005F73746174653A200070765F73746174A4
:10018000653A20006C695F73746174653A20006C95
:10019000615F73746174653A20007379735F73747F
:1001A0006174653A200063757272656E74204261F5
:1001B00074746572793A200054696D653A20002D97
:1001C0002D2D2D2D2D2D2D2D2D2D2D2D2D2D2D2D5F
:1001D0002D2D2D2D2D53544154455300000000006A
:1001E000240027002A0000000000250028002B0022
:1001F00004040404040404040202020202020303CD
:1002000003030303010204081020408001020408D4
:100210001020010204081020000000080002010064
:10022000000304070000000000000000870B1124F9
:100230001FBECFEFD8E0DEBFCDBF11E0A0E0B1E040
:10024000ECE4FCE102C005900D92AA32B107D9F7A7
:1002500021E0AAE2B1E001C01D92AA3FB207E1F796
:1002600011E0C7E1D1E004C02197FE010E94190E00
:10027000C631D107C9F70E9455070C94240E0C947F
:1002800000000F931F93CF93DF938C01C0E0D0E069
:10029000F801EC0FFD1F6491662371F0E0915D01A0
:1002A000F0915E010190F081E02D8DE591E00995DE
:1002B000892B11F02196ECCFCE01DF91CF911F91C8
:1002C0000F910895E0915D01F0915E010190F08140
:1002D000E02D682F8DE591E0099490E0FC01E85E47
:1002E000FD4F3491FC01EC5FFD4F2491FC01E05186
:1002F000FE4FE491EE2309F43BC0332339F1333050
:1003000091F038F43130A9F0323001F584B58F7DA9
:1003100012C0373091F03830A1F03430B9F4809108
:1003200080008F7D03C0809180008F778093800054
:100330000DC084B58F7784BD09C08091B0008F77E0
:1003400003C08091B0008F7D8093B000F0E0EE0F8D
:10035000FF1FEA51FE4FA591B4918FB7F894EC912D
:10036000611103C020952E2301C02E2B2C938FBF2B
:100370000895CF93DF9390E0FC01EC5FFD4F249153
:10038000FC01E051FE4F8491882361F190E0880FD9
:10039000991FFC01E452FE4FC591D491FC01EA5132
:1003A000FE4FA591B491611109C09FB7F89488815F
:1003B000209582238883EC912E230BC0623061F458
:1003C0009FB7F8943881822F809583238883EC919E
:1003D0002E2B2C939FBF06C08FB7F894E8812E2B4D
:1003E00028838FBFDF91CF9108958E3008F08E5013
:1003F0008770806480937C0080917A008064809311
:100400007A0080917A0086FDFCCF8091780020915F
:10041000790090E0922B08953FB7F89480915901AC
:1004200090915A01A0915B01B0915C0126B5A89B07
:1004300005C02F3F19F00196A11DB11D3FBFBA2F76
:10044000A92F982F8827820F911DA11DB11DBC01D6
:10045000CD0142E0660F771F881F991F4A95D1F79B
:1004600008958F929F92AF92BF92CF92DF92EF92B8
:10047000FF926B017C010E940C024B015C01C114D4
:10048000D104E104F104F1F00E940C02DC01CB0183
:1004900088199909AA09BB09883E9340A105B105AD
:1004A00070F321E0C21AD108E108F10888EE880E45
:1004B00083E0981EA11CB11CC114D104E104F10415
:1004C00019F7DDCFFF90EF90DF90CF90BF90AF9006
:1004D0009F908F9008952FB7F89460915501709177
:1004E000560180915701909158012FBF0895CF92E6
:1004F000DF92EF92FF920F931F93CF93DF936C01E4
:100500007A018B01C0E0D0E0CE15DF0589F0D8017B
:100510006D918D01D601ED91FC910190F081E02D5E
:10052000C6010995892B11F47E0102C02196ECCFFA
:10053000C701DF91CF911F910F91FF90EF90DF9056
:10054000CF900895089580E090E00895FC01538DC8
:10055000448D252F30E0842F90E0821B930B54179D
:1005600010F0CF96089501970895FC01918D828D2A
:10057000981761F0828DDF01A80FB11D5D968C91F7
:10058000928D9F5F9F73928F90E008958FEF9FEF02
:100590000895FC01918D828D981731F0828DE80FBE
:1005A000F11D858D90E008958FEF9FEF0895FC0178
:1005B000918D228D892F90E0805C9F4F821B910945
:1005C0008F73992708958DE591E00E94D70221E06D
:1005D000892B09F420E0822F0895FC01848DDF012E
:1005E000A80FB11DA35ABF4F2C91848D90E00196A6
:1005F0008F739927848FA689B7892C93A089B18995
:100600008C9180648C93938D848D981306C002889E
:10061000F389E02D80818F7D80830895EF92FF9292
:100620000F931F93CF93DF93EC0181E0888F9B8D15
:100630008C8D981305C0E889F989808185FD24C0D7
:10064000F62E0B8D10E00F5F1F4F0F731127E02E5A
:100650008C8DE8120CC00FB607FCFACFE889F98937
:10066000808185FFF5CFCE010E94ED02F1CF8B8D09
:10067000FE01E80FF11DE35AFF4FF0820B8FEA896C
:10068000FB898081806207C0EE89FF896083E889E9
:10069000F98980818064808381E090E0DF91CF914F
:1006A0001F910F91FF90EF900895CF93DF93EC018E
:1006B000888D8823C9F0EA89FB89808185FD05C082
:1006C000A889B9898C9186FD0FC00FB607FCF5CFBC
:1006D000808185FFF2CFA889B9898C9185FFEDCF04
:1006E000CE010E94ED02E7CFDF91CF91089580E027
:1006F00090E0892B29F00E94E30281110C94000004
:1007000008950F931F930E946B02009104011091B2
:1007100005012091060130910701601771078207DA
:10072000930710F461E001C060E085E01F910F9134
:100730000C946D0180914A01882311F061E001C0A1
:1007400060E087E00C946D01CF93C09131018091FE
:100750004F018C1709F453C060E087E0C13039F1D4
:100760000E946D0160E085E00E946D0164E670E02A
:1007700080E090E00E9431026AE070E080E090E06A
:100780000E94310260E086E00E946D0164E670E044
:1007900080E090E00E94310280914A01882321F09C
:1007A00061E087E00E946D0110924C0126C00E941A
:1007B0006D0160E085E00E946D0164E670E080E01C
:1007C00090E00E94310261E086E00E946D016AE0E3
:1007D00070E080E090E00E94310264E670E080E02A
:1007E00090E00E94310280914A01882321F061E06B
:1007F00087E00E946D0110924D01C0934F01CF918F
:100800000895CF92DF92EF92FF920F931F93CF93B1
:10081000DF93C82F8330F1F050F48130A1F08230A3
:1008200029F581E080932C0110922B0118C08430AF
:10083000C9F08530D9F410922C0110922B0181E07F
:1008400080932A0113C080932C0110922B01809376
:100850002A010CC010922C0181E080932B01109290
:100860002A0104C081E080932C01F7CF60912C0114
:100870008EE00E946D0160912B018FE00E946D015E
:1008800060912A0180E10E946D0161E070E080E0EA
:1008900090E00E943102D4E6C12CD12C760103EC09
:1008A00010E081E10E94F501BC01990F880B990BC2
:1008B0000E94D00C9B01AC01C701B6010E94B50B90
:1008C0006B017C01C8010197F1F7D15051F720E08D
:1008D00030E048EC52E4C701B6010E94260CC1503A
:1008E000C53028F42FE632E143E85AE303C020E0A4
:1008F00030E0A9010E94850D20E030E0A9010E94AE
:10090000B50BDF91CF911F910F91FF90EF90DF908A
:10091000CF900895009769F0FC0101900020E9F75D
:100920003197AF01481B590BBC018DE591E00C9448
:10093000770280E090E008958AE191E00C948A04C7
:10094000CF93DF930E944101EC010E949C048C0F25
:100950009D1FDF91CF9108958F929F92AF92BF928A
:100960000F931F93CF93DF93CDB7DEB7A1970FB649
:10097000F894DEBF0FBECDBF19A2423008F44AE0A2
:100980008E010F5D1F4F842E912CA12CB12CA5013F
:1009900094010E94F70DE62FB901CA010150110917
:1009A000EA3014F4E05D01C0E95CD801EC93232B3C
:1009B000242B252B61F7C8010E948A04A1960FB64B
:1009C000F894DEBF0FBECDBFDF91CF911F910F9185
:1009D000BF90AF909F908F900895CF92DF92EF924B
:1009E000FF92CF93DF936C01990FEE08FF08F7FE9B
:1009F00012C08DE20E946201EC0166277727CB01CD
:100A00006C197D098E099F094AE00E94AC047C01A3
:100A1000EC0EFD1E06C04AE0C701B6010E94AC0400
:100A20007C010E949C048E0D9F1DDF91CF91FF9051
:100A3000EF90DF90CF900895CF93DF93682F70E011
:100A400080E090E04AE00E94AC04EC010E949C042B
:100A50008C0F9D1FDF91CF9108954F925F926F92FF
:100A60007F928F929F92AF92BF92CF92DF92EF923E
:100A7000FF926B017C019B01AC010E94F20D882367
:100A800019F08DE191E01AC046015701E894B7F8DA
:100A90002FEF3FEF4FE75FE7C501B4010E94F20D72
:100AA000811110C02FEF3FEF4FE75FE7C501B401A1
:100AB0000E94210C181634F481E291E00E948A040D
:100AC0007C017FC02FEF3FEF4FE75FE4C701B60126
:100AD0000E94800D18161CF485E291E0EFCF2FEFF5
:100AE0003FEF4FE75FECC701B6010E94210C87FD85
:100AF000F3CF20E030E0A901C701B6010E94210C2C
:100B000087FF09C08DE20E9462015C01F7FAF09450
:100B1000F7F8F09402C0A12CB12C2AE037ED43EA9B
:100B20005BE3C701B6010E94B50B2B013C010E949B
:100B30009F0C6B017C010E94CE0C9B01AC01C30198
:100B4000B2010E94B40B2B013C014AE0C701B6017F
:100B50000E94AC047C01EA0CFB1C8EE20E94620144
:100B6000E80EF91E20E030E040E251E4C301B2019A
:100B70000E94850D2B013C010E949F0C4B01A12C72
:100B8000B12C4AE0C501B4010E94AC04E80EF91E84
:100B9000C501B4010E94CE0C9B01AC01C301B2019E
:100BA0000E94B40B20E030E040E251E40E94850D49
:100BB0000E949F0C80E090E04AE00E94AC04E80EA6
:100BC000F91E0E949C048E0D9F1DFF90EF90DF90F8
:100BD000CF90BF90AF909F908F907F906F905F90DD
:100BE0004F9008950E941F0E1F920F920FB60F9202
:100BF00011242F933F938F939F93AF93BF93809133
:100C0000550190915601A0915701B0915801309132
:100C1000540123E0230F2D3720F40196A11DB11DAF
:100C200005C026E8230F0296A11DB11D2093540193
:100C30008093550190935601A0935701B0935801AA
:100C40008091590190915A01A0915B01B0915C0192
:100C50000196A11DB11D8093590190935A01A09353
:100C60005B01B0935C01BF91AF919F918F913F91D8
:100C70002F910F900FBE0F901F9018951F920F92FB
:100C80000FB60F9211242F933F934F935F936F935F
:100C90007F938F939F93AF93BF93EF93FF938DE5D4
:100CA00091E00E94ED02FF91EF91BF91AF919F9172
:100CB0008F917F916F915F914F913F912F910F9005
:100CC0000FBE0F901F9018951F920F920FB60F92A4
:100CD00011242F938F939F93EF93FF93E0916D01D6
:100CE000F0916E018081E0917301F091740182FDB9
:100CF00012C09081809176018F5F8F732091770170
:100D0000821751F0E0917601F0E0E35AFE4F958FA3
:100D10008093760101C08081FF91EF919F918F9127
:100D20002F910F900FBE0F901F9018950E946B028D
:100D3000DC01CB0180569947AE4FBF4F8093040131
:100D400090930501A0930601B09307010C948103D1
:100D5000CF92DF92EF92FF92CF93DF9360913E01AB
:100D600070913F01809140019091410120914F018C
:100D7000211109C02091460130914701409148015D
:100D80005091490103C020E030E0A9010E94800D8C
:100D900018160CF065C0609132017091330180919A
:100DA0003401909135010E94980C6B017C01EB019C
:100DB00061E089E00E94B901209711F460E004C06D
:100DC000CF3FD10551F461E089E0DF91CF91FF90F1
:100DD000EF90DF90CF900C946D01E1E2F2E0E491AE
:100DE000E330F9F048F4E130B9F0E230A1F584B530
:100DF000806284BDC8BC34C0E730E9F0E83019F146
:100E0000E43049F580918000806280938000D09228
:100E10008B00C0928A0024C084B5806884BDC7BCA2
:100E20001FC080918000806880938000D0928900EC
:100E3000C092880015C08091B00080688093B00097
:100E4000C092B3000DC08091B00080628093B0006A
:100E5000C092B40005C0C038D1050CF0B4CFAECFFD
:100E6000DF91CF91FF90EF90DF90CF90089581E0D8
:100E7000809331010E94A40310924A010E949A03B8
:100E800010924B010E94A8060E94960688E690E008
:100E90000E94A0046091420170914301809144013D
:100EA000909145010E942D05FFCFCF93DF93CDB7E1
:100EB000DEB72C970FB6F894DEBF0FBECDBF789487
:100EC00084B5826084BD84B5816084BD85B582604F
:100ED00085BD85B5816085BD80916E008160809300
:100EE0006E00109281008091810082608093810069
:100EF0008091810081608093810080918000816079
:100F0000809380008091B10084608093B1008091D3
:100F1000B00081608093B00080917A0084608093FB
:100F20007A0080917A00826080937A0080917A00C2
:100F3000816080937A0080917A00806880937A0043
:100F40001092C10061E08EE00E94B90161E08FE083
:100F50000E94B90161E080E10E94B90160E081E195
:100F60000E94B90161E086E00E94B90161E089E078
:100F70000E94B90161E087E00E94B90160E086E06B
:100F80000E946D0160E089E00E946D0160E087E0F1
:100F90000E946D01E0916D01F0916E0182E080830D
:100FA000E0916901F0916A011082E0916B01F0918A
:100FB0006C0180E1808310927501E0917101F091E4
:100FC000720186E08083E0916F01F0917001808171
:100FD00080618083E0916F01F09170018081886071
:100FE0008083E0916F01F09170018081806880833F
:100FF000E0916F01F091700180818F7D808303EC1F
:1010000010E026E0222E81E00E9401046D837E83A1
:101010008F839887609346017093470180934801BE
:101020009093490182E00E9401046B017C0160936E
:10103000420170934301809344019093450183E002
:101040000E94010469877A878B879C8760933E01A1
:1010500070933F01809340019093410184E00E948E
:10106000010469837A838B839C8360933A01709334
:101070003B0180933C0190933D0185E00E94010477
:101080004B015C0160933601709337018093380106
:101090009093390194E6392E412C512C320185E18F
:1010A0000E94F501BC01990F880B990B0E94D00C8E
:1010B0009B01AC01C301B2010E94B50B2B013C01A5
:1010C000C8010197F1F73A943110E9CF20E030E000
:1010D00048EC52E4C301B2010E94260C20E030E04B
:1010E000A9010E94B50B60932D0170932E0180938E
:1010F0002F019093300120E030E040E851E46D8111
:101100007E818F8198850E94800D1816F4F481E00D
:10111000809331010E94A40310924A010E949A0315
:1011200010924B010E94A8060E94960683E890E068
:101130000E94A0046091460170914701809148018E
:10114000909149010E942D05FFCF20E030E040EA58
:1011500050E4C701B6010E94800D181614F40E94D5
:10116000370720E030E040E651ECC701B6010E94AD
:10117000210C87FDF4CF20E030E040E651E4C501CA
:10118000B4010E94800D1816ECF410924A010E94DE
:101190009A0310924B010E94A806109231010E94FE
:1011A000A4030E9496068EE990E00E94A00460913C
:1011B00036017091370180913801909139010E9478
:1011C0002D05FFCF20E030E048EC51E469857A85B9
:1011D0008B859C850E94800D1816ECF410924B01B3
:1011E0000E94A80610924A010E949A0310923101AF
:1011F0000E94A4030E9496068BEB90E00E94A0043C
:1012000060913E0170913F018091400190914101B8
:101210000E942D05FFCF20E030E040EA50E46981D4
:101220007A818B819C810E94800D1816ECF41092BB
:101230004B010E94A80610924A010E949A03109244
:1012400031010E94A4030E94960686ED90E00E9460
:10125000A00460913A0170913B0180913C01909112
:101260003D010E942D05FFCF29813A814B815C8190
:10127000C701B6010E94B40B20E030E0A9010E9432
:10128000B50BA50194010E94B50B2B013C0120E098
:1012900030E0A9010E94800D18165CF42AE037EDB9
:1012A00043E25CE3C301B2010E94800D18165CF0BA
:1012B00021C02AE037ED43E25CEBC301B2010E949A
:1012C000210C87FF17C010924B010E94A8061092B4
:1012D0004A010E949A03109231010E94A4030E94C5
:1012E000960681EF90E00E94A004C301B2010E9423
:1012F0002D05FFCF49805A806B807C8077FA7094EF
:1013000077F870942FE632E143E05BE3C501B40166
:101310000E94B50B9B01AC01C301B2010E94800D7C
:1013200087FD02C081E011C02FE632E143E05BE3BC
:10133000C501B4010E94B40B9B01AC01C301B20111
:101340000E94210C181624F082E080934E0102C006
:1013500010924E0170904E0121E0721639F1721612
:1013600040F182E0781228C020E030E040E752E40B
:10137000609100017091010180910201909103013F
:101380000E94800D1816ACF429813A814B815C8152
:1013900060E070E080E09FE30E94B40B9B01AC0131
:1013A000C501B4010E94800D18161CF41092310181
:1013B00003C081E0809331010E94A40391E079127F
:1013C000D5C080914F018111D1C026E636E64AE6AC
:1013D00051E46D817E818F8198850E94210C1816C1
:1013E00014F083E02FC0B0904D01A5E0BA121CC0EC
:1013F0002FE632E143E85AE3C701B6010E94210C0F
:1014000018167CF080E090E0A8ECB2E48093000134
:1014100090930101A0930201B093030120924D012A
:1014200013C0B0924D0110C0B4E0BB120AC02FE649
:1014300032E143E85AE3C701B6010E94210C1816B5
:101440000CF784E080934D0180914D01843019F1B7
:1014500080F4833009F08AC0209142013091430129
:10146000409144015091450160E070E080EA90E4D1
:101470002BC08530E9F0863009F078C02091460114
:1014800030914701409148015091490160E070E07E
:1014900084E591E419C020914601309147014091C3
:1014A00048015091490166E676E68AE691E40CC06F
:1014B00020914601309147014091480150914901E6
:1014C00060E070E088E791E40E94B40B6B017C015E
:1014D0002DEC3CEC4CE45DE30E94850D20E030E017
:1014E00040E05FE30E94B50B4B015C0120E030E07F
:1014F000A901C701B6010E94B50B2DEC3CEC4CE4F0
:101500005DE30E94850D9B01AC01C501B4010E9401
:10151000B50B6B017C0120E030E040E85FE30E9406
:10152000800D87FF0DC020E030E0A901C701B601A2
:101530000E94210C87FF0AC0C12CD12C760106C065
:10154000C12CD12C80E8E82E8FE3F82E20E030E08B
:101550004FE753E4C701B6010E94850D6093320145
:101560007093330180933401909335010E949A0364
:101570000E946B02C0905001D0905101E090520146
:10158000F0905301E4EFCE0EE1E0DE1EE11CF11C11
:10159000C616D706E806F90608F0B4C00E946B022A
:1015A00060935001709351018093520190935301C5
:1015B0000E949C040E949C040E949C040E949C0423
:1015C0000E949C040E949C048FEB91E00E94A00466
:1015D00088EB91E00E9441010E946B024AE00E9468
:1015E000AC040E949C0486EA91E00E944101809133
:1015F0004F0190E00E94ED048AE991E00E944101D0
:1016000080914E010E941C058FE891E00E944101EB
:1016100080914D010E941C0584E891E00E944101E7
:1016200080914C010E941C0589E791E00E944101D4
:1016300080914B0190E00E94ED048EE691E00E94C3
:10164000410180914A0190E00E94ED048BE491E019
:101650000E94A00484E491E00E944101609146014F
:101660007091470180914801909149010E942D0598
:101670008DE391E00E94410160914201709143012C
:1016800080914401909145010E942D0586E391E0EF
:101690000E94410160913E0170913F0180914001A3
:1016A000909141010E942D058FE291E00E9441013D
:1016B00060913A0170913B0180913C0190913D0114
:1016C0000E942D0588E291E00E944101609136015F
:1016D0007091370180913801909139010E942D0558
:1016E0008CE091E00E94A0048FEF90E00E94410105
:1016F00060913201709133018091340190913501F4
:101700000E942D050E9481030E9477037CCCEDE5A9
:10171000F1E01382128288EE93E0A0E0B0E08483CF
:101720009583A683B7838CE091E09183808385ECD9
:1017300090E09587848784EC90E09787868780EC9B
:1017400090E0918B808B81EC90E0938B828B82EC8C
:1017500090E0958B848B86EC90E0978B868B118E36
:10176000128E138E148E08955058BB27AA270E94FC
:10177000CC0B0C94460D0E94380D38F00E943F0DA2
:1017800020F039F49F3F19F426F40C94350D0EF433
:10179000E095E7FB0C942F0DE92F0E94570D58F3AD
:1017A000BA17620773078407950720F079F4A6F546
:1017B0000C94790D0EF4E0950B2EBA2FA02D0B0191
:1017C000B90190010C01CA01A0011124FF27591B86
:1017D00099F0593F50F4503E68F11A16F040A22F8C
:1017E000232F342F4427585FF3CF469537952795FD
:1017F000A795F0405395C9F77EF41F16BA0B620BFC
:10180000730B840BBAF09150A1F0FF0FBB1F661F42
:10181000771F881FC2F70EC0BA0F621F731F841F85
:1018200048F4879577956795B795F7959E3F08F0AB
:10183000B0CF9395880F08F09927EE0F979587956D
:1018400008950E940B0D08F481E008950E943A0C5F
:101850000C94460D0E943F0D58F00E94380D40F048
:1018600029F45F3F29F00C942F0D51110C947A0D3F
:101870000C94350D0E94570D68F39923B1F355234D
:1018800091F3951B550BBB27AA2762177307840793
:1018900038F09F5F5F4F220F331F441FAA1FA9F329
:1018A00035D00E2E3AF0E0E832D091505040E69517
:1018B000001CCAF72BD0FE2F29D0660F771F881F78
:1018C000BB1F261737074807AB07B0E809F0BB0B6B
:1018D000802DBF01FF2793585F4F3AF09E3F51057F
:1018E00078F00C942F0D0C947A0D5F3FE4F3983E42
:1018F000D4F3869577956795B795F7959F5FC9F768
:10190000880F911D9695879597F90895E1E0660FE8
:10191000771F881FBB1F621773078407BA0720F061
:10192000621B730B840BBA0BEE1F88F7E0950895CA
:101930000E949F0C6894B1110C947A0D08950E9436
:101940005F0D88F09F5798F0B92F9927B751B0F0E5
:10195000E1F0660F771F881F991F1AF0BA95C9F733
:1019600014C0B13091F00E94790DB1E008950C944B
:10197000790D672F782F8827B85F39F0B93FCCF3FE
:10198000869577956795B395D9F73EF490958095B0
:10199000709561957F4F8F4F9F4F0895E89409C0D0
:1019A00097FB3EF490958095709561957F4F8F4F92
:1019B0009F4F9923A9F0F92F96E9BB279395F695A8
:1019C000879577956795B795F111F8CFFAF4BB0F26
:1019D00011F460FF1BC06F5F7F4F8F4F9F4F16C08A
:1019E000882311F096E911C0772321F09EE8872F14
:1019F000762F05C0662371F096E8862F70E060E0D0
:101A00002AF09A95660F771F881FDAF7880F969548
:101A1000879597F90895990F0008550FAA0BE0E8EC
:101A2000FEEF16161706E807F907C0F012161306A0
:101A3000E407F50798F0621B730B840B950B39F4E0
:101A40000A2661F0232B242B252B21F408950A2646
:101A500009F4A140A6958FEF811D811D089597F986
:101A60009F6780E870E060E008959FEF80EC089544
:101A700000240A941616170618060906089500246D
:101A80000A9412161306140605060895092E0394E7
:101A9000000C11F4882352F0BB0F40F4BF2B11F45B
:101AA00060FF04C06F5F7F4F8F4F9F4F089557FDBA
:101AB0009058440F551F59F05F3F71F04795880FBC
:101AC00097FB991F61F09F3F79F087950895121653
:101AD00013061406551FF2CF4695F1DF08C01616FF
:101AE00017061806991FF1CF8695710561050894B0
:101AF0000895E894BB2766277727CB0197F90895C7
:101B00000E940B0D08F48FEF08950E94980D0C941D
:101B1000460D0E94380D38F00E943F0D20F09523AD
:101B200011F00C942F0D0C94350D11240C947A0D9A
:101B30000E94570D70F3959FC1F3950F50E0551F0C
:101B4000629FF001729FBB27F00DB11D639FAA2712
:101B5000F00DB11DAA1F649F6627B00DA11D661F61
:101B6000829F2227B00DA11D621F739FB00DA11D82
:101B7000621F839FA00D611D221F749F3327A00D3C
:101B8000611D231F849F600D211D822F762F6A2FD8
:101B900011249F5750409AF0F1F088234AF0EE0F3D
:101BA000FF1FBB1F661F771F881F91505040A9F76A
:101BB0009E3F510580F00C942F0D0C947A0D5F3FE1
:101BC000E4F3983ED4F3869577956795B795F795A6
:101BD000E7959F5FC1F7FE2B880F911D969587951E
:101BE00097F908950E940B0D880B990B0895A1E2B7
:101BF0001A2EAA1BBB1BFD010DC0AA1FBB1FEE1F87
:101C0000FF1FA217B307E407F50720F0A21BB30BD1
:101C1000E40BF50B661F771F881F991F1A9469F74D
:101C200060957095809590959B01AC01BD01CF01A9
:101C30000895EE0FFF1F0590F491E02D099481E0C7
:0C1C400090E0F8940C94240EF894FFCF70
:101C4C000000C842E8030000000000000E03770209
:101C5C00A6025503D702B502C9020D0A006E616EC9
:0A1C6C0000696E66006F76660000E6
:00000001FF
