:100000000C943F010C943D0F0C94160F0C94670157
:100010000C9467010C9467010C9467010C946701C0
:100020000C9467010C9467010C9467010C946701B0
:100030000C9467010C9467010C9467010C946701A0
:100040000C94CC0E0C9467010C9430090C940A09A2
:100050000C9467010C9467010C9467010C94670180
:100060000C9462090C94670108000000BE922449B8
:10007000123EABAAAA2ABECDCCCC4C3E00000080DA
:10008000BEABAAAAAA3E00000000BF000000803F4D
:100090000000000000084178D3BB4387D1133D190D
:1000A0000E3CC3BD4282AD2B3E68EC8276BED98F3A
:1000B000E1A93E4C80EFFFBE01C4FF7F3F0000007E
:1000C0000000537461727475702E2E2E004C412006
:1000D0004F564552564F4C544147452E2E2E2053D5
:1000E000544F5050494E47004C4F4144204F5645C5
:1000F0005243555252454E542E2E2E2053544F509B
:1001000050494E47005056204F564552564F4C547A
:100110004147452E2E2E2053544F5050494E4700F4
:100120005056204F56455243555252454E542E2E4E
:100130002E2053544F5050494E470020002000209D
:1001400000200020002000200020002000200020AF
:1001500000200020002000200020002000000000DF
:1001600000240027002A0000000000250028002BA2
:100170000004040404040404040202020202020350
:10018000030303030301020408102040800102045A
:1001900008102001020408102000000008000201DD
:1001A0000000030407000000000000000041747418
:1001B000656D7074696E6720746F20636C65617221
:1001C000204F4344206572726F7200417474656DF4
:1001D0007074696E6720746F20636C656172205360
:1001E0004344206572726F7200417474656D70745F
:1001F000696E6720746F20636C656172204F5620B2
:100200006572726F7200417474656D7074696E67A7
:1002100020746F20636C6561722055562065727280
:100220006F7200417474656D7074696E6720746FCD
:1002300020636C65617220416C6572742065727216
:100240006F7200417474656D7074696E6720746FAD
:1002500020636C656172205852206572726F720063
:100260004C41204F56455243555252454E542E2E26
:100270002E2053544F5050494E470000C4171124AC
:100280001FBECFEFD8E0DEBFCDBF11E0A0E0B1E0F0
:10029000E2E7F8E302C005900D92AE3EB107D9F750
:1002A00024E0AEEEB1E001C01D92AC35B207E1F73B
:1002B00011E0CFE3D1E004C02197FE010E94211C90
:1002C000CE33D107C9F70E94640F0C94371C0C94ED
:1002D0000000009769F0FC0101900020E9F73197D8
:1002E000AF01481B590BBC0187E992E00C94440E06
:1002F00080E090E008958F929F92AF92BF920F930B
:100300001F93CF93DF93CDB7DEB7A1970FB6F894C5
:10031000DEBF0FBECDBF19A2423008F44AE08E0105
:100320000F5D1F4F842E912CA12CB12CA50194019F
:100330000E94B71BE62FB901CA0101501109EA302A
:1003400014F4E05D01C0E95CD801EC93232B242B6D
:10035000252B61F7C8010E946901A1960FB6F89498
:10036000DEBF0FBECDBFDF91CF911F910F91BF9028
:10037000AF909F908F9008950F931F93CF93DF932B
:100380008C01C0E0D0E0F801EC0FFD1F6491662302
:1003900071F0E0919702F09198020190F081E02DC8
:1003A00087E992E00995892B11F02196ECCFCE01D7
:1003B000DF91CF911F910F910895E0919702F091F5
:1003C00098020190F081E02D682F87E992E009946E
:1003D0004F925F926F927F928F929F92AF92BF9255
:1003E000CF92DF92EF92FF926B017C01B42E9B01C2
:1003F000AC010E94551B882319F082EE91E027C0C2
:1004000026013701E89477F82FEF3FEF4FE75FE7DA
:10041000C301B2010E94551B81110DC02FEF3FEFA8
:100420004FE75FE7C301B2010E94341918161CF4AC
:1004300086EE91E00CC02FEF3FEF4FE75FE4C7017E
:10044000B6010E94931A181684F48AEE91E0FF9088
:10045000EF90DF90CF90BF90AF909F908F907F9064
:100460006F905F904F900C9469012FEF3FEF4FE733
:100470005FECC701B6010E94341987FDE6CF20E08A
:1004800030E0A901C701B6010E94341987FF09C0F5
:100490008DE20E94DD014C01F7FAF094F7F8F09438
:1004A00002C0812C912CA12C60E070E080E09FE3E1
:1004B000AB1441F020E030E040E251E40E943919F1
:1004C000A394F6CF9B01AC01C701B6010E94C818E6
:1004D0002B013C010E94B2196B017C010E94E119C1
:1004E0009B01AC01C301B2010E94C7182B013C0162
:1004F0004AE0C701B6010E947B017C01E80CF91CAF
:10050000BB2029F08EE20E94DD01E80EF91EDB2CF3
:10051000DD2021F120E030E040E251E4C301B201EE
:100520000E94E81A2B013C010E94B2194B01A12C38
:10053000B12C4AE0C501B4010E947B01E80EF91E0E
:10054000C501B4010E94E1199B01AC01C301B201D4
:100550000E94C7182B013C01DA94DACFC701FF9043
:10056000EF90DF90CF90BF90AF909F908F907F9053
:100570006F905F904F900895CF92DF92EF92FF922D
:10058000CF93DF936C01990FEE08FF08F7FE17C0B9
:100590008DE20E94DD01EC0166277727CB016C1903
:1005A0007D098E099F094AE00E947B018C0F9D1FE7
:1005B000DF91CF91FF90EF90DF90CF9008954AE0C8
:1005C000C701B601DF91CF91FF90EF90DF90CF9000
:1005D0000C947B010C94E801CF93DF9342E00E94DE
:1005E000E801EC0186EA91E00E9469018C0F9D1FF1
:1005F000DF91CF910895209196029091950221323A
:1006000008F04AC0809172028111FCCF32E0309331
:10061000720231E0309371023FEF3093700210921A
:100620006F0220936E02A5E7B2E04EE452E0FA01B9
:100630003E2F341B321718F43D913193F9CF1092AD
:100640004D0220914D02990F922B90934D02909163
:100650004C02913061F410924C0290914D029093B3
:10066000BB009091BC0093FDF8CF95EC01C095EED6
:100670009093BC00909172029230E1F390917002DD
:100680009F3F79F080917002803241F0809170023A
:10069000803331F084E005C081E003C082E001C016
:1006A00083E01092740210929602109273020895E1
:1006B000CF93C62F9091790321E0209373029093FA
:1006C00095021092740210929602682F84E393E0D0
:1006D0000E9422086C2F84E393E00E942208CF91AD
:1006E0000C94FB02909172029111FCCF91E09093D7
:1006F0007202909371022FEF2093700210926F029A
:10070000260F20936E0290934D0290914D02880F18
:10071000892B80934D0280914C02813061F41092BC
:100720004C0280914D028093BB008091BC0083FD00
:10073000F8CF85EC01C085EE8093BC0080917202F9
:100740008130E1F380916F02861710F460916F029F
:10075000AEE4B2E02CE232E0F9018E2F821B861764
:1007600018F48D918193F9CF862F0895CF93DF935D
:10077000C9E7D3E0988121E020937302909395021A
:100780001092740210929602682F84E393E00E9404
:1007900022080E94FB0261E088810E94720310928D
:1007A0002B0280932A0284E393E0DF91CF910C9493
:1007B000D607CF93DF930E94BC01EC0186EA91E05B
:1007C0000E9469018C0F9D1FDF91CF910895AF9218
:1007D000BF92CF92DF92EF92FF920F931F93CF932E
:1007E000DF938AE20E94B603182F8BE20E94B603C1
:1007F000EC016091C9037091CA03072E000C880BAD
:10080000990B0E94E31920E030E040E850E40E9498
:10081000E81A6B017C0180E090E0912F8C2B9D2BDE
:10082000BC01990F880B990B0E94E3199B01AC0145
:10083000C701B6010E94E81A20E030E04AE754E41C
:100840000E9439196B017C018091CB039091CC03FC
:10085000880F991F880F991FBC01990F880B990B5E
:100860000E94E3199B01AC01C701B6010E94C818A0
:100870000E94AB196093A2037093A3038093A40317
:100880009093A5038091790391E0909373028093F4
:10089000950210927402109296026CE084E393E049
:1008A0000E9422080E94FB0260918003660F613261
:1008B00008F060E2809179030E94720310922B028B
:1008C00080932A0290E02091800330918103220FCF
:1008D000331F8217930709F05BC01092A003109298
:1008E000A10302E813E0C0E0D0E068EEC62E63E0AA
:1008F000D62EE12CF12C8091800390918103C817B2
:10090000D9070CF045C084E393E00E94D6075C0150
:1009100084E393E00E94D60795012F733327322F8B
:100920002227282B392BA091C903B091CA030E941A
:10093000F81BA70196010E94D91B8091CB039091CF
:10094000CC03280F391FF801219331938F01E091D7
:10095000A003F0E0EE0FFF1FE758FC4F8185928562
:100960008217930714F4C093A003E091A103F0E071
:10097000EE0FFF1FE758FC4F818592852817390736
:100980002CF4253F314014F0C093A1032196B3CF3E
:10099000DF91CF911F910F91FF90EF90DF90CF905B
:1009A000BF90AF900895CF93DF93D82F80E00E943F
:1009B000B603C82FDD2309F44CC082E30E94B603BE
:1009C000D82F83E30E94B60360E070E07D2F862B72
:1009D000972BBC01990F880B990B0E94E3192DE30B
:1009E0003AE047E051E40E94E81A20E030E040EAB3
:1009F00050E40E9439190E94AB196093A6037093CA
:100A0000A7038093A8039093A903462F572FBC01F7
:100A100077FF07C070956095509541955F4F6F4F78
:100A20007F4F8091B8039091B903092E000CAA0B57
:100A3000BB0B84179507A607B70784F40E94C00E66
:100A40006093D3037093D4038093D5039093D6031C
:100A500005C087FDB2CFDF91CF910895CF7311F418
:100A600010927F0360E870E080E0DF91CF910C94FA
:100A700058030F931F93CF93DF9380917F038111CE
:100A800007C08091CD039091CE03009709F4E4C094
:100A900080E00E94B603EC0187FF03C081E00E9462
:100AA000D3048C2F8F7309F4CFC080917F038823E8
:100AB00021F01092D8031092D703CE01992790937A
:100AC000CE038093CD030E94C00E0091D9031091F4
:100AD000DA032091DB033091DC03601B710B820B86
:100AE000930B28EE33E040E050E00E94B71BB901C1
:100AF0008091D7039091D8032817390749F0F9015D
:100B0000E81BF90B339720F03093D8032093D703D9
:100B10008091D7039091D8036817790708F498C09B
:100B2000C5FF0FC063E070E00E948F1B892B49F462
:100B300083E492E00E94D90360E270E080E00E94CA
:100B40005803C4FF13C08091D7039091D8036AE083
:100B500070E00E948F1B892B49F483E292E00E948F
:100B6000D90360E170E080E00E945803C3FF1BC01E
:100B70000E94E703E091A103F0E0EE0FFF1FE758AA
:100B8000FC4F218532858091C4039091C503821763
:100B900093074CF486E092E00E94D90368E070E08D
:100BA00080E00E945803C2FF1BC00E94E703E0914F
:100BB000A003F0E0EE0FFF1FE758FC4F21853285C0
:100BC0008091C2039091C303281739074CF489EE32
:100BD00091E00E94D90364E070E080E00E94580335
:100BE000C1FF13C08091D7039091D8036CE370E0EC
:100BF0000E948F1B892B49F48BEC91E00E94D90352
:100C000062E070E080E00E945803C0FF13C0809152
:100C1000D7039091D8036CE370E00E948F1B892B5F
:100C200049F48DEA91E00E94D90361E070E080E030
:100C30000E9458038091D7039091D8030196909316
:100C4000D8038093D70304C01092CE031092CD0333
:100C50008091CD039091CE03DF91CF911F910F91A1
:100C6000089590E0FC01E756FE4F3491FC01EB57EC
:100C7000FE4F2491FC01EF58FE4FE491EE2309F45E
:100C80003BC0332339F1333091F038F43130A9F0DF
:100C9000323001F584B58F7D12C0373091F0383095
:100CA000A1F03430B9F4809180008F7D03C0809131
:100CB00080008F77809380000DC084B58F7784BDCE
:100CC00009C08091B0008F7703C08091B0008F7D04
:100CD0008093B000F0E0EE0FFF1FE959FE4FA591A1
:100CE000B4918FB7F894EC91611103C020952E2335
:100CF00001C02E2B2C938FBF0895CF93DF9390E0EC
:100D0000FC01EB57FE4F2491FC01EF58FE4F8491FC
:100D1000882361F190E0880F991FFC01E35AFE4F90
:100D2000C591D491FC01E959FE4FA591B49161118F
:100D300009C09FB7F8948881209582238883EC911D
:100D40002E230BC0623061F49FB7F8943881822F54
:100D5000809583238883EC912E2B2C939FBF06C014
:100D60008FB7F894E8812E2B28838FBFDF91CF9126
:100D70000895FC01538D448D252F30E0842F90E0A1
:100D8000821B930B541710F0CF9608950197089586
:100D9000FC01918D828D981761F0828DDF01A80F83
:100DA000B11D5D968C91928D9F5F9F73928F90E0A5
:100DB00008958FEF9FEF0895FC01918D828D981714
:100DC00031F0828DE80FF11D858D90E008958FEF51
:100DD0009FEF0895FC01918D228D892F90E0805C1A
:100DE0009F4F821B91098F739927089587E992E09D
:100DF0000E94EA0621E0892B09F420E0822F089561
:100E0000FC01848DDF01A80FB11DA35ABF4F2C91A7
:100E1000848D90E001968F739927848FA689B78976
:100E20002C93A089B1898C9180648C93938D848D4F
:100E3000981306C00288F389E02D80818F7D80831E
:100E40000895EF92FF920F931F93CF93DF93EC01DE
:100E500081E0888F9B8D8C8D981305C0E889F98976
:100E6000808185FD24C0F62E0B8D10E00F5F1F4F93
:100E70000F731127E02E8C8DE8120CC00FB607FC03
:100E8000FACFE889F989808185FFF5CFCE010E94EC
:100E90000007F1CF8B8DFE01E80FF11DE35AFF4FE4
:100EA000F0820B8FEA89FB898081806207C0EE891E
:100EB000FF896083E889F98980818064808381E08B
:100EC00090E0DF91CF911F910F91FF90EF900895E7
:100ED000CF93DF93EC01888D8823C9F0EA89FB89E1
:100EE000808185FD05C0A889B9898C9186FD0FC0D8
:100EF0000FB607FCF5CF808185FFF2CFA889B989AD
:100F00008C9185FFEDCFCE010E940007E7CFDF91E6
:100F1000CF91089580E090E0892B29F00E94F60699
:100F200081110C940000089585ED8093BC008091A0
:100F3000BC0084FDFCCF10927202089540912E04F3
:100F4000262F30E0240F311D21323105DCF42091B1
:100F500072022430C9F4FC0180E090E0861758F456
:100F600030912E042191DC01A45FBB4FA30FB11D72
:100F70002C930196F3CF80912E04680F60932E047A
:100F800080E0089581E0089582E008950895E09159
:100F90002B0280912A02E81730F4F0E0E45DFD4F67
:100FA000808190E008958FEF9FEF089590912B023C
:100FB00080912A02981750F4E92FF0E0E45DFD4F8C
:100FC000208130E09F5F90932B0202C02FEF3FEF14
:100FD000C901089580912A0290E020912B02821B82
:100FE00091090895CF92DF92EF92FF920F931F9392
:100FF000CF93DF937C01262F972F8A018091730274
:10100000882391F0C62FD72F6E01C40ED51ECC15A4
:10101000DD0571F06991D701ED91FC910190F081AE
:10102000E02DC7010995F3CF642F822F0E949E0700
:10103000C801DF91CF911F910F91FF90EF90DF904A
:10104000CF900895CF93DF931F92CDB7DEB769831A
:10105000209173022223D1F020919602203240F099
:1010600021E030E0FC013383228380E090E015C072
:1010700080917402E82FF0E0EB58FD4F9981908346
:101080008F5F809374028093960205C061E0CE0169
:1010900001960E949E0781E090E00F90DF91CF9132
:1010A0000895089580E090E008950E94271CCF9352
:1010B000DF93C091EE01D091EF01209759F00E948B
:1010C000C00EFE01E05AFF4F6083718382839383D9
:1010D00081E08E83DF91CF910895AF92BF92CF923E
:1010E000DF92EF92FF920F931F93CF93C82F83301D
:1010F000F1F050F48130A1F0823029F581E0809345
:101100000B0410920A0418C08430C9F08530D9F459
:1011100010920B0410920A0481E08093090413C01A
:1011200080930B0410920A04809309040CC010925F
:101130000B0481E080930A041092090404C081E04A
:1011400080930B04F7CF60910B048EE00E94310670
:1011500060910A048FE00E9431066091090480E1E9
:101160000E94310661E070E080E090E00E94860E0F
:1011700004E610E0C12CD12C760183ECA82EB12C12
:1011800081E10E946F0EBC01990F880B990B0E94A0
:10119000E3199B01AC01C701B6010E94C8186B019D
:1011A0007C01C5010197F1F70150110949F720E0D1
:1011B00030E048EC52E4C701B6010E943919C15031
:1011C000C53098F424E0C29FD0011124FD01EA58F3
:1011D000FE4F2081318142815381FD01EE59FE4F46
:1011E000C080D180E280F38005C0C12CD12C760173
:1011F000A70196010E94E81AA70196010E94C8184B
:10120000CF911F910F91FF90EF90DF90CF90BF9003
:10121000AF9008951F920F920FB60F9211242F9343
:101220003F934F935F936F937F938F939F93AF936E
:10123000BF93EF93FF9387E992E00E940007FF912D
:10124000EF91BF91AF919F918F917F916F915F913E
:101250004F913F912F910F900FBE0F901F901895B7
:101260001F920F920FB60F9211242F938F939F937B
:10127000EF93FF93E091A702F091A8028081E091A3
:10128000AD02F091AE0282FD12C090818091B00259
:101290008F5F8F732091B102821751F0E091B002FD
:1012A000F0E0E956FD4F958F8093B00201C0808138
:1012B000FF91EF919F918F912F910F900FBE0F9003
:1012C0001F9018951F920F920FB60F9211242F9313
:1012D0003F934F935F936F937F938F939F93AF93BE
:1012E000BF93EF93FF938091B900887F803609F414
:1012F0009CC068F5883209F45BC090F4803109F431
:1013000054C038F4882309F4F6C0883009F44DC07D
:10131000F6C0883109F44CC0803209F45DC0EFC0DA
:10132000803409F468C048F4803309F455C0883328
:1013300009F0E5C080937002D8C0803509F44FC031
:10134000883509F45DC0883409F0D9C0D6C0883921
:1013500009F4C7C0A8F4883709F467C038F48836A0
:1013600009F463C0803709F460C0C9C0883809F443
:10137000B8C0803909F45FC0803809F0C0C05BC0D4
:10138000803B09F486C038F4803A09F466C0883A94
:1013900009F47FC0B4C0803C09F4A7C0883C09F4BC
:1013A000A4C0883B09F48AC0AAC080914D0210C035
:1013B00090916F0280916E02981770F5E0916F0224
:1013C00081E08E0F80936F02F0E0E25BFD4F808141
:1013D0008093BB0085EC86C0809370028EC0E09144
:1013E0006F0281E08E0F80936F028091BB00F0E06E
:1013F000E25BFD4F808390916F0280916E026EC020
:10140000E0916F0281E08E0F80936F028091BB00AC
:10141000F0E0E25BFD4F80838091710281116DC02D
:1014200081E080934C0284EA61C083E08093720281
:1014300010925204CFCF80915204803208F051C0F4
:10144000E091520481E08E0F809352048091BB00A2
:10145000F0E0EE5CFB4F8083BDCF85EC8093BC0059
:101460001092720280915204803230F4E091520462
:10147000F0E0EE5CFB4F10826091520470E0E0916E
:101480003004F091310482E394E009951092520403
:1014900036C084E08093720210922F0410922E04C2
:1014A000E0912C04F0912D04099580912E04811176
:1014B00005C081E080932E0410920C04E0912F046B
:1014C00081E08E0F80932F04F0E0E45FFB4F80817A
:1014D0008093BB0090912F0480912E04981708F4FC
:1014E00079CF85E88093BC000AC085EC8093BC006E
:1014F0001092720204C0109270020E949407FF9131
:10150000EF91BF91AF919F918F917F916F915F917B
:101510004F913F912F910F900FBE0F901F901895F4
:101520000F931F930E94C00E00910A0110910B01AE
:1015300020910C0130910D0160177107820793070C
:1015400010F461E001C060E085E01F910F910C9400
:1015500031062F923F924F925F926F927F928F92BD
:101560009F92AF92BF92CF92DF92EF92FF920F9332
:101570001F93CF93DF93CDB7DEB728970FB6F894BC
:10158000DEBF0FBECDBF80917803882309F401C16F
:101590000E94C00E69837A838B839C838091600351
:1015A00090916103A0916203B091630349815A81D4
:1015B0006B817C81481B590B6A0B7B0B80916C0300
:1015C00090916D03A0916E03B0916F034817590776
:1015D0006A077B0708F4DDC0E0915A03F0915B03D2
:1015E00080809180A280B380E0915E03F0915F03E0
:1015F000A501940160817181828193810E94C71845
:101600002B013C0120915003309151034091520332
:10161000509153030E94E81A2091640330916503AE
:1016200040916603509167030E94C8186B017C01CA
:1016300060936403709365038093660390936703DC
:101640001091740320907503309076030091770316
:10165000212F322D432D502F0E94931A18162CF44F
:10166000812F922DA32DB02F18C0809170039091DF
:101670007103A0917203B09173038D839E83AF8336
:10168000B8879C01AD01C701B6010E94341987FFDC
:101690000CC08D819E81AF81B88580936403909347
:1016A0006503A0936603B093670320914C033091C8
:1016B0004D0340914E0350914F03C301B2010E946C
:1016C000E81A2091640330916503409166035091BC
:1016D00067030E94C8186B017C0120916803309158
:1016E000690340916A0350916B03C501B4010E94E4
:1016F000C7182091540330915503409156035091DF
:1017000057030E94E81A9B01AC01C701B6010E9471
:10171000C7186B017C01212F322D432D502F0E94C1
:10172000931A1816B4F01091700320907103309042
:10173000720300917303212F322D432D502FB601D8
:10174000C7010E94341987FD04C01C2D2D2C3E2C8E
:101750000F2DE0915C03F0915D03812F922DA32D5D
:10176000B02F80839183A283B38380926803909289
:101770006903A0926A03B0926B0389819A81AB815D
:10178000BC818093600390936103A0936203B09344
:101790006303809109018823A1F060911201709187
:1017A000130180911401909115010E94AB196B01F6
:1017B0007C018B0161E089E00E947D06C114D104A7
:1017C00011F460E004C00F3F1105E1F461E089E02D
:1017D00028960FB6F894DEBF0FBECDBFDF91CF9134
:1017E0001F910F91FF90EF90DF90CF90BF90AF903F
:1017F0009F908F907F906F905F904F903F902F9031
:101800000C943106E2EAF1E0E491E330F9F048F4B7
:10181000E130B9F0E230A1F584B5806284BDC8BC86
:1018200034C0E730E9F0E83019F1E43049F580914F
:101830008000806280938000D0928B00C0928A00EA
:1018400024C084B5806884BDC7BC1FC0809180005F
:10185000806880938000D0928900C092880015C073
:101860008091B00080688093B000C092B3000DC03A
:101870008091B00080628093B000C092B40005C037
:10188000003811050CF0A2CF9CCF28960FB6F89423
:10189000DEBF0FBECDBFDF91CF911F910F91FF90A3
:1018A000EF90DF90CF90BF90AF909F908F907F9000
:1018B0006F905F904F903F902F9008958091080116
:1018C000882311F061E001C060E087E00C943106EC
:1018D0008091F00190911102981709F45FC060E0C7
:1018E000813099F187E00E94310660E085E00E9436
:1018F000310664E670E080E090E00E94860E0E946F
:101900003905892B49F485E00E94B603BC016C7F40
:10191000772785E00E9458036AE070E080E090E05D
:101920000E94860E60E086E00E94310664E670E068
:1019300080E090E00E94860E80910801882351F19A
:1019400061E087E00E94310625C087E00E943106F1
:1019500060E085E00E94310664E670E080E090E09F
:101960000E94860E61E086E00E9431066AE070E027
:1019700080E090E00E94860E0E943905892BB1F626
:1019800085E00E94B6038360682F70E085E00E94C6
:101990005803CCCF8091F0018093110208958F926B
:1019A0009F92AF92BF92CF92DF92EF92FF920F93EE
:1019B0001F93CF93DF9381E00E946D0860930D0227
:1019C00070930E0280930F029093100282E00E94A7
:1019D0006D08DC01CB01B0588093090290930A0294
:1019E000A0930B02B0930C0283E00E946D086093F9
:1019F000F9017093FA018093FB019093FC0184E05C
:101A00000E946D086093F5017093F6018093F701D1
:101A10009093F80185E00E946D086093F101709346
:101A2000F2018093F3019093F4016091A20370910D
:101A3000A303072E000C880B990B0E94E3196093F7
:101A40000102709302028093030290930402C4E6A1
:101A5000D0E0C12CD12C760103EC10E085E10E948E
:101A60006F0EBC01990F880B990B0E94E3199B0123
:101A7000AC01C701B6010E94C8186B017C01C80106
:101A80000197F1F7219751F720E030E048EC52E45C
:101A9000C701B6010E9439192EE634E340E85EE33F
:101AA0000E94E81A2BE734E144EA51E40E94C71887
:101AB00060930504709306048093070490930804D0
:101AC000CDEDD3E0FE0184819581A681B78181931C
:101AD0009193A193B19324E0E130F207A1F78091B3
:101AE000090290910A02A0910B02B0910C0280931E
:101AF000010490930204A0930304B093040460E0F3
:101B000070E0CB0129913991499159910E94C818EF
:101B100024E0C530D207B1F720E030E040E251E4E4
:101B20000E943919609305027093060280930702A0
:101B300090930802C090FD01D090FE01E090FF015B
:101B4000F090000220E030E040EF51E4C701B60120
:101B50000E94C8189B01AC01C701B6010E94931AEC
:101B6000181684F020E030E040EF51E4C701B601E0
:101B70000E94C7189B01AC01C701B6010E9434192D
:101B800087FF04C0C701B6010E94EC026091A60362
:101B90007091A703072E000C880B990B0E94E31984
:101BA0004B015C0120E030E04AE754E4C701B60194
:101BB0000E94C8189B01AC01C501B4010E94931A90
:101BC00018164CF08092FD019092FE01A092FF0148
:101BD000B092000208C0C092FD01D092FE01E092D6
:101BE000FF01F092000220E030E04AE754E4C70130
:101BF000B6010E94C7189B01AC016091FD01709174
:101C0000FE018091FF01909100020E94341987FF2C
:101C100008C0C092FD01D092FE01E092FF01F09257
:101C20000002DF91CF911F910F91FF90EF90DF9015
:101C3000CF90BF90AF909F908F9008953FB7F8944A
:101C40008091580490915904A0915A04B0915B047A
:101C500026B5A89B05C02F3F19F00196A11DB11D07
:101C60003FBFBA2FA92F982F8827820F911DA11D42
:101C7000B11DBC01CD0142E0660F771F881F991F7F
:101C80004A95D1F708950895CF92DF92EF92FF928F
:101C90000F931F93CF93DF936C017A018B01C0E008
:101CA000D0E0CE15DF0589F0D8016D918D01D60108
:101CB000ED91FC910190F081E02DC6010995892BF1
:101CC00011F47E0102C02196ECCFC701DF91CF91C4
:101CD0001F910F91FF90EF90DF90CF9008958E307D
:101CE00008F08E508770806480937C0080917A0029
:101CF000806480937A0080917A0086FDFCCF809189
:101D000078002091790090E0922B08958F929F9215
:101D1000AF92BF92CF92DF92EF92FF926B017C0164
:101D20000E941E0E4B015C01C114D104E104F104B8
:101D3000F1F00E941E0EDC01CB0188199909AA0955
:101D4000BB09883E9340A105B10570F321E0C21A9A
:101D5000D108E108F10888EE880E83E0981EA11CE6
:101D6000B11CC114D104E104F10419F7DDCFFF90D7
:101D7000EF90DF90CF90BF90AF909F908F9008959D
:101D80002FB7F894609154047091550480915604D3
:101D9000909157042FBF08951F920F920FB60F9284
:101DA00011242F933F938F939F93AF93BF93809171
:101DB000540490915504A0915604B0915704309169
:101DC000530423E0230F2D3720F40196A11DB11DEC
:101DD00005C026E8230F0296A11DB11D20935304D0
:101DE0008093540490935504A0935604B0935704E1
:101DF0008091580490915904A0915A04B0915B04C9
:101E00000196A11DB11D8093580490935904A0938D
:101E10005A04B0935B04BF91AF919F918F913F9112
:101E20002F910F900FBE0F901F9018951F920F9239
:101E30000FB60F9211242F933F934F935F936F939D
:101E40007F938F939F93AF93BF93EF93FF93E09113
:101E50001C01F0911D010995FF91EF91BF91AF9188
:101E60009F918F917F916F915F914F913F912F91B2
:101E70000F900FBE0F901F9018951F920F920FB6E4
:101E80000F9211242F933F934F935F936F937F9300
:101E90008F939F93AF93BF93EF93FF93E0911A01BA
:101EA000F0911B010995FF91EF91BF91AF919F9127
:101EB0008F917F916F915F914F913F912F910F90F3
:101EC0000FBE0F901F901895789484B5826084BDE2
:101ED00084B5816084BD85B5826085BD85B581602E
:101EE00085BD80916E00816080936E0010928100AC
:101EF0008091810082608093810080918100816067
:101F00008093810080918000816080938000809127
:101F1000B10084608093B1008091B00081608093B3
:101F2000B00080917A00846080937A0080917A007A
:101F3000826080937A0080917A00816080937A0039
:101F400080917A00806880937A001092C10061E0ED
:101F50008EE00E947D0661E08FE00E947D0661E0D8
:101F600080E10E947D0660E081E10E947D0661E0E3
:101F700086E00E947D0661E089E00E947D0661E0C6
:101F800087E00E947D0660E086E00E94310660E006
:101F900089E00E94310660E087E00E94310680916E
:101FA0008100887F856080938100E091A702F09195
:101FB000A80282E08083E091A302F091A402108243
:101FC000E091A502F091A60280E180831092AF0219
:101FD000E091AB02F091AC0286E08083E091A9022F
:101FE000F091AA02808180618083E091A902F09142
:101FF000AA02808188608083E091A902F091AA0200
:10200000808180688083E091A902F091AA0280819A
:102010008F7D808382EC90E00E94D90310922B0286
:1020200010922A021092740210929602109272027A
:1020300081E08093710210924C0261E082E10E9483
:10204000310661E083E10E9431068091B9008E7F04
:102050008093B9008091B9008D7F8093B90088E4A6
:102060008093B80085E48093BC00109283031092A3
:1020700082031092850310928403109287031092BA
:102080008603109289031092880361E08FEF0E940B
:102090007D0661E08FEF0E94310665E070E080E030
:1020A00090E00E94860E60E08FEF0E947D066AE05D
:1020B00070E080E090E00E94860E69E170E08BE0C5
:1020C0000E9458038BE00E94B603499791F568E19E
:1020D00070E084E00E94580360E470E085E00E94B4
:1020E000580389E793E09093EF018093EE0181E537
:1020F0000E94B6039093CC038093CB0380E50E94AB
:10210000B603EC0189E50E94B603807E992765E05D
:10211000959587956A95E1F7CC70DD27CC0FDD1F8B
:102120008C2B9D2B83599E4F9093CA038093C90398
:1021300008C08EE891E00E94690186EA91E00E9461
:10214000690188E39FEF9093BD038093BC0382EC09
:1021500091E09093C1038093C0031092BB0310924F
:10216000BA039093BF038093BE0385E080937C0302
:102170006FE970E086E00E945803C0E020917C0384
:1021800030E0A0E4BFE10E94001C28EE33E040E014
:1021900050E00E94D91BEEE5F1E08FE190E07291F2
:1021A00062916B01770FEE08FF082C153D054E0577
:1021B0005F0534F08F706C2F607FC62FC82B02C074
:1021C000019769F7C0676C2F70E087E00E945803A1
:1021D00088E29AE09093C5038093C40388E00E944C
:1021E000B603C82F8091CB039091CC03092E000C2D
:1021F000AA0BBB0B48E25AE060E070E09A01AB0129
:10220000281B390B4A0B5B0BA8EEB3E00E94161C8F
:102210002091C9033091CA03032E000C440B550BC7
:102220000E94D91BDA01C90144E0B595A79597959D
:1022300087954A95D1F721E0280F622F70E08AE058
:102240000E945803C06C6C2F70E088E00E94580315
:1022500082E49EE09093C3038093C20388E00E94CF
:10226000B603C82F8091CB039091CC03092E000CAC
:10227000AA0BBB0B42E45EE060E070E09A01AB01A8
:10228000281B390B4A0B5B0BA8EEB3E00E94161C0F
:102290002091C9033091CA03032E000C440B550B47
:1022A0000E94D91BDA01C90154E0B595A79597950D
:1022B00087955A95D1F7682F70E089E00E945803FE
:1022C000C0636C2F70E088E00E9458031092D20324
:1022D0001092D10384EE9CE09093C7038093C603D1
:1022E00084E18093C80384E690E09093B9038093DF
:1022F000B80381E08093CF030E94CF0C2EE03DE233
:1023000042EB5DE360910D0270910E0280910F022D
:10231000909110020E94E81A20E030E04AE754E46D
:102320000E94C71860930401709305018093060111
:10233000909307010E94C00E60931F0270932002C9
:1023400080932102909322028091010290910202D7
:10235000A0910302B091040280931601909317019B
:10236000A0931801B093190180917803811148C09E
:10237000E0915C03F0915D03C080D180E280F38046
:10238000C0926403D0926503E0926603F092670303
:10239000E0915A03F0915B0380819181A281B38126
:1023A0008093680390936903A0936A03B0936B03CF
:1023B0008090740390907503A0907603B09077039B
:1023C000A5019401C701B6010E94931A181684F062
:1023D0008090700390907103A0907203B09073038B
:1023E000A5019401C701B6010E94341987FF08C0F6
:1023F0008092640390926503A0926603B092670393
:1024000081E08093780322242394312C0E94CF0C06
:1024100020E030E04AE756E460910D0270910E0230
:1024200080910F02909110020E94931A1816F4F4F2
:1024300081E08093F0010E94680C109208010E94D4
:102440005E0C109209010E94A90A0E9497188DEC57
:1024500090E00E94D90360910D0270910E0280916C
:102460000F02909110020E94EC02FFCFC09009026F
:10247000D0900A02E0900B02F0900C0220E030E4D1
:102480004CE955E4C701B6010E94931A181614F4DA
:102490000E94A91820E030EC4AE556ECC701B601CD
:1024A0000E94341987FDF4CF8090F1019090F201E1
:1024B000A090F301B090F40120E030EC4AE556E43E
:1024C000C501B4010E94931A1816ECF41092080189
:1024D0000E945E0C109209010E94A90A1092F0015C
:1024E0000E94680C0E94971888EE90E00E94D90321
:1024F0006091F1017091F2018091F3019091F401EA
:102500000E94EC02FFCF20E030E543EC56E46091FE
:10251000F9017091FA018091FB019091FC010E94F8
:10252000931A1816ECF4109209010E94A90A10924D
:1025300008010E945E0C1092F0010E94680C0E943B
:10254000971885E091E00E94D9036091F90170919C
:10255000FA018091FB019091FC010E94EC02FFCFF7
:102560004090F5015090F6016090F7017090F801ED
:1025700020E030E44CE955E4C301B2010E94931A13
:102580001816ECF4109209010E94A90A1092080191
:102590000E945E0C1092F0010E94680C0E94971835
:1025A00080E291E00E94D9036091F5017091F601FB
:1025B0008091F7019091F8010E94EC02FFCFA301F6
:1025C0009201C701B6010E94C7182091FD01309108
:1025D000FE014091FF01509100020E94C818A50120
:1025E00094010E94C81820E030E040EA51E40E94C3
:1025F000C818609312027093130280931402909390
:10260000150280E00E94D3040E94E70380917903C1
:1026100091E090937302809395021092740210924D
:1026200096026CE284E393E00E9422080E94FB027F
:1026300062E0809179030E94720310922B028093D2
:102640002A02823009F080C084E393E00E94D6071A
:10265000EC0184E393E00E94D607BE016F737727F5
:10266000762F6627862B972BBC01990F880B990B29
:102670000E94E31921E835E943EC5EE30E94E81A81
:102680000E94AB19072E000C880B990B0E94E319CE
:102690006B017C0120E030E44CE156E40E94E81A32
:1026A0004B015C01A701960160E070E48EE495E4C3
:1026B0000E94C7189B01AC01C501B4010E943919E1
:1026C0000E94B2190E94E11920E030E44CE156E486
:1026D0000E9439190E94A01A6B017C0180917D0330
:1026E00090917E03BC01990F880B990B0E94E3190E
:1026F0009B01AC0160E070E080E89FE30E94391923
:10270000A70196010E94E81A2FE03FEC4BE55BE33E
:102710000E94C8189B01AC0160E070E080E89FE374
:102720000E94391923E333E948E853E40E94C718AB
:1027300020E030E040E251E40E94E81A0E94AB1928
:102740007093AB036093AA030E94C00E4B015C011F
:102750004090D3035090D4036090D5037090D6037B
:10276000809180039091810365E070E00E94A31B3B
:102770006B010E943905892BD9F5C501B401641993
:1027800075098609970928EE33E040E050E00E9481
:10279000B71B8091D1039091D203092E000CAA0B94
:1027A000BB0B281739074A075B0714F1E091A00318
:1027B000F0E0EE0FFF1FE758FC4F818592852091D6
:1027C000C6033091C7032817390794F4E091A10399
:1027D000F0E0EE0FFF1FE758FC4F21853285821B8A
:1027E000930B2091C80330E0281739070CF44CC331
:1027F0008091D003882321F1812C912C5401839462
:10280000DD24C40101978C159D05C4F488EC91E08A
:102810000E9469014AE0C501B4010E947B0186EA79
:1028200091E00E94690160E070E0882D0E945803E9
:102830008FEF881A980AA80AB80AE3CF1092D0033B
:102840000E94C00EC0901F02D0902002E090210292
:10285000F09022029701860108511C4F2F4F3F4FE5
:10286000061717072807390708F074C00E94C00E22
:102870006C197D098E099F090E94E11920E030E062
:102880004AE754E40E9439196B017C012091090246
:1028900030910A0240910B0250910C020E94E81AFA
:1028A00020E030E041E655E40E94391920E030E0B4
:1028B00048EB51E40E9439199B01AC01609104017D
:1028C0007091050180910601909107010E94C8183E
:1028D00060930401709305018093060190930701B2
:1028E00080912302882361F12091FD013091FE0146
:1028F0004091FF0150910002C701B6010E94E81A01
:1029000020E030E041E655E40E94391920E030E053
:1029100040E451E40E9439199B01AC01609100012F
:102920007091010180910201909103010E94C818E9
:102930006093000170930101809302019093030161
:102940000E94C00E60931F027093200280932102A8
:10295000909322028090F5019090F601A090F701EB
:10296000B090F801C090F101D090F201E090F30135
:10297000F090F40120E030E040EF51E4C701B601EF
:102980000E94C8189B01AC01C501B4010E94931AB2
:1029900087FD02C082E011C020E030E040EF51E44A
:1029A000C701B6010E94C7189B01AC01C501B40163
:1029B0000E943419181624F081E08093250212C079
:1029C00020E030E048EC52E4609112017091130174
:1029D00080911401909115010E94931A1816D4F653
:1029E00010922502809125028130C1F098F082304A
:1029F00009F046C020E030E048EC52E4609100016C
:102A00007091010180910201909103010E9434199B
:102A100087FF22C081E08093F00132C020E030E0E7
:102A200040E752E460910401709105018091060134
:102A3000909107010E94931A181664F7A50194015A
:102A4000C701B6010E94C71820E030E048EC53E40B
:102A50000E94931A87FD03C01092F00111C020E07C
:102A600030E040E752E460910001709101018091F3
:102A70000201909103010E94931A18165CF2ECCFA8
:102A80000E94680CC0912502C23009F0CCC0809130
:102A900011028111A7C0D0912402C0900D02D090E4
:102AA0000E02E0900F02F0901002D53009F442C0FF
:102AB000D33009F45EC020E038E543E656E4C701B0
:102AC000B6010E94341918161CF0C09324027DC070
:102AD000D43009F04CC020E030E048E453E4609189
:102AE00012017091130180911401909115010E94BF
:102AF000341987FF2CC020E030E040EA51E46091B7
:102B000005027091060280910702909108020E94CE
:102B100034191816E4F080E090E0A8ECB2E4809359
:102B2000040190930501A0930601B093070185E08D
:102B300080932402C0921601D0921701E0921801EE
:102B4000F092190180E098E0AFE4B6E442C084E07E
:102B500080932402C0921601D0921701E0921801CE
:102B6000F092190180E090E3A2E7B6E432C0D330DE
:102B700009F520E030E048E453E4609112017091DF
:102B8000130180911401909115010E94341987FF5F
:102B900011C020E030E040EA51E4609105027091FC
:102BA000060280910702909108020E9434191816BB
:102BB0000CF0B1CF83E080932402C0921601D09232
:102BC0001701E0921801F092190180E098EEA4E656
:102BD000B6E480930E0190930F01A0931001B0937F
:102BE000110125C0C093230280910102909102023D
:102BF000A0910302B09104028093160190931701F3
:102C0000A0931801B093190180E090ECAAE5B6E416
:102C100080930E0190930F01A0931001B0931101C6
:102C20001092240212C0C11105C010922402109209
:102C300023020BC0C13049F480911102811103C0FD
:102C4000C093240202C0C09323020E945E0C0E9423
:102C5000A90A0E94C00E009126021091270220911D
:102C60002802309129020C501E4F2F4F3F4F06175C
:102C700017072807390708F002C10E94C00E6093A9
:102C800026027093270280932802909329020E94C3
:102C9000C00E4AE00E947B018BE591E00E94BC01DE
:102CA0008091110290E00E94BC0289E591E00E94AF
:102CB000BC016091250270E080E090E04AE00E9453
:102CC0007B0187E591E00E94BC016091240270E0E5
:102CD00080E090E04AE00E947B0185E591E00E945F
:102CE000BC016091230270E080E090E04AE00E9425
:102CF0007B0183E591E00E94BC018091090190E095
:102D00000E94BC0281E591E00E94BC018091080113
:102D100090E00E94BC028FE491E00E94BC016091AF
:102D2000040170910501809106019091070143E033
:102D300050E00E94EA028DE491E00E94BC016091A3
:102D4000000170910101809102019091030143E023
:102D500050E00E94EA028BE491E00E94BC01609185
:102D60000D0270910E0280910F029091100242E0CC
:102D700050E00E94EA0289E491E00E94BC01609167
:102D8000090270910A0280910B0290910C0242E0BC
:102D900050E00E94EA0287E491E00E94BC01609149
:102DA000050270910602809107029091080242E0AC
:102DB00050E00E94EA0285E491E00E94BC0160912B
:102DC000010270910202809103029091040242E09C
:102DD00050E00E94EA0283E491E00E94BC0160910D
:102DE000FD017091FE018091FF019091000242E08F
:102DF00050E00E94EA0281E491E00E94BC016091EF
:102E0000F9017091FA018091FB019091FC0142E07F
:102E100050E00E94EA028FE391E00E94BC016091C1
:102E2000F5017091F6018091F7019091F80142E06F
:102E300050E00E94EA028DE391E00E94BC016091A3
:102E4000F1017091F2018091F3019091F40142E05F
:102E500050E00E94EA028BE391E00E94BC01609185
:102E6000120170911301809114019091150142E0BB
:102E700050E00E94EA0286EA91E00E9469010E9405
:102E8000900A0E948A07C2CA81E08093D003C9E7F2
:102E9000D3E0E12CF12C46019924E814F9040CF05C
:102EA000CFCCE091A103F0E0EE0FFF1FE758FC4FFD
:102EB000A185B285C090C803D12CB12C80E090E0F0
:102EC000FC01EE0FFF1FEC0FFD1F218532852A1B31
:102ED0003B0BC216D306D4F49101082E01C0220F79
:102EE0000A94EAF76B2D622BE62FF0E02B2D30E0F1
:102EF000AF01440F551F42235323452B39F4220FB2
:102F0000331F2E233F23232B09F4B62E0196853041
:102F10009105B1F689EA91E00E9469018FEFE81A04
:102F2000F80AC7010E94BC0289EB91E00E94690186
:102F3000CB2CD12C1092160238E0A32EB12C00E835
:102F400010E0C8018C219D218017910719F06CE8D1
:102F500071E002C06AE871E086E192E00E942C1CF8
:102F60001595079581E0A81AB10859F786E192E016
:102F70000E94690186EA91E00E946901B6018E2DE6
:102F80000E9458032A9689CF0F931F93CF93DF9304
:102F9000E7E9F2E01382128288EE93E0A0E0B0E06D
:102FA00084839583A683B78322E431E03183208331
:102FB00025EC30E03587248724EC30E037872687FE
:102FC00020EC30E0318B208B21EC30E0338B228BF6
:102FD00022EC30E0358B248B26EC30E0378B268BCF
:102FE000118E128E138E148EE4E3F3E0138212829C
:102FF00084839583A683B78384E591E0918380835E
:10300000E9E7F3E08BE69DE09583848381E08683A6
:103010002EE130E03093B9032093B8031092CE0331
:103020001092CD031092CF031092D00328E037E026
:103030003093D2032093D1031092D3031092D40380
:103040001092D5031092D6031092D8031092D70392
:103050001092D9031092DA031092DB031092DC0372
:10306000828388E190E09183808385E090E090877F
:103070008783C0E4D3E082E191E09D8F8C8F86E16D
:1030800091E09B8F8A8F8EE091E09F8F8E8F18AE9C
:1030900018AA19AA1AAA1BAA80E090E0AFE7B3E425
:1030A0008CAB9DABAEABBFAB84E690E0A0E0B0E0F4
:1030B0008CA79DA7AEA7BFA7198E188E8DEC9CEC90
:1030C000ACE4BEE388839983AA83BB834AE959E9C8
:1030D00069E97EE34C835D836E837F83188619865E
:1030E0001A861B868C879D87AE87BF8780E992EC06
:1030F000A5EFBCE3888B998BAA8BBB8B1C8A1D8A9E
:103100001E8A1F8A0E94C00E0CA51DA52EA53FA5D4
:10311000DC01CB01801B910BA20BB30B88A399A3FD
:10312000AAA3BBA3DF91CF911F910F9108950E9495
:10313000C00EDC01CB0180569947AE4FBF4F809344
:103140000A0190930B01A0930C01B0930D010C9414
:10315000900A81E08093F0010E94680C10920801AF
:103160000E945E0C109209010E94A90A0E94971801
:1031700080E692E00E94D9036091090270910A02F0
:1031800080910B0290910C020E94EC02FFCF5058EC
:10319000BB27AA270E94DF180C94591A0E944B1AC9
:1031A00038F00E94521A20F039F49F3F19F426F4A7
:1031B0000C94481A0EF4E095E7FB0C94421AE92FA0
:1031C0000E946A1A58F3BA176207730784079507B3
:1031D00020F079F4A6F50C948C1A0EF4E0950B2EE1
:1031E000BA2FA02D0B01B90190010C01CA01A00159
:1031F0001124FF27591B99F0593F50F4503E68F1B4
:103200001A16F040A22F232F342F4427585FF3CFF4
:10321000469537952795A795F0405395C9F77EF4C5
:103220001F16BA0B620B730B840BBAF09150A1F00E
:10323000FF0FBB1F661F771F881FC2F70EC0BA0F94
:10324000621F731F841F48F4879577956795B7951C
:10325000F7959E3F08F0B0CF9395880F08F0992717
:10326000EE0F9795879508950E941E1A08F481E045
:1032700008950E944D190C94591A0E94521A58F040
:103280000E944B1A40F029F45F3F29F00C94421A37
:1032900051110C948D1A0C94481A0E946A1A68F302
:1032A0009923B1F3552391F3951B550BBB27AA27FF
:1032B00062177307840738F09F5F5F4F220F331F39
:1032C000441FAA1FA9F335D00E2E3AF0E0E832D001
:1032D00091505040E695001CCAF72BD0FE2F29D004
:1032E000660F771F881FBB1F261737074807AB07D6
:1032F000B0E809F0BB0B802DBF01FF2793585F4F4B
:103300003AF09E3F510578F00C94421A0C948D1AB5
:103310005F3FE4F3983ED4F3869577956795B7952C
:10332000F7959F5FC9F7880F911D9695879597F937
:103330000895E1E0660F771F881FBB1F62177307B0
:103340008407BA0720F0621B730B840BBA0BEE1FC5
:1033500088F7E09508950E94B2196894B1110C9411
:103360008D1A08950E94721A88F09F5798F0B92F0D
:103370009927B751B0F0E1F0660F771F881F991FAA
:103380001AF0BA95C9F714C0B13091F00E948C1AA6
:10339000B1E008950C948C1A672F782F8827B85FB6
:1033A00039F0B93FCCF3869577956795B395D9F702
:1033B0003EF490958095709561957F4F8F4F9F4F0C
:1033C0000895E89409C097FB3EF490958095709518
:1033D00061957F4F8F4F9F4F9923A9F0F92F96E961
:1033E000BB279395F695879577956795B795F111D6
:1033F000F8CFFAF4BB0F11F460FF1BC06F5F7F4F73
:103400008F4F9F4F16C0882311F096E911C0772384
:1034100021F09EE8872F762F05C0662371F096E88D
:10342000862F70E060E02AF09A95660F771F881F5C
:10343000DAF7880F9695879597F90895990F000800
:10344000550FAA0BE0E8FEEF16161706E807F90776
:10345000C0F012161306E407F50798F0621B730B11
:10346000840B950B39F40A2661F0232B242B252B92
:1034700021F408950A2609F4A140A6958FEF811D35
:10348000811D089597F99F6780E870E060E00895D6
:103490009FEF80EC089500240A941616170618066C
:1034A0000906089500240A94121613061406050648
:1034B0000895092E0394000C11F4882352F0BB0FD9
:1034C00040F4BF2B11F460FF04C06F5F7F4F8F4F3C
:1034D0009F4F089557FD9058440F551F59F05F3F77
:1034E00071F04795880F97FB991F61F09F3F79F026
:1034F00087950895121613061406551FF2CF4695A8
:10350000F1DF08C0161617061806991FF1CF869529
:103510007105610508940895E894BB27662777270D
:10352000CB0197F908950E941E1A08F48FEF0895B1
:1035300016F00C945A1B0C94481A68940C94421A76
:103540000E94721AA8F39923C1F3AEF3DF93CF93CD
:103550001F930F93FF92C92FDD2788232AF021970D
:10356000660F771F881FDAF720E030E040E85FEB56
:103570009FE3883920F0803E38F021968F770E94B3
:10358000C818E8E6F0E004C00E94C818E5E9F0E0D9
:103590000E94681B8B01BE01EC01FB2E6F57710965
:1035A0007595771F880B990B0E94E31928E132E784
:1035B00041E35FE30E94FB1AAF2D9801AE01FF903B
:1035C0000F911F91CF91DF910E94DF180C94591A2F
:1035D0000E94FB1A0C94591A0E944B1A38F00E9450
:1035E000521A20F0952311F00C94421A0C94481AA8
:1035F00011240C948D1A0E946A1A70F3959FC1F3DE
:10360000950F50E0551F629FF001729FBB27F00D90
:10361000B11D639FAA27F00DB11DAA1F649F6627E5
:10362000B00DA11D661F829F2227B00DA11D621F34
:10363000739FB00DA11D621F839FA00D611D221FEE
:10364000749F3327A00D611D231F849F600D211DD2
:10365000822F762F6A2F11249F5750409AF0F1F055
:1036600088234AF0EE0FFF1FBB1F661F771F881FBE
:1036700091505040A9F79E3F510580F00C94421A9A
:103680000C948D1A5F3FE4F3983ED4F386957795BA
:103690006795B795F795E7959F5FC1F7FE2B880F64
:1036A000911D9695879597F908950E941E1A880B8B
:1036B000990B08959F3F31F0915020F487957795AD
:1036C0006795B795880F911D9695879597F90895F9
:1036D000DF93CF931F930F93FF92EF92DF927B01C3
:1036E0008C01689406C0DA2EEF010E94FB1AFE01DD
:1036F000E894A5912591359145915591A6F3EF0157
:103700000E94DF18FE019701A801DA9469F7DF90A3
:10371000EF90FF900F911F91CF91DF910895AA1B19
:10372000BB1B51E107C0AA1FBB1FA617B70710F0AC
:10373000A61BB70B881F991F5A95A9F780959095DE
:10374000BC01CD01089597FB072E16F4009407D015
:1037500077FD09D00E948F1B07FC05D03EF49095A1
:1037600081959F4F0895709561957F4F0895A1E2CF
:103770001A2EAA1BBB1BFD010DC0AA1FBB1FEE1FEB
:10378000FF1FA217B307E407F50720F0A21BB30B36
:10379000E40BF50B661F771F881F991F1A9469F7B2
:1037A00060957095809590959B01AC01BD01CF010E
:1037B0000895052E97FB1EF400940E94F01B57FD00
:1037C00007D00E94B71B07FC03D04EF40C94F01BEB
:1037D00050954095309521953F4F4F4F5F4F08953D
:1037E00090958095709561957F4F8F4F9F4F08956D
:1037F0000E94001C332312F48A1B9B0B0C94111C97
:10380000A29FB001B39FC001A39F700D811D112421
:10381000911DB29F700D811D1124911D08950E946C
:10382000001CB7FF0895821B930B08950E94001C93
:10383000A59F900DB49F900DA49F800D911D112404
:103840000895EE0FFF1F0590F491E02D099481E09B
:1038500090E0F8940C94371CFB01DC010D900020E3
:10386000E9F7119701900D920020E1F70895F8947F
:02387000FFCF88
:10387200E1FAC7420000C4420101E8030000005817
:10388200634600007F4300E04446430E430E1100AE
:1038920016001C00210027002C00320038003D00D9
:1038A200430048004E00530059005E0064000000CF
:1038B20000002107440EB9066807EA06C806DC06BE
:1038C200000000002208F2075208C607EA07D607DE
:1038D200C7078BFD37C24E65ECC50069A743A47CC0
:1038E200F5C5584B0046CCDD9D4103097941773E31
:1038F2009E4163EE7E41E78C84C131003000424D2F
:103902005320636F6D6D756E69636174696F6E20AC
:103912006572726F72000D0A0053657474696E6786
:103922002043454C4C42414C0020726567697374D8
:10393200657220746F3A2000436C656172696E672C
:103942002052656769737465722043454C4C42414D
:0E3952004C006E616E00696E66006F76660056
:00000001FF
